{
  "contracts/NftAuctionV2.sol": {
    "NftAuctionV2": {
      "abi": [
        {
          "inputs": [
            {
              "internalType": "address",
              "name": "target",
              "type": "address"
            }
          ],
          "name": "AddressEmptyCode",
          "type": "error"
        },
        {
          "inputs": [
            {
              "internalType": "address",
              "name": "implementation",
              "type": "address"
            }
          ],
          "name": "ERC1967InvalidImplementation",
          "type": "error"
        },
        {
          "inputs": [],
          "name": "ERC1967NonPayable",
          "type": "error"
        },
        {
          "inputs": [],
          "name": "FailedCall",
          "type": "error"
        },
        {
          "inputs": [],
          "name": "InvalidInitialization",
          "type": "error"
        },
        {
          "inputs": [],
          "name": "NotInitializing",
          "type": "error"
        },
        {
          "inputs": [],
          "name": "UUPSUnauthorizedCallContext",
          "type": "error"
        },
        {
          "inputs": [
            {
              "internalType": "bytes32",
              "name": "slot",
              "type": "bytes32"
            }
          ],
          "name": "UUPSUnsupportedProxiableUUID",
          "type": "error"
        },
        {
          "anonymous": false,
          "inputs": [
            {
              "indexed": true,
              "internalType": "address",
              "name": "seller",
              "type": "address"
            },
            {
              "indexed": true,
              "internalType": "uint256",
              "name": "auctionId",
              "type": "uint256"
            },
            {
              "indexed": false,
              "internalType": "uint256",
              "name": "startingPrice",
              "type": "uint256"
            },
            {
              "indexed": false,
              "internalType": "uint256",
              "name": "duration",
              "type": "uint256"
            },
            {
              "indexed": false,
              "internalType": "uint256",
              "name": "startTime",
              "type": "uint256"
            },
            {
              "indexed": false,
              "internalType": "uint256",
              "name": "endTime",
              "type": "uint256"
            },
            {
              "indexed": false,
              "internalType": "address",
              "name": "nftAddress",
              "type": "address"
            },
            {
              "indexed": false,
              "internalType": "uint256",
              "name": "tokenId",
              "type": "uint256"
            }
          ],
          "name": "AuctionCreated",
          "type": "event"
        },
        {
          "anonymous": false,
          "inputs": [
            {
              "indexed": false,
              "internalType": "uint64",
              "name": "version",
              "type": "uint64"
            }
          ],
          "name": "Initialized",
          "type": "event"
        },
        {
          "anonymous": false,
          "inputs": [
            {
              "indexed": true,
              "internalType": "uint256",
              "name": "auctionId",
              "type": "uint256"
            },
            {
              "indexed": true,
              "internalType": "address",
              "name": "bidder",
              "type": "address"
            },
            {
              "indexed": false,
              "internalType": "address",
              "name": "tokenAddress",
              "type": "address"
            },
            {
              "indexed": false,
              "internalType": "uint256",
              "name": "tokenAmount",
              "type": "uint256"
            },
            {
              "indexed": false,
              "internalType": "uint256",
              "name": "usdValue",
              "type": "uint256"
            }
          ],
          "name": "NewBid",
          "type": "event"
        },
        {
          "anonymous": false,
          "inputs": [
            {
              "indexed": true,
              "internalType": "address",
              "name": "implementation",
              "type": "address"
            }
          ],
          "name": "Upgraded",
          "type": "event"
        },
        {
          "inputs": [],
          "name": "UPGRADE_INTERFACE_VERSION",
          "outputs": [
            {
              "internalType": "string",
              "name": "",
              "type": "string"
            }
          ],
          "stateMutability": "view",
          "type": "function"
        },
        {
          "inputs": [],
          "name": "auctionCount",
          "outputs": [
            {
              "internalType": "uint256",
              "name": "",
              "type": "uint256"
            }
          ],
          "stateMutability": "view",
          "type": "function"
        },
        {
          "inputs": [
            {
              "internalType": "uint256",
              "name": "nextAuctionId",
              "type": "uint256"
            }
          ],
          "name": "auctions",
          "outputs": [
            {
              "internalType": "address payable",
              "name": "seller",
              "type": "address"
            },
            {
              "internalType": "uint256",
              "name": "startingPrice",
              "type": "uint256"
            },
            {
              "internalType": "uint256",
              "name": "duration",
              "type": "uint256"
            },
            {
              "internalType": "uint256",
              "name": "startTime",
              "type": "uint256"
            },
            {
              "internalType": "uint256",
              "name": "endTime",
              "type": "uint256"
            },
            {
              "internalType": "uint256",
              "name": "highestBid",
              "type": "uint256"
            },
            {
              "internalType": "address payable",
              "name": "highestBidder",
              "type": "address"
            },
            {
              "internalType": "bool",
              "name": "ended",
              "type": "bool"
            },
            {
              "internalType": "address",
              "name": "nftAddress",
              "type": "address"
            },
            {
              "internalType": "uint256",
              "name": "tokenId",
              "type": "uint256"
            },
            {
              "internalType": "address",
              "name": "tokenAddress",
              "type": "address"
            },
            {
              "internalType": "bool",
              "name": "isEth",
              "type": "bool"
            },
            {
              "internalType": "uint256",
              "name": "highestBidValue",
              "type": "uint256"
            },
            {
              "internalType": "uint256",
              "name": "highestBidAmount",
              "type": "uint256"
            }
          ],
          "stateMutability": "view",
          "type": "function"
        },
        {
          "inputs": [
            {
              "internalType": "address",
              "name": "_tokenAddress",
              "type": "address"
            },
            {
              "internalType": "uint256",
              "name": "_tokenAmount",
              "type": "uint256"
            }
          ],
          "name": "calculateUSDValue",
          "outputs": [
            {
              "internalType": "uint256",
              "name": "",
              "type": "uint256"
            }
          ],
          "stateMutability": "view",
          "type": "function"
        },
        {
          "inputs": [
            {
              "internalType": "uint256",
              "name": "_startingPriceUSD",
              "type": "uint256"
            },
            {
              "internalType": "uint256",
              "name": "_duration",
              "type": "uint256"
            },
            {
              "internalType": "address",
              "name": "_nftAddress",
              "type": "address"
            },
            {
              "internalType": "uint256",
              "name": "_tokenId",
              "type": "uint256"
            }
          ],
          "name": "createdAuction",
          "outputs": [],
          "stateMutability": "nonpayable",
          "type": "function"
        },
        {
          "inputs": [
            {
              "internalType": "uint256",
              "name": "_auctionId",
              "type": "uint256"
            }
          ],
          "name": "emergencyCancel",
          "outputs": [],
          "stateMutability": "nonpayable",
          "type": "function"
        },
        {
          "inputs": [
            {
              "internalType": "uint256",
              "name": "_auctionId",
              "type": "uint256"
            }
          ],
          "name": "endAuction",
          "outputs": [],
          "stateMutability": "nonpayable",
          "type": "function"
        },
        {
          "inputs": [],
          "name": "getAuctionCount",
          "outputs": [
            {
              "internalType": "uint256",
              "name": "",
              "type": "uint256"
            }
          ],
          "stateMutability": "view",
          "type": "function"
        },
        {
          "inputs": [
            {
              "internalType": "uint256",
              "name": "_auctionId",
              "type": "uint256"
            }
          ],
          "name": "getAuctionDetails",
          "outputs": [
            {
              "components": [
                {
                  "internalType": "address payable",
                  "name": "seller",
                  "type": "address"
                },
                {
                  "internalType": "uint256",
                  "name": "startingPrice",
                  "type": "uint256"
                },
                {
                  "internalType": "uint256",
                  "name": "duration",
                  "type": "uint256"
                },
                {
                  "internalType": "uint256",
                  "name": "startTime",
                  "type": "uint256"
                },
                {
                  "internalType": "uint256",
                  "name": "endTime",
                  "type": "uint256"
                },
                {
                  "internalType": "uint256",
                  "name": "highestBid",
                  "type": "uint256"
                },
                {
                  "internalType": "address payable",
                  "name": "highestBidder",
                  "type": "address"
                },
                {
                  "internalType": "bool",
                  "name": "ended",
                  "type": "bool"
                },
                {
                  "internalType": "address",
                  "name": "nftAddress",
                  "type": "address"
                },
                {
                  "internalType": "uint256",
                  "name": "tokenId",
                  "type": "uint256"
                },
                {
                  "internalType": "address",
                  "name": "tokenAddress",
                  "type": "address"
                },
                {
                  "internalType": "bool",
                  "name": "isEth",
                  "type": "bool"
                },
                {
                  "internalType": "uint256",
                  "name": "highestBidValue",
                  "type": "uint256"
                },
                {
                  "internalType": "uint256",
                  "name": "highestBidAmount",
                  "type": "uint256"
                }
              ],
              "internalType": "struct NftAuctionV2.Auction",
              "name": "",
              "type": "tuple"
            }
          ],
          "stateMutability": "view",
          "type": "function"
        },
        {
          "inputs": [
            {
              "internalType": "address",
              "name": "_tokenAddress",
              "type": "address"
            }
          ],
          "name": "getChainlinkDataFeedLatestAnswer",
          "outputs": [
            {
              "internalType": "int256",
              "name": "",
              "type": "int256"
            }
          ],
          "stateMutability": "view",
          "type": "function"
        },
        {
          "inputs": [
            {
              "internalType": "uint256",
              "name": "_auctionId",
              "type": "uint256"
            }
          ],
          "name": "getCurrentPriceUSD",
          "outputs": [
            {
              "internalType": "uint256",
              "name": "",
              "type": "uint256"
            }
          ],
          "stateMutability": "view",
          "type": "function"
        },
        {
          "inputs": [],
          "name": "initialize",
          "outputs": [],
          "stateMutability": "nonpayable",
          "type": "function"
        },
        {
          "inputs": [],
          "name": "nextAuctionId",
          "outputs": [
            {
              "internalType": "uint256",
              "name": "",
              "type": "uint256"
            }
          ],
          "stateMutability": "view",
          "type": "function"
        },
        {
          "inputs": [
            {
              "internalType": "address",
              "name": "operator",
              "type": "address"
            },
            {
              "internalType": "address",
              "name": "from",
              "type": "address"
            },
            {
              "internalType": "uint256",
              "name": "tokenId",
              "type": "uint256"
            },
            {
              "internalType": "bytes",
              "name": "data",
              "type": "bytes"
            }
          ],
          "name": "onERC721Received",
          "outputs": [
            {
              "internalType": "bytes4",
              "name": "",
              "type": "bytes4"
            }
          ],
          "stateMutability": "pure",
          "type": "function"
        },
        {
          "inputs": [
            {
              "internalType": "uint256",
              "name": "_auctionId",
              "type": "uint256"
            },
            {
              "internalType": "address",
              "name": "_tokenAddress",
              "type": "address"
            },
            {
              "internalType": "uint256",
              "name": "_amount",
              "type": "uint256"
            }
          ],
          "name": "placeBid",
          "outputs": [],
          "stateMutability": "payable",
          "type": "function"
        },
        {
          "inputs": [
            {
              "internalType": "address",
              "name": "",
              "type": "address"
            }
          ],
          "name": "priceFeeds",
          "outputs": [
            {
              "internalType": "contract AggregatorV3Interface",
              "name": "",
              "type": "address"
            }
          ],
          "stateMutability": "view",
          "type": "function"
        },
        {
          "inputs": [],
          "name": "proxiableUUID",
          "outputs": [
            {
              "internalType": "bytes32",
              "name": "",
              "type": "bytes32"
            }
          ],
          "stateMutability": "view",
          "type": "function"
        },
        {
          "inputs": [
            {
              "internalType": "address",
              "name": "_tokenAddress",
              "type": "address"
            },
            {
              "internalType": "address",
              "name": "_aggregator",
              "type": "address"
            },
            {
              "internalType": "uint8",
              "name": "_decimals",
              "type": "uint8"
            }
          ],
          "name": "setAggregator",
          "outputs": [],
          "stateMutability": "nonpayable",
          "type": "function"
        },
        {
          "inputs": [
            {
              "internalType": "address",
              "name": "_tokenAddress",
              "type": "address"
            },
            {
              "internalType": "uint8",
              "name": "_decimals",
              "type": "uint8"
            }
          ],
          "name": "setTokenDecimals",
          "outputs": [],
          "stateMutability": "nonpayable",
          "type": "function"
        },
        {
          "inputs": [
            {
              "internalType": "address",
              "name": "",
              "type": "address"
            }
          ],
          "name": "tokenDecimals",
          "outputs": [
            {
              "internalType": "uint8",
              "name": "",
              "type": "uint8"
            }
          ],
          "stateMutability": "view",
          "type": "function"
        },
        {
          "inputs": [
            {
              "internalType": "address",
              "name": "newImplementation",
              "type": "address"
            },
            {
              "internalType": "bytes",
              "name": "data",
              "type": "bytes"
            }
          ],
          "name": "upgradeToAndCall",
          "outputs": [],
          "stateMutability": "payable",
          "type": "function"
        },
        {
          "stateMutability": "payable",
          "type": "receive"
        }
      ],
      "devdoc": {
        "errors": {
          "AddressEmptyCode(address)": [
            {
              "details": "There's no code at `target` (it is not a contract)."
            }
          ],
          "ERC1967InvalidImplementation(address)": [
            {
              "details": "The `implementation` of the proxy is invalid."
            }
          ],
          "ERC1967NonPayable()": [
            {
              "details": "An upgrade function sees `msg.value > 0` that may be lost."
            }
          ],
          "FailedCall()": [
            {
              "details": "A call to an address target failed. The target may have reverted."
            }
          ],
          "InvalidInitialization()": [
            {
              "details": "The contract is already initialized."
            }
          ],
          "NotInitializing()": [
            {
              "details": "The contract is not initializing."
            }
          ],
          "UUPSUnauthorizedCallContext()": [
            {
              "details": "The call is from an unauthorized context."
            }
          ],
          "UUPSUnsupportedProxiableUUID(bytes32)": [
            {
              "details": "The storage `slot` is unsupported as a UUID."
            }
          ]
        },
        "events": {
          "Initialized(uint64)": {
            "details": "Triggered when the contract has been initialized or reinitialized."
          },
          "Upgraded(address)": {
            "details": "Emitted when the implementation is upgraded."
          }
        },
        "kind": "dev",
        "methods": {
          "onERC721Received(address,address,uint256,bytes)": {
            "details": "Whenever an {IERC721} `tokenId` token is transferred to this contract via {IERC721-safeTransferFrom} by `operator` from `from`, this function is called. It must return its Solidity selector to confirm the token transfer. If any other value is returned or the interface is not implemented by the recipient, the transfer will be reverted. The selector can be obtained in Solidity with `IERC721Receiver.onERC721Received.selector`."
          },
          "proxiableUUID()": {
            "details": "Implementation of the ERC-1822 {proxiableUUID} function. This returns the storage slot used by the implementation. It is used to validate the implementation's compatibility when performing an upgrade. IMPORTANT: A proxy pointing at a proxiable contract should not be considered proxiable itself, because this risks bricking a proxy that upgrades to it, by delegating to itself until out of gas. Thus it is critical that this function revert if invoked through a proxy. This is guaranteed by the `notDelegated` modifier."
          },
          "upgradeToAndCall(address,bytes)": {
            "custom:oz-upgrades-unsafe-allow-reachable": "delegatecall",
            "details": "Upgrade the implementation of the proxy to `newImplementation`, and subsequently execute the function call encoded in `data`. Calls {_authorizeUpgrade}. Emits an {Upgraded} event."
          }
        },
        "version": 1
      },
      "evm": {
        "bytecode": {
          "linkReferences": {},
          "object": "60a0806040523461002a5730608052611b3a90816100308239608051818181610f170152610ffd0152f35b600080fdfe608080604052600436101561001d575b50361561001b57600080fd5b005b600090813560e01c90816314f6a4ad1461126357508063150b7a02146111f85780632ad715731461082f5780634f1ef28614610f8157806352d1902d14610f04578063571a26a014610e2f5780635cdcd8bb14610d895780637d9f9dc714610d5d5780638129fc1c14610c225780638ee573ac14610be55780639dcb511a14610ba9578063ac4ffcdf14610b81578063ad3cb1cc14610adb578063b9a2de3a1461084d578063c44e66401461082f578063dd75cd9b146106ba578063e7078f921461068e578063f1e2f348146103ea578063f20e5e35146101f8578063f2b33cc11461012d5763fc5284820361000f573461012a578060031936011261012a576020600154604051908152f35b80fd5b503461012a57606036600319011261012a576101476115da565b61014f6115f0565b6044359160ff83168093036101f3576003546001600160a01b039190821633036101ae578116845260046020526040842091166bffffffffffffffffffffffff60a01b8254161790556005602052604082209060ff1982541617905580f35b60405162461bcd60e51b815260206004820152601d60248201527f4f6e6c792061646d696e2063616e207365742061676772656761746f720000006044820152606490fd5b600080fd5b503461012a57602036600319011261012a576040816101c0926101a0835161021f8161161a565b82815282602082015282858201528260608201528260808201528260a08201528260c08201528260e082015282610100820152826101208201528261014082015282610160820152826101808201520152600435815280602052206101a06040516102898161161a565b600b60018060a01b038454169384835260018101546020840152600281015460408401526003810154606084015260048101546080840152600581015460a084015260ff600682015460018060a01b03811660c086015260a01c16151560e084015260018060a01b03600782015416610100840152600881015461012084015260ff600982015460018060a01b03811661014086015260a01c161515610160840152600a8101546101808401520154828201526040519283526020810151602084015260408101516040840152606081015160608401526080810151608084015260a081015160a084015260018060a01b0360c08201511660c084015260e0810151151560e084015260018060a01b036101008201511661010084015261012081015161012084015260018060a01b0361014082015116610140840152610160810151151561016084015261018081015161018084015201516101a0820152f35b50606036600319011261012a576004356104026115f0565b906044358184526020928484526040852093600685019261042a60ff855460a01c1615611929565b60038601544210610649576104456004870154421115611929565b6001600160a01b038381169690948715929091908315610577575061046b3480966116cb565b95600a820190815488111561051e578392888b936009936104d998975416610510575b55600b810188905583546001600160a01b0319163317909355909101805460ff60a01b199092166001600160a81b03199092169190911791151560a01b60ff60a01b16919091179055565b60405194855284015260408301527f1333d04c209455388393f41ecaa1d0da218799e9c029c23e61611518a81920ae60603393a380f35b610519836119b1565b61048e565b60405162461bcd60e51b815260048101879052602b60248201527f426964206d75737420626520686967686572207468616e2063757272656e742060448201526a1a1a59da195cdd08189a5960aa1b6064820152608490fd5b948580156105fa576040516323b872dd60e01b815233600482015230602482015260448101919091529085826064818e8e5af19081156105ef5761046b9288926105c2575b506116cb565b6105e190883d8a116105e8575b6105d98183611637565b810190611969565b50386105bc565b503d6105cf565b6040513d8d823e3d90fd5b60405162461bcd60e51b815260048101879052602160248201527f42696420616d6f756e74206d7573742062652067726561746572207468616e206044820152600360fc1b6064820152608490fd5b60405162461bcd60e51b815260048101839052601b60248201527f41756374696f6e20686173206e6f7420737461727465642079657400000000006044820152606490fd5b503461012a57602036600319011261012a5760206106b26106ad6115da565b61183f565b604051908152f35b503461012a57602036600319011261012a576003546001600160a01b0390811633036107ea5760043582528160205260408220600681019182549160ff8360a01c166107ad578185931661079f575b60088260078301541692825416910154823b1561079b57604051632142170760e11b81523060048201526001600160a01b0392909216602483015260448201529082908290606490829084905af1801561079057610778575b5050805460ff60a01b1916600160a01b17905580f35b61078190611606565b61078c578138610762565b5080fd5b6040513d84823e3d90fd5b8380fd5b6107a8816119b1565b610709565b60405162461bcd60e51b8152602060048201526015602482015274105d58dd1a5bdb88185b1c9958591e48195b991959605a1b6044820152606490fd5b60405162461bcd60e51b815260206004820152601d60248201527f4f6e6c792061646d696e2063616e2063616e63656c2061756374696f6e0000006044820152606490fd5b503461012a578060031936011261012a576020600254604051908152f35b503461012a5760208060031936011261078c57600435825281815260408220906006820191825460ff8160a01c16610a965760048201544210610a51576001600160a01b039081168015610a1b579082918160078895015416906008840154823b15610a1757604051632142170760e11b81523060048201526001600160a01b0392909216602483015260448201529084908290606490829084905af19081156109f45784916109ff575b505083600983015460ff8160a01c166000146109895750508282600b82949383945416910154905af1610929611981565b501561094557505b805460ff60a01b1916600160a01b17905580f35b6064906040519062461bcd60e51b82526004820152601c60248201527f4661696c656420746f2073656e642045544820746f2073656c6c6572000000006044820152fd5b8354600b9094015460405163a9059cbb60e01b81529484166001600160a01b03166004860152602485015292939092849260449284929091165af180156109f4576109d6575b5050610931565b816109ec92903d106105e8576105d98183611637565b5038806109cf565b6040513d86823e3d90fd5b610a0890611606565b610a135782386108f8565b8280fd5b8580fd5b60405162461bcd60e51b815260048101859052600e60248201526d139bc8189a591cc81c1b1858d95960921b6044820152606490fd5b60405162461bcd60e51b815260048101849052601960248201527f41756374696f6e20686173206e6f7420656e64656420796574000000000000006044820152606490fd5b60405162461bcd60e51b815260048101849052601960248201527f41756374696f6e2068617320616c726561647920656e646564000000000000006044820152606490fd5b503461012a578060031936011261012a576040516040810181811067ffffffffffffffff821117610b6b5760405260058152602091640352e302e360dc1b602083015260405192839160208352835191826020850152815b838110610b5457505060408094508284010152601f80199101168101030190f35b808601820151878201604001528694508101610b33565b634e487b7160e01b600052604160045260246000fd5b503461012a57604036600319011261012a5760206106b2610ba06115da565b602435906116cb565b503461012a57602036600319011261012a576020906001600160a01b039060409082610bd36115da565b16815260048452205416604051908152f35b503461012a57602036600319011261012a5760209060ff906040906001600160a01b03610c106115da565b16815260058452205416604051908152f35b503461012a578060031936011261012a577ff0c57e16840df040f15088dc2f81fe391c3923bec73e23a9662efc9c229c6a00805460ff8160401c16159067ffffffffffffffff811680159081610d55575b6001149081610d4b575b159081610d42575b50610d305767ffffffffffffffff198116600117835581610d11575b50600380546001600160a01b03191633179055828052600560205260408320805460ff19166012179055610cd3575080f35b68ff00000000000000001981541690557fc7f505b2f371ae2175ee4913f4499e1f2633a7b5936321eed1cdaeb6115181d2602060405160018152a180f35b68ffffffffffffffffff19166801000000000000000117825538610ca1565b60405163f92ee8a960e01b8152600490fd5b90501538610c85565b303b159150610c7d565b839150610c73565b503461012a57602036600319011261012a57600a60406020926004358152808452200154604051908152f35b503461012a57604036600319011261012a57610da36115da565b6024359060ff82168092036101f3576003546001600160a01b03919082163303610de0571682526005602052604082209060ff1982541617905580f35b60405162461bcd60e51b815260206004820152602160248201527f4f6e6c792061646d696e2063616e2073657420746f6b656e20646563696d616c6044820152607360f81b6064820152608490fd5b503461012a57602036600319011261012a5760043581528060205260409020600160a01b6001900380825416916001810154916002820154906003830154600484015460058501546006860154908460078801541692600888015494600989015497600a8a015499600b01549a6040519c8d5260208d015260408c015260608b015260808a015260a089015283811660c089015260a01c60ff16151560e0880152610100870152610120860152811661014085015260a01c60ff1615156101608401526101808301526101a08201526101c090f35b503461012a578060031936011261012a577f00000000000000000000000000000000000000000000000000000000000000006001600160a01b03163003610f6f5760206040517f360894a13ba1a3210667c828492db98dca3e2076cc3735a920a3ca505d382bbc8152f35b60405163703e46dd60e11b8152600490fd5b50604036600319011261012a57610f966115da565b602491823567ffffffffffffffff811161078c573660238201121561078c57806004013592610fc484611659565b610fd16040519182611637565b8481526020948582019336888383010111610a1757818692898993018737830101526001600160a01b037f000000000000000000000000000000000000000000000000000000000000000081163081149081156111ca575b50610f6f5780600354163303611186576040516352d1902d60e01b81529083169580826004818a5afa9182918793611156575b505061107a57604051634c9c8ce360e01b8152600481018790528790fd5b8590877f360894a13ba1a3210667c828492db98dca3e2076cc3735a920a3ca505d382bbc918281036111415750843b1561112b575080546001600160a01b031916821790556040518592917fbc7cd75a20ee27fd9adebab32041f755214dbc6bffa90cc0225b39da2e5c2d3b8480a281511561110e575061110a9382915190845af4611104611981565b91611aa1565b5080f35b93505050503461111c575080f35b63b398979f60e01b8152600490fd5b604051634c9c8ce360e01b815260048101849052fd5b60405190632a87526960e21b82526004820152fd5b9080929350813d831161117f575b61116e8183611637565b81010312610a17575190388061105c565b503d611164565b60405162461bcd60e51b815260048101879052601f818901527f4f6e6c792061646d696e2063616e207570677261646520636f6e7472616374006044820152606490fd5b9050817f360894a13ba1a3210667c828492db98dca3e2076cc3735a920a3ca505d382bbc5416141538611029565b503461012a57608036600319011261012a576112126115da565b5061121b6115f0565b5060643567ffffffffffffffff808211610a135736602383011215610a13578160040135908111610a13573691016024011161012a57604051630a85bd0160e11b8152602090f35b823461012a57608036600319011261012a57602435916044356001600160a01b03811690819003610a135760035460643592906001600160a01b0316330361159857506004351561154557801561150057803b15610a1357604051632142170760e11b815233600482015230602482015260448101839052838160648183865af180156109f4576114ed575b50836112ff6114e7949542611675565b6040519061130c8261161a565b338252600435602083015282604083015242606083015260808201528560a08201528560c08201528560e082015282610100820152836101208201528561014082015285610160820152600435610180820152856101a0820152600154865285602052600b6101a0604088209261146b60018060a01b038251166bffffffffffffffffffffffff60a01b90818754161786556020830151600187015560408301516002870155606083015160038701556080830151600487015560a0830151600587015561140e6006870160018060a01b0360c0860151168382541617815560e0850151151581549060ff60a01b90151560a01b169060ff60a01b1916179055565b61010083015160078701805483166001600160a01b03928316179055610120840151600888015561014084015160098801805461016087015160ff60a01b199190951616919092161791151560a01b60ff60a01b16919091179055565b610180810151600a850155015191015560015492839261148b8342611675565b60405193600435855260208501524260408501526060840152608083015260a08201527f7170fe9a759bed09d16ee193b3d97e8388dd2d50959c8cfde8e548b62f4bbd6f60c03392a36114df600254611698565b600255611698565b60015580f35b926114fa6114e794611606565b926112ef565b60405162461bcd60e51b815260206004820152601960248201527f4e46542061646472657373206d7573742062652076616c6964000000000000006044820152606490fd5b60405162461bcd60e51b815260206004820152602560248201527f5374617274696e67207072696365206d75737420626520677265617465722074604482015264068616e20360dc1b6064820152608490fd5b62461bcd60e51b815260206004820152601d60248201527f4f6e6c792061646d696e2063616e206372656174652061756374696f6e0000006044820152606490fd5b600435906001600160a01b03821682036101f357565b602435906001600160a01b03821682036101f357565b67ffffffffffffffff8111610b6b57604052565b6101c0810190811067ffffffffffffffff821117610b6b57604052565b90601f8019910116810190811067ffffffffffffffff821117610b6b57604052565b67ffffffffffffffff8111610b6b57601f01601f191660200190565b9190820180921161168257565b634e487b7160e01b600052601160045260246000fd5b60001981146116825760010190565b60ff16604d811161168257600a0a90565b8181029291811591840414171561168257565b6001600160a01b03811660009081526005602052604081205460ff169182156117ea576116f79061183f565b91818313156117b5576012811161174e576012039060ff821161173a5750916117316117369261172b6305f5e100956116a7565b926116b8565b6116b8565b0490565b634e487b7160e01b81526011600452602490fd5b9091906011190160ff81116117a1579061176a611770926116a7565b936116b8565b906305f5e100928084029384040361173a57821561178d57500490565b634e487b7160e01b81526012600452602490fd5b634e487b7160e01b83526011600452602483fd5b60405162461bcd60e51b815260206004820152600d60248201526c496e76616c696420707269636560981b6044820152606490fd5b60405162461bcd60e51b8152602060048201526016602482015275151bdad95b88191958da5b585b1cc81b9bdd081cd95d60521b6044820152606490fd5b519069ffffffffffffffffffff821682036101f357565b6001600160a01b0390811660009081526004602052604081205490911680156118e45760a060049160405192838092633fabe5a360e21b82525afa9182156118d857809261188c57505090565b90915060a0823d60a0116118d0575b816118a860a09383611637565b8101031261012a57506118ba81611828565b506118cc608060208301519201611828565b5090565b3d915061189b565b604051903d90823e3d90fd5b60405162461bcd60e51b815260206004820152601c60248201527f50726963652066656564206e6f742073657420666f7220746f6b656e000000006044820152606490fd5b1561193057565b60405162461bcd60e51b8152602060048201526011602482015270105d58dd1a5bdb881a185cc8195b991959607a1b6044820152606490fd5b908160209103126101f3575180151581036101f35790565b3d156119ac573d9061199282611659565b916119a06040519384611637565b82523d6000602084013e565b606090565b600981015460ff8160a01c16600014611a2c5750600080808093600b60018060a01b03600683015416910154905af16119e8611981565b50156119f057565b60405162461bcd60e51b815260206004820152601460248201527308cc2d2d8cac840e8de40e4cacceadcc8408aa8960631b6044820152606490fd5b6006820154600b9092015460405163a9059cbb60e01b81526001600160a01b03938416600482015260248101919091529160209183916044918391600091165af18015611a9557611a7a5750565b611a929060203d6020116105e8576105d98183611637565b50565b6040513d6000823e3d90fd5b90611ac85750805115611ab657602081519101fd5b60405163d6bda27560e01b8152600490fd5b81511580611afb575b611ad9575090565b604051639996b31560e01b81526001600160a01b039091166004820152602490fd5b50803b15611ad156fea26469706673582212200823aedd8da362d39a183c908f6bdc6043fd42a3b1775a2c070f1dc27e057dab64736f6c63430008180033",
          "opcodes": "PUSH1 0xA0 DUP1 PUSH1 0x40 MSTORE CALLVALUE PUSH2 0x2A JUMPI ADDRESS PUSH1 0x80 MSTORE PUSH2 0x1B3A SWAP1 DUP2 PUSH2 0x30 DUP3 CODECOPY PUSH1 0x80 MLOAD DUP2 DUP2 DUP2 PUSH2 0xF17 ADD MSTORE PUSH2 0xFFD ADD MSTORE RETURN JUMPDEST PUSH1 0x0 DUP1 REVERT INVALID PUSH1 0x80 DUP1 PUSH1 0x40 MSTORE PUSH1 0x4 CALLDATASIZE LT ISZERO PUSH2 0x1D JUMPI JUMPDEST POP CALLDATASIZE ISZERO PUSH2 0x1B JUMPI PUSH1 0x0 DUP1 REVERT JUMPDEST STOP JUMPDEST PUSH1 0x0 SWAP1 DUP2 CALLDATALOAD PUSH1 0xE0 SHR SWAP1 DUP2 PUSH4 0x14F6A4AD EQ PUSH2 0x1263 JUMPI POP DUP1 PUSH4 0x150B7A02 EQ PUSH2 0x11F8 JUMPI DUP1 PUSH4 0x2AD71573 EQ PUSH2 0x82F JUMPI DUP1 PUSH4 0x4F1EF286 EQ PUSH2 0xF81 JUMPI DUP1 PUSH4 0x52D1902D EQ PUSH2 0xF04 JUMPI DUP1 PUSH4 0x571A26A0 EQ PUSH2 0xE2F JUMPI DUP1 PUSH4 0x5CDCD8BB EQ PUSH2 0xD89 JUMPI DUP1 PUSH4 0x7D9F9DC7 EQ PUSH2 0xD5D JUMPI DUP1 PUSH4 0x8129FC1C EQ PUSH2 0xC22 JUMPI DUP1 PUSH4 0x8EE573AC EQ PUSH2 0xBE5 JUMPI DUP1 PUSH4 0x9DCB511A EQ PUSH2 0xBA9 JUMPI DUP1 PUSH4 0xAC4FFCDF EQ PUSH2 0xB81 JUMPI DUP1 PUSH4 0xAD3CB1CC EQ PUSH2 0xADB JUMPI DUP1 PUSH4 0xB9A2DE3A EQ PUSH2 0x84D JUMPI DUP1 PUSH4 0xC44E6640 EQ PUSH2 0x82F JUMPI DUP1 PUSH4 0xDD75CD9B EQ PUSH2 0x6BA JUMPI DUP1 PUSH4 0xE7078F92 EQ PUSH2 0x68E JUMPI DUP1 PUSH4 0xF1E2F348 EQ PUSH2 0x3EA JUMPI DUP1 PUSH4 0xF20E5E35 EQ PUSH2 0x1F8 JUMPI DUP1 PUSH4 0xF2B33CC1 EQ PUSH2 0x12D JUMPI PUSH4 0xFC528482 SUB PUSH2 0xF JUMPI CALLVALUE PUSH2 0x12A JUMPI DUP1 PUSH1 0x3 NOT CALLDATASIZE ADD SLT PUSH2 0x12A JUMPI PUSH1 0x20 PUSH1 0x1 SLOAD PUSH1 0x40 MLOAD SWAP1 DUP2 MSTORE RETURN JUMPDEST DUP1 REVERT JUMPDEST POP CALLVALUE PUSH2 0x12A JUMPI PUSH1 0x60 CALLDATASIZE PUSH1 0x3 NOT ADD SLT PUSH2 0x12A JUMPI PUSH2 0x147 PUSH2 0x15DA JUMP JUMPDEST PUSH2 0x14F PUSH2 0x15F0 JUMP JUMPDEST PUSH1 0x44 CALLDATALOAD SWAP2 PUSH1 0xFF DUP4 AND DUP1 SWAP4 SUB PUSH2 0x1F3 JUMPI PUSH1 0x3 SLOAD PUSH1 0x1 PUSH1 0x1 PUSH1 0xA0 SHL SUB SWAP2 SWAP1 DUP3 AND CALLER SUB PUSH2 0x1AE JUMPI DUP2 AND DUP5 MSTORE PUSH1 0x4 PUSH1 0x20 MSTORE PUSH1 0x40 DUP5 KECCAK256 SWAP2 AND PUSH12 0xFFFFFFFFFFFFFFFFFFFFFFFF PUSH1 0xA0 SHL DUP3 SLOAD AND OR SWAP1 SSTORE PUSH1 0x5 PUSH1 0x20 MSTORE PUSH1 0x40 DUP3 KECCAK256 SWAP1 PUSH1 0xFF NOT DUP3 SLOAD AND OR SWAP1 SSTORE DUP1 RETURN JUMPDEST PUSH1 0x40 MLOAD PUSH3 0x461BCD PUSH1 0xE5 SHL DUP2 MSTORE PUSH1 0x20 PUSH1 0x4 DUP3 ADD MSTORE PUSH1 0x1D PUSH1 0x24 DUP3 ADD MSTORE PUSH32 0x4F6E6C792061646D696E2063616E207365742061676772656761746F72000000 PUSH1 0x44 DUP3 ADD MSTORE PUSH1 0x64 SWAP1 REVERT JUMPDEST PUSH1 0x0 DUP1 REVERT JUMPDEST POP CALLVALUE PUSH2 0x12A JUMPI PUSH1 0x20 CALLDATASIZE PUSH1 0x3 NOT ADD SLT PUSH2 0x12A JUMPI PUSH1 0x40 DUP2 PUSH2 0x1C0 SWAP3 PUSH2 0x1A0 DUP4 MLOAD PUSH2 0x21F DUP2 PUSH2 0x161A JUMP JUMPDEST DUP3 DUP2 MSTORE DUP3 PUSH1 0x20 DUP3 ADD MSTORE DUP3 DUP6 DUP3 ADD MSTORE DUP3 PUSH1 0x60 DUP3 ADD MSTORE DUP3 PUSH1 0x80 DUP3 ADD MSTORE DUP3 PUSH1 0xA0 DUP3 ADD MSTORE DUP3 PUSH1 0xC0 DUP3 ADD MSTORE DUP3 PUSH1 0xE0 DUP3 ADD MSTORE DUP3 PUSH2 0x100 DUP3 ADD MSTORE DUP3 PUSH2 0x120 DUP3 ADD MSTORE DUP3 PUSH2 0x140 DUP3 ADD MSTORE DUP3 PUSH2 0x160 DUP3 ADD MSTORE DUP3 PUSH2 0x180 DUP3 ADD MSTORE ADD MSTORE PUSH1 0x4 CALLDATALOAD DUP2 MSTORE DUP1 PUSH1 0x20 MSTORE KECCAK256 PUSH2 0x1A0 PUSH1 0x40 MLOAD PUSH2 0x289 DUP2 PUSH2 0x161A JUMP JUMPDEST PUSH1 0xB PUSH1 0x1 DUP1 PUSH1 0xA0 SHL SUB DUP5 SLOAD AND SWAP4 DUP5 DUP4 MSTORE PUSH1 0x1 DUP2 ADD SLOAD PUSH1 0x20 DUP5 ADD MSTORE PUSH1 0x2 DUP2 ADD SLOAD PUSH1 0x40 DUP5 ADD MSTORE PUSH1 0x3 DUP2 ADD SLOAD PUSH1 0x60 DUP5 ADD MSTORE PUSH1 0x4 DUP2 ADD SLOAD PUSH1 0x80 DUP5 ADD MSTORE PUSH1 0x5 DUP2 ADD SLOAD PUSH1 0xA0 DUP5 ADD MSTORE PUSH1 0xFF PUSH1 0x6 DUP3 ADD SLOAD PUSH1 0x1 DUP1 PUSH1 0xA0 SHL SUB DUP2 AND PUSH1 0xC0 DUP7 ADD MSTORE PUSH1 0xA0 SHR AND ISZERO ISZERO PUSH1 0xE0 DUP5 ADD MSTORE PUSH1 0x1 DUP1 PUSH1 0xA0 SHL SUB PUSH1 0x7 DUP3 ADD SLOAD AND PUSH2 0x100 DUP5 ADD MSTORE PUSH1 0x8 DUP2 ADD SLOAD PUSH2 0x120 DUP5 ADD MSTORE PUSH1 0xFF PUSH1 0x9 DUP3 ADD SLOAD PUSH1 0x1 DUP1 PUSH1 0xA0 SHL SUB DUP2 AND PUSH2 0x140 DUP7 ADD MSTORE PUSH1 0xA0 SHR AND ISZERO ISZERO PUSH2 0x160 DUP5 ADD MSTORE PUSH1 0xA DUP2 ADD SLOAD PUSH2 0x180 DUP5 ADD MSTORE ADD SLOAD DUP3 DUP3 ADD MSTORE PUSH1 0x40 MLOAD SWAP3 DUP4 MSTORE PUSH1 0x20 DUP2 ADD MLOAD PUSH1 0x20 DUP5 ADD MSTORE PUSH1 0x40 DUP2 ADD MLOAD PUSH1 0x40 DUP5 ADD MSTORE PUSH1 0x60 DUP2 ADD MLOAD PUSH1 0x60 DUP5 ADD MSTORE PUSH1 0x80 DUP2 ADD MLOAD PUSH1 0x80 DUP5 ADD MSTORE PUSH1 0xA0 DUP2 ADD MLOAD PUSH1 0xA0 DUP5 ADD MSTORE PUSH1 0x1 DUP1 PUSH1 0xA0 SHL SUB PUSH1 0xC0 DUP3 ADD MLOAD AND PUSH1 0xC0 DUP5 ADD MSTORE PUSH1 0xE0 DUP2 ADD MLOAD ISZERO ISZERO PUSH1 0xE0 DUP5 ADD MSTORE PUSH1 0x1 DUP1 PUSH1 0xA0 SHL SUB PUSH2 0x100 DUP3 ADD MLOAD AND PUSH2 0x100 DUP5 ADD MSTORE PUSH2 0x120 DUP2 ADD MLOAD PUSH2 0x120 DUP5 ADD MSTORE PUSH1 0x1 DUP1 PUSH1 0xA0 SHL SUB PUSH2 0x140 DUP3 ADD MLOAD AND PUSH2 0x140 DUP5 ADD MSTORE PUSH2 0x160 DUP2 ADD MLOAD ISZERO ISZERO PUSH2 0x160 DUP5 ADD MSTORE PUSH2 0x180 DUP2 ADD MLOAD PUSH2 0x180 DUP5 ADD MSTORE ADD MLOAD PUSH2 0x1A0 DUP3 ADD MSTORE RETURN JUMPDEST POP PUSH1 0x60 CALLDATASIZE PUSH1 0x3 NOT ADD SLT PUSH2 0x12A JUMPI PUSH1 0x4 CALLDATALOAD PUSH2 0x402 PUSH2 0x15F0 JUMP JUMPDEST SWAP1 PUSH1 0x44 CALLDATALOAD DUP2 DUP5 MSTORE PUSH1 0x20 SWAP3 DUP5 DUP5 MSTORE PUSH1 0x40 DUP6 KECCAK256 SWAP4 PUSH1 0x6 DUP6 ADD SWAP3 PUSH2 0x42A PUSH1 0xFF DUP6 SLOAD PUSH1 0xA0 SHR AND ISZERO PUSH2 0x1929 JUMP JUMPDEST PUSH1 0x3 DUP7 ADD SLOAD TIMESTAMP LT PUSH2 0x649 JUMPI PUSH2 0x445 PUSH1 0x4 DUP8 ADD SLOAD TIMESTAMP GT ISZERO PUSH2 0x1929 JUMP JUMPDEST PUSH1 0x1 PUSH1 0x1 PUSH1 0xA0 SHL SUB DUP4 DUP2 AND SWAP7 SWAP1 SWAP5 DUP8 ISZERO SWAP3 SWAP1 SWAP2 SWAP1 DUP4 ISZERO PUSH2 0x577 JUMPI POP PUSH2 0x46B CALLVALUE DUP1 SWAP7 PUSH2 0x16CB JUMP JUMPDEST SWAP6 PUSH1 0xA DUP3 ADD SWAP1 DUP2 SLOAD DUP9 GT ISZERO PUSH2 0x51E JUMPI DUP4 SWAP3 DUP9 DUP12 SWAP4 PUSH1 0x9 SWAP4 PUSH2 0x4D9 SWAP9 SWAP8 SLOAD AND PUSH2 0x510 JUMPI JUMPDEST SSTORE PUSH1 0xB DUP2 ADD DUP9 SWAP1 SSTORE DUP4 SLOAD PUSH1 0x1 PUSH1 0x1 PUSH1 0xA0 SHL SUB NOT AND CALLER OR SWAP1 SWAP4 SSTORE SWAP1 SWAP2 ADD DUP1 SLOAD PUSH1 0xFF PUSH1 0xA0 SHL NOT SWAP1 SWAP3 AND PUSH1 0x1 PUSH1 0x1 PUSH1 0xA8 SHL SUB NOT SWAP1 SWAP3 AND SWAP2 SWAP1 SWAP2 OR SWAP2 ISZERO ISZERO PUSH1 0xA0 SHL PUSH1 0xFF PUSH1 0xA0 SHL AND SWAP2 SWAP1 SWAP2 OR SWAP1 SSTORE JUMP JUMPDEST PUSH1 0x40 MLOAD SWAP5 DUP6 MSTORE DUP5 ADD MSTORE PUSH1 0x40 DUP4 ADD MSTORE PUSH32 0x1333D04C209455388393F41ECAA1D0DA218799E9C029C23E61611518A81920AE PUSH1 0x60 CALLER SWAP4 LOG3 DUP1 RETURN JUMPDEST PUSH2 0x519 DUP4 PUSH2 0x19B1 JUMP JUMPDEST PUSH2 0x48E JUMP JUMPDEST PUSH1 0x40 MLOAD PUSH3 0x461BCD PUSH1 0xE5 SHL DUP2 MSTORE PUSH1 0x4 DUP2 ADD DUP8 SWAP1 MSTORE PUSH1 0x2B PUSH1 0x24 DUP3 ADD MSTORE PUSH32 0x426964206D75737420626520686967686572207468616E2063757272656E7420 PUSH1 0x44 DUP3 ADD MSTORE PUSH11 0x1A1A59DA195CDD08189A59 PUSH1 0xAA SHL PUSH1 0x64 DUP3 ADD MSTORE PUSH1 0x84 SWAP1 REVERT JUMPDEST SWAP5 DUP6 DUP1 ISZERO PUSH2 0x5FA JUMPI PUSH1 0x40 MLOAD PUSH4 0x23B872DD PUSH1 0xE0 SHL DUP2 MSTORE CALLER PUSH1 0x4 DUP3 ADD MSTORE ADDRESS PUSH1 0x24 DUP3 ADD MSTORE PUSH1 0x44 DUP2 ADD SWAP2 SWAP1 SWAP2 MSTORE SWAP1 DUP6 DUP3 PUSH1 0x64 DUP2 DUP15 DUP15 GAS CALL SWAP1 DUP2 ISZERO PUSH2 0x5EF JUMPI PUSH2 0x46B SWAP3 DUP9 SWAP3 PUSH2 0x5C2 JUMPI JUMPDEST POP PUSH2 0x16CB JUMP JUMPDEST PUSH2 0x5E1 SWAP1 DUP9 RETURNDATASIZE DUP11 GT PUSH2 0x5E8 JUMPI JUMPDEST PUSH2 0x5D9 DUP2 DUP4 PUSH2 0x1637 JUMP JUMPDEST DUP2 ADD SWAP1 PUSH2 0x1969 JUMP JUMPDEST POP CODESIZE PUSH2 0x5BC JUMP JUMPDEST POP RETURNDATASIZE PUSH2 0x5CF JUMP JUMPDEST PUSH1 0x40 MLOAD RETURNDATASIZE DUP14 DUP3 RETURNDATACOPY RETURNDATASIZE SWAP1 REVERT JUMPDEST PUSH1 0x40 MLOAD PUSH3 0x461BCD PUSH1 0xE5 SHL DUP2 MSTORE PUSH1 0x4 DUP2 ADD DUP8 SWAP1 MSTORE PUSH1 0x21 PUSH1 0x24 DUP3 ADD MSTORE PUSH32 0x42696420616D6F756E74206D7573742062652067726561746572207468616E20 PUSH1 0x44 DUP3 ADD MSTORE PUSH1 0x3 PUSH1 0xFC SHL PUSH1 0x64 DUP3 ADD MSTORE PUSH1 0x84 SWAP1 REVERT JUMPDEST PUSH1 0x40 MLOAD PUSH3 0x461BCD PUSH1 0xE5 SHL DUP2 MSTORE PUSH1 0x4 DUP2 ADD DUP4 SWAP1 MSTORE PUSH1 0x1B PUSH1 0x24 DUP3 ADD MSTORE PUSH32 0x41756374696F6E20686173206E6F742073746172746564207965740000000000 PUSH1 0x44 DUP3 ADD MSTORE PUSH1 0x64 SWAP1 REVERT JUMPDEST POP CALLVALUE PUSH2 0x12A JUMPI PUSH1 0x20 CALLDATASIZE PUSH1 0x3 NOT ADD SLT PUSH2 0x12A JUMPI PUSH1 0x20 PUSH2 0x6B2 PUSH2 0x6AD PUSH2 0x15DA JUMP JUMPDEST PUSH2 0x183F JUMP JUMPDEST PUSH1 0x40 MLOAD SWAP1 DUP2 MSTORE RETURN JUMPDEST POP CALLVALUE PUSH2 0x12A JUMPI PUSH1 0x20 CALLDATASIZE PUSH1 0x3 NOT ADD SLT PUSH2 0x12A JUMPI PUSH1 0x3 SLOAD PUSH1 0x1 PUSH1 0x1 PUSH1 0xA0 SHL SUB SWAP1 DUP2 AND CALLER SUB PUSH2 0x7EA JUMPI PUSH1 0x4 CALLDATALOAD DUP3 MSTORE DUP2 PUSH1 0x20 MSTORE PUSH1 0x40 DUP3 KECCAK256 PUSH1 0x6 DUP2 ADD SWAP2 DUP3 SLOAD SWAP2 PUSH1 0xFF DUP4 PUSH1 0xA0 SHR AND PUSH2 0x7AD JUMPI DUP2 DUP6 SWAP4 AND PUSH2 0x79F JUMPI JUMPDEST PUSH1 0x8 DUP3 PUSH1 0x7 DUP4 ADD SLOAD AND SWAP3 DUP3 SLOAD AND SWAP2 ADD SLOAD DUP3 EXTCODESIZE ISZERO PUSH2 0x79B JUMPI PUSH1 0x40 MLOAD PUSH4 0x21421707 PUSH1 0xE1 SHL DUP2 MSTORE ADDRESS PUSH1 0x4 DUP3 ADD MSTORE PUSH1 0x1 PUSH1 0x1 PUSH1 0xA0 SHL SUB SWAP3 SWAP1 SWAP3 AND PUSH1 0x24 DUP4 ADD MSTORE PUSH1 0x44 DUP3 ADD MSTORE SWAP1 DUP3 SWAP1 DUP3 SWAP1 PUSH1 0x64 SWAP1 DUP3 SWAP1 DUP5 SWAP1 GAS CALL DUP1 ISZERO PUSH2 0x790 JUMPI PUSH2 0x778 JUMPI JUMPDEST POP POP DUP1 SLOAD PUSH1 0xFF PUSH1 0xA0 SHL NOT AND PUSH1 0x1 PUSH1 0xA0 SHL OR SWAP1 SSTORE DUP1 RETURN JUMPDEST PUSH2 0x781 SWAP1 PUSH2 0x1606 JUMP JUMPDEST PUSH2 0x78C JUMPI DUP2 CODESIZE PUSH2 0x762 JUMP JUMPDEST POP DUP1 REVERT JUMPDEST PUSH1 0x40 MLOAD RETURNDATASIZE DUP5 DUP3 RETURNDATACOPY RETURNDATASIZE SWAP1 REVERT JUMPDEST DUP4 DUP1 REVERT JUMPDEST PUSH2 0x7A8 DUP2 PUSH2 0x19B1 JUMP JUMPDEST PUSH2 0x709 JUMP JUMPDEST PUSH1 0x40 MLOAD PUSH3 0x461BCD PUSH1 0xE5 SHL DUP2 MSTORE PUSH1 0x20 PUSH1 0x4 DUP3 ADD MSTORE PUSH1 0x15 PUSH1 0x24 DUP3 ADD MSTORE PUSH21 0x105D58DD1A5BDB88185B1C9958591E48195B991959 PUSH1 0x5A SHL PUSH1 0x44 DUP3 ADD MSTORE PUSH1 0x64 SWAP1 REVERT JUMPDEST PUSH1 0x40 MLOAD PUSH3 0x461BCD PUSH1 0xE5 SHL DUP2 MSTORE PUSH1 0x20 PUSH1 0x4 DUP3 ADD MSTORE PUSH1 0x1D PUSH1 0x24 DUP3 ADD MSTORE PUSH32 0x4F6E6C792061646D696E2063616E2063616E63656C2061756374696F6E000000 PUSH1 0x44 DUP3 ADD MSTORE PUSH1 0x64 SWAP1 REVERT JUMPDEST POP CALLVALUE PUSH2 0x12A JUMPI DUP1 PUSH1 0x3 NOT CALLDATASIZE ADD SLT PUSH2 0x12A JUMPI PUSH1 0x20 PUSH1 0x2 SLOAD PUSH1 0x40 MLOAD SWAP1 DUP2 MSTORE RETURN JUMPDEST POP CALLVALUE PUSH2 0x12A JUMPI PUSH1 0x20 DUP1 PUSH1 0x3 NOT CALLDATASIZE ADD SLT PUSH2 0x78C JUMPI PUSH1 0x4 CALLDATALOAD DUP3 MSTORE DUP2 DUP2 MSTORE PUSH1 0x40 DUP3 KECCAK256 SWAP1 PUSH1 0x6 DUP3 ADD SWAP2 DUP3 SLOAD PUSH1 0xFF DUP2 PUSH1 0xA0 SHR AND PUSH2 0xA96 JUMPI PUSH1 0x4 DUP3 ADD SLOAD TIMESTAMP LT PUSH2 0xA51 JUMPI PUSH1 0x1 PUSH1 0x1 PUSH1 0xA0 SHL SUB SWAP1 DUP2 AND DUP1 ISZERO PUSH2 0xA1B JUMPI SWAP1 DUP3 SWAP2 DUP2 PUSH1 0x7 DUP9 SWAP6 ADD SLOAD AND SWAP1 PUSH1 0x8 DUP5 ADD SLOAD DUP3 EXTCODESIZE ISZERO PUSH2 0xA17 JUMPI PUSH1 0x40 MLOAD PUSH4 0x21421707 PUSH1 0xE1 SHL DUP2 MSTORE ADDRESS PUSH1 0x4 DUP3 ADD MSTORE PUSH1 0x1 PUSH1 0x1 PUSH1 0xA0 SHL SUB SWAP3 SWAP1 SWAP3 AND PUSH1 0x24 DUP4 ADD MSTORE PUSH1 0x44 DUP3 ADD MSTORE SWAP1 DUP5 SWAP1 DUP3 SWAP1 PUSH1 0x64 SWAP1 DUP3 SWAP1 DUP5 SWAP1 GAS CALL SWAP1 DUP2 ISZERO PUSH2 0x9F4 JUMPI DUP5 SWAP2 PUSH2 0x9FF JUMPI JUMPDEST POP POP DUP4 PUSH1 0x9 DUP4 ADD SLOAD PUSH1 0xFF DUP2 PUSH1 0xA0 SHR AND PUSH1 0x0 EQ PUSH2 0x989 JUMPI POP POP DUP3 DUP3 PUSH1 0xB DUP3 SWAP5 SWAP4 DUP4 SWAP5 SLOAD AND SWAP2 ADD SLOAD SWAP1 GAS CALL PUSH2 0x929 PUSH2 0x1981 JUMP JUMPDEST POP ISZERO PUSH2 0x945 JUMPI POP JUMPDEST DUP1 SLOAD PUSH1 0xFF PUSH1 0xA0 SHL NOT AND PUSH1 0x1 PUSH1 0xA0 SHL OR SWAP1 SSTORE DUP1 RETURN JUMPDEST PUSH1 0x64 SWAP1 PUSH1 0x40 MLOAD SWAP1 PUSH3 0x461BCD PUSH1 0xE5 SHL DUP3 MSTORE PUSH1 0x4 DUP3 ADD MSTORE PUSH1 0x1C PUSH1 0x24 DUP3 ADD MSTORE PUSH32 0x4661696C656420746F2073656E642045544820746F2073656C6C657200000000 PUSH1 0x44 DUP3 ADD MSTORE REVERT JUMPDEST DUP4 SLOAD PUSH1 0xB SWAP1 SWAP5 ADD SLOAD PUSH1 0x40 MLOAD PUSH4 0xA9059CBB PUSH1 0xE0 SHL DUP2 MSTORE SWAP5 DUP5 AND PUSH1 0x1 PUSH1 0x1 PUSH1 0xA0 SHL SUB AND PUSH1 0x4 DUP7 ADD MSTORE PUSH1 0x24 DUP6 ADD MSTORE SWAP3 SWAP4 SWAP1 SWAP3 DUP5 SWAP3 PUSH1 0x44 SWAP3 DUP5 SWAP3 SWAP1 SWAP2 AND GAS CALL DUP1 ISZERO PUSH2 0x9F4 JUMPI PUSH2 0x9D6 JUMPI JUMPDEST POP POP PUSH2 0x931 JUMP JUMPDEST DUP2 PUSH2 0x9EC SWAP3 SWAP1 RETURNDATASIZE LT PUSH2 0x5E8 JUMPI PUSH2 0x5D9 DUP2 DUP4 PUSH2 0x1637 JUMP JUMPDEST POP CODESIZE DUP1 PUSH2 0x9CF JUMP JUMPDEST PUSH1 0x40 MLOAD RETURNDATASIZE DUP7 DUP3 RETURNDATACOPY RETURNDATASIZE SWAP1 REVERT JUMPDEST PUSH2 0xA08 SWAP1 PUSH2 0x1606 JUMP JUMPDEST PUSH2 0xA13 JUMPI DUP3 CODESIZE PUSH2 0x8F8 JUMP JUMPDEST DUP3 DUP1 REVERT JUMPDEST DUP6 DUP1 REVERT JUMPDEST PUSH1 0x40 MLOAD PUSH3 0x461BCD PUSH1 0xE5 SHL DUP2 MSTORE PUSH1 0x4 DUP2 ADD DUP6 SWAP1 MSTORE PUSH1 0xE PUSH1 0x24 DUP3 ADD MSTORE PUSH14 0x139BC8189A591CC81C1B1858D959 PUSH1 0x92 SHL PUSH1 0x44 DUP3 ADD MSTORE PUSH1 0x64 SWAP1 REVERT JUMPDEST PUSH1 0x40 MLOAD PUSH3 0x461BCD PUSH1 0xE5 SHL DUP2 MSTORE PUSH1 0x4 DUP2 ADD DUP5 SWAP1 MSTORE PUSH1 0x19 PUSH1 0x24 DUP3 ADD MSTORE PUSH32 0x41756374696F6E20686173206E6F7420656E6465642079657400000000000000 PUSH1 0x44 DUP3 ADD MSTORE PUSH1 0x64 SWAP1 REVERT JUMPDEST PUSH1 0x40 MLOAD PUSH3 0x461BCD PUSH1 0xE5 SHL DUP2 MSTORE PUSH1 0x4 DUP2 ADD DUP5 SWAP1 MSTORE PUSH1 0x19 PUSH1 0x24 DUP3 ADD MSTORE PUSH32 0x41756374696F6E2068617320616C726561647920656E64656400000000000000 PUSH1 0x44 DUP3 ADD MSTORE PUSH1 0x64 SWAP1 REVERT JUMPDEST POP CALLVALUE PUSH2 0x12A JUMPI DUP1 PUSH1 0x3 NOT CALLDATASIZE ADD SLT PUSH2 0x12A JUMPI PUSH1 0x40 MLOAD PUSH1 0x40 DUP2 ADD DUP2 DUP2 LT PUSH8 0xFFFFFFFFFFFFFFFF DUP3 GT OR PUSH2 0xB6B JUMPI PUSH1 0x40 MSTORE PUSH1 0x5 DUP2 MSTORE PUSH1 0x20 SWAP2 PUSH5 0x352E302E3 PUSH1 0xDC SHL PUSH1 0x20 DUP4 ADD MSTORE PUSH1 0x40 MLOAD SWAP3 DUP4 SWAP2 PUSH1 0x20 DUP4 MSTORE DUP4 MLOAD SWAP2 DUP3 PUSH1 0x20 DUP6 ADD MSTORE DUP2 JUMPDEST DUP4 DUP2 LT PUSH2 0xB54 JUMPI POP POP PUSH1 0x40 DUP1 SWAP5 POP DUP3 DUP5 ADD ADD MSTORE PUSH1 0x1F DUP1 NOT SWAP2 ADD AND DUP2 ADD SUB ADD SWAP1 RETURN JUMPDEST DUP1 DUP7 ADD DUP3 ADD MLOAD DUP8 DUP3 ADD PUSH1 0x40 ADD MSTORE DUP7 SWAP5 POP DUP2 ADD PUSH2 0xB33 JUMP JUMPDEST PUSH4 0x4E487B71 PUSH1 0xE0 SHL PUSH1 0x0 MSTORE PUSH1 0x41 PUSH1 0x4 MSTORE PUSH1 0x24 PUSH1 0x0 REVERT JUMPDEST POP CALLVALUE PUSH2 0x12A JUMPI PUSH1 0x40 CALLDATASIZE PUSH1 0x3 NOT ADD SLT PUSH2 0x12A JUMPI PUSH1 0x20 PUSH2 0x6B2 PUSH2 0xBA0 PUSH2 0x15DA JUMP JUMPDEST PUSH1 0x24 CALLDATALOAD SWAP1 PUSH2 0x16CB JUMP JUMPDEST POP CALLVALUE PUSH2 0x12A JUMPI PUSH1 0x20 CALLDATASIZE PUSH1 0x3 NOT ADD SLT PUSH2 0x12A JUMPI PUSH1 0x20 SWAP1 PUSH1 0x1 PUSH1 0x1 PUSH1 0xA0 SHL SUB SWAP1 PUSH1 0x40 SWAP1 DUP3 PUSH2 0xBD3 PUSH2 0x15DA JUMP JUMPDEST AND DUP2 MSTORE PUSH1 0x4 DUP5 MSTORE KECCAK256 SLOAD AND PUSH1 0x40 MLOAD SWAP1 DUP2 MSTORE RETURN JUMPDEST POP CALLVALUE PUSH2 0x12A JUMPI PUSH1 0x20 CALLDATASIZE PUSH1 0x3 NOT ADD SLT PUSH2 0x12A JUMPI PUSH1 0x20 SWAP1 PUSH1 0xFF SWAP1 PUSH1 0x40 SWAP1 PUSH1 0x1 PUSH1 0x1 PUSH1 0xA0 SHL SUB PUSH2 0xC10 PUSH2 0x15DA JUMP JUMPDEST AND DUP2 MSTORE PUSH1 0x5 DUP5 MSTORE KECCAK256 SLOAD AND PUSH1 0x40 MLOAD SWAP1 DUP2 MSTORE RETURN JUMPDEST POP CALLVALUE PUSH2 0x12A JUMPI DUP1 PUSH1 0x3 NOT CALLDATASIZE ADD SLT PUSH2 0x12A JUMPI PUSH32 0xF0C57E16840DF040F15088DC2F81FE391C3923BEC73E23A9662EFC9C229C6A00 DUP1 SLOAD PUSH1 0xFF DUP2 PUSH1 0x40 SHR AND ISZERO SWAP1 PUSH8 0xFFFFFFFFFFFFFFFF DUP2 AND DUP1 ISZERO SWAP1 DUP2 PUSH2 0xD55 JUMPI JUMPDEST PUSH1 0x1 EQ SWAP1 DUP2 PUSH2 0xD4B JUMPI JUMPDEST ISZERO SWAP1 DUP2 PUSH2 0xD42 JUMPI JUMPDEST POP PUSH2 0xD30 JUMPI PUSH8 0xFFFFFFFFFFFFFFFF NOT DUP2 AND PUSH1 0x1 OR DUP4 SSTORE DUP2 PUSH2 0xD11 JUMPI JUMPDEST POP PUSH1 0x3 DUP1 SLOAD PUSH1 0x1 PUSH1 0x1 PUSH1 0xA0 SHL SUB NOT AND CALLER OR SWAP1 SSTORE DUP3 DUP1 MSTORE PUSH1 0x5 PUSH1 0x20 MSTORE PUSH1 0x40 DUP4 KECCAK256 DUP1 SLOAD PUSH1 0xFF NOT AND PUSH1 0x12 OR SWAP1 SSTORE PUSH2 0xCD3 JUMPI POP DUP1 RETURN JUMPDEST PUSH9 0xFF0000000000000000 NOT DUP2 SLOAD AND SWAP1 SSTORE PUSH32 0xC7F505B2F371AE2175EE4913F4499E1F2633A7B5936321EED1CDAEB6115181D2 PUSH1 0x20 PUSH1 0x40 MLOAD PUSH1 0x1 DUP2 MSTORE LOG1 DUP1 RETURN JUMPDEST PUSH9 0xFFFFFFFFFFFFFFFFFF NOT AND PUSH9 0x10000000000000001 OR DUP3 SSTORE CODESIZE PUSH2 0xCA1 JUMP JUMPDEST PUSH1 0x40 MLOAD PUSH4 0xF92EE8A9 PUSH1 0xE0 SHL DUP2 MSTORE PUSH1 0x4 SWAP1 REVERT JUMPDEST SWAP1 POP ISZERO CODESIZE PUSH2 0xC85 JUMP JUMPDEST ADDRESS EXTCODESIZE ISZERO SWAP2 POP PUSH2 0xC7D JUMP JUMPDEST DUP4 SWAP2 POP PUSH2 0xC73 JUMP JUMPDEST POP CALLVALUE PUSH2 0x12A JUMPI PUSH1 0x20 CALLDATASIZE PUSH1 0x3 NOT ADD SLT PUSH2 0x12A JUMPI PUSH1 0xA PUSH1 0x40 PUSH1 0x20 SWAP3 PUSH1 0x4 CALLDATALOAD DUP2 MSTORE DUP1 DUP5 MSTORE KECCAK256 ADD SLOAD PUSH1 0x40 MLOAD SWAP1 DUP2 MSTORE RETURN JUMPDEST POP CALLVALUE PUSH2 0x12A JUMPI PUSH1 0x40 CALLDATASIZE PUSH1 0x3 NOT ADD SLT PUSH2 0x12A JUMPI PUSH2 0xDA3 PUSH2 0x15DA JUMP JUMPDEST PUSH1 0x24 CALLDATALOAD SWAP1 PUSH1 0xFF DUP3 AND DUP1 SWAP3 SUB PUSH2 0x1F3 JUMPI PUSH1 0x3 SLOAD PUSH1 0x1 PUSH1 0x1 PUSH1 0xA0 SHL SUB SWAP2 SWAP1 DUP3 AND CALLER SUB PUSH2 0xDE0 JUMPI AND DUP3 MSTORE PUSH1 0x5 PUSH1 0x20 MSTORE PUSH1 0x40 DUP3 KECCAK256 SWAP1 PUSH1 0xFF NOT DUP3 SLOAD AND OR SWAP1 SSTORE DUP1 RETURN JUMPDEST PUSH1 0x40 MLOAD PUSH3 0x461BCD PUSH1 0xE5 SHL DUP2 MSTORE PUSH1 0x20 PUSH1 0x4 DUP3 ADD MSTORE PUSH1 0x21 PUSH1 0x24 DUP3 ADD MSTORE PUSH32 0x4F6E6C792061646D696E2063616E2073657420746F6B656E20646563696D616C PUSH1 0x44 DUP3 ADD MSTORE PUSH1 0x73 PUSH1 0xF8 SHL PUSH1 0x64 DUP3 ADD MSTORE PUSH1 0x84 SWAP1 REVERT JUMPDEST POP CALLVALUE PUSH2 0x12A JUMPI PUSH1 0x20 CALLDATASIZE PUSH1 0x3 NOT ADD SLT PUSH2 0x12A JUMPI PUSH1 0x4 CALLDATALOAD DUP2 MSTORE DUP1 PUSH1 0x20 MSTORE PUSH1 0x40 SWAP1 KECCAK256 PUSH1 0x1 PUSH1 0xA0 SHL PUSH1 0x1 SWAP1 SUB DUP1 DUP3 SLOAD AND SWAP2 PUSH1 0x1 DUP2 ADD SLOAD SWAP2 PUSH1 0x2 DUP3 ADD SLOAD SWAP1 PUSH1 0x3 DUP4 ADD SLOAD PUSH1 0x4 DUP5 ADD SLOAD PUSH1 0x5 DUP6 ADD SLOAD PUSH1 0x6 DUP7 ADD SLOAD SWAP1 DUP5 PUSH1 0x7 DUP9 ADD SLOAD AND SWAP3 PUSH1 0x8 DUP9 ADD SLOAD SWAP5 PUSH1 0x9 DUP10 ADD SLOAD SWAP8 PUSH1 0xA DUP11 ADD SLOAD SWAP10 PUSH1 0xB ADD SLOAD SWAP11 PUSH1 0x40 MLOAD SWAP13 DUP14 MSTORE PUSH1 0x20 DUP14 ADD MSTORE PUSH1 0x40 DUP13 ADD MSTORE PUSH1 0x60 DUP12 ADD MSTORE PUSH1 0x80 DUP11 ADD MSTORE PUSH1 0xA0 DUP10 ADD MSTORE DUP4 DUP2 AND PUSH1 0xC0 DUP10 ADD MSTORE PUSH1 0xA0 SHR PUSH1 0xFF AND ISZERO ISZERO PUSH1 0xE0 DUP9 ADD MSTORE PUSH2 0x100 DUP8 ADD MSTORE PUSH2 0x120 DUP7 ADD MSTORE DUP2 AND PUSH2 0x140 DUP6 ADD MSTORE PUSH1 0xA0 SHR PUSH1 0xFF AND ISZERO ISZERO PUSH2 0x160 DUP5 ADD MSTORE PUSH2 0x180 DUP4 ADD MSTORE PUSH2 0x1A0 DUP3 ADD MSTORE PUSH2 0x1C0 SWAP1 RETURN JUMPDEST POP CALLVALUE PUSH2 0x12A JUMPI DUP1 PUSH1 0x3 NOT CALLDATASIZE ADD SLT PUSH2 0x12A JUMPI PUSH32 0x0 PUSH1 0x1 PUSH1 0x1 PUSH1 0xA0 SHL SUB AND ADDRESS SUB PUSH2 0xF6F JUMPI PUSH1 0x20 PUSH1 0x40 MLOAD PUSH32 0x360894A13BA1A3210667C828492DB98DCA3E2076CC3735A920A3CA505D382BBC DUP2 MSTORE RETURN JUMPDEST PUSH1 0x40 MLOAD PUSH4 0x703E46DD PUSH1 0xE1 SHL DUP2 MSTORE PUSH1 0x4 SWAP1 REVERT JUMPDEST POP PUSH1 0x40 CALLDATASIZE PUSH1 0x3 NOT ADD SLT PUSH2 0x12A JUMPI PUSH2 0xF96 PUSH2 0x15DA JUMP JUMPDEST PUSH1 0x24 SWAP2 DUP3 CALLDATALOAD PUSH8 0xFFFFFFFFFFFFFFFF DUP2 GT PUSH2 0x78C JUMPI CALLDATASIZE PUSH1 0x23 DUP3 ADD SLT ISZERO PUSH2 0x78C JUMPI DUP1 PUSH1 0x4 ADD CALLDATALOAD SWAP3 PUSH2 0xFC4 DUP5 PUSH2 0x1659 JUMP JUMPDEST PUSH2 0xFD1 PUSH1 0x40 MLOAD SWAP2 DUP3 PUSH2 0x1637 JUMP JUMPDEST DUP5 DUP2 MSTORE PUSH1 0x20 SWAP5 DUP6 DUP3 ADD SWAP4 CALLDATASIZE DUP9 DUP4 DUP4 ADD ADD GT PUSH2 0xA17 JUMPI DUP2 DUP7 SWAP3 DUP10 DUP10 SWAP4 ADD DUP8 CALLDATACOPY DUP4 ADD ADD MSTORE PUSH1 0x1 PUSH1 0x1 PUSH1 0xA0 SHL SUB PUSH32 0x0 DUP2 AND ADDRESS DUP2 EQ SWAP1 DUP2 ISZERO PUSH2 0x11CA JUMPI JUMPDEST POP PUSH2 0xF6F JUMPI DUP1 PUSH1 0x3 SLOAD AND CALLER SUB PUSH2 0x1186 JUMPI PUSH1 0x40 MLOAD PUSH4 0x52D1902D PUSH1 0xE0 SHL DUP2 MSTORE SWAP1 DUP4 AND SWAP6 DUP1 DUP3 PUSH1 0x4 DUP2 DUP11 GAS STATICCALL SWAP2 DUP3 SWAP2 DUP8 SWAP4 PUSH2 0x1156 JUMPI JUMPDEST POP POP PUSH2 0x107A JUMPI PUSH1 0x40 MLOAD PUSH4 0x4C9C8CE3 PUSH1 0xE0 SHL DUP2 MSTORE PUSH1 0x4 DUP2 ADD DUP8 SWAP1 MSTORE DUP8 SWAP1 REVERT JUMPDEST DUP6 SWAP1 DUP8 PUSH32 0x360894A13BA1A3210667C828492DB98DCA3E2076CC3735A920A3CA505D382BBC SWAP2 DUP3 DUP2 SUB PUSH2 0x1141 JUMPI POP DUP5 EXTCODESIZE ISZERO PUSH2 0x112B JUMPI POP DUP1 SLOAD PUSH1 0x1 PUSH1 0x1 PUSH1 0xA0 SHL SUB NOT AND DUP3 OR SWAP1 SSTORE PUSH1 0x40 MLOAD DUP6 SWAP3 SWAP2 PUSH32 0xBC7CD75A20EE27FD9ADEBAB32041F755214DBC6BFFA90CC0225B39DA2E5C2D3B DUP5 DUP1 LOG2 DUP2 MLOAD ISZERO PUSH2 0x110E JUMPI POP PUSH2 0x110A SWAP4 DUP3 SWAP2 MLOAD SWAP1 DUP5 GAS DELEGATECALL PUSH2 0x1104 PUSH2 0x1981 JUMP JUMPDEST SWAP2 PUSH2 0x1AA1 JUMP JUMPDEST POP DUP1 RETURN JUMPDEST SWAP4 POP POP POP POP CALLVALUE PUSH2 0x111C JUMPI POP DUP1 RETURN JUMPDEST PUSH4 0xB398979F PUSH1 0xE0 SHL DUP2 MSTORE PUSH1 0x4 SWAP1 REVERT JUMPDEST PUSH1 0x40 MLOAD PUSH4 0x4C9C8CE3 PUSH1 0xE0 SHL DUP2 MSTORE PUSH1 0x4 DUP2 ADD DUP5 SWAP1 MSTORE REVERT JUMPDEST PUSH1 0x40 MLOAD SWAP1 PUSH4 0x2A875269 PUSH1 0xE2 SHL DUP3 MSTORE PUSH1 0x4 DUP3 ADD MSTORE REVERT JUMPDEST SWAP1 DUP1 SWAP3 SWAP4 POP DUP2 RETURNDATASIZE DUP4 GT PUSH2 0x117F JUMPI JUMPDEST PUSH2 0x116E DUP2 DUP4 PUSH2 0x1637 JUMP JUMPDEST DUP2 ADD SUB SLT PUSH2 0xA17 JUMPI MLOAD SWAP1 CODESIZE DUP1 PUSH2 0x105C JUMP JUMPDEST POP RETURNDATASIZE PUSH2 0x1164 JUMP JUMPDEST PUSH1 0x40 MLOAD PUSH3 0x461BCD PUSH1 0xE5 SHL DUP2 MSTORE PUSH1 0x4 DUP2 ADD DUP8 SWAP1 MSTORE PUSH1 0x1F DUP2 DUP10 ADD MSTORE PUSH32 0x4F6E6C792061646D696E2063616E207570677261646520636F6E747261637400 PUSH1 0x44 DUP3 ADD MSTORE PUSH1 0x64 SWAP1 REVERT JUMPDEST SWAP1 POP DUP2 PUSH32 0x360894A13BA1A3210667C828492DB98DCA3E2076CC3735A920A3CA505D382BBC SLOAD AND EQ ISZERO CODESIZE PUSH2 0x1029 JUMP JUMPDEST POP CALLVALUE PUSH2 0x12A JUMPI PUSH1 0x80 CALLDATASIZE PUSH1 0x3 NOT ADD SLT PUSH2 0x12A JUMPI PUSH2 0x1212 PUSH2 0x15DA JUMP JUMPDEST POP PUSH2 0x121B PUSH2 0x15F0 JUMP JUMPDEST POP PUSH1 0x64 CALLDATALOAD PUSH8 0xFFFFFFFFFFFFFFFF DUP1 DUP3 GT PUSH2 0xA13 JUMPI CALLDATASIZE PUSH1 0x23 DUP4 ADD SLT ISZERO PUSH2 0xA13 JUMPI DUP2 PUSH1 0x4 ADD CALLDATALOAD SWAP1 DUP2 GT PUSH2 0xA13 JUMPI CALLDATASIZE SWAP2 ADD PUSH1 0x24 ADD GT PUSH2 0x12A JUMPI PUSH1 0x40 MLOAD PUSH4 0xA85BD01 PUSH1 0xE1 SHL DUP2 MSTORE PUSH1 0x20 SWAP1 RETURN JUMPDEST DUP3 CALLVALUE PUSH2 0x12A JUMPI PUSH1 0x80 CALLDATASIZE PUSH1 0x3 NOT ADD SLT PUSH2 0x12A JUMPI PUSH1 0x24 CALLDATALOAD SWAP2 PUSH1 0x44 CALLDATALOAD PUSH1 0x1 PUSH1 0x1 PUSH1 0xA0 SHL SUB DUP2 AND SWAP1 DUP2 SWAP1 SUB PUSH2 0xA13 JUMPI PUSH1 0x3 SLOAD PUSH1 0x64 CALLDATALOAD SWAP3 SWAP1 PUSH1 0x1 PUSH1 0x1 PUSH1 0xA0 SHL SUB AND CALLER SUB PUSH2 0x1598 JUMPI POP PUSH1 0x4 CALLDATALOAD ISZERO PUSH2 0x1545 JUMPI DUP1 ISZERO PUSH2 0x1500 JUMPI DUP1 EXTCODESIZE ISZERO PUSH2 0xA13 JUMPI PUSH1 0x40 MLOAD PUSH4 0x21421707 PUSH1 0xE1 SHL DUP2 MSTORE CALLER PUSH1 0x4 DUP3 ADD MSTORE ADDRESS PUSH1 0x24 DUP3 ADD MSTORE PUSH1 0x44 DUP2 ADD DUP4 SWAP1 MSTORE DUP4 DUP2 PUSH1 0x64 DUP2 DUP4 DUP7 GAS CALL DUP1 ISZERO PUSH2 0x9F4 JUMPI PUSH2 0x14ED JUMPI JUMPDEST POP DUP4 PUSH2 0x12FF PUSH2 0x14E7 SWAP5 SWAP6 TIMESTAMP PUSH2 0x1675 JUMP JUMPDEST PUSH1 0x40 MLOAD SWAP1 PUSH2 0x130C DUP3 PUSH2 0x161A JUMP JUMPDEST CALLER DUP3 MSTORE PUSH1 0x4 CALLDATALOAD PUSH1 0x20 DUP4 ADD MSTORE DUP3 PUSH1 0x40 DUP4 ADD MSTORE TIMESTAMP PUSH1 0x60 DUP4 ADD MSTORE PUSH1 0x80 DUP3 ADD MSTORE DUP6 PUSH1 0xA0 DUP3 ADD MSTORE DUP6 PUSH1 0xC0 DUP3 ADD MSTORE DUP6 PUSH1 0xE0 DUP3 ADD MSTORE DUP3 PUSH2 0x100 DUP3 ADD MSTORE DUP4 PUSH2 0x120 DUP3 ADD MSTORE DUP6 PUSH2 0x140 DUP3 ADD MSTORE DUP6 PUSH2 0x160 DUP3 ADD MSTORE PUSH1 0x4 CALLDATALOAD PUSH2 0x180 DUP3 ADD MSTORE DUP6 PUSH2 0x1A0 DUP3 ADD MSTORE PUSH1 0x1 SLOAD DUP7 MSTORE DUP6 PUSH1 0x20 MSTORE PUSH1 0xB PUSH2 0x1A0 PUSH1 0x40 DUP9 KECCAK256 SWAP3 PUSH2 0x146B PUSH1 0x1 DUP1 PUSH1 0xA0 SHL SUB DUP3 MLOAD AND PUSH12 0xFFFFFFFFFFFFFFFFFFFFFFFF PUSH1 0xA0 SHL SWAP1 DUP2 DUP8 SLOAD AND OR DUP7 SSTORE PUSH1 0x20 DUP4 ADD MLOAD PUSH1 0x1 DUP8 ADD SSTORE PUSH1 0x40 DUP4 ADD MLOAD PUSH1 0x2 DUP8 ADD SSTORE PUSH1 0x60 DUP4 ADD MLOAD PUSH1 0x3 DUP8 ADD SSTORE PUSH1 0x80 DUP4 ADD MLOAD PUSH1 0x4 DUP8 ADD SSTORE PUSH1 0xA0 DUP4 ADD MLOAD PUSH1 0x5 DUP8 ADD SSTORE PUSH2 0x140E PUSH1 0x6 DUP8 ADD PUSH1 0x1 DUP1 PUSH1 0xA0 SHL SUB PUSH1 0xC0 DUP7 ADD MLOAD AND DUP4 DUP3 SLOAD AND OR DUP2 SSTORE PUSH1 0xE0 DUP6 ADD MLOAD ISZERO ISZERO DUP2 SLOAD SWAP1 PUSH1 0xFF PUSH1 0xA0 SHL SWAP1 ISZERO ISZERO PUSH1 0xA0 SHL AND SWAP1 PUSH1 0xFF PUSH1 0xA0 SHL NOT AND OR SWAP1 SSTORE JUMP JUMPDEST PUSH2 0x100 DUP4 ADD MLOAD PUSH1 0x7 DUP8 ADD DUP1 SLOAD DUP4 AND PUSH1 0x1 PUSH1 0x1 PUSH1 0xA0 SHL SUB SWAP3 DUP4 AND OR SWAP1 SSTORE PUSH2 0x120 DUP5 ADD MLOAD PUSH1 0x8 DUP9 ADD SSTORE PUSH2 0x140 DUP5 ADD MLOAD PUSH1 0x9 DUP9 ADD DUP1 SLOAD PUSH2 0x160 DUP8 ADD MLOAD PUSH1 0xFF PUSH1 0xA0 SHL NOT SWAP2 SWAP1 SWAP6 AND AND SWAP2 SWAP1 SWAP3 AND OR SWAP2 ISZERO ISZERO PUSH1 0xA0 SHL PUSH1 0xFF PUSH1 0xA0 SHL AND SWAP2 SWAP1 SWAP2 OR SWAP1 SSTORE JUMP JUMPDEST PUSH2 0x180 DUP2 ADD MLOAD PUSH1 0xA DUP6 ADD SSTORE ADD MLOAD SWAP2 ADD SSTORE PUSH1 0x1 SLOAD SWAP3 DUP4 SWAP3 PUSH2 0x148B DUP4 TIMESTAMP PUSH2 0x1675 JUMP JUMPDEST PUSH1 0x40 MLOAD SWAP4 PUSH1 0x4 CALLDATALOAD DUP6 MSTORE PUSH1 0x20 DUP6 ADD MSTORE TIMESTAMP PUSH1 0x40 DUP6 ADD MSTORE PUSH1 0x60 DUP5 ADD MSTORE PUSH1 0x80 DUP4 ADD MSTORE PUSH1 0xA0 DUP3 ADD MSTORE PUSH32 0x7170FE9A759BED09D16EE193B3D97E8388DD2D50959C8CFDE8E548B62F4BBD6F PUSH1 0xC0 CALLER SWAP3 LOG3 PUSH2 0x14DF PUSH1 0x2 SLOAD PUSH2 0x1698 JUMP JUMPDEST PUSH1 0x2 SSTORE PUSH2 0x1698 JUMP JUMPDEST PUSH1 0x1 SSTORE DUP1 RETURN JUMPDEST SWAP3 PUSH2 0x14FA PUSH2 0x14E7 SWAP5 PUSH2 0x1606 JUMP JUMPDEST SWAP3 PUSH2 0x12EF JUMP JUMPDEST PUSH1 0x40 MLOAD PUSH3 0x461BCD PUSH1 0xE5 SHL DUP2 MSTORE PUSH1 0x20 PUSH1 0x4 DUP3 ADD MSTORE PUSH1 0x19 PUSH1 0x24 DUP3 ADD MSTORE PUSH32 0x4E46542061646472657373206D7573742062652076616C696400000000000000 PUSH1 0x44 DUP3 ADD MSTORE PUSH1 0x64 SWAP1 REVERT JUMPDEST PUSH1 0x40 MLOAD PUSH3 0x461BCD PUSH1 0xE5 SHL DUP2 MSTORE PUSH1 0x20 PUSH1 0x4 DUP3 ADD MSTORE PUSH1 0x25 PUSH1 0x24 DUP3 ADD MSTORE PUSH32 0x5374617274696E67207072696365206D75737420626520677265617465722074 PUSH1 0x44 DUP3 ADD MSTORE PUSH5 0x68616E203 PUSH1 0xDC SHL PUSH1 0x64 DUP3 ADD MSTORE PUSH1 0x84 SWAP1 REVERT JUMPDEST PUSH3 0x461BCD PUSH1 0xE5 SHL DUP2 MSTORE PUSH1 0x20 PUSH1 0x4 DUP3 ADD MSTORE PUSH1 0x1D PUSH1 0x24 DUP3 ADD MSTORE PUSH32 0x4F6E6C792061646D696E2063616E206372656174652061756374696F6E000000 PUSH1 0x44 DUP3 ADD MSTORE PUSH1 0x64 SWAP1 REVERT JUMPDEST PUSH1 0x4 CALLDATALOAD SWAP1 PUSH1 0x1 PUSH1 0x1 PUSH1 0xA0 SHL SUB DUP3 AND DUP3 SUB PUSH2 0x1F3 JUMPI JUMP JUMPDEST PUSH1 0x24 CALLDATALOAD SWAP1 PUSH1 0x1 PUSH1 0x1 PUSH1 0xA0 SHL SUB DUP3 AND DUP3 SUB PUSH2 0x1F3 JUMPI JUMP JUMPDEST PUSH8 0xFFFFFFFFFFFFFFFF DUP2 GT PUSH2 0xB6B JUMPI PUSH1 0x40 MSTORE JUMP JUMPDEST PUSH2 0x1C0 DUP2 ADD SWAP1 DUP2 LT PUSH8 0xFFFFFFFFFFFFFFFF DUP3 GT OR PUSH2 0xB6B JUMPI PUSH1 0x40 MSTORE JUMP JUMPDEST SWAP1 PUSH1 0x1F DUP1 NOT SWAP2 ADD AND DUP2 ADD SWAP1 DUP2 LT PUSH8 0xFFFFFFFFFFFFFFFF DUP3 GT OR PUSH2 0xB6B JUMPI PUSH1 0x40 MSTORE JUMP JUMPDEST PUSH8 0xFFFFFFFFFFFFFFFF DUP2 GT PUSH2 0xB6B JUMPI PUSH1 0x1F ADD PUSH1 0x1F NOT AND PUSH1 0x20 ADD SWAP1 JUMP JUMPDEST SWAP2 SWAP1 DUP3 ADD DUP1 SWAP3 GT PUSH2 0x1682 JUMPI JUMP JUMPDEST PUSH4 0x4E487B71 PUSH1 0xE0 SHL PUSH1 0x0 MSTORE PUSH1 0x11 PUSH1 0x4 MSTORE PUSH1 0x24 PUSH1 0x0 REVERT JUMPDEST PUSH1 0x0 NOT DUP2 EQ PUSH2 0x1682 JUMPI PUSH1 0x1 ADD SWAP1 JUMP JUMPDEST PUSH1 0xFF AND PUSH1 0x4D DUP2 GT PUSH2 0x1682 JUMPI PUSH1 0xA EXP SWAP1 JUMP JUMPDEST DUP2 DUP2 MUL SWAP3 SWAP2 DUP2 ISZERO SWAP2 DUP5 DIV EQ OR ISZERO PUSH2 0x1682 JUMPI JUMP JUMPDEST PUSH1 0x1 PUSH1 0x1 PUSH1 0xA0 SHL SUB DUP2 AND PUSH1 0x0 SWAP1 DUP2 MSTORE PUSH1 0x5 PUSH1 0x20 MSTORE PUSH1 0x40 DUP2 KECCAK256 SLOAD PUSH1 0xFF AND SWAP2 DUP3 ISZERO PUSH2 0x17EA JUMPI PUSH2 0x16F7 SWAP1 PUSH2 0x183F JUMP JUMPDEST SWAP2 DUP2 DUP4 SGT ISZERO PUSH2 0x17B5 JUMPI PUSH1 0x12 DUP2 GT PUSH2 0x174E JUMPI PUSH1 0x12 SUB SWAP1 PUSH1 0xFF DUP3 GT PUSH2 0x173A JUMPI POP SWAP2 PUSH2 0x1731 PUSH2 0x1736 SWAP3 PUSH2 0x172B PUSH4 0x5F5E100 SWAP6 PUSH2 0x16A7 JUMP JUMPDEST SWAP3 PUSH2 0x16B8 JUMP JUMPDEST PUSH2 0x16B8 JUMP JUMPDEST DIV SWAP1 JUMP JUMPDEST PUSH4 0x4E487B71 PUSH1 0xE0 SHL DUP2 MSTORE PUSH1 0x11 PUSH1 0x4 MSTORE PUSH1 0x24 SWAP1 REVERT JUMPDEST SWAP1 SWAP2 SWAP1 PUSH1 0x11 NOT ADD PUSH1 0xFF DUP2 GT PUSH2 0x17A1 JUMPI SWAP1 PUSH2 0x176A PUSH2 0x1770 SWAP3 PUSH2 0x16A7 JUMP JUMPDEST SWAP4 PUSH2 0x16B8 JUMP JUMPDEST SWAP1 PUSH4 0x5F5E100 SWAP3 DUP1 DUP5 MUL SWAP4 DUP5 DIV SUB PUSH2 0x173A JUMPI DUP3 ISZERO PUSH2 0x178D JUMPI POP DIV SWAP1 JUMP JUMPDEST PUSH4 0x4E487B71 PUSH1 0xE0 SHL DUP2 MSTORE PUSH1 0x12 PUSH1 0x4 MSTORE PUSH1 0x24 SWAP1 REVERT JUMPDEST PUSH4 0x4E487B71 PUSH1 0xE0 SHL DUP4 MSTORE PUSH1 0x11 PUSH1 0x4 MSTORE PUSH1 0x24 DUP4 REVERT JUMPDEST PUSH1 0x40 MLOAD PUSH3 0x461BCD PUSH1 0xE5 SHL DUP2 MSTORE PUSH1 0x20 PUSH1 0x4 DUP3 ADD MSTORE PUSH1 0xD PUSH1 0x24 DUP3 ADD MSTORE PUSH13 0x496E76616C6964207072696365 PUSH1 0x98 SHL PUSH1 0x44 DUP3 ADD MSTORE PUSH1 0x64 SWAP1 REVERT JUMPDEST PUSH1 0x40 MLOAD PUSH3 0x461BCD PUSH1 0xE5 SHL DUP2 MSTORE PUSH1 0x20 PUSH1 0x4 DUP3 ADD MSTORE PUSH1 0x16 PUSH1 0x24 DUP3 ADD MSTORE PUSH22 0x151BDAD95B88191958DA5B585B1CC81B9BDD081CD95D PUSH1 0x52 SHL PUSH1 0x44 DUP3 ADD MSTORE PUSH1 0x64 SWAP1 REVERT JUMPDEST MLOAD SWAP1 PUSH10 0xFFFFFFFFFFFFFFFFFFFF DUP3 AND DUP3 SUB PUSH2 0x1F3 JUMPI JUMP JUMPDEST PUSH1 0x1 PUSH1 0x1 PUSH1 0xA0 SHL SUB SWAP1 DUP2 AND PUSH1 0x0 SWAP1 DUP2 MSTORE PUSH1 0x4 PUSH1 0x20 MSTORE PUSH1 0x40 DUP2 KECCAK256 SLOAD SWAP1 SWAP2 AND DUP1 ISZERO PUSH2 0x18E4 JUMPI PUSH1 0xA0 PUSH1 0x4 SWAP2 PUSH1 0x40 MLOAD SWAP3 DUP4 DUP1 SWAP3 PUSH4 0x3FABE5A3 PUSH1 0xE2 SHL DUP3 MSTORE GAS STATICCALL SWAP2 DUP3 ISZERO PUSH2 0x18D8 JUMPI DUP1 SWAP3 PUSH2 0x188C JUMPI POP POP SWAP1 JUMP JUMPDEST SWAP1 SWAP2 POP PUSH1 0xA0 DUP3 RETURNDATASIZE PUSH1 0xA0 GT PUSH2 0x18D0 JUMPI JUMPDEST DUP2 PUSH2 0x18A8 PUSH1 0xA0 SWAP4 DUP4 PUSH2 0x1637 JUMP JUMPDEST DUP2 ADD SUB SLT PUSH2 0x12A JUMPI POP PUSH2 0x18BA DUP2 PUSH2 0x1828 JUMP JUMPDEST POP PUSH2 0x18CC PUSH1 0x80 PUSH1 0x20 DUP4 ADD MLOAD SWAP3 ADD PUSH2 0x1828 JUMP JUMPDEST POP SWAP1 JUMP JUMPDEST RETURNDATASIZE SWAP2 POP PUSH2 0x189B JUMP JUMPDEST PUSH1 0x40 MLOAD SWAP1 RETURNDATASIZE SWAP1 DUP3 RETURNDATACOPY RETURNDATASIZE SWAP1 REVERT JUMPDEST PUSH1 0x40 MLOAD PUSH3 0x461BCD PUSH1 0xE5 SHL DUP2 MSTORE PUSH1 0x20 PUSH1 0x4 DUP3 ADD MSTORE PUSH1 0x1C PUSH1 0x24 DUP3 ADD MSTORE PUSH32 0x50726963652066656564206E6F742073657420666F7220746F6B656E00000000 PUSH1 0x44 DUP3 ADD MSTORE PUSH1 0x64 SWAP1 REVERT JUMPDEST ISZERO PUSH2 0x1930 JUMPI JUMP JUMPDEST PUSH1 0x40 MLOAD PUSH3 0x461BCD PUSH1 0xE5 SHL DUP2 MSTORE PUSH1 0x20 PUSH1 0x4 DUP3 ADD MSTORE PUSH1 0x11 PUSH1 0x24 DUP3 ADD MSTORE PUSH17 0x105D58DD1A5BDB881A185CC8195B991959 PUSH1 0x7A SHL PUSH1 0x44 DUP3 ADD MSTORE PUSH1 0x64 SWAP1 REVERT JUMPDEST SWAP1 DUP2 PUSH1 0x20 SWAP2 SUB SLT PUSH2 0x1F3 JUMPI MLOAD DUP1 ISZERO ISZERO DUP2 SUB PUSH2 0x1F3 JUMPI SWAP1 JUMP JUMPDEST RETURNDATASIZE ISZERO PUSH2 0x19AC JUMPI RETURNDATASIZE SWAP1 PUSH2 0x1992 DUP3 PUSH2 0x1659 JUMP JUMPDEST SWAP2 PUSH2 0x19A0 PUSH1 0x40 MLOAD SWAP4 DUP5 PUSH2 0x1637 JUMP JUMPDEST DUP3 MSTORE RETURNDATASIZE PUSH1 0x0 PUSH1 0x20 DUP5 ADD RETURNDATACOPY JUMP JUMPDEST PUSH1 0x60 SWAP1 JUMP JUMPDEST PUSH1 0x9 DUP2 ADD SLOAD PUSH1 0xFF DUP2 PUSH1 0xA0 SHR AND PUSH1 0x0 EQ PUSH2 0x1A2C JUMPI POP PUSH1 0x0 DUP1 DUP1 DUP1 SWAP4 PUSH1 0xB PUSH1 0x1 DUP1 PUSH1 0xA0 SHL SUB PUSH1 0x6 DUP4 ADD SLOAD AND SWAP2 ADD SLOAD SWAP1 GAS CALL PUSH2 0x19E8 PUSH2 0x1981 JUMP JUMPDEST POP ISZERO PUSH2 0x19F0 JUMPI JUMP JUMPDEST PUSH1 0x40 MLOAD PUSH3 0x461BCD PUSH1 0xE5 SHL DUP2 MSTORE PUSH1 0x20 PUSH1 0x4 DUP3 ADD MSTORE PUSH1 0x14 PUSH1 0x24 DUP3 ADD MSTORE PUSH20 0x8CC2D2D8CAC840E8DE40E4CACCEADCC8408AA89 PUSH1 0x63 SHL PUSH1 0x44 DUP3 ADD MSTORE PUSH1 0x64 SWAP1 REVERT JUMPDEST PUSH1 0x6 DUP3 ADD SLOAD PUSH1 0xB SWAP1 SWAP3 ADD SLOAD PUSH1 0x40 MLOAD PUSH4 0xA9059CBB PUSH1 0xE0 SHL DUP2 MSTORE PUSH1 0x1 PUSH1 0x1 PUSH1 0xA0 SHL SUB SWAP4 DUP5 AND PUSH1 0x4 DUP3 ADD MSTORE PUSH1 0x24 DUP2 ADD SWAP2 SWAP1 SWAP2 MSTORE SWAP2 PUSH1 0x20 SWAP2 DUP4 SWAP2 PUSH1 0x44 SWAP2 DUP4 SWAP2 PUSH1 0x0 SWAP2 AND GAS CALL DUP1 ISZERO PUSH2 0x1A95 JUMPI PUSH2 0x1A7A JUMPI POP JUMP JUMPDEST PUSH2 0x1A92 SWAP1 PUSH1 0x20 RETURNDATASIZE PUSH1 0x20 GT PUSH2 0x5E8 JUMPI PUSH2 0x5D9 DUP2 DUP4 PUSH2 0x1637 JUMP JUMPDEST POP JUMP JUMPDEST PUSH1 0x40 MLOAD RETURNDATASIZE PUSH1 0x0 DUP3 RETURNDATACOPY RETURNDATASIZE SWAP1 REVERT JUMPDEST SWAP1 PUSH2 0x1AC8 JUMPI POP DUP1 MLOAD ISZERO PUSH2 0x1AB6 JUMPI PUSH1 0x20 DUP2 MLOAD SWAP2 ADD REVERT JUMPDEST PUSH1 0x40 MLOAD PUSH4 0xD6BDA275 PUSH1 0xE0 SHL DUP2 MSTORE PUSH1 0x4 SWAP1 REVERT JUMPDEST DUP2 MLOAD ISZERO DUP1 PUSH2 0x1AFB JUMPI JUMPDEST PUSH2 0x1AD9 JUMPI POP SWAP1 JUMP JUMPDEST PUSH1 0x40 MLOAD PUSH4 0x9996B315 PUSH1 0xE0 SHL DUP2 MSTORE PUSH1 0x1 PUSH1 0x1 PUSH1 0xA0 SHL SUB SWAP1 SWAP2 AND PUSH1 0x4 DUP3 ADD MSTORE PUSH1 0x24 SWAP1 REVERT JUMPDEST POP DUP1 EXTCODESIZE ISZERO PUSH2 0x1AD1 JUMP INVALID LOG2 PUSH5 0x6970667358 0x22 SLT KECCAK256 ADDMOD 0x23 0xAE 0xDD DUP14 LOG3 PUSH3 0xD39A18 EXTCODECOPY SWAP1 DUP16 PUSH12 0xDC6043FD42A3B1775A2C070F SAR 0xC2 PUSH31 0x57DAB64736F6C634300081800330000000000000000000000000000000000 "
        },
        "gasEstimates": {
          "creation": {
            "codeDepositCost": "1394000",
            "executionCost": "infinite",
            "totalCost": "infinite"
          },
          "external": {
            "UPGRADE_INTERFACE_VERSION()": "infinite",
            "auctionCount()": "2310",
            "auctions(uint256)": "25947",
            "calculateUSDValue(address,uint256)": "infinite",
            "createdAuction(uint256,uint256,address,uint256)": "infinite",
            "emergencyCancel(uint256)": "infinite",
            "endAuction(uint256)": "infinite",
            "getAuctionCount()": "2574",
            "getAuctionDetails(uint256)": "infinite",
            "getChainlinkDataFeedLatestAnswer(address)": "infinite",
            "getCurrentPriceUSD(uint256)": "2492",
            "initialize()": "123264",
            "nextAuctionId()": "2700",
            "onERC721Received(address,address,uint256,bytes)": "469",
            "placeBid(uint256,address,uint256)": "infinite",
            "priceFeeds(address)": "2649",
            "proxiableUUID()": "infinite",
            "setAggregator(address,address,uint8)": "51468",
            "setTokenDecimals(address,uint8)": "26822",
            "tokenDecimals(address)": "2627",
            "upgradeToAndCall(address,bytes)": "infinite"
          },
          "internal": {
            "_authorizeUpgrade(address)": "infinite",
            "_refundPreviousBid(struct NftAuctionV2.Auction storage pointer)": "infinite",
            "_transferToSeller(struct NftAuctionV2.Auction storage pointer)": "infinite"
          }
        },
        "methodIdentifiers": {
          "UPGRADE_INTERFACE_VERSION()": "ad3cb1cc",
          "auctionCount()": "2ad71573",
          "auctions(uint256)": "571a26a0",
          "calculateUSDValue(address,uint256)": "ac4ffcdf",
          "createdAuction(uint256,uint256,address,uint256)": "14f6a4ad",
          "emergencyCancel(uint256)": "dd75cd9b",
          "endAuction(uint256)": "b9a2de3a",
          "getAuctionCount()": "c44e6640",
          "getAuctionDetails(uint256)": "f20e5e35",
          "getChainlinkDataFeedLatestAnswer(address)": "e7078f92",
          "getCurrentPriceUSD(uint256)": "7d9f9dc7",
          "initialize()": "8129fc1c",
          "nextAuctionId()": "fc528482",
          "onERC721Received(address,address,uint256,bytes)": "150b7a02",
          "placeBid(uint256,address,uint256)": "f1e2f348",
          "priceFeeds(address)": "9dcb511a",
          "proxiableUUID()": "52d1902d",
          "setAggregator(address,address,uint8)": "f2b33cc1",
          "setTokenDecimals(address,uint8)": "5cdcd8bb",
          "tokenDecimals(address)": "8ee573ac",
          "upgradeToAndCall(address,bytes)": "4f1ef286"
        }
      },
      "storageLayout": {
        "storage": [
          {
            "astId": 1510,
            "contract": "contracts/NftAuctionV2.sol:NftAuctionV2",
            "label": "auctions",
            "offset": 0,
            "slot": "0",
            "type": "t_mapping(t_uint256,t_struct(Auction)1505_storage)"
          },
          {
            "astId": 1512,
            "contract": "contracts/NftAuctionV2.sol:NftAuctionV2",
            "label": "nextAuctionId",
            "offset": 0,
            "slot": "1",
            "type": "t_uint256"
          },
          {
            "astId": 1514,
            "contract": "contracts/NftAuctionV2.sol:NftAuctionV2",
            "label": "auctionCount",
            "offset": 0,
            "slot": "2",
            "type": "t_uint256"
          },
          {
            "astId": 1516,
            "contract": "contracts/NftAuctionV2.sol:NftAuctionV2",
            "label": "admin",
            "offset": 0,
            "slot": "3",
            "type": "t_address"
          },
          {
            "astId": 1521,
            "contract": "contracts/NftAuctionV2.sol:NftAuctionV2",
            "label": "priceFeeds",
            "offset": 0,
            "slot": "4",
            "type": "t_mapping(t_address,t_contract(AggregatorV3Interface)45)"
          },
          {
            "astId": 1525,
            "contract": "contracts/NftAuctionV2.sol:NftAuctionV2",
            "label": "tokenDecimals",
            "offset": 0,
            "slot": "5",
            "type": "t_mapping(t_address,t_uint8)"
          }
        ],
        "types": {
          "t_address": {
            "encoding": "inplace",
            "label": "address",
            "numberOfBytes": "20"
          },
          "t_address_payable": {
            "encoding": "inplace",
            "label": "address payable",
            "numberOfBytes": "20"
          },
          "t_bool": {
            "encoding": "inplace",
            "label": "bool",
            "numberOfBytes": "1"
          },
          "t_contract(AggregatorV3Interface)45": {
            "encoding": "inplace",
            "label": "contract AggregatorV3Interface",
            "numberOfBytes": "20"
          },
          "t_mapping(t_address,t_contract(AggregatorV3Interface)45)": {
            "encoding": "mapping",
            "key": "t_address",
            "label": "mapping(address => contract AggregatorV3Interface)",
            "numberOfBytes": "32",
            "value": "t_contract(AggregatorV3Interface)45"
          },
          "t_mapping(t_address,t_uint8)": {
            "encoding": "mapping",
            "key": "t_address",
            "label": "mapping(address => uint8)",
            "numberOfBytes": "32",
            "value": "t_uint8"
          },
          "t_mapping(t_uint256,t_struct(Auction)1505_storage)": {
            "encoding": "mapping",
            "key": "t_uint256",
            "label": "mapping(uint256 => struct NftAuctionV2.Auction)",
            "numberOfBytes": "32",
            "value": "t_struct(Auction)1505_storage"
          },
          "t_struct(Auction)1505_storage": {
            "encoding": "inplace",
            "label": "struct NftAuctionV2.Auction",
            "members": [
              {
                "astId": 1478,
                "contract": "contracts/NftAuctionV2.sol:NftAuctionV2",
                "label": "seller",
                "offset": 0,
                "slot": "0",
                "type": "t_address_payable"
              },
              {
                "astId": 1480,
                "contract": "contracts/NftAuctionV2.sol:NftAuctionV2",
                "label": "startingPrice",
                "offset": 0,
                "slot": "1",
                "type": "t_uint256"
              },
              {
                "astId": 1482,
                "contract": "contracts/NftAuctionV2.sol:NftAuctionV2",
                "label": "duration",
                "offset": 0,
                "slot": "2",
                "type": "t_uint256"
              },
              {
                "astId": 1484,
                "contract": "contracts/NftAuctionV2.sol:NftAuctionV2",
                "label": "startTime",
                "offset": 0,
                "slot": "3",
                "type": "t_uint256"
              },
              {
                "astId": 1486,
                "contract": "contracts/NftAuctionV2.sol:NftAuctionV2",
                "label": "endTime",
                "offset": 0,
                "slot": "4",
                "type": "t_uint256"
              },
              {
                "astId": 1488,
                "contract": "contracts/NftAuctionV2.sol:NftAuctionV2",
                "label": "highestBid",
                "offset": 0,
                "slot": "5",
                "type": "t_uint256"
              },
              {
                "astId": 1490,
                "contract": "contracts/NftAuctionV2.sol:NftAuctionV2",
                "label": "highestBidder",
                "offset": 0,
                "slot": "6",
                "type": "t_address_payable"
              },
              {
                "astId": 1492,
                "contract": "contracts/NftAuctionV2.sol:NftAuctionV2",
                "label": "ended",
                "offset": 20,
                "slot": "6",
                "type": "t_bool"
              },
              {
                "astId": 1494,
                "contract": "contracts/NftAuctionV2.sol:NftAuctionV2",
                "label": "nftAddress",
                "offset": 0,
                "slot": "7",
                "type": "t_address"
              },
              {
                "astId": 1496,
                "contract": "contracts/NftAuctionV2.sol:NftAuctionV2",
                "label": "tokenId",
                "offset": 0,
                "slot": "8",
                "type": "t_uint256"
              },
              {
                "astId": 1498,
                "contract": "contracts/NftAuctionV2.sol:NftAuctionV2",
                "label": "tokenAddress",
                "offset": 0,
                "slot": "9",
                "type": "t_address"
              },
              {
                "astId": 1500,
                "contract": "contracts/NftAuctionV2.sol:NftAuctionV2",
                "label": "isEth",
                "offset": 20,
                "slot": "9",
                "type": "t_bool"
              },
              {
                "astId": 1502,
                "contract": "contracts/NftAuctionV2.sol:NftAuctionV2",
                "label": "highestBidValue",
                "offset": 0,
                "slot": "10",
                "type": "t_uint256"
              },
              {
                "astId": 1504,
                "contract": "contracts/NftAuctionV2.sol:NftAuctionV2",
                "label": "highestBidAmount",
                "offset": 0,
                "slot": "11",
                "type": "t_uint256"
              }
            ],
            "numberOfBytes": "384"
          },
          "t_uint256": {
            "encoding": "inplace",
            "label": "uint256",
            "numberOfBytes": "32"
          },
          "t_uint8": {
            "encoding": "inplace",
            "label": "uint8",
            "numberOfBytes": "1"
          }
        }
      },
      "userdoc": {
        "kind": "user",
        "methods": {},
        "version": 1
      }
    }
  }
}