{
	"task-1/vo.sol": {
		"vo": {
			"abi": [
				{
					"inputs": [
						{
							"internalType": "string",
							"name": "str",
							"type": "string"
						}
					],
					"name": "roman2Num",
					"outputs": [
						{
							"internalType": "uint256",
							"name": "",
							"type": "uint256"
						}
					],
					"stateMutability": "pure",
					"type": "function"
				}
			],
			"devdoc": {
				"kind": "dev",
				"methods": {},
				"version": 1
			},
			"evm": {
				"assembly": "    /* \"task-1/vo.sol\":58:972  contract vo{... */\n  mstore(0x40, 0x80)\n  callvalue\n  dup1\n  iszero\n  tag_1\n  jumpi\n  revert(0x00, 0x00)\ntag_1:\n  pop\n  dataSize(sub_0)\n  dup1\n  dataOffset(sub_0)\n  0x00\n  codecopy\n  0x00\n  return\nstop\n\nsub_0: assembly {\n        /* \"task-1/vo.sol\":58:972  contract vo{... */\n      mstore(0x40, 0x80)\n      callvalue\n      dup1\n      iszero\n      tag_1\n      jumpi\n      revert(0x00, 0x00)\n    tag_1:\n      pop\n      jumpi(tag_2, lt(calldatasize, 0x04))\n      shr(0xe0, calldataload(0x00))\n      dup1\n      0x791d6b3b\n      eq\n      tag_3\n      jumpi\n    tag_2:\n      revert(0x00, 0x00)\n        /* \"task-1/vo.sol\":128:618  function roman2Num(string memory str) public pure returns (uint256) {... */\n    tag_3:\n      tag_4\n      0x04\n      dup1\n      calldatasize\n      sub\n      dup2\n      add\n      swap1\n      tag_5\n      swap2\n      swap1\n      tag_6\n      jump\t// in\n    tag_5:\n      tag_7\n      jump\t// in\n    tag_4:\n      mload(0x40)\n      tag_8\n      swap2\n      swap1\n      tag_9\n      jump\t// in\n    tag_8:\n      mload(0x40)\n      dup1\n      swap2\n      sub\n      swap1\n      return\n    tag_7:\n        /* \"task-1/vo.sol\":187:194  uint256 */\n      0x00\n        /* \"task-1/vo.sol\":207:225  bytes memory roman */\n      0x00\n        /* \"task-1/vo.sol\":234:237  str */\n      dup3\n        /* \"task-1/vo.sol\":207:238  bytes memory roman = bytes(str) */\n      swap1\n      pop\n        /* \"task-1/vo.sol\":249:260  uint256 len */\n      0x00\n        /* \"task-1/vo.sol\":263:268  roman */\n      dup2\n        /* \"task-1/vo.sol\":263:275  roman.length */\n      mload\n        /* \"task-1/vo.sol\":249:275  uint256 len = roman.length */\n      swap1\n      pop\n        /* \"task-1/vo.sol\":286:296  int256 num */\n      0x00\n        /* \"task-1/vo.sol\":299:300  0 */\n      0x00\n        /* \"task-1/vo.sol\":286:300  int256 num = 0 */\n      swap1\n      pop\n        /* \"task-1/vo.sol\":316:325  uint256 i */\n      0x00\n        /* \"task-1/vo.sol\":328:329  0 */\n      0x00\n        /* \"task-1/vo.sol\":316:329  uint256 i = 0 */\n      swap1\n      pop\n        /* \"task-1/vo.sol\":311:581  for (uint256 i = 0; i < len; i++) {... */\n    tag_11:\n        /* \"task-1/vo.sol\":335:338  len */\n      dup3\n        /* \"task-1/vo.sol\":331:332  i */\n      dup2\n        /* \"task-1/vo.sol\":331:338  i < len */\n      lt\n        /* \"task-1/vo.sol\":311:581  for (uint256 i = 0; i < len; i++) {... */\n      iszero\n      tag_12\n      jumpi\n        /* \"task-1/vo.sol\":374:375  1 */\n      0x01\n        /* \"task-1/vo.sol\":368:371  len */\n      dup4\n        /* \"task-1/vo.sol\":368:375  len - 1 */\n      tag_14\n      swap2\n      swap1\n      tag_15\n      jump\t// in\n    tag_14:\n        /* \"task-1/vo.sol\":364:365  i */\n      dup2\n        /* \"task-1/vo.sol\":364:375  i < len - 1 */\n      lt\n        /* \"task-1/vo.sol\":364:424  i < len - 1 && _getValue(roman[i]) < _getValue(roman[i + 1]) */\n      dup1\n      iszero\n      tag_16\n      jumpi\n      pop\n        /* \"task-1/vo.sol\":401:424  _getValue(roman[i + 1]) */\n      tag_17\n        /* \"task-1/vo.sol\":411:416  roman */\n      dup5\n        /* \"task-1/vo.sol\":421:422  1 */\n      0x01\n        /* \"task-1/vo.sol\":417:418  i */\n      dup4\n        /* \"task-1/vo.sol\":417:422  i + 1 */\n      tag_18\n      swap2\n      swap1\n      tag_19\n      jump\t// in\n    tag_18:\n        /* \"task-1/vo.sol\":411:423  roman[i + 1] */\n      dup2\n      mload\n      dup2\n      lt\n      tag_20\n      jumpi\n      tag_21\n      tag_22\n      jump\t// in\n    tag_21:\n    tag_20:\n      0x20\n      add\n      add\n      mload\n      0xf8\n      shr\n      0xf8\n      shl\n        /* \"task-1/vo.sol\":401:410  _getValue */\n      tag_23\n        /* \"task-1/vo.sol\":401:424  _getValue(roman[i + 1]) */\n      jump\t// in\n    tag_17:\n        /* \"task-1/vo.sol\":379:398  _getValue(roman[i]) */\n      tag_24\n        /* \"task-1/vo.sol\":389:394  roman */\n      dup6\n        /* \"task-1/vo.sol\":395:396  i */\n      dup4\n        /* \"task-1/vo.sol\":389:397  roman[i] */\n      dup2\n      mload\n      dup2\n      lt\n      tag_25\n      jumpi\n      tag_26\n      tag_22\n      jump\t// in\n    tag_26:\n    tag_25:\n      0x20\n      add\n      add\n      mload\n      0xf8\n      shr\n      0xf8\n      shl\n        /* \"task-1/vo.sol\":379:388  _getValue */\n      tag_23\n        /* \"task-1/vo.sol\":379:398  _getValue(roman[i]) */\n      jump\t// in\n    tag_24:\n        /* \"task-1/vo.sol\":379:424  _getValue(roman[i]) < _getValue(roman[i + 1]) */\n      lt\n        /* \"task-1/vo.sol\":364:424  i < len - 1 && _getValue(roman[i]) < _getValue(roman[i + 1]) */\n    tag_16:\n        /* \"task-1/vo.sol\":360:570  if (i < len - 1 && _getValue(roman[i]) < _getValue(roman[i + 1])) {... */\n      iszero\n      tag_27\n      jumpi\n        /* \"task-1/vo.sol\":459:478  _getValue(roman[i]) */\n      tag_28\n        /* \"task-1/vo.sol\":469:474  roman */\n      dup5\n        /* \"task-1/vo.sol\":475:476  i */\n      dup3\n        /* \"task-1/vo.sol\":469:477  roman[i] */\n      dup2\n      mload\n      dup2\n      lt\n      tag_29\n      jumpi\n      tag_30\n      tag_22\n      jump\t// in\n    tag_30:\n    tag_29:\n      0x20\n      add\n      add\n      mload\n      0xf8\n      shr\n      0xf8\n      shl\n        /* \"task-1/vo.sol\":459:468  _getValue */\n      tag_23\n        /* \"task-1/vo.sol\":459:478  _getValue(roman[i]) */\n      jump\t// in\n    tag_28:\n        /* \"task-1/vo.sol\":445:479  num -= int256(_getValue(roman[i])) */\n      dup3\n      tag_31\n      swap2\n      swap1\n      tag_32\n      jump\t// in\n    tag_31:\n      swap2\n      pop\n        /* \"task-1/vo.sol\":360:570  if (i < len - 1 && _getValue(roman[i]) < _getValue(roman[i + 1])) {... */\n      jump(tag_33)\n    tag_27:\n        /* \"task-1/vo.sol\":534:553  _getValue(roman[i]) */\n      tag_34\n        /* \"task-1/vo.sol\":544:549  roman */\n      dup5\n        /* \"task-1/vo.sol\":550:551  i */\n      dup3\n        /* \"task-1/vo.sol\":544:552  roman[i] */\n      dup2\n      mload\n      dup2\n      lt\n      tag_35\n      jumpi\n      tag_36\n      tag_22\n      jump\t// in\n    tag_36:\n    tag_35:\n      0x20\n      add\n      add\n      mload\n      0xf8\n      shr\n      0xf8\n      shl\n        /* \"task-1/vo.sol\":534:543  _getValue */\n      tag_23\n        /* \"task-1/vo.sol\":534:553  _getValue(roman[i]) */\n      jump\t// in\n    tag_34:\n        /* \"task-1/vo.sol\":520:554  num += int256(_getValue(roman[i])) */\n      dup3\n      tag_37\n      swap2\n      swap1\n      tag_38\n      jump\t// in\n    tag_37:\n      swap2\n      pop\n        /* \"task-1/vo.sol\":360:570  if (i < len - 1 && _getValue(roman[i]) < _getValue(roman[i + 1])) {... */\n    tag_33:\n        /* \"task-1/vo.sol\":340:343  i++ */\n      dup1\n      dup1\n      0x01\n      add\n      swap2\n      pop\n      pop\n        /* \"task-1/vo.sol\":311:581  for (uint256 i = 0; i < len; i++) {... */\n      jump(tag_11)\n    tag_12:\n      pop\n        /* \"task-1/vo.sol\":606:609  num */\n      dup1\n        /* \"task-1/vo.sol\":591:610  return uint256(num) */\n      swap4\n      pop\n      pop\n      pop\n      pop\n        /* \"task-1/vo.sol\":128:618  function roman2Num(string memory str) public pure returns (uint256) {... */\n      swap2\n      swap1\n      pop\n      jump\t// out\n        /* \"task-1/vo.sol\":626:969  function _getValue(bytes1 num) private pure returns (uint256) {... */\n    tag_23:\n        /* \"task-1/vo.sol\":679:686  uint256 */\n      0x00\n        /* \"task-1/vo.sol\":703:713  num == \"I\" */\n      0x4900000000000000000000000000000000000000000000000000000000000000\n        /* \"task-1/vo.sol\":703:706  num */\n      dup3\n        /* \"task-1/vo.sol\":703:713  num == \"I\" */\n      not(0xffffffffffffffffffffffffffffffffffffffffffffffffffffffffffffff)\n      and\n      sub\n        /* \"task-1/vo.sol\":699:723  if (num == \"I\") return 1 */\n      tag_40\n      jumpi\n        /* \"task-1/vo.sol\":722:723  1 */\n      0x01\n        /* \"task-1/vo.sol\":715:723  return 1 */\n      swap1\n      pop\n      jump(tag_39)\n        /* \"task-1/vo.sol\":699:723  if (num == \"I\") return 1 */\n    tag_40:\n        /* \"task-1/vo.sol\":738:748  num == \"V\" */\n      0x5600000000000000000000000000000000000000000000000000000000000000\n        /* \"task-1/vo.sol\":738:741  num */\n      dup3\n        /* \"task-1/vo.sol\":738:748  num == \"V\" */\n      not(0xffffffffffffffffffffffffffffffffffffffffffffffffffffffffffffff)\n      and\n      sub\n        /* \"task-1/vo.sol\":734:758  if (num == \"V\") return 5 */\n      tag_41\n      jumpi\n        /* \"task-1/vo.sol\":757:758  5 */\n      0x05\n        /* \"task-1/vo.sol\":750:758  return 5 */\n      swap1\n      pop\n      jump(tag_39)\n        /* \"task-1/vo.sol\":734:758  if (num == \"V\") return 5 */\n    tag_41:\n        /* \"task-1/vo.sol\":773:783  num == \"X\" */\n      0x5800000000000000000000000000000000000000000000000000000000000000\n        /* \"task-1/vo.sol\":773:776  num */\n      dup3\n        /* \"task-1/vo.sol\":773:783  num == \"X\" */\n      not(0xffffffffffffffffffffffffffffffffffffffffffffffffffffffffffffff)\n      and\n      sub\n        /* \"task-1/vo.sol\":769:794  if (num == \"X\") return 10 */\n      tag_42\n      jumpi\n        /* \"task-1/vo.sol\":792:794  10 */\n      0x0a\n        /* \"task-1/vo.sol\":785:794  return 10 */\n      swap1\n      pop\n      jump(tag_39)\n        /* \"task-1/vo.sol\":769:794  if (num == \"X\") return 10 */\n    tag_42:\n        /* \"task-1/vo.sol\":809:819  num == \"L\" */\n      0x4c00000000000000000000000000000000000000000000000000000000000000\n        /* \"task-1/vo.sol\":809:812  num */\n      dup3\n        /* \"task-1/vo.sol\":809:819  num == \"L\" */\n      not(0xffffffffffffffffffffffffffffffffffffffffffffffffffffffffffffff)\n      and\n      sub\n        /* \"task-1/vo.sol\":805:830  if (num == \"L\") return 50 */\n      tag_43\n      jumpi\n        /* \"task-1/vo.sol\":828:830  50 */\n      0x32\n        /* \"task-1/vo.sol\":821:830  return 50 */\n      swap1\n      pop\n      jump(tag_39)\n        /* \"task-1/vo.sol\":805:830  if (num == \"L\") return 50 */\n    tag_43:\n        /* \"task-1/vo.sol\":845:855  num == \"C\" */\n      0x4300000000000000000000000000000000000000000000000000000000000000\n        /* \"task-1/vo.sol\":845:848  num */\n      dup3\n        /* \"task-1/vo.sol\":845:855  num == \"C\" */\n      not(0xffffffffffffffffffffffffffffffffffffffffffffffffffffffffffffff)\n      and\n      sub\n        /* \"task-1/vo.sol\":841:867  if (num == \"C\") return 100 */\n      tag_44\n      jumpi\n        /* \"task-1/vo.sol\":864:867  100 */\n      0x64\n        /* \"task-1/vo.sol\":857:867  return 100 */\n      swap1\n      pop\n      jump(tag_39)\n        /* \"task-1/vo.sol\":841:867  if (num == \"C\") return 100 */\n    tag_44:\n        /* \"task-1/vo.sol\":882:892  num == \"D\" */\n      0x4400000000000000000000000000000000000000000000000000000000000000\n        /* \"task-1/vo.sol\":882:885  num */\n      dup3\n        /* \"task-1/vo.sol\":882:892  num == \"D\" */\n      not(0xffffffffffffffffffffffffffffffffffffffffffffffffffffffffffffff)\n      and\n      sub\n        /* \"task-1/vo.sol\":878:904  if (num == \"D\") return 500 */\n      tag_45\n      jumpi\n        /* \"task-1/vo.sol\":901:904  500 */\n      0x01f4\n        /* \"task-1/vo.sol\":894:904  return 500 */\n      swap1\n      pop\n      jump(tag_39)\n        /* \"task-1/vo.sol\":878:904  if (num == \"D\") return 500 */\n    tag_45:\n        /* \"task-1/vo.sol\":919:929  num == \"M\" */\n      0x4d00000000000000000000000000000000000000000000000000000000000000\n        /* \"task-1/vo.sol\":919:922  num */\n      dup3\n        /* \"task-1/vo.sol\":919:929  num == \"M\" */\n      not(0xffffffffffffffffffffffffffffffffffffffffffffffffffffffffffffff)\n      and\n      sub\n        /* \"task-1/vo.sol\":915:942  if (num == \"M\") return 1000 */\n      tag_46\n      jumpi\n        /* \"task-1/vo.sol\":938:942  1000 */\n      0x03e8\n        /* \"task-1/vo.sol\":931:942  return 1000 */\n      swap1\n      pop\n      jump(tag_39)\n        /* \"task-1/vo.sol\":915:942  if (num == \"M\") return 1000 */\n    tag_46:\n        /* \"task-1/vo.sol\":960:961  0 */\n      0x00\n        /* \"task-1/vo.sol\":953:961  return 0 */\n      swap1\n      pop\n        /* \"task-1/vo.sol\":626:969  function _getValue(bytes1 num) private pure returns (uint256) {... */\n    tag_39:\n      swap2\n      swap1\n      pop\n      jump\t// out\n        /* \"#utility.yul\":7:82   */\n    tag_47:\n        /* \"#utility.yul\":40:46   */\n      0x00\n        /* \"#utility.yul\":73:75   */\n      0x40\n        /* \"#utility.yul\":67:76   */\n      mload\n        /* \"#utility.yul\":57:76   */\n      swap1\n      pop\n        /* \"#utility.yul\":7:82   */\n      swap1\n      jump\t// out\n        /* \"#utility.yul\":88:205   */\n    tag_48:\n        /* \"#utility.yul\":197:198   */\n      0x00\n        /* \"#utility.yul\":194:195   */\n      0x00\n        /* \"#utility.yul\":187:199   */\n      revert\n        /* \"#utility.yul\":211:328   */\n    tag_49:\n        /* \"#utility.yul\":320:321   */\n      0x00\n        /* \"#utility.yul\":317:318   */\n      0x00\n        /* \"#utility.yul\":310:322   */\n      revert\n        /* \"#utility.yul\":334:451   */\n    tag_50:\n        /* \"#utility.yul\":443:444   */\n      0x00\n        /* \"#utility.yul\":440:441   */\n      0x00\n        /* \"#utility.yul\":433:445   */\n      revert\n        /* \"#utility.yul\":457:574   */\n    tag_51:\n        /* \"#utility.yul\":566:567   */\n      0x00\n        /* \"#utility.yul\":563:564   */\n      0x00\n        /* \"#utility.yul\":556:568   */\n      revert\n        /* \"#utility.yul\":580:682   */\n    tag_52:\n        /* \"#utility.yul\":621:627   */\n      0x00\n        /* \"#utility.yul\":672:674   */\n      0x1f\n        /* \"#utility.yul\":668:675   */\n      not\n        /* \"#utility.yul\":663:665   */\n      0x1f\n        /* \"#utility.yul\":656:661   */\n      dup4\n        /* \"#utility.yul\":652:666   */\n      add\n        /* \"#utility.yul\":648:676   */\n      and\n        /* \"#utility.yul\":638:676   */\n      swap1\n      pop\n        /* \"#utility.yul\":580:682   */\n      swap2\n      swap1\n      pop\n      jump\t// out\n        /* \"#utility.yul\":688:868   */\n    tag_53:\n        /* \"#utility.yul\":736:813   */\n      0x4e487b7100000000000000000000000000000000000000000000000000000000\n        /* \"#utility.yul\":733:734   */\n      0x00\n        /* \"#utility.yul\":726:814   */\n      mstore\n        /* \"#utility.yul\":833:837   */\n      0x41\n        /* \"#utility.yul\":830:831   */\n      0x04\n        /* \"#utility.yul\":823:838   */\n      mstore\n        /* \"#utility.yul\":857:861   */\n      0x24\n        /* \"#utility.yul\":854:855   */\n      0x00\n        /* \"#utility.yul\":847:862   */\n      revert\n        /* \"#utility.yul\":874:1155   */\n    tag_54:\n        /* \"#utility.yul\":957:984   */\n      tag_73\n        /* \"#utility.yul\":979:983   */\n      dup3\n        /* \"#utility.yul\":957:984   */\n      tag_52\n      jump\t// in\n    tag_73:\n        /* \"#utility.yul\":949:955   */\n      dup2\n        /* \"#utility.yul\":945:985   */\n      add\n        /* \"#utility.yul\":1087:1093   */\n      dup2\n        /* \"#utility.yul\":1075:1085   */\n      dup2\n        /* \"#utility.yul\":1072:1094   */\n      lt\n        /* \"#utility.yul\":1051:1069   */\n      0xffffffffffffffff\n        /* \"#utility.yul\":1039:1049   */\n      dup3\n        /* \"#utility.yul\":1036:1070   */\n      gt\n        /* \"#utility.yul\":1033:1095   */\n      or\n        /* \"#utility.yul\":1030:1118   */\n      iszero\n      tag_74\n      jumpi\n        /* \"#utility.yul\":1098:1116   */\n      tag_75\n      tag_53\n      jump\t// in\n    tag_75:\n        /* \"#utility.yul\":1030:1118   */\n    tag_74:\n        /* \"#utility.yul\":1138:1148   */\n      dup1\n        /* \"#utility.yul\":1134:1136   */\n      0x40\n        /* \"#utility.yul\":1127:1149   */\n      mstore\n        /* \"#utility.yul\":917:1155   */\n      pop\n        /* \"#utility.yul\":874:1155   */\n      pop\n      pop\n      jump\t// out\n        /* \"#utility.yul\":1161:1290   */\n    tag_55:\n        /* \"#utility.yul\":1195:1201   */\n      0x00\n        /* \"#utility.yul\":1222:1242   */\n      tag_77\n      tag_47\n      jump\t// in\n    tag_77:\n        /* \"#utility.yul\":1212:1242   */\n      swap1\n      pop\n        /* \"#utility.yul\":1251:1284   */\n      tag_78\n        /* \"#utility.yul\":1279:1283   */\n      dup3\n        /* \"#utility.yul\":1271:1277   */\n      dup3\n        /* \"#utility.yul\":1251:1284   */\n      tag_54\n      jump\t// in\n    tag_78:\n        /* \"#utility.yul\":1161:1290   */\n      swap2\n      swap1\n      pop\n      jump\t// out\n        /* \"#utility.yul\":1296:1604   */\n    tag_56:\n        /* \"#utility.yul\":1358:1362   */\n      0x00\n        /* \"#utility.yul\":1448:1466   */\n      0xffffffffffffffff\n        /* \"#utility.yul\":1440:1446   */\n      dup3\n        /* \"#utility.yul\":1437:1467   */\n      gt\n        /* \"#utility.yul\":1434:1490   */\n      iszero\n      tag_80\n      jumpi\n        /* \"#utility.yul\":1470:1488   */\n      tag_81\n      tag_53\n      jump\t// in\n    tag_81:\n        /* \"#utility.yul\":1434:1490   */\n    tag_80:\n        /* \"#utility.yul\":1508:1537   */\n      tag_82\n        /* \"#utility.yul\":1530:1536   */\n      dup3\n        /* \"#utility.yul\":1508:1537   */\n      tag_52\n      jump\t// in\n    tag_82:\n        /* \"#utility.yul\":1500:1537   */\n      swap1\n      pop\n        /* \"#utility.yul\":1592:1596   */\n      0x20\n        /* \"#utility.yul\":1586:1590   */\n      dup2\n        /* \"#utility.yul\":1582:1597   */\n      add\n        /* \"#utility.yul\":1574:1597   */\n      swap1\n      pop\n        /* \"#utility.yul\":1296:1604   */\n      swap2\n      swap1\n      pop\n      jump\t// out\n        /* \"#utility.yul\":1610:1758   */\n    tag_57:\n        /* \"#utility.yul\":1708:1714   */\n      dup3\n        /* \"#utility.yul\":1703:1706   */\n      dup2\n        /* \"#utility.yul\":1698:1701   */\n      dup4\n        /* \"#utility.yul\":1685:1715   */\n      calldatacopy\n        /* \"#utility.yul\":1749:1750   */\n      0x00\n        /* \"#utility.yul\":1740:1746   */\n      dup4\n        /* \"#utility.yul\":1735:1738   */\n      dup4\n        /* \"#utility.yul\":1731:1747   */\n      add\n        /* \"#utility.yul\":1724:1751   */\n      mstore\n        /* \"#utility.yul\":1610:1758   */\n      pop\n      pop\n      pop\n      jump\t// out\n        /* \"#utility.yul\":1764:2189   */\n    tag_58:\n        /* \"#utility.yul\":1842:1847   */\n      0x00\n        /* \"#utility.yul\":1867:1933   */\n      tag_85\n        /* \"#utility.yul\":1883:1932   */\n      tag_86\n        /* \"#utility.yul\":1925:1931   */\n      dup5\n        /* \"#utility.yul\":1883:1932   */\n      tag_56\n      jump\t// in\n    tag_86:\n        /* \"#utility.yul\":1867:1933   */\n      tag_55\n      jump\t// in\n    tag_85:\n        /* \"#utility.yul\":1858:1933   */\n      swap1\n      pop\n        /* \"#utility.yul\":1956:1962   */\n      dup3\n        /* \"#utility.yul\":1949:1954   */\n      dup2\n        /* \"#utility.yul\":1942:1963   */\n      mstore\n        /* \"#utility.yul\":1994:1998   */\n      0x20\n        /* \"#utility.yul\":1987:1992   */\n      dup2\n        /* \"#utility.yul\":1983:1999   */\n      add\n        /* \"#utility.yul\":2032:2035   */\n      dup5\n        /* \"#utility.yul\":2023:2029   */\n      dup5\n        /* \"#utility.yul\":2018:2021   */\n      dup5\n        /* \"#utility.yul\":2014:2030   */\n      add\n        /* \"#utility.yul\":2011:2036   */\n      gt\n        /* \"#utility.yul\":2008:2120   */\n      iszero\n      tag_87\n      jumpi\n        /* \"#utility.yul\":2039:2118   */\n      tag_88\n      tag_51\n      jump\t// in\n    tag_88:\n        /* \"#utility.yul\":2008:2120   */\n    tag_87:\n        /* \"#utility.yul\":2129:2183   */\n      tag_89\n        /* \"#utility.yul\":2176:2182   */\n      dup5\n        /* \"#utility.yul\":2171:2174   */\n      dup3\n        /* \"#utility.yul\":2166:2169   */\n      dup6\n        /* \"#utility.yul\":2129:2183   */\n      tag_57\n      jump\t// in\n    tag_89:\n        /* \"#utility.yul\":1848:2189   */\n      pop\n        /* \"#utility.yul\":1764:2189   */\n      swap4\n      swap3\n      pop\n      pop\n      pop\n      jump\t// out\n        /* \"#utility.yul\":2209:2549   */\n    tag_59:\n        /* \"#utility.yul\":2265:2270   */\n      0x00\n        /* \"#utility.yul\":2314:2317   */\n      dup3\n        /* \"#utility.yul\":2307:2311   */\n      0x1f\n        /* \"#utility.yul\":2299:2305   */\n      dup4\n        /* \"#utility.yul\":2295:2312   */\n      add\n        /* \"#utility.yul\":2291:2318   */\n      slt\n        /* \"#utility.yul\":2281:2403   */\n      tag_91\n      jumpi\n        /* \"#utility.yul\":2322:2401   */\n      tag_92\n      tag_50\n      jump\t// in\n    tag_92:\n        /* \"#utility.yul\":2281:2403   */\n    tag_91:\n        /* \"#utility.yul\":2439:2445   */\n      dup2\n        /* \"#utility.yul\":2426:2446   */\n      calldataload\n        /* \"#utility.yul\":2464:2543   */\n      tag_93\n        /* \"#utility.yul\":2539:2542   */\n      dup5\n        /* \"#utility.yul\":2531:2537   */\n      dup3\n        /* \"#utility.yul\":2524:2528   */\n      0x20\n        /* \"#utility.yul\":2516:2522   */\n      dup7\n        /* \"#utility.yul\":2512:2529   */\n      add\n        /* \"#utility.yul\":2464:2543   */\n      tag_58\n      jump\t// in\n    tag_93:\n        /* \"#utility.yul\":2455:2543   */\n      swap2\n      pop\n        /* \"#utility.yul\":2271:2549   */\n      pop\n        /* \"#utility.yul\":2209:2549   */\n      swap3\n      swap2\n      pop\n      pop\n      jump\t// out\n        /* \"#utility.yul\":2555:3064   */\n    tag_6:\n        /* \"#utility.yul\":2624:2630   */\n      0x00\n        /* \"#utility.yul\":2673:2675   */\n      0x20\n        /* \"#utility.yul\":2661:2670   */\n      dup3\n        /* \"#utility.yul\":2652:2659   */\n      dup5\n        /* \"#utility.yul\":2648:2671   */\n      sub\n        /* \"#utility.yul\":2644:2676   */\n      slt\n        /* \"#utility.yul\":2641:2760   */\n      iszero\n      tag_95\n      jumpi\n        /* \"#utility.yul\":2679:2758   */\n      tag_96\n      tag_48\n      jump\t// in\n    tag_96:\n        /* \"#utility.yul\":2641:2760   */\n    tag_95:\n        /* \"#utility.yul\":2827:2828   */\n      0x00\n        /* \"#utility.yul\":2816:2825   */\n      dup3\n        /* \"#utility.yul\":2812:2829   */\n      add\n        /* \"#utility.yul\":2799:2830   */\n      calldataload\n        /* \"#utility.yul\":2857:2875   */\n      0xffffffffffffffff\n        /* \"#utility.yul\":2849:2855   */\n      dup2\n        /* \"#utility.yul\":2846:2876   */\n      gt\n        /* \"#utility.yul\":2843:2960   */\n      iszero\n      tag_97\n      jumpi\n        /* \"#utility.yul\":2879:2958   */\n      tag_98\n      tag_49\n      jump\t// in\n    tag_98:\n        /* \"#utility.yul\":2843:2960   */\n    tag_97:\n        /* \"#utility.yul\":2984:3047   */\n      tag_99\n        /* \"#utility.yul\":3039:3046   */\n      dup5\n        /* \"#utility.yul\":3030:3036   */\n      dup3\n        /* \"#utility.yul\":3019:3028   */\n      dup6\n        /* \"#utility.yul\":3015:3037   */\n      add\n        /* \"#utility.yul\":2984:3047   */\n      tag_59\n      jump\t// in\n    tag_99:\n        /* \"#utility.yul\":2974:3047   */\n      swap2\n      pop\n        /* \"#utility.yul\":2770:3057   */\n      pop\n        /* \"#utility.yul\":2555:3064   */\n      swap3\n      swap2\n      pop\n      pop\n      jump\t// out\n        /* \"#utility.yul\":3070:3147   */\n    tag_60:\n        /* \"#utility.yul\":3107:3114   */\n      0x00\n        /* \"#utility.yul\":3136:3141   */\n      dup2\n        /* \"#utility.yul\":3125:3141   */\n      swap1\n      pop\n        /* \"#utility.yul\":3070:3147   */\n      swap2\n      swap1\n      pop\n      jump\t// out\n        /* \"#utility.yul\":3153:3271   */\n    tag_61:\n        /* \"#utility.yul\":3240:3264   */\n      tag_102\n        /* \"#utility.yul\":3258:3263   */\n      dup2\n        /* \"#utility.yul\":3240:3264   */\n      tag_60\n      jump\t// in\n    tag_102:\n        /* \"#utility.yul\":3235:3238   */\n      dup3\n        /* \"#utility.yul\":3228:3265   */\n      mstore\n        /* \"#utility.yul\":3153:3271   */\n      pop\n      pop\n      jump\t// out\n        /* \"#utility.yul\":3277:3499   */\n    tag_9:\n        /* \"#utility.yul\":3370:3374   */\n      0x00\n        /* \"#utility.yul\":3408:3410   */\n      0x20\n        /* \"#utility.yul\":3397:3406   */\n      dup3\n        /* \"#utility.yul\":3393:3411   */\n      add\n        /* \"#utility.yul\":3385:3411   */\n      swap1\n      pop\n        /* \"#utility.yul\":3421:3492   */\n      tag_104\n        /* \"#utility.yul\":3489:3490   */\n      0x00\n        /* \"#utility.yul\":3478:3487   */\n      dup4\n        /* \"#utility.yul\":3474:3491   */\n      add\n        /* \"#utility.yul\":3465:3471   */\n      dup5\n        /* \"#utility.yul\":3421:3492   */\n      tag_61\n      jump\t// in\n    tag_104:\n        /* \"#utility.yul\":3277:3499   */\n      swap3\n      swap2\n      pop\n      pop\n      jump\t// out\n        /* \"#utility.yul\":3505:3685   */\n    tag_62:\n        /* \"#utility.yul\":3553:3630   */\n      0x4e487b7100000000000000000000000000000000000000000000000000000000\n        /* \"#utility.yul\":3550:3551   */\n      0x00\n        /* \"#utility.yul\":3543:3631   */\n      mstore\n        /* \"#utility.yul\":3650:3654   */\n      0x11\n        /* \"#utility.yul\":3647:3648   */\n      0x04\n        /* \"#utility.yul\":3640:3655   */\n      mstore\n        /* \"#utility.yul\":3674:3678   */\n      0x24\n        /* \"#utility.yul\":3671:3672   */\n      0x00\n        /* \"#utility.yul\":3664:3679   */\n      revert\n        /* \"#utility.yul\":3691:3885   */\n    tag_15:\n        /* \"#utility.yul\":3731:3735   */\n      0x00\n        /* \"#utility.yul\":3751:3771   */\n      tag_107\n        /* \"#utility.yul\":3769:3770   */\n      dup3\n        /* \"#utility.yul\":3751:3771   */\n      tag_60\n      jump\t// in\n    tag_107:\n        /* \"#utility.yul\":3746:3771   */\n      swap2\n      pop\n        /* \"#utility.yul\":3785:3805   */\n      tag_108\n        /* \"#utility.yul\":3803:3804   */\n      dup4\n        /* \"#utility.yul\":3785:3805   */\n      tag_60\n      jump\t// in\n    tag_108:\n        /* \"#utility.yul\":3780:3805   */\n      swap3\n      pop\n        /* \"#utility.yul\":3829:3830   */\n      dup3\n        /* \"#utility.yul\":3826:3827   */\n      dup3\n        /* \"#utility.yul\":3822:3831   */\n      sub\n        /* \"#utility.yul\":3814:3831   */\n      swap1\n      pop\n        /* \"#utility.yul\":3853:3854   */\n      dup2\n        /* \"#utility.yul\":3847:3851   */\n      dup2\n        /* \"#utility.yul\":3844:3855   */\n      gt\n        /* \"#utility.yul\":3841:3878   */\n      iszero\n      tag_109\n      jumpi\n        /* \"#utility.yul\":3858:3876   */\n      tag_110\n      tag_62\n      jump\t// in\n    tag_110:\n        /* \"#utility.yul\":3841:3878   */\n    tag_109:\n        /* \"#utility.yul\":3691:3885   */\n      swap3\n      swap2\n      pop\n      pop\n      jump\t// out\n        /* \"#utility.yul\":3891:4082   */\n    tag_19:\n        /* \"#utility.yul\":3931:3934   */\n      0x00\n        /* \"#utility.yul\":3950:3970   */\n      tag_112\n        /* \"#utility.yul\":3968:3969   */\n      dup3\n        /* \"#utility.yul\":3950:3970   */\n      tag_60\n      jump\t// in\n    tag_112:\n        /* \"#utility.yul\":3945:3970   */\n      swap2\n      pop\n        /* \"#utility.yul\":3984:4004   */\n      tag_113\n        /* \"#utility.yul\":4002:4003   */\n      dup4\n        /* \"#utility.yul\":3984:4004   */\n      tag_60\n      jump\t// in\n    tag_113:\n        /* \"#utility.yul\":3979:4004   */\n      swap3\n      pop\n        /* \"#utility.yul\":4027:4028   */\n      dup3\n        /* \"#utility.yul\":4024:4025   */\n      dup3\n        /* \"#utility.yul\":4020:4029   */\n      add\n        /* \"#utility.yul\":4013:4029   */\n      swap1\n      pop\n        /* \"#utility.yul\":4048:4051   */\n      dup1\n        /* \"#utility.yul\":4045:4046   */\n      dup3\n        /* \"#utility.yul\":4042:4052   */\n      gt\n        /* \"#utility.yul\":4039:4075   */\n      iszero\n      tag_114\n      jumpi\n        /* \"#utility.yul\":4055:4073   */\n      tag_115\n      tag_62\n      jump\t// in\n    tag_115:\n        /* \"#utility.yul\":4039:4075   */\n    tag_114:\n        /* \"#utility.yul\":3891:4082   */\n      swap3\n      swap2\n      pop\n      pop\n      jump\t// out\n        /* \"#utility.yul\":4088:4268   */\n    tag_22:\n        /* \"#utility.yul\":4136:4213   */\n      0x4e487b7100000000000000000000000000000000000000000000000000000000\n        /* \"#utility.yul\":4133:4134   */\n      0x00\n        /* \"#utility.yul\":4126:4214   */\n      mstore\n        /* \"#utility.yul\":4233:4237   */\n      0x32\n        /* \"#utility.yul\":4230:4231   */\n      0x04\n        /* \"#utility.yul\":4223:4238   */\n      mstore\n        /* \"#utility.yul\":4257:4261   */\n      0x24\n        /* \"#utility.yul\":4254:4255   */\n      0x00\n        /* \"#utility.yul\":4247:4262   */\n      revert\n        /* \"#utility.yul\":4274:4350   */\n    tag_63:\n        /* \"#utility.yul\":4310:4317   */\n      0x00\n        /* \"#utility.yul\":4339:4344   */\n      dup2\n        /* \"#utility.yul\":4328:4344   */\n      swap1\n      pop\n        /* \"#utility.yul\":4274:4350   */\n      swap2\n      swap1\n      pop\n      jump\t// out\n        /* \"#utility.yul\":4356:4728   */\n    tag_32:\n        /* \"#utility.yul\":4395:4399   */\n      0x00\n        /* \"#utility.yul\":4415:4434   */\n      tag_119\n        /* \"#utility.yul\":4432:4433   */\n      dup3\n        /* \"#utility.yul\":4415:4434   */\n      tag_63\n      jump\t// in\n    tag_119:\n        /* \"#utility.yul\":4410:4434   */\n      swap2\n      pop\n        /* \"#utility.yul\":4448:4467   */\n      tag_120\n        /* \"#utility.yul\":4465:4466   */\n      dup4\n        /* \"#utility.yul\":4448:4467   */\n      tag_63\n      jump\t// in\n    tag_120:\n        /* \"#utility.yul\":4443:4467   */\n      swap3\n      pop\n        /* \"#utility.yul\":4491:4492   */\n      dup3\n        /* \"#utility.yul\":4488:4489   */\n      dup3\n        /* \"#utility.yul\":4484:4493   */\n      sub\n        /* \"#utility.yul\":4476:4493   */\n      swap1\n      pop\n        /* \"#utility.yul\":4685:4686   */\n      dup2\n        /* \"#utility.yul\":4679:4683   */\n      dup2\n        /* \"#utility.yul\":4675:4687   */\n      slt\n        /* \"#utility.yul\":4671:4672   */\n      0x00\n        /* \"#utility.yul\":4668:4669   */\n      dup5\n        /* \"#utility.yul\":4664:4673   */\n      slt\n        /* \"#utility.yul\":4660:4688   */\n      and\n        /* \"#utility.yul\":4643:4644   */\n      dup3\n        /* \"#utility.yul\":4637:4641   */\n      dup3\n        /* \"#utility.yul\":4633:4645   */\n      sgt\n        /* \"#utility.yul\":4628:4629   */\n      0x00\n        /* \"#utility.yul\":4625:4626   */\n      dup6\n        /* \"#utility.yul\":4621:4630   */\n      slt\n        /* \"#utility.yul\":4614:4631   */\n      iszero\n        /* \"#utility.yul\":4610:4646   */\n      and\n        /* \"#utility.yul\":4594:4698   */\n      or\n        /* \"#utility.yul\":4591:4721   */\n      iszero\n      tag_121\n      jumpi\n        /* \"#utility.yul\":4701:4719   */\n      tag_122\n      tag_62\n      jump\t// in\n    tag_122:\n        /* \"#utility.yul\":4591:4721   */\n    tag_121:\n        /* \"#utility.yul\":4356:4728   */\n      swap3\n      swap2\n      pop\n      pop\n      jump\t// out\n        /* \"#utility.yul\":4734:5109   */\n    tag_38:\n        /* \"#utility.yul\":4773:4776   */\n      0x00\n        /* \"#utility.yul\":4792:4811   */\n      tag_124\n        /* \"#utility.yul\":4809:4810   */\n      dup3\n        /* \"#utility.yul\":4792:4811   */\n      tag_63\n      jump\t// in\n    tag_124:\n        /* \"#utility.yul\":4787:4811   */\n      swap2\n      pop\n        /* \"#utility.yul\":4825:4844   */\n      tag_125\n        /* \"#utility.yul\":4842:4843   */\n      dup4\n        /* \"#utility.yul\":4825:4844   */\n      tag_63\n      jump\t// in\n    tag_125:\n        /* \"#utility.yul\":4820:4844   */\n      swap3\n      pop\n        /* \"#utility.yul\":4867:4868   */\n      dup3\n        /* \"#utility.yul\":4864:4865   */\n      dup3\n        /* \"#utility.yul\":4860:4869   */\n      add\n        /* \"#utility.yul\":4853:4869   */\n      swap1\n      pop\n        /* \"#utility.yul\":5065:5066   */\n      dup3\n        /* \"#utility.yul\":5060:5063   */\n      dup2\n        /* \"#utility.yul\":5056:5067   */\n      slt\n        /* \"#utility.yul\":5049:5068   */\n      iszero\n        /* \"#utility.yul\":5045:5046   */\n      0x00\n        /* \"#utility.yul\":5042:5043   */\n      dup4\n        /* \"#utility.yul\":5038:5047   */\n      slt\n        /* \"#utility.yul\":5034:5069   */\n      and\n        /* \"#utility.yul\":5017:5018   */\n      dup4\n        /* \"#utility.yul\":5012:5015   */\n      dup3\n        /* \"#utility.yul\":5008:5019   */\n      slt\n        /* \"#utility.yul\":5003:5004   */\n      0x00\n        /* \"#utility.yul\":5000:5001   */\n      dup5\n        /* \"#utility.yul\":4996:5005   */\n      slt\n        /* \"#utility.yul\":4989:5006   */\n      iszero\n        /* \"#utility.yul\":4985:5020   */\n      and\n        /* \"#utility.yul\":4969:5079   */\n      or\n        /* \"#utility.yul\":4966:5102   */\n      iszero\n      tag_126\n      jumpi\n        /* \"#utility.yul\":5082:5100   */\n      tag_127\n      tag_62\n      jump\t// in\n    tag_127:\n        /* \"#utility.yul\":4966:5102   */\n    tag_126:\n        /* \"#utility.yul\":4734:5109   */\n      swap3\n      swap2\n      pop\n      pop\n      jump\t// out\n\n    auxdata: 0xa26469706673582212202d3e0bc4640339e9406c96db461c9d84fbd60901a5c0250d25f640f6943a007b64736f6c634300081e0033\n}\n",
				"bytecode": {
					"linkReferences": {},
					"object": "6080604052348015600e575f5ffd5b506107018061001c5f395ff3fe608060405234801561000f575f5ffd5b5060043610610029575f3560e01c8063791d6b3b1461002d575b5f5ffd5b61004760048036038101906100429190610509565b61005d565b6040516100549190610568565b60405180910390f35b5f5f8290505f815190505f5f90505f5f90505b828110156101665760018361008591906105ae565b811080156100e857506100c08460018361009f91906105e1565b815181106100b0576100af610614565b5b602001015160f81c60f81b610172565b6100e68583815181106100d6576100d5610614565b5b602001015160f81c60f81b610172565b105b156101255761011384828151811061010357610102610614565b5b602001015160f81c60f81b610172565b8261011e919061064a565b9150610159565b61014b84828151811061013b5761013a610614565b5b602001015160f81c60f81b610172565b82610156919061068a565b91505b8080600101915050610070565b50809350505050919050565b5f7f4900000000000000000000000000000000000000000000000000000000000000827effffffffffffffffffffffffffffffffffffffffffffffffffffffffffffff1916036101c557600190506103b7565b7f5600000000000000000000000000000000000000000000000000000000000000827effffffffffffffffffffffffffffffffffffffffffffffffffffffffffffff19160361021757600590506103b7565b7f5800000000000000000000000000000000000000000000000000000000000000827effffffffffffffffffffffffffffffffffffffffffffffffffffffffffffff19160361026957600a90506103b7565b7f4c00000000000000000000000000000000000000000000000000000000000000827effffffffffffffffffffffffffffffffffffffffffffffffffffffffffffff1916036102bb57603290506103b7565b7f4300000000000000000000000000000000000000000000000000000000000000827effffffffffffffffffffffffffffffffffffffffffffffffffffffffffffff19160361030d57606490506103b7565b7f4400000000000000000000000000000000000000000000000000000000000000827effffffffffffffffffffffffffffffffffffffffffffffffffffffffffffff191603610360576101f490506103b7565b7f4d00000000000000000000000000000000000000000000000000000000000000827effffffffffffffffffffffffffffffffffffffffffffffffffffffffffffff1916036103b3576103e890506103b7565b5f90505b919050565b5f604051905090565b5f5ffd5b5f5ffd5b5f5ffd5b5f5ffd5b5f601f19601f8301169050919050565b7f4e487b71000000000000000000000000000000000000000000000000000000005f52604160045260245ffd5b61041b826103d5565b810181811067ffffffffffffffff8211171561043a576104396103e5565b5b80604052505050565b5f61044c6103bc565b90506104588282610412565b919050565b5f67ffffffffffffffff821115610477576104766103e5565b5b610480826103d5565b9050602081019050919050565b828183375f83830152505050565b5f6104ad6104a88461045d565b610443565b9050828152602081018484840111156104c9576104c86103d1565b5b6104d484828561048d565b509392505050565b5f82601f8301126104f0576104ef6103cd565b5b813561050084826020860161049b565b91505092915050565b5f6020828403121561051e5761051d6103c5565b5b5f82013567ffffffffffffffff81111561053b5761053a6103c9565b5b610547848285016104dc565b91505092915050565b5f819050919050565b61056281610550565b82525050565b5f60208201905061057b5f830184610559565b92915050565b7f4e487b71000000000000000000000000000000000000000000000000000000005f52601160045260245ffd5b5f6105b882610550565b91506105c383610550565b92508282039050818111156105db576105da610581565b5b92915050565b5f6105eb82610550565b91506105f683610550565b925082820190508082111561060e5761060d610581565b5b92915050565b7f4e487b71000000000000000000000000000000000000000000000000000000005f52603260045260245ffd5b5f819050919050565b5f61065482610641565b915061065f83610641565b925082820390508181125f8412168282135f85121516171561068457610683610581565b5b92915050565b5f61069482610641565b915061069f83610641565b92508282019050828112155f8312168382125f8412151617156106c5576106c4610581565b5b9291505056fea26469706673582212202d3e0bc4640339e9406c96db461c9d84fbd60901a5c0250d25f640f6943a007b64736f6c634300081e0033",
					"opcodes": "PUSH1 0x80 PUSH1 0x40 MSTORE CALLVALUE DUP1 ISZERO PUSH1 0xE JUMPI PUSH0 PUSH0 REVERT JUMPDEST POP PUSH2 0x701 DUP1 PUSH2 0x1C PUSH0 CODECOPY PUSH0 RETURN INVALID PUSH1 0x80 PUSH1 0x40 MSTORE CALLVALUE DUP1 ISZERO PUSH2 0xF JUMPI PUSH0 PUSH0 REVERT JUMPDEST POP PUSH1 0x4 CALLDATASIZE LT PUSH2 0x29 JUMPI PUSH0 CALLDATALOAD PUSH1 0xE0 SHR DUP1 PUSH4 0x791D6B3B EQ PUSH2 0x2D JUMPI JUMPDEST PUSH0 PUSH0 REVERT JUMPDEST PUSH2 0x47 PUSH1 0x4 DUP1 CALLDATASIZE SUB DUP2 ADD SWAP1 PUSH2 0x42 SWAP2 SWAP1 PUSH2 0x509 JUMP JUMPDEST PUSH2 0x5D JUMP JUMPDEST PUSH1 0x40 MLOAD PUSH2 0x54 SWAP2 SWAP1 PUSH2 0x568 JUMP JUMPDEST PUSH1 0x40 MLOAD DUP1 SWAP2 SUB SWAP1 RETURN JUMPDEST PUSH0 PUSH0 DUP3 SWAP1 POP PUSH0 DUP2 MLOAD SWAP1 POP PUSH0 PUSH0 SWAP1 POP PUSH0 PUSH0 SWAP1 POP JUMPDEST DUP3 DUP2 LT ISZERO PUSH2 0x166 JUMPI PUSH1 0x1 DUP4 PUSH2 0x85 SWAP2 SWAP1 PUSH2 0x5AE JUMP JUMPDEST DUP2 LT DUP1 ISZERO PUSH2 0xE8 JUMPI POP PUSH2 0xC0 DUP5 PUSH1 0x1 DUP4 PUSH2 0x9F SWAP2 SWAP1 PUSH2 0x5E1 JUMP JUMPDEST DUP2 MLOAD DUP2 LT PUSH2 0xB0 JUMPI PUSH2 0xAF PUSH2 0x614 JUMP JUMPDEST JUMPDEST PUSH1 0x20 ADD ADD MLOAD PUSH1 0xF8 SHR PUSH1 0xF8 SHL PUSH2 0x172 JUMP JUMPDEST PUSH2 0xE6 DUP6 DUP4 DUP2 MLOAD DUP2 LT PUSH2 0xD6 JUMPI PUSH2 0xD5 PUSH2 0x614 JUMP JUMPDEST JUMPDEST PUSH1 0x20 ADD ADD MLOAD PUSH1 0xF8 SHR PUSH1 0xF8 SHL PUSH2 0x172 JUMP JUMPDEST LT JUMPDEST ISZERO PUSH2 0x125 JUMPI PUSH2 0x113 DUP5 DUP3 DUP2 MLOAD DUP2 LT PUSH2 0x103 JUMPI PUSH2 0x102 PUSH2 0x614 JUMP JUMPDEST JUMPDEST PUSH1 0x20 ADD ADD MLOAD PUSH1 0xF8 SHR PUSH1 0xF8 SHL PUSH2 0x172 JUMP JUMPDEST DUP3 PUSH2 0x11E SWAP2 SWAP1 PUSH2 0x64A JUMP JUMPDEST SWAP2 POP PUSH2 0x159 JUMP JUMPDEST PUSH2 0x14B DUP5 DUP3 DUP2 MLOAD DUP2 LT PUSH2 0x13B JUMPI PUSH2 0x13A PUSH2 0x614 JUMP JUMPDEST JUMPDEST PUSH1 0x20 ADD ADD MLOAD PUSH1 0xF8 SHR PUSH1 0xF8 SHL PUSH2 0x172 JUMP JUMPDEST DUP3 PUSH2 0x156 SWAP2 SWAP1 PUSH2 0x68A JUMP JUMPDEST SWAP2 POP JUMPDEST DUP1 DUP1 PUSH1 0x1 ADD SWAP2 POP POP PUSH2 0x70 JUMP JUMPDEST POP DUP1 SWAP4 POP POP POP POP SWAP2 SWAP1 POP JUMP JUMPDEST PUSH0 PUSH32 0x4900000000000000000000000000000000000000000000000000000000000000 DUP3 PUSH31 0xFFFFFFFFFFFFFFFFFFFFFFFFFFFFFFFFFFFFFFFFFFFFFFFFFFFFFFFFFFFFFF NOT AND SUB PUSH2 0x1C5 JUMPI PUSH1 0x1 SWAP1 POP PUSH2 0x3B7 JUMP JUMPDEST PUSH32 0x5600000000000000000000000000000000000000000000000000000000000000 DUP3 PUSH31 0xFFFFFFFFFFFFFFFFFFFFFFFFFFFFFFFFFFFFFFFFFFFFFFFFFFFFFFFFFFFFFF NOT AND SUB PUSH2 0x217 JUMPI PUSH1 0x5 SWAP1 POP PUSH2 0x3B7 JUMP JUMPDEST PUSH32 0x5800000000000000000000000000000000000000000000000000000000000000 DUP3 PUSH31 0xFFFFFFFFFFFFFFFFFFFFFFFFFFFFFFFFFFFFFFFFFFFFFFFFFFFFFFFFFFFFFF NOT AND SUB PUSH2 0x269 JUMPI PUSH1 0xA SWAP1 POP PUSH2 0x3B7 JUMP JUMPDEST PUSH32 0x4C00000000000000000000000000000000000000000000000000000000000000 DUP3 PUSH31 0xFFFFFFFFFFFFFFFFFFFFFFFFFFFFFFFFFFFFFFFFFFFFFFFFFFFFFFFFFFFFFF NOT AND SUB PUSH2 0x2BB JUMPI PUSH1 0x32 SWAP1 POP PUSH2 0x3B7 JUMP JUMPDEST PUSH32 0x4300000000000000000000000000000000000000000000000000000000000000 DUP3 PUSH31 0xFFFFFFFFFFFFFFFFFFFFFFFFFFFFFFFFFFFFFFFFFFFFFFFFFFFFFFFFFFFFFF NOT AND SUB PUSH2 0x30D JUMPI PUSH1 0x64 SWAP1 POP PUSH2 0x3B7 JUMP JUMPDEST PUSH32 0x4400000000000000000000000000000000000000000000000000000000000000 DUP3 PUSH31 0xFFFFFFFFFFFFFFFFFFFFFFFFFFFFFFFFFFFFFFFFFFFFFFFFFFFFFFFFFFFFFF NOT AND SUB PUSH2 0x360 JUMPI PUSH2 0x1F4 SWAP1 POP PUSH2 0x3B7 JUMP JUMPDEST PUSH32 0x4D00000000000000000000000000000000000000000000000000000000000000 DUP3 PUSH31 0xFFFFFFFFFFFFFFFFFFFFFFFFFFFFFFFFFFFFFFFFFFFFFFFFFFFFFFFFFFFFFF NOT AND SUB PUSH2 0x3B3 JUMPI PUSH2 0x3E8 SWAP1 POP PUSH2 0x3B7 JUMP JUMPDEST PUSH0 SWAP1 POP JUMPDEST SWAP2 SWAP1 POP JUMP JUMPDEST PUSH0 PUSH1 0x40 MLOAD SWAP1 POP SWAP1 JUMP JUMPDEST PUSH0 PUSH0 REVERT JUMPDEST PUSH0 PUSH0 REVERT JUMPDEST PUSH0 PUSH0 REVERT JUMPDEST PUSH0 PUSH0 REVERT JUMPDEST PUSH0 PUSH1 0x1F NOT PUSH1 0x1F DUP4 ADD AND SWAP1 POP SWAP2 SWAP1 POP JUMP JUMPDEST PUSH32 0x4E487B7100000000000000000000000000000000000000000000000000000000 PUSH0 MSTORE PUSH1 0x41 PUSH1 0x4 MSTORE PUSH1 0x24 PUSH0 REVERT JUMPDEST PUSH2 0x41B DUP3 PUSH2 0x3D5 JUMP JUMPDEST DUP2 ADD DUP2 DUP2 LT PUSH8 0xFFFFFFFFFFFFFFFF DUP3 GT OR ISZERO PUSH2 0x43A JUMPI PUSH2 0x439 PUSH2 0x3E5 JUMP JUMPDEST JUMPDEST DUP1 PUSH1 0x40 MSTORE POP POP POP JUMP JUMPDEST PUSH0 PUSH2 0x44C PUSH2 0x3BC JUMP JUMPDEST SWAP1 POP PUSH2 0x458 DUP3 DUP3 PUSH2 0x412 JUMP JUMPDEST SWAP2 SWAP1 POP JUMP JUMPDEST PUSH0 PUSH8 0xFFFFFFFFFFFFFFFF DUP3 GT ISZERO PUSH2 0x477 JUMPI PUSH2 0x476 PUSH2 0x3E5 JUMP JUMPDEST JUMPDEST PUSH2 0x480 DUP3 PUSH2 0x3D5 JUMP JUMPDEST SWAP1 POP PUSH1 0x20 DUP2 ADD SWAP1 POP SWAP2 SWAP1 POP JUMP JUMPDEST DUP3 DUP2 DUP4 CALLDATACOPY PUSH0 DUP4 DUP4 ADD MSTORE POP POP POP JUMP JUMPDEST PUSH0 PUSH2 0x4AD PUSH2 0x4A8 DUP5 PUSH2 0x45D JUMP JUMPDEST PUSH2 0x443 JUMP JUMPDEST SWAP1 POP DUP3 DUP2 MSTORE PUSH1 0x20 DUP2 ADD DUP5 DUP5 DUP5 ADD GT ISZERO PUSH2 0x4C9 JUMPI PUSH2 0x4C8 PUSH2 0x3D1 JUMP JUMPDEST JUMPDEST PUSH2 0x4D4 DUP5 DUP3 DUP6 PUSH2 0x48D JUMP JUMPDEST POP SWAP4 SWAP3 POP POP POP JUMP JUMPDEST PUSH0 DUP3 PUSH1 0x1F DUP4 ADD SLT PUSH2 0x4F0 JUMPI PUSH2 0x4EF PUSH2 0x3CD JUMP JUMPDEST JUMPDEST DUP2 CALLDATALOAD PUSH2 0x500 DUP5 DUP3 PUSH1 0x20 DUP7 ADD PUSH2 0x49B JUMP JUMPDEST SWAP2 POP POP SWAP3 SWAP2 POP POP JUMP JUMPDEST PUSH0 PUSH1 0x20 DUP3 DUP5 SUB SLT ISZERO PUSH2 0x51E JUMPI PUSH2 0x51D PUSH2 0x3C5 JUMP JUMPDEST JUMPDEST PUSH0 DUP3 ADD CALLDATALOAD PUSH8 0xFFFFFFFFFFFFFFFF DUP2 GT ISZERO PUSH2 0x53B JUMPI PUSH2 0x53A PUSH2 0x3C9 JUMP JUMPDEST JUMPDEST PUSH2 0x547 DUP5 DUP3 DUP6 ADD PUSH2 0x4DC JUMP JUMPDEST SWAP2 POP POP SWAP3 SWAP2 POP POP JUMP JUMPDEST PUSH0 DUP2 SWAP1 POP SWAP2 SWAP1 POP JUMP JUMPDEST PUSH2 0x562 DUP2 PUSH2 0x550 JUMP JUMPDEST DUP3 MSTORE POP POP JUMP JUMPDEST PUSH0 PUSH1 0x20 DUP3 ADD SWAP1 POP PUSH2 0x57B PUSH0 DUP4 ADD DUP5 PUSH2 0x559 JUMP JUMPDEST SWAP3 SWAP2 POP POP JUMP JUMPDEST PUSH32 0x4E487B7100000000000000000000000000000000000000000000000000000000 PUSH0 MSTORE PUSH1 0x11 PUSH1 0x4 MSTORE PUSH1 0x24 PUSH0 REVERT JUMPDEST PUSH0 PUSH2 0x5B8 DUP3 PUSH2 0x550 JUMP JUMPDEST SWAP2 POP PUSH2 0x5C3 DUP4 PUSH2 0x550 JUMP JUMPDEST SWAP3 POP DUP3 DUP3 SUB SWAP1 POP DUP2 DUP2 GT ISZERO PUSH2 0x5DB JUMPI PUSH2 0x5DA PUSH2 0x581 JUMP JUMPDEST JUMPDEST SWAP3 SWAP2 POP POP JUMP JUMPDEST PUSH0 PUSH2 0x5EB DUP3 PUSH2 0x550 JUMP JUMPDEST SWAP2 POP PUSH2 0x5F6 DUP4 PUSH2 0x550 JUMP JUMPDEST SWAP3 POP DUP3 DUP3 ADD SWAP1 POP DUP1 DUP3 GT ISZERO PUSH2 0x60E JUMPI PUSH2 0x60D PUSH2 0x581 JUMP JUMPDEST JUMPDEST SWAP3 SWAP2 POP POP JUMP JUMPDEST PUSH32 0x4E487B7100000000000000000000000000000000000000000000000000000000 PUSH0 MSTORE PUSH1 0x32 PUSH1 0x4 MSTORE PUSH1 0x24 PUSH0 REVERT JUMPDEST PUSH0 DUP2 SWAP1 POP SWAP2 SWAP1 POP JUMP JUMPDEST PUSH0 PUSH2 0x654 DUP3 PUSH2 0x641 JUMP JUMPDEST SWAP2 POP PUSH2 0x65F DUP4 PUSH2 0x641 JUMP JUMPDEST SWAP3 POP DUP3 DUP3 SUB SWAP1 POP DUP2 DUP2 SLT PUSH0 DUP5 SLT AND DUP3 DUP3 SGT PUSH0 DUP6 SLT ISZERO AND OR ISZERO PUSH2 0x684 JUMPI PUSH2 0x683 PUSH2 0x581 JUMP JUMPDEST JUMPDEST SWAP3 SWAP2 POP POP JUMP JUMPDEST PUSH0 PUSH2 0x694 DUP3 PUSH2 0x641 JUMP JUMPDEST SWAP2 POP PUSH2 0x69F DUP4 PUSH2 0x641 JUMP JUMPDEST SWAP3 POP DUP3 DUP3 ADD SWAP1 POP DUP3 DUP2 SLT ISZERO PUSH0 DUP4 SLT AND DUP4 DUP3 SLT PUSH0 DUP5 SLT ISZERO AND OR ISZERO PUSH2 0x6C5 JUMPI PUSH2 0x6C4 PUSH2 0x581 JUMP JUMPDEST JUMPDEST SWAP3 SWAP2 POP POP JUMP INVALID LOG2 PUSH5 0x6970667358 0x22 SLT KECCAK256 0x2D RETURNDATACOPY SIGNEXTEND 0xC4 PUSH5 0x339E9406C SWAP7 0xDB CHAINID SHR SWAP14 DUP5 EXTSTATICCALL 0xD6 MULMOD ADD 0xA5 0xC0 0x25 0xD 0x25 0xF6 BLOCKHASH 0xF6 SWAP5 GASPRICE STOP PUSH28 0x64736F6C634300081E00330000000000000000000000000000000000 "
				},
				"gasEstimates": {
					"creation": {
						"codeDepositCost": "358600",
						"executionCost": "397",
						"totalCost": "358997"
					},
					"external": {
						"roman2Num(string)": "infinite"
					},
					"internal": {
						"_getValue(bytes1)": "262"
					}
				},
				"methodIdentifiers": {
					"roman2Num(string)": "791d6b3b"
				}
			},
			"storageLayout": {
				"storage": [],
				"types": null
			},
			"userdoc": {
				"kind": "user",
				"methods": {},
				"version": 1
			}
		}
	}
}