{
	"data": {
		"bytecode": {
			"linkReferences": {},
			"object": "6080604052348015600e575f5ffd5b506108008061001c5f395ff3fe608060405234801561000f575f5ffd5b5060043610610034575f3560e01c8063b12601da14610038578063e4f2b5d814610068575b5f5ffd5b610052600480360381019061004d9190610564565b610086565b60405161005f91906105d6565b60405180910390f35b610070610157565b60405161007d9190610694565b60405180910390f35b5f5f5f90505f845190505b8082101561012b575f600283836100a891906106da565b6100b2919061073a565b836100bd919061076a565b9050848682815181106100d3576100d261079d565b5b6020026020010151036100eb57809350505050610151565b848682815181106100ff576100fe61079d565b5b602002602001015110156101215760018161011a919061076a565b9250610125565b8091505b50610091565b7fffffffffffffffffffffffffffffffffffffffffffffffffffffffffffffffff925050505b92915050565b61015f6103ae565b5f600a67ffffffffffffffff81111561017b5761017a6103f5565b5b6040519080825280602002602001820160405280156101a95781602001602082028036833780820191505090505b5090506001815f815181106101c1576101c061079d565b5b6020026020010181815250506003816001815181106101e3576101e261079d565b5b6020026020010181815250506005816002815181106102055761020461079d565b5b6020026020010181815250506007816003815181106102275761022661079d565b5b6020026020010181815250506009816004815181106102495761024861079d565b5b602002602001018181525050600b8160058151811061026b5761026a61079d565b5b602002602001018181525050600d8160068151811061028d5761028c61079d565b5b602002602001018181525050600f816007815181106102af576102ae61079d565b5b6020026020010181815250506011816008815181106102d1576102d061079d565b5b6020026020010181815250506013816009815181106102f3576102f261079d565b5b6020026020010181815250506103076103ae565b610312826007610086565b815f600481106103255761032461079d565b5b602002018181525050610339826001610086565b8160016004811061034d5761034c61079d565b5b602002018181525050610361826013610086565b816002600481106103755761037461079d565b5b602002018181525050610389826008610086565b8160036004811061039d5761039c61079d565b5b602002018181525050809250505090565b6040518060800160405280600490602082028036833780820191505090505090565b5f604051905090565b5f5ffd5b5f5ffd5b5f5ffd5b5f601f19601f8301169050919050565b7f4e487b71000000000000000000000000000000000000000000000000000000005f52604160045260245ffd5b61042b826103e5565b810181811067ffffffffffffffff8211171561044a576104496103f5565b5b80604052505050565b5f61045c6103d0565b90506104688282610422565b919050565b5f67ffffffffffffffff821115610487576104866103f5565b5b602082029050602081019050919050565b5f5ffd5b5f819050919050565b6104ae8161049c565b81146104b8575f5ffd5b50565b5f813590506104c9816104a5565b92915050565b5f6104e16104dc8461046d565b610453565b9050808382526020820190506020840283018581111561050457610503610498565b5b835b8181101561052d578061051988826104bb565b845260208401935050602081019050610506565b5050509392505050565b5f82601f83011261054b5761054a6103e1565b5b813561055b8482602086016104cf565b91505092915050565b5f5f6040838503121561057a576105796103d9565b5b5f83013567ffffffffffffffff811115610597576105966103dd565b5b6105a385828601610537565b92505060206105b4858286016104bb565b9150509250929050565b5f819050919050565b6105d0816105be565b82525050565b5f6020820190506105e95f8301846105c7565b92915050565b5f60049050919050565b5f81905092915050565b5f819050919050565b610615816105be565b82525050565b5f610626838361060c565b60208301905092915050565b5f602082019050919050565b610647816105ef565b61065181846105f9565b925061065c82610603565b805f5b8381101561068c578151610673878261061b565b965061067e83610632565b92505060018101905061065f565b505050505050565b5f6080820190506106a75f83018461063e565b92915050565b7f4e487b71000000000000000000000000000000000000000000000000000000005f52601160045260245ffd5b5f6106e48261049c565b91506106ef8361049c565b9250828203905081811115610707576107066106ad565b5b92915050565b7f4e487b71000000000000000000000000000000000000000000000000000000005f52601260045260245ffd5b5f6107448261049c565b915061074f8361049c565b92508261075f5761075e61070d565b5b828204905092915050565b5f6107748261049c565b915061077f8361049c565b9250828201905080821115610797576107966106ad565b5b92915050565b7f4e487b71000000000000000000000000000000000000000000000000000000005f52603260045260245ffdfea264697066735822122042f49d30fe64e31963a5cae7e55673f265c1bcaaee41e08d82e776de813c501f64736f6c634300081e0033",
			"opcodes": "PUSH1 0x80 PUSH1 0x40 MSTORE CALLVALUE DUP1 ISZERO PUSH1 0xE JUMPI PUSH0 PUSH0 REVERT JUMPDEST POP PUSH2 0x800 DUP1 PUSH2 0x1C PUSH0 CODECOPY PUSH0 RETURN INVALID PUSH1 0x80 PUSH1 0x40 MSTORE CALLVALUE DUP1 ISZERO PUSH2 0xF JUMPI PUSH0 PUSH0 REVERT JUMPDEST POP PUSH1 0x4 CALLDATASIZE LT PUSH2 0x34 JUMPI PUSH0 CALLDATALOAD PUSH1 0xE0 SHR DUP1 PUSH4 0xB12601DA EQ PUSH2 0x38 JUMPI DUP1 PUSH4 0xE4F2B5D8 EQ PUSH2 0x68 JUMPI JUMPDEST PUSH0 PUSH0 REVERT JUMPDEST PUSH2 0x52 PUSH1 0x4 DUP1 CALLDATASIZE SUB DUP2 ADD SWAP1 PUSH2 0x4D SWAP2 SWAP1 PUSH2 0x564 JUMP JUMPDEST PUSH2 0x86 JUMP JUMPDEST PUSH1 0x40 MLOAD PUSH2 0x5F SWAP2 SWAP1 PUSH2 0x5D6 JUMP JUMPDEST PUSH1 0x40 MLOAD DUP1 SWAP2 SUB SWAP1 RETURN JUMPDEST PUSH2 0x70 PUSH2 0x157 JUMP JUMPDEST PUSH1 0x40 MLOAD PUSH2 0x7D SWAP2 SWAP1 PUSH2 0x694 JUMP JUMPDEST PUSH1 0x40 MLOAD DUP1 SWAP2 SUB SWAP1 RETURN JUMPDEST PUSH0 PUSH0 PUSH0 SWAP1 POP PUSH0 DUP5 MLOAD SWAP1 POP JUMPDEST DUP1 DUP3 LT ISZERO PUSH2 0x12B JUMPI PUSH0 PUSH1 0x2 DUP4 DUP4 PUSH2 0xA8 SWAP2 SWAP1 PUSH2 0x6DA JUMP JUMPDEST PUSH2 0xB2 SWAP2 SWAP1 PUSH2 0x73A JUMP JUMPDEST DUP4 PUSH2 0xBD SWAP2 SWAP1 PUSH2 0x76A JUMP JUMPDEST SWAP1 POP DUP5 DUP7 DUP3 DUP2 MLOAD DUP2 LT PUSH2 0xD3 JUMPI PUSH2 0xD2 PUSH2 0x79D JUMP JUMPDEST JUMPDEST PUSH1 0x20 MUL PUSH1 0x20 ADD ADD MLOAD SUB PUSH2 0xEB JUMPI DUP1 SWAP4 POP POP POP POP PUSH2 0x151 JUMP JUMPDEST DUP5 DUP7 DUP3 DUP2 MLOAD DUP2 LT PUSH2 0xFF JUMPI PUSH2 0xFE PUSH2 0x79D JUMP JUMPDEST JUMPDEST PUSH1 0x20 MUL PUSH1 0x20 ADD ADD MLOAD LT ISZERO PUSH2 0x121 JUMPI PUSH1 0x1 DUP2 PUSH2 0x11A SWAP2 SWAP1 PUSH2 0x76A JUMP JUMPDEST SWAP3 POP PUSH2 0x125 JUMP JUMPDEST DUP1 SWAP2 POP JUMPDEST POP PUSH2 0x91 JUMP JUMPDEST PUSH32 0xFFFFFFFFFFFFFFFFFFFFFFFFFFFFFFFFFFFFFFFFFFFFFFFFFFFFFFFFFFFFFFFF SWAP3 POP POP POP JUMPDEST SWAP3 SWAP2 POP POP JUMP JUMPDEST PUSH2 0x15F PUSH2 0x3AE JUMP JUMPDEST PUSH0 PUSH1 0xA PUSH8 0xFFFFFFFFFFFFFFFF DUP2 GT ISZERO PUSH2 0x17B JUMPI PUSH2 0x17A PUSH2 0x3F5 JUMP JUMPDEST JUMPDEST PUSH1 0x40 MLOAD SWAP1 DUP1 DUP3 MSTORE DUP1 PUSH1 0x20 MUL PUSH1 0x20 ADD DUP3 ADD PUSH1 0x40 MSTORE DUP1 ISZERO PUSH2 0x1A9 JUMPI DUP2 PUSH1 0x20 ADD PUSH1 0x20 DUP3 MUL DUP1 CALLDATASIZE DUP4 CALLDATACOPY DUP1 DUP3 ADD SWAP2 POP POP SWAP1 POP JUMPDEST POP SWAP1 POP PUSH1 0x1 DUP2 PUSH0 DUP2 MLOAD DUP2 LT PUSH2 0x1C1 JUMPI PUSH2 0x1C0 PUSH2 0x79D JUMP JUMPDEST JUMPDEST PUSH1 0x20 MUL PUSH1 0x20 ADD ADD DUP2 DUP2 MSTORE POP POP PUSH1 0x3 DUP2 PUSH1 0x1 DUP2 MLOAD DUP2 LT PUSH2 0x1E3 JUMPI PUSH2 0x1E2 PUSH2 0x79D JUMP JUMPDEST JUMPDEST PUSH1 0x20 MUL PUSH1 0x20 ADD ADD DUP2 DUP2 MSTORE POP POP PUSH1 0x5 DUP2 PUSH1 0x2 DUP2 MLOAD DUP2 LT PUSH2 0x205 JUMPI PUSH2 0x204 PUSH2 0x79D JUMP JUMPDEST JUMPDEST PUSH1 0x20 MUL PUSH1 0x20 ADD ADD DUP2 DUP2 MSTORE POP POP PUSH1 0x7 DUP2 PUSH1 0x3 DUP2 MLOAD DUP2 LT PUSH2 0x227 JUMPI PUSH2 0x226 PUSH2 0x79D JUMP JUMPDEST JUMPDEST PUSH1 0x20 MUL PUSH1 0x20 ADD ADD DUP2 DUP2 MSTORE POP POP PUSH1 0x9 DUP2 PUSH1 0x4 DUP2 MLOAD DUP2 LT PUSH2 0x249 JUMPI PUSH2 0x248 PUSH2 0x79D JUMP JUMPDEST JUMPDEST PUSH1 0x20 MUL PUSH1 0x20 ADD ADD DUP2 DUP2 MSTORE POP POP PUSH1 0xB DUP2 PUSH1 0x5 DUP2 MLOAD DUP2 LT PUSH2 0x26B JUMPI PUSH2 0x26A PUSH2 0x79D JUMP JUMPDEST JUMPDEST PUSH1 0x20 MUL PUSH1 0x20 ADD ADD DUP2 DUP2 MSTORE POP POP PUSH1 0xD DUP2 PUSH1 0x6 DUP2 MLOAD DUP2 LT PUSH2 0x28D JUMPI PUSH2 0x28C PUSH2 0x79D JUMP JUMPDEST JUMPDEST PUSH1 0x20 MUL PUSH1 0x20 ADD ADD DUP2 DUP2 MSTORE POP POP PUSH1 0xF DUP2 PUSH1 0x7 DUP2 MLOAD DUP2 LT PUSH2 0x2AF JUMPI PUSH2 0x2AE PUSH2 0x79D JUMP JUMPDEST JUMPDEST PUSH1 0x20 MUL PUSH1 0x20 ADD ADD DUP2 DUP2 MSTORE POP POP PUSH1 0x11 DUP2 PUSH1 0x8 DUP2 MLOAD DUP2 LT PUSH2 0x2D1 JUMPI PUSH2 0x2D0 PUSH2 0x79D JUMP JUMPDEST JUMPDEST PUSH1 0x20 MUL PUSH1 0x20 ADD ADD DUP2 DUP2 MSTORE POP POP PUSH1 0x13 DUP2 PUSH1 0x9 DUP2 MLOAD DUP2 LT PUSH2 0x2F3 JUMPI PUSH2 0x2F2 PUSH2 0x79D JUMP JUMPDEST JUMPDEST PUSH1 0x20 MUL PUSH1 0x20 ADD ADD DUP2 DUP2 MSTORE POP POP PUSH2 0x307 PUSH2 0x3AE JUMP JUMPDEST PUSH2 0x312 DUP3 PUSH1 0x7 PUSH2 0x86 JUMP JUMPDEST DUP2 PUSH0 PUSH1 0x4 DUP2 LT PUSH2 0x325 JUMPI PUSH2 0x324 PUSH2 0x79D JUMP JUMPDEST JUMPDEST PUSH1 0x20 MUL ADD DUP2 DUP2 MSTORE POP POP PUSH2 0x339 DUP3 PUSH1 0x1 PUSH2 0x86 JUMP JUMPDEST DUP2 PUSH1 0x1 PUSH1 0x4 DUP2 LT PUSH2 0x34D JUMPI PUSH2 0x34C PUSH2 0x79D JUMP JUMPDEST JUMPDEST PUSH1 0x20 MUL ADD DUP2 DUP2 MSTORE POP POP PUSH2 0x361 DUP3 PUSH1 0x13 PUSH2 0x86 JUMP JUMPDEST DUP2 PUSH1 0x2 PUSH1 0x4 DUP2 LT PUSH2 0x375 JUMPI PUSH2 0x374 PUSH2 0x79D JUMP JUMPDEST JUMPDEST PUSH1 0x20 MUL ADD DUP2 DUP2 MSTORE POP POP PUSH2 0x389 DUP3 PUSH1 0x8 PUSH2 0x86 JUMP JUMPDEST DUP2 PUSH1 0x3 PUSH1 0x4 DUP2 LT PUSH2 0x39D JUMPI PUSH2 0x39C PUSH2 0x79D JUMP JUMPDEST JUMPDEST PUSH1 0x20 MUL ADD DUP2 DUP2 MSTORE POP POP DUP1 SWAP3 POP POP POP SWAP1 JUMP JUMPDEST PUSH1 0x40 MLOAD DUP1 PUSH1 0x80 ADD PUSH1 0x40 MSTORE DUP1 PUSH1 0x4 SWAP1 PUSH1 0x20 DUP3 MUL DUP1 CALLDATASIZE DUP4 CALLDATACOPY DUP1 DUP3 ADD SWAP2 POP POP SWAP1 POP POP SWAP1 JUMP JUMPDEST PUSH0 PUSH1 0x40 MLOAD SWAP1 POP SWAP1 JUMP JUMPDEST PUSH0 PUSH0 REVERT JUMPDEST PUSH0 PUSH0 REVERT JUMPDEST PUSH0 PUSH0 REVERT JUMPDEST PUSH0 PUSH1 0x1F NOT PUSH1 0x1F DUP4 ADD AND SWAP1 POP SWAP2 SWAP1 POP JUMP JUMPDEST PUSH32 0x4E487B7100000000000000000000000000000000000000000000000000000000 PUSH0 MSTORE PUSH1 0x41 PUSH1 0x4 MSTORE PUSH1 0x24 PUSH0 REVERT JUMPDEST PUSH2 0x42B DUP3 PUSH2 0x3E5 JUMP JUMPDEST DUP2 ADD DUP2 DUP2 LT PUSH8 0xFFFFFFFFFFFFFFFF DUP3 GT OR ISZERO PUSH2 0x44A JUMPI PUSH2 0x449 PUSH2 0x3F5 JUMP JUMPDEST JUMPDEST DUP1 PUSH1 0x40 MSTORE POP POP POP JUMP JUMPDEST PUSH0 PUSH2 0x45C PUSH2 0x3D0 JUMP JUMPDEST SWAP1 POP PUSH2 0x468 DUP3 DUP3 PUSH2 0x422 JUMP JUMPDEST SWAP2 SWAP1 POP JUMP JUMPDEST PUSH0 PUSH8 0xFFFFFFFFFFFFFFFF DUP3 GT ISZERO PUSH2 0x487 JUMPI PUSH2 0x486 PUSH2 0x3F5 JUMP JUMPDEST JUMPDEST PUSH1 0x20 DUP3 MUL SWAP1 POP PUSH1 0x20 DUP2 ADD SWAP1 POP SWAP2 SWAP1 POP JUMP JUMPDEST PUSH0 PUSH0 REVERT JUMPDEST PUSH0 DUP2 SWAP1 POP SWAP2 SWAP1 POP JUMP JUMPDEST PUSH2 0x4AE DUP2 PUSH2 0x49C JUMP JUMPDEST DUP2 EQ PUSH2 0x4B8 JUMPI PUSH0 PUSH0 REVERT JUMPDEST POP JUMP JUMPDEST PUSH0 DUP2 CALLDATALOAD SWAP1 POP PUSH2 0x4C9 DUP2 PUSH2 0x4A5 JUMP JUMPDEST SWAP3 SWAP2 POP POP JUMP JUMPDEST PUSH0 PUSH2 0x4E1 PUSH2 0x4DC DUP5 PUSH2 0x46D JUMP JUMPDEST PUSH2 0x453 JUMP JUMPDEST SWAP1 POP DUP1 DUP4 DUP3 MSTORE PUSH1 0x20 DUP3 ADD SWAP1 POP PUSH1 0x20 DUP5 MUL DUP4 ADD DUP6 DUP2 GT ISZERO PUSH2 0x504 JUMPI PUSH2 0x503 PUSH2 0x498 JUMP JUMPDEST JUMPDEST DUP4 JUMPDEST DUP2 DUP2 LT ISZERO PUSH2 0x52D JUMPI DUP1 PUSH2 0x519 DUP9 DUP3 PUSH2 0x4BB JUMP JUMPDEST DUP5 MSTORE PUSH1 0x20 DUP5 ADD SWAP4 POP POP PUSH1 0x20 DUP2 ADD SWAP1 POP PUSH2 0x506 JUMP JUMPDEST POP POP POP SWAP4 SWAP3 POP POP POP JUMP JUMPDEST PUSH0 DUP3 PUSH1 0x1F DUP4 ADD SLT PUSH2 0x54B JUMPI PUSH2 0x54A PUSH2 0x3E1 JUMP JUMPDEST JUMPDEST DUP2 CALLDATALOAD PUSH2 0x55B DUP5 DUP3 PUSH1 0x20 DUP7 ADD PUSH2 0x4CF JUMP JUMPDEST SWAP2 POP POP SWAP3 SWAP2 POP POP JUMP JUMPDEST PUSH0 PUSH0 PUSH1 0x40 DUP4 DUP6 SUB SLT ISZERO PUSH2 0x57A JUMPI PUSH2 0x579 PUSH2 0x3D9 JUMP JUMPDEST JUMPDEST PUSH0 DUP4 ADD CALLDATALOAD PUSH8 0xFFFFFFFFFFFFFFFF DUP2 GT ISZERO PUSH2 0x597 JUMPI PUSH2 0x596 PUSH2 0x3DD JUMP JUMPDEST JUMPDEST PUSH2 0x5A3 DUP6 DUP3 DUP7 ADD PUSH2 0x537 JUMP JUMPDEST SWAP3 POP POP PUSH1 0x20 PUSH2 0x5B4 DUP6 DUP3 DUP7 ADD PUSH2 0x4BB JUMP JUMPDEST SWAP2 POP POP SWAP3 POP SWAP3 SWAP1 POP JUMP JUMPDEST PUSH0 DUP2 SWAP1 POP SWAP2 SWAP1 POP JUMP JUMPDEST PUSH2 0x5D0 DUP2 PUSH2 0x5BE JUMP JUMPDEST DUP3 MSTORE POP POP JUMP JUMPDEST PUSH0 PUSH1 0x20 DUP3 ADD SWAP1 POP PUSH2 0x5E9 PUSH0 DUP4 ADD DUP5 PUSH2 0x5C7 JUMP JUMPDEST SWAP3 SWAP2 POP POP JUMP JUMPDEST PUSH0 PUSH1 0x4 SWAP1 POP SWAP2 SWAP1 POP JUMP JUMPDEST PUSH0 DUP2 SWAP1 POP SWAP3 SWAP2 POP POP JUMP JUMPDEST PUSH0 DUP2 SWAP1 POP SWAP2 SWAP1 POP JUMP JUMPDEST PUSH2 0x615 DUP2 PUSH2 0x5BE JUMP JUMPDEST DUP3 MSTORE POP POP JUMP JUMPDEST PUSH0 PUSH2 0x626 DUP4 DUP4 PUSH2 0x60C JUMP JUMPDEST PUSH1 0x20 DUP4 ADD SWAP1 POP SWAP3 SWAP2 POP POP JUMP JUMPDEST PUSH0 PUSH1 0x20 DUP3 ADD SWAP1 POP SWAP2 SWAP1 POP JUMP JUMPDEST PUSH2 0x647 DUP2 PUSH2 0x5EF JUMP JUMPDEST PUSH2 0x651 DUP2 DUP5 PUSH2 0x5F9 JUMP JUMPDEST SWAP3 POP PUSH2 0x65C DUP3 PUSH2 0x603 JUMP JUMPDEST DUP1 PUSH0 JUMPDEST DUP4 DUP2 LT ISZERO PUSH2 0x68C JUMPI DUP2 MLOAD PUSH2 0x673 DUP8 DUP3 PUSH2 0x61B JUMP JUMPDEST SWAP7 POP PUSH2 0x67E DUP4 PUSH2 0x632 JUMP JUMPDEST SWAP3 POP POP PUSH1 0x1 DUP2 ADD SWAP1 POP PUSH2 0x65F JUMP JUMPDEST POP POP POP POP POP POP JUMP JUMPDEST PUSH0 PUSH1 0x80 DUP3 ADD SWAP1 POP PUSH2 0x6A7 PUSH0 DUP4 ADD DUP5 PUSH2 0x63E JUMP JUMPDEST SWAP3 SWAP2 POP POP JUMP JUMPDEST PUSH32 0x4E487B7100000000000000000000000000000000000000000000000000000000 PUSH0 MSTORE PUSH1 0x11 PUSH1 0x4 MSTORE PUSH1 0x24 PUSH0 REVERT JUMPDEST PUSH0 PUSH2 0x6E4 DUP3 PUSH2 0x49C JUMP JUMPDEST SWAP2 POP PUSH2 0x6EF DUP4 PUSH2 0x49C JUMP JUMPDEST SWAP3 POP DUP3 DUP3 SUB SWAP1 POP DUP2 DUP2 GT ISZERO PUSH2 0x707 JUMPI PUSH2 0x706 PUSH2 0x6AD JUMP JUMPDEST JUMPDEST SWAP3 SWAP2 POP POP JUMP JUMPDEST PUSH32 0x4E487B7100000000000000000000000000000000000000000000000000000000 PUSH0 MSTORE PUSH1 0x12 PUSH1 0x4 MSTORE PUSH1 0x24 PUSH0 REVERT JUMPDEST PUSH0 PUSH2 0x744 DUP3 PUSH2 0x49C JUMP JUMPDEST SWAP2 POP PUSH2 0x74F DUP4 PUSH2 0x49C JUMP JUMPDEST SWAP3 POP DUP3 PUSH2 0x75F JUMPI PUSH2 0x75E PUSH2 0x70D JUMP JUMPDEST JUMPDEST DUP3 DUP3 DIV SWAP1 POP SWAP3 SWAP2 POP POP JUMP JUMPDEST PUSH0 PUSH2 0x774 DUP3 PUSH2 0x49C JUMP JUMPDEST SWAP2 POP PUSH2 0x77F DUP4 PUSH2 0x49C JUMP JUMPDEST SWAP3 POP DUP3 DUP3 ADD SWAP1 POP DUP1 DUP3 GT ISZERO PUSH2 0x797 JUMPI PUSH2 0x796 PUSH2 0x6AD JUMP JUMPDEST JUMPDEST SWAP3 SWAP2 POP POP JUMP JUMPDEST PUSH32 0x4E487B7100000000000000000000000000000000000000000000000000000000 PUSH0 MSTORE PUSH1 0x32 PUSH1 0x4 MSTORE PUSH1 0x24 PUSH0 REVERT INVALID LOG2 PUSH5 0x6970667358 0x22 SLT KECCAK256 TIMESTAMP DELEGATECALL SWAP14 ADDRESS INVALID PUSH5 0xE31963A5CA SWAPN 0xE5 JUMP PUSH20 0xF265C1BCAAEE41E08D82E776DE813C501F64736F PUSH13 0x634300081E0033000000000000 "
		},
		"gasEstimates": {
			"creation": {
				"codeDepositCost": "409600",
				"executionCost": "441",
				"totalCost": "410041"
			},
			"external": {
				"binarySearch(uint256[],uint256)": "infinite",
				"testBinarySearch()": "infinite"
			}
		},
		"methodIdentifiers": {
			"binarySearch(uint256[],uint256)": "b12601da",
			"testBinarySearch()": "e4f2b5d8"
		}
	},
	"abi": [
		{
			"inputs": [
				{
					"internalType": "uint256[]",
					"name": "arr",
					"type": "uint256[]"
				},
				{
					"internalType": "uint256",
					"name": "target",
					"type": "uint256"
				}
			],
			"name": "binarySearch",
			"outputs": [
				{
					"internalType": "int256",
					"name": "",
					"type": "int256"
				}
			],
			"stateMutability": "pure",
			"type": "function"
		},
		{
			"inputs": [],
			"name": "testBinarySearch",
			"outputs": [
				{
					"internalType": "int256[4]",
					"name": "",
					"type": "int256[4]"
				}
			],
			"stateMutability": "pure",
			"type": "function"
		}
	]
}