{
	"data": {
		"bytecode": {
			"linkReferences": {},
			"object": "6080604052348015600e575f5ffd5b50610eaf8061001c5f395ff3fe608060405234801561000f575f5ffd5b5060043610610034575f3560e01c80630cbc513a14610038578063174714cd14610068575b5f5ffd5b610052600480360381019061004d91906105a2565b610086565b60405161005f919061063d565b60405180910390f35b61007061046e565b60405161007d9190610754565b60405180910390f35b60606001821015801561009b5750610f9f8211155b6100da576040517f08c379a00000000000000000000000000000000000000000000000000000000081526004016100d1906107e4565b60405180910390fd5b5f5f67ffffffffffffffff8111156100f5576100f4610802565b5b6040519080825280601f01601f1916602001820160405280156101275781602001600182028036833780820191505090505b5090505b5f831115610465576103e88310610173578060405160200161014d91906108c7565b60405160208183030381529060405290506103e88361016c9190610915565b9250610460565b61038483106101b3578060405160200161018d9190610992565b6040516020818303038152906040529050610384836101ac9190610915565b925061045f565b6101f483106101f357806040516020016101cd91906109fd565b60405160208183030381529060405290506101f4836101ec9190610915565b925061045e565b6101908310610233578060405160200161020d9190610a68565b60405160208183030381529060405290506101908361022c9190610915565b925061045d565b60648310610271578060405160200161024c9190610ad3565b604051602081830303815290604052905060648361026a9190610915565b925061045c565b605a83106102af578060405160200161028a9190610b3e565b6040516020818303038152906040529050605a836102a89190610915565b925061045b565b603283106102ed57806040516020016102c89190610ba9565b60405160208183030381529060405290506032836102e69190610915565b925061045a565b6028831061032b57806040516020016103069190610c14565b60405160208183030381529060405290506028836103249190610915565b9250610459565b600a831061036957806040516020016103449190610c7f565b6040516020818303038152906040529050600a836103629190610915565b9250610458565b600983106103a757806040516020016103829190610cea565b60405160208183030381529060405290506009836103a09190610915565b9250610457565b600583106103e557806040516020016103c09190610d55565b60405160208183030381529060405290506005836103de9190610915565b9250610456565b6004831061042357806040516020016103fe9190610dc0565b604051602081830303815290604052905060048361041c9190610915565b9250610455565b806040516020016104349190610e2b565b60405160208183030381529060405290506001836104529190610915565b92505b5b5b5b5b5b5b5b5b5b5b5b61012b565b80915050919050565b610476610544565b61047e610544565b610489610ea5610086565b815f6005811061049c5761049b610e4c565b5b60200201819052506104ae603a610086565b816001600581106104c2576104c1610e4c565b5b60200201819052506104d56107ca610086565b816002600581106104e9576104e8610e4c565b5b60200201819052506104fb6003610086565b8160036005811061050f5761050e610e4c565b5b60200201819052506105216004610086565b8160046005811061053557610534610e4c565b5b60200201819052508091505090565b6040518060a001604052806005905b60608152602001906001900390816105535790505090565b5f5ffd5b5f819050919050565b6105818161056f565b811461058b575f5ffd5b50565b5f8135905061059c81610578565b92915050565b5f602082840312156105b7576105b661056b565b5b5f6105c48482850161058e565b91505092915050565b5f81519050919050565b5f82825260208201905092915050565b8281835e5f83830152505050565b5f601f19601f8301169050919050565b5f61060f826105cd565b61061981856105d7565b93506106298185602086016105e7565b610632816105f5565b840191505092915050565b5f6020820190508181035f8301526106558184610605565b905092915050565b5f60059050919050565b5f81905092915050565b5f819050919050565b5f82825260208201905092915050565b5f610694826105cd565b61069e818561067a565b93506106ae8185602086016105e7565b6106b7816105f5565b840191505092915050565b5f6106cd838361068a565b905092915050565b5f602082019050919050565b5f6106eb8261065d565b6106f58185610667565b93508360208202850161070785610671565b805f5b85811015610742578484038952815161072385826106c2565b945061072e836106d5565b925060208a0199505060018101905061070a565b50829750879550505050505092915050565b5f6020820190508181035f83015261076c81846106e1565b905092915050565b7f4e756d626572206d757374206265206265747765656e203120616e64203339395f8201527f3900000000000000000000000000000000000000000000000000000000000000602082015250565b5f6107ce6021836105d7565b91506107d982610774565b604082019050919050565b5f6020820190508181035f8301526107fb816107c2565b9050919050565b7f4e487b71000000000000000000000000000000000000000000000000000000005f52604160045260245ffd5b5f81519050919050565b5f81905092915050565b5f61084d8261082f565b6108578185610839565b93506108678185602086016105e7565b80840191505092915050565b5f81905092915050565b7f4d000000000000000000000000000000000000000000000000000000000000005f82015250565b5f6108b1600183610873565b91506108bc8261087d565b600182019050919050565b5f6108d28284610843565b91506108dd826108a5565b915081905092915050565b7f4e487b71000000000000000000000000000000000000000000000000000000005f52601160045260245ffd5b5f61091f8261056f565b915061092a8361056f565b9250828203905081811115610942576109416108e8565b5b92915050565b7f434d0000000000000000000000000000000000000000000000000000000000005f82015250565b5f61097c600283610873565b915061098782610948565b600282019050919050565b5f61099d8284610843565b91506109a882610970565b915081905092915050565b7f44000000000000000000000000000000000000000000000000000000000000005f82015250565b5f6109e7600183610873565b91506109f2826109b3565b600182019050919050565b5f610a088284610843565b9150610a13826109db565b915081905092915050565b7f43440000000000000000000000000000000000000000000000000000000000005f82015250565b5f610a52600283610873565b9150610a5d82610a1e565b600282019050919050565b5f610a738284610843565b9150610a7e82610a46565b915081905092915050565b7f43000000000000000000000000000000000000000000000000000000000000005f82015250565b5f610abd600183610873565b9150610ac882610a89565b600182019050919050565b5f610ade8284610843565b9150610ae982610ab1565b915081905092915050565b7f58430000000000000000000000000000000000000000000000000000000000005f82015250565b5f610b28600283610873565b9150610b3382610af4565b600282019050919050565b5f610b498284610843565b9150610b5482610b1c565b915081905092915050565b7f4c000000000000000000000000000000000000000000000000000000000000005f82015250565b5f610b93600183610873565b9150610b9e82610b5f565b600182019050919050565b5f610bb48284610843565b9150610bbf82610b87565b915081905092915050565b7f584c0000000000000000000000000000000000000000000000000000000000005f82015250565b5f610bfe600283610873565b9150610c0982610bca565b600282019050919050565b5f610c1f8284610843565b9150610c2a82610bf2565b915081905092915050565b7f58000000000000000000000000000000000000000000000000000000000000005f82015250565b5f610c69600183610873565b9150610c7482610c35565b600182019050919050565b5f610c8a8284610843565b9150610c9582610c5d565b915081905092915050565b7f49580000000000000000000000000000000000000000000000000000000000005f82015250565b5f610cd4600283610873565b9150610cdf82610ca0565b600282019050919050565b5f610cf58284610843565b9150610d0082610cc8565b915081905092915050565b7f56000000000000000000000000000000000000000000000000000000000000005f82015250565b5f610d3f600183610873565b9150610d4a82610d0b565b600182019050919050565b5f610d608284610843565b9150610d6b82610d33565b915081905092915050565b7f49560000000000000000000000000000000000000000000000000000000000005f82015250565b5f610daa600283610873565b9150610db582610d76565b600282019050919050565b5f610dcb8284610843565b9150610dd682610d9e565b915081905092915050565b7f49000000000000000000000000000000000000000000000000000000000000005f82015250565b5f610e15600183610873565b9150610e2082610de1565b600182019050919050565b5f610e368284610843565b9150610e4182610e09565b915081905092915050565b7f4e487b71000000000000000000000000000000000000000000000000000000005f52603260045260245ffdfea2646970667358221220ebb63bf5dd66d8a2f69ffd10606d2601819f84e7b2656e6e478a61a212f1206964736f6c634300081e0033",
			"opcodes": "PUSH1 0x80 PUSH1 0x40 MSTORE CALLVALUE DUP1 ISZERO PUSH1 0xE JUMPI PUSH0 PUSH0 REVERT JUMPDEST POP PUSH2 0xEAF DUP1 PUSH2 0x1C PUSH0 CODECOPY PUSH0 RETURN INVALID PUSH1 0x80 PUSH1 0x40 MSTORE CALLVALUE DUP1 ISZERO PUSH2 0xF JUMPI PUSH0 PUSH0 REVERT JUMPDEST POP PUSH1 0x4 CALLDATASIZE LT PUSH2 0x34 JUMPI PUSH0 CALLDATALOAD PUSH1 0xE0 SHR DUP1 PUSH4 0xCBC513A EQ PUSH2 0x38 JUMPI DUP1 PUSH4 0x174714CD EQ PUSH2 0x68 JUMPI JUMPDEST PUSH0 PUSH0 REVERT JUMPDEST PUSH2 0x52 PUSH1 0x4 DUP1 CALLDATASIZE SUB DUP2 ADD SWAP1 PUSH2 0x4D SWAP2 SWAP1 PUSH2 0x5A2 JUMP JUMPDEST PUSH2 0x86 JUMP JUMPDEST PUSH1 0x40 MLOAD PUSH2 0x5F SWAP2 SWAP1 PUSH2 0x63D JUMP JUMPDEST PUSH1 0x40 MLOAD DUP1 SWAP2 SUB SWAP1 RETURN JUMPDEST PUSH2 0x70 PUSH2 0x46E JUMP JUMPDEST PUSH1 0x40 MLOAD PUSH2 0x7D SWAP2 SWAP1 PUSH2 0x754 JUMP JUMPDEST PUSH1 0x40 MLOAD DUP1 SWAP2 SUB SWAP1 RETURN JUMPDEST PUSH1 0x60 PUSH1 0x1 DUP3 LT ISZERO DUP1 ISZERO PUSH2 0x9B JUMPI POP PUSH2 0xF9F DUP3 GT ISZERO JUMPDEST PUSH2 0xDA JUMPI PUSH1 0x40 MLOAD PUSH32 0x8C379A000000000000000000000000000000000000000000000000000000000 DUP2 MSTORE PUSH1 0x4 ADD PUSH2 0xD1 SWAP1 PUSH2 0x7E4 JUMP JUMPDEST PUSH1 0x40 MLOAD DUP1 SWAP2 SUB SWAP1 REVERT JUMPDEST PUSH0 PUSH0 PUSH8 0xFFFFFFFFFFFFFFFF DUP2 GT ISZERO PUSH2 0xF5 JUMPI PUSH2 0xF4 PUSH2 0x802 JUMP JUMPDEST JUMPDEST PUSH1 0x40 MLOAD SWAP1 DUP1 DUP3 MSTORE DUP1 PUSH1 0x1F ADD PUSH1 0x1F NOT AND PUSH1 0x20 ADD DUP3 ADD PUSH1 0x40 MSTORE DUP1 ISZERO PUSH2 0x127 JUMPI DUP2 PUSH1 0x20 ADD PUSH1 0x1 DUP3 MUL DUP1 CALLDATASIZE DUP4 CALLDATACOPY DUP1 DUP3 ADD SWAP2 POP POP SWAP1 POP JUMPDEST POP SWAP1 POP JUMPDEST PUSH0 DUP4 GT ISZERO PUSH2 0x465 JUMPI PUSH2 0x3E8 DUP4 LT PUSH2 0x173 JUMPI DUP1 PUSH1 0x40 MLOAD PUSH1 0x20 ADD PUSH2 0x14D SWAP2 SWAP1 PUSH2 0x8C7 JUMP JUMPDEST PUSH1 0x40 MLOAD PUSH1 0x20 DUP2 DUP4 SUB SUB DUP2 MSTORE SWAP1 PUSH1 0x40 MSTORE SWAP1 POP PUSH2 0x3E8 DUP4 PUSH2 0x16C SWAP2 SWAP1 PUSH2 0x915 JUMP JUMPDEST SWAP3 POP PUSH2 0x460 JUMP JUMPDEST PUSH2 0x384 DUP4 LT PUSH2 0x1B3 JUMPI DUP1 PUSH1 0x40 MLOAD PUSH1 0x20 ADD PUSH2 0x18D SWAP2 SWAP1 PUSH2 0x992 JUMP JUMPDEST PUSH1 0x40 MLOAD PUSH1 0x20 DUP2 DUP4 SUB SUB DUP2 MSTORE SWAP1 PUSH1 0x40 MSTORE SWAP1 POP PUSH2 0x384 DUP4 PUSH2 0x1AC SWAP2 SWAP1 PUSH2 0x915 JUMP JUMPDEST SWAP3 POP PUSH2 0x45F JUMP JUMPDEST PUSH2 0x1F4 DUP4 LT PUSH2 0x1F3 JUMPI DUP1 PUSH1 0x40 MLOAD PUSH1 0x20 ADD PUSH2 0x1CD SWAP2 SWAP1 PUSH2 0x9FD JUMP JUMPDEST PUSH1 0x40 MLOAD PUSH1 0x20 DUP2 DUP4 SUB SUB DUP2 MSTORE SWAP1 PUSH1 0x40 MSTORE SWAP1 POP PUSH2 0x1F4 DUP4 PUSH2 0x1EC SWAP2 SWAP1 PUSH2 0x915 JUMP JUMPDEST SWAP3 POP PUSH2 0x45E JUMP JUMPDEST PUSH2 0x190 DUP4 LT PUSH2 0x233 JUMPI DUP1 PUSH1 0x40 MLOAD PUSH1 0x20 ADD PUSH2 0x20D SWAP2 SWAP1 PUSH2 0xA68 JUMP JUMPDEST PUSH1 0x40 MLOAD PUSH1 0x20 DUP2 DUP4 SUB SUB DUP2 MSTORE SWAP1 PUSH1 0x40 MSTORE SWAP1 POP PUSH2 0x190 DUP4 PUSH2 0x22C SWAP2 SWAP1 PUSH2 0x915 JUMP JUMPDEST SWAP3 POP PUSH2 0x45D JUMP JUMPDEST PUSH1 0x64 DUP4 LT PUSH2 0x271 JUMPI DUP1 PUSH1 0x40 MLOAD PUSH1 0x20 ADD PUSH2 0x24C SWAP2 SWAP1 PUSH2 0xAD3 JUMP JUMPDEST PUSH1 0x40 MLOAD PUSH1 0x20 DUP2 DUP4 SUB SUB DUP2 MSTORE SWAP1 PUSH1 0x40 MSTORE SWAP1 POP PUSH1 0x64 DUP4 PUSH2 0x26A SWAP2 SWAP1 PUSH2 0x915 JUMP JUMPDEST SWAP3 POP PUSH2 0x45C JUMP JUMPDEST PUSH1 0x5A DUP4 LT PUSH2 0x2AF JUMPI DUP1 PUSH1 0x40 MLOAD PUSH1 0x20 ADD PUSH2 0x28A SWAP2 SWAP1 PUSH2 0xB3E JUMP JUMPDEST PUSH1 0x40 MLOAD PUSH1 0x20 DUP2 DUP4 SUB SUB DUP2 MSTORE SWAP1 PUSH1 0x40 MSTORE SWAP1 POP PUSH1 0x5A DUP4 PUSH2 0x2A8 SWAP2 SWAP1 PUSH2 0x915 JUMP JUMPDEST SWAP3 POP PUSH2 0x45B JUMP JUMPDEST PUSH1 0x32 DUP4 LT PUSH2 0x2ED JUMPI DUP1 PUSH1 0x40 MLOAD PUSH1 0x20 ADD PUSH2 0x2C8 SWAP2 SWAP1 PUSH2 0xBA9 JUMP JUMPDEST PUSH1 0x40 MLOAD PUSH1 0x20 DUP2 DUP4 SUB SUB DUP2 MSTORE SWAP1 PUSH1 0x40 MSTORE SWAP1 POP PUSH1 0x32 DUP4 PUSH2 0x2E6 SWAP2 SWAP1 PUSH2 0x915 JUMP JUMPDEST SWAP3 POP PUSH2 0x45A JUMP JUMPDEST PUSH1 0x28 DUP4 LT PUSH2 0x32B JUMPI DUP1 PUSH1 0x40 MLOAD PUSH1 0x20 ADD PUSH2 0x306 SWAP2 SWAP1 PUSH2 0xC14 JUMP JUMPDEST PUSH1 0x40 MLOAD PUSH1 0x20 DUP2 DUP4 SUB SUB DUP2 MSTORE SWAP1 PUSH1 0x40 MSTORE SWAP1 POP PUSH1 0x28 DUP4 PUSH2 0x324 SWAP2 SWAP1 PUSH2 0x915 JUMP JUMPDEST SWAP3 POP PUSH2 0x459 JUMP JUMPDEST PUSH1 0xA DUP4 LT PUSH2 0x369 JUMPI DUP1 PUSH1 0x40 MLOAD PUSH1 0x20 ADD PUSH2 0x344 SWAP2 SWAP1 PUSH2 0xC7F JUMP JUMPDEST PUSH1 0x40 MLOAD PUSH1 0x20 DUP2 DUP4 SUB SUB DUP2 MSTORE SWAP1 PUSH1 0x40 MSTORE SWAP1 POP PUSH1 0xA DUP4 PUSH2 0x362 SWAP2 SWAP1 PUSH2 0x915 JUMP JUMPDEST SWAP3 POP PUSH2 0x458 JUMP JUMPDEST PUSH1 0x9 DUP4 LT PUSH2 0x3A7 JUMPI DUP1 PUSH1 0x40 MLOAD PUSH1 0x20 ADD PUSH2 0x382 SWAP2 SWAP1 PUSH2 0xCEA JUMP JUMPDEST PUSH1 0x40 MLOAD PUSH1 0x20 DUP2 DUP4 SUB SUB DUP2 MSTORE SWAP1 PUSH1 0x40 MSTORE SWAP1 POP PUSH1 0x9 DUP4 PUSH2 0x3A0 SWAP2 SWAP1 PUSH2 0x915 JUMP JUMPDEST SWAP3 POP PUSH2 0x457 JUMP JUMPDEST PUSH1 0x5 DUP4 LT PUSH2 0x3E5 JUMPI DUP1 PUSH1 0x40 MLOAD PUSH1 0x20 ADD PUSH2 0x3C0 SWAP2 SWAP1 PUSH2 0xD55 JUMP JUMPDEST PUSH1 0x40 MLOAD PUSH1 0x20 DUP2 DUP4 SUB SUB DUP2 MSTORE SWAP1 PUSH1 0x40 MSTORE SWAP1 POP PUSH1 0x5 DUP4 PUSH2 0x3DE SWAP2 SWAP1 PUSH2 0x915 JUMP JUMPDEST SWAP3 POP PUSH2 0x456 JUMP JUMPDEST PUSH1 0x4 DUP4 LT PUSH2 0x423 JUMPI DUP1 PUSH1 0x40 MLOAD PUSH1 0x20 ADD PUSH2 0x3FE SWAP2 SWAP1 PUSH2 0xDC0 JUMP JUMPDEST PUSH1 0x40 MLOAD PUSH1 0x20 DUP2 DUP4 SUB SUB DUP2 MSTORE SWAP1 PUSH1 0x40 MSTORE SWAP1 POP PUSH1 0x4 DUP4 PUSH2 0x41C SWAP2 SWAP1 PUSH2 0x915 JUMP JUMPDEST SWAP3 POP PUSH2 0x455 JUMP JUMPDEST DUP1 PUSH1 0x40 MLOAD PUSH1 0x20 ADD PUSH2 0x434 SWAP2 SWAP1 PUSH2 0xE2B JUMP JUMPDEST PUSH1 0x40 MLOAD PUSH1 0x20 DUP2 DUP4 SUB SUB DUP2 MSTORE SWAP1 PUSH1 0x40 MSTORE SWAP1 POP PUSH1 0x1 DUP4 PUSH2 0x452 SWAP2 SWAP1 PUSH2 0x915 JUMP JUMPDEST SWAP3 POP JUMPDEST JUMPDEST JUMPDEST JUMPDEST JUMPDEST JUMPDEST JUMPDEST JUMPDEST JUMPDEST JUMPDEST JUMPDEST JUMPDEST PUSH2 0x12B JUMP JUMPDEST DUP1 SWAP2 POP POP SWAP2 SWAP1 POP JUMP JUMPDEST PUSH2 0x476 PUSH2 0x544 JUMP JUMPDEST PUSH2 0x47E PUSH2 0x544 JUMP JUMPDEST PUSH2 0x489 PUSH2 0xEA5 PUSH2 0x86 JUMP JUMPDEST DUP2 PUSH0 PUSH1 0x5 DUP2 LT PUSH2 0x49C JUMPI PUSH2 0x49B PUSH2 0xE4C JUMP JUMPDEST JUMPDEST PUSH1 0x20 MUL ADD DUP2 SWAP1 MSTORE POP PUSH2 0x4AE PUSH1 0x3A PUSH2 0x86 JUMP JUMPDEST DUP2 PUSH1 0x1 PUSH1 0x5 DUP2 LT PUSH2 0x4C2 JUMPI PUSH2 0x4C1 PUSH2 0xE4C JUMP JUMPDEST JUMPDEST PUSH1 0x20 MUL ADD DUP2 SWAP1 MSTORE POP PUSH2 0x4D5 PUSH2 0x7CA PUSH2 0x86 JUMP JUMPDEST DUP2 PUSH1 0x2 PUSH1 0x5 DUP2 LT PUSH2 0x4E9 JUMPI PUSH2 0x4E8 PUSH2 0xE4C JUMP JUMPDEST JUMPDEST PUSH1 0x20 MUL ADD DUP2 SWAP1 MSTORE POP PUSH2 0x4FB PUSH1 0x3 PUSH2 0x86 JUMP JUMPDEST DUP2 PUSH1 0x3 PUSH1 0x5 DUP2 LT PUSH2 0x50F JUMPI PUSH2 0x50E PUSH2 0xE4C JUMP JUMPDEST JUMPDEST PUSH1 0x20 MUL ADD DUP2 SWAP1 MSTORE POP PUSH2 0x521 PUSH1 0x4 PUSH2 0x86 JUMP JUMPDEST DUP2 PUSH1 0x4 PUSH1 0x5 DUP2 LT PUSH2 0x535 JUMPI PUSH2 0x534 PUSH2 0xE4C JUMP JUMPDEST JUMPDEST PUSH1 0x20 MUL ADD DUP2 SWAP1 MSTORE POP DUP1 SWAP2 POP POP SWAP1 JUMP JUMPDEST PUSH1 0x40 MLOAD DUP1 PUSH1 0xA0 ADD PUSH1 0x40 MSTORE DUP1 PUSH1 0x5 SWAP1 JUMPDEST PUSH1 0x60 DUP2 MSTORE PUSH1 0x20 ADD SWAP1 PUSH1 0x1 SWAP1 SUB SWAP1 DUP2 PUSH2 0x553 JUMPI SWAP1 POP POP SWAP1 JUMP JUMPDEST PUSH0 PUSH0 REVERT JUMPDEST PUSH0 DUP2 SWAP1 POP SWAP2 SWAP1 POP JUMP JUMPDEST PUSH2 0x581 DUP2 PUSH2 0x56F JUMP JUMPDEST DUP2 EQ PUSH2 0x58B JUMPI PUSH0 PUSH0 REVERT JUMPDEST POP JUMP JUMPDEST PUSH0 DUP2 CALLDATALOAD SWAP1 POP PUSH2 0x59C DUP2 PUSH2 0x578 JUMP JUMPDEST SWAP3 SWAP2 POP POP JUMP JUMPDEST PUSH0 PUSH1 0x20 DUP3 DUP5 SUB SLT ISZERO PUSH2 0x5B7 JUMPI PUSH2 0x5B6 PUSH2 0x56B JUMP JUMPDEST JUMPDEST PUSH0 PUSH2 0x5C4 DUP5 DUP3 DUP6 ADD PUSH2 0x58E JUMP JUMPDEST SWAP2 POP POP SWAP3 SWAP2 POP POP JUMP JUMPDEST PUSH0 DUP2 MLOAD SWAP1 POP SWAP2 SWAP1 POP JUMP JUMPDEST PUSH0 DUP3 DUP3 MSTORE PUSH1 0x20 DUP3 ADD SWAP1 POP SWAP3 SWAP2 POP POP JUMP JUMPDEST DUP3 DUP2 DUP4 MCOPY PUSH0 DUP4 DUP4 ADD MSTORE POP POP POP JUMP JUMPDEST PUSH0 PUSH1 0x1F NOT PUSH1 0x1F DUP4 ADD AND SWAP1 POP SWAP2 SWAP1 POP JUMP JUMPDEST PUSH0 PUSH2 0x60F DUP3 PUSH2 0x5CD JUMP JUMPDEST PUSH2 0x619 DUP2 DUP6 PUSH2 0x5D7 JUMP JUMPDEST SWAP4 POP PUSH2 0x629 DUP2 DUP6 PUSH1 0x20 DUP7 ADD PUSH2 0x5E7 JUMP JUMPDEST PUSH2 0x632 DUP2 PUSH2 0x5F5 JUMP JUMPDEST DUP5 ADD SWAP2 POP POP SWAP3 SWAP2 POP POP JUMP JUMPDEST PUSH0 PUSH1 0x20 DUP3 ADD SWAP1 POP DUP2 DUP2 SUB PUSH0 DUP4 ADD MSTORE PUSH2 0x655 DUP2 DUP5 PUSH2 0x605 JUMP JUMPDEST SWAP1 POP SWAP3 SWAP2 POP POP JUMP JUMPDEST PUSH0 PUSH1 0x5 SWAP1 POP SWAP2 SWAP1 POP JUMP JUMPDEST PUSH0 DUP2 SWAP1 POP SWAP3 SWAP2 POP POP JUMP JUMPDEST PUSH0 DUP2 SWAP1 POP SWAP2 SWAP1 POP JUMP JUMPDEST PUSH0 DUP3 DUP3 MSTORE PUSH1 0x20 DUP3 ADD SWAP1 POP SWAP3 SWAP2 POP POP JUMP JUMPDEST PUSH0 PUSH2 0x694 DUP3 PUSH2 0x5CD JUMP JUMPDEST PUSH2 0x69E DUP2 DUP6 PUSH2 0x67A JUMP JUMPDEST SWAP4 POP PUSH2 0x6AE DUP2 DUP6 PUSH1 0x20 DUP7 ADD PUSH2 0x5E7 JUMP JUMPDEST PUSH2 0x6B7 DUP2 PUSH2 0x5F5 JUMP JUMPDEST DUP5 ADD SWAP2 POP POP SWAP3 SWAP2 POP POP JUMP JUMPDEST PUSH0 PUSH2 0x6CD DUP4 DUP4 PUSH2 0x68A JUMP JUMPDEST SWAP1 POP SWAP3 SWAP2 POP POP JUMP JUMPDEST PUSH0 PUSH1 0x20 DUP3 ADD SWAP1 POP SWAP2 SWAP1 POP JUMP JUMPDEST PUSH0 PUSH2 0x6EB DUP3 PUSH2 0x65D JUMP JUMPDEST PUSH2 0x6F5 DUP2 DUP6 PUSH2 0x667 JUMP JUMPDEST SWAP4 POP DUP4 PUSH1 0x20 DUP3 MUL DUP6 ADD PUSH2 0x707 DUP6 PUSH2 0x671 JUMP JUMPDEST DUP1 PUSH0 JUMPDEST DUP6 DUP2 LT ISZERO PUSH2 0x742 JUMPI DUP5 DUP5 SUB DUP10 MSTORE DUP2 MLOAD PUSH2 0x723 DUP6 DUP3 PUSH2 0x6C2 JUMP JUMPDEST SWAP5 POP PUSH2 0x72E DUP4 PUSH2 0x6D5 JUMP JUMPDEST SWAP3 POP PUSH1 0x20 DUP11 ADD SWAP10 POP POP PUSH1 0x1 DUP2 ADD SWAP1 POP PUSH2 0x70A JUMP JUMPDEST POP DUP3 SWAP8 POP DUP8 SWAP6 POP POP POP POP POP POP SWAP3 SWAP2 POP POP JUMP JUMPDEST PUSH0 PUSH1 0x20 DUP3 ADD SWAP1 POP DUP2 DUP2 SUB PUSH0 DUP4 ADD MSTORE PUSH2 0x76C DUP2 DUP5 PUSH2 0x6E1 JUMP JUMPDEST SWAP1 POP SWAP3 SWAP2 POP POP JUMP JUMPDEST PUSH32 0x4E756D626572206D757374206265206265747765656E203120616E6420333939 PUSH0 DUP3 ADD MSTORE PUSH32 0x3900000000000000000000000000000000000000000000000000000000000000 PUSH1 0x20 DUP3 ADD MSTORE POP JUMP JUMPDEST PUSH0 PUSH2 0x7CE PUSH1 0x21 DUP4 PUSH2 0x5D7 JUMP JUMPDEST SWAP2 POP PUSH2 0x7D9 DUP3 PUSH2 0x774 JUMP JUMPDEST PUSH1 0x40 DUP3 ADD SWAP1 POP SWAP2 SWAP1 POP JUMP JUMPDEST PUSH0 PUSH1 0x20 DUP3 ADD SWAP1 POP DUP2 DUP2 SUB PUSH0 DUP4 ADD MSTORE PUSH2 0x7FB DUP2 PUSH2 0x7C2 JUMP JUMPDEST SWAP1 POP SWAP2 SWAP1 POP JUMP JUMPDEST PUSH32 0x4E487B7100000000000000000000000000000000000000000000000000000000 PUSH0 MSTORE PUSH1 0x41 PUSH1 0x4 MSTORE PUSH1 0x24 PUSH0 REVERT JUMPDEST PUSH0 DUP2 MLOAD SWAP1 POP SWAP2 SWAP1 POP JUMP JUMPDEST PUSH0 DUP2 SWAP1 POP SWAP3 SWAP2 POP POP JUMP JUMPDEST PUSH0 PUSH2 0x84D DUP3 PUSH2 0x82F JUMP JUMPDEST PUSH2 0x857 DUP2 DUP6 PUSH2 0x839 JUMP JUMPDEST SWAP4 POP PUSH2 0x867 DUP2 DUP6 PUSH1 0x20 DUP7 ADD PUSH2 0x5E7 JUMP JUMPDEST DUP1 DUP5 ADD SWAP2 POP POP SWAP3 SWAP2 POP POP JUMP JUMPDEST PUSH0 DUP2 SWAP1 POP SWAP3 SWAP2 POP POP JUMP JUMPDEST PUSH32 0x4D00000000000000000000000000000000000000000000000000000000000000 PUSH0 DUP3 ADD MSTORE POP JUMP JUMPDEST PUSH0 PUSH2 0x8B1 PUSH1 0x1 DUP4 PUSH2 0x873 JUMP JUMPDEST SWAP2 POP PUSH2 0x8BC DUP3 PUSH2 0x87D JUMP JUMPDEST PUSH1 0x1 DUP3 ADD SWAP1 POP SWAP2 SWAP1 POP JUMP JUMPDEST PUSH0 PUSH2 0x8D2 DUP3 DUP5 PUSH2 0x843 JUMP JUMPDEST SWAP2 POP PUSH2 0x8DD DUP3 PUSH2 0x8A5 JUMP JUMPDEST SWAP2 POP DUP2 SWAP1 POP SWAP3 SWAP2 POP POP JUMP JUMPDEST PUSH32 0x4E487B7100000000000000000000000000000000000000000000000000000000 PUSH0 MSTORE PUSH1 0x11 PUSH1 0x4 MSTORE PUSH1 0x24 PUSH0 REVERT JUMPDEST PUSH0 PUSH2 0x91F DUP3 PUSH2 0x56F JUMP JUMPDEST SWAP2 POP PUSH2 0x92A DUP4 PUSH2 0x56F JUMP JUMPDEST SWAP3 POP DUP3 DUP3 SUB SWAP1 POP DUP2 DUP2 GT ISZERO PUSH2 0x942 JUMPI PUSH2 0x941 PUSH2 0x8E8 JUMP JUMPDEST JUMPDEST SWAP3 SWAP2 POP POP JUMP JUMPDEST PUSH32 0x434D000000000000000000000000000000000000000000000000000000000000 PUSH0 DUP3 ADD MSTORE POP JUMP JUMPDEST PUSH0 PUSH2 0x97C PUSH1 0x2 DUP4 PUSH2 0x873 JUMP JUMPDEST SWAP2 POP PUSH2 0x987 DUP3 PUSH2 0x948 JUMP JUMPDEST PUSH1 0x2 DUP3 ADD SWAP1 POP SWAP2 SWAP1 POP JUMP JUMPDEST PUSH0 PUSH2 0x99D DUP3 DUP5 PUSH2 0x843 JUMP JUMPDEST SWAP2 POP PUSH2 0x9A8 DUP3 PUSH2 0x970 JUMP JUMPDEST SWAP2 POP DUP2 SWAP1 POP SWAP3 SWAP2 POP POP JUMP JUMPDEST PUSH32 0x4400000000000000000000000000000000000000000000000000000000000000 PUSH0 DUP3 ADD MSTORE POP JUMP JUMPDEST PUSH0 PUSH2 0x9E7 PUSH1 0x1 DUP4 PUSH2 0x873 JUMP JUMPDEST SWAP2 POP PUSH2 0x9F2 DUP3 PUSH2 0x9B3 JUMP JUMPDEST PUSH1 0x1 DUP3 ADD SWAP1 POP SWAP2 SWAP1 POP JUMP JUMPDEST PUSH0 PUSH2 0xA08 DUP3 DUP5 PUSH2 0x843 JUMP JUMPDEST SWAP2 POP PUSH2 0xA13 DUP3 PUSH2 0x9DB JUMP JUMPDEST SWAP2 POP DUP2 SWAP1 POP SWAP3 SWAP2 POP POP JUMP JUMPDEST PUSH32 0x4344000000000000000000000000000000000000000000000000000000000000 PUSH0 DUP3 ADD MSTORE POP JUMP JUMPDEST PUSH0 PUSH2 0xA52 PUSH1 0x2 DUP4 PUSH2 0x873 JUMP JUMPDEST SWAP2 POP PUSH2 0xA5D DUP3 PUSH2 0xA1E JUMP JUMPDEST PUSH1 0x2 DUP3 ADD SWAP1 POP SWAP2 SWAP1 POP JUMP JUMPDEST PUSH0 PUSH2 0xA73 DUP3 DUP5 PUSH2 0x843 JUMP JUMPDEST SWAP2 POP PUSH2 0xA7E DUP3 PUSH2 0xA46 JUMP JUMPDEST SWAP2 POP DUP2 SWAP1 POP SWAP3 SWAP2 POP POP JUMP JUMPDEST PUSH32 0x4300000000000000000000000000000000000000000000000000000000000000 PUSH0 DUP3 ADD MSTORE POP JUMP JUMPDEST PUSH0 PUSH2 0xABD PUSH1 0x1 DUP4 PUSH2 0x873 JUMP JUMPDEST SWAP2 POP PUSH2 0xAC8 DUP3 PUSH2 0xA89 JUMP JUMPDEST PUSH1 0x1 DUP3 ADD SWAP1 POP SWAP2 SWAP1 POP JUMP JUMPDEST PUSH0 PUSH2 0xADE DUP3 DUP5 PUSH2 0x843 JUMP JUMPDEST SWAP2 POP PUSH2 0xAE9 DUP3 PUSH2 0xAB1 JUMP JUMPDEST SWAP2 POP DUP2 SWAP1 POP SWAP3 SWAP2 POP POP JUMP JUMPDEST PUSH32 0x5843000000000000000000000000000000000000000000000000000000000000 PUSH0 DUP3 ADD MSTORE POP JUMP JUMPDEST PUSH0 PUSH2 0xB28 PUSH1 0x2 DUP4 PUSH2 0x873 JUMP JUMPDEST SWAP2 POP PUSH2 0xB33 DUP3 PUSH2 0xAF4 JUMP JUMPDEST PUSH1 0x2 DUP3 ADD SWAP1 POP SWAP2 SWAP1 POP JUMP JUMPDEST PUSH0 PUSH2 0xB49 DUP3 DUP5 PUSH2 0x843 JUMP JUMPDEST SWAP2 POP PUSH2 0xB54 DUP3 PUSH2 0xB1C JUMP JUMPDEST SWAP2 POP DUP2 SWAP1 POP SWAP3 SWAP2 POP POP JUMP JUMPDEST PUSH32 0x4C00000000000000000000000000000000000000000000000000000000000000 PUSH0 DUP3 ADD MSTORE POP JUMP JUMPDEST PUSH0 PUSH2 0xB93 PUSH1 0x1 DUP4 PUSH2 0x873 JUMP JUMPDEST SWAP2 POP PUSH2 0xB9E DUP3 PUSH2 0xB5F JUMP JUMPDEST PUSH1 0x1 DUP3 ADD SWAP1 POP SWAP2 SWAP1 POP JUMP JUMPDEST PUSH0 PUSH2 0xBB4 DUP3 DUP5 PUSH2 0x843 JUMP JUMPDEST SWAP2 POP PUSH2 0xBBF DUP3 PUSH2 0xB87 JUMP JUMPDEST SWAP2 POP DUP2 SWAP1 POP SWAP3 SWAP2 POP POP JUMP JUMPDEST PUSH32 0x584C000000000000000000000000000000000000000000000000000000000000 PUSH0 DUP3 ADD MSTORE POP JUMP JUMPDEST PUSH0 PUSH2 0xBFE PUSH1 0x2 DUP4 PUSH2 0x873 JUMP JUMPDEST SWAP2 POP PUSH2 0xC09 DUP3 PUSH2 0xBCA JUMP JUMPDEST PUSH1 0x2 DUP3 ADD SWAP1 POP SWAP2 SWAP1 POP JUMP JUMPDEST PUSH0 PUSH2 0xC1F DUP3 DUP5 PUSH2 0x843 JUMP JUMPDEST SWAP2 POP PUSH2 0xC2A DUP3 PUSH2 0xBF2 JUMP JUMPDEST SWAP2 POP DUP2 SWAP1 POP SWAP3 SWAP2 POP POP JUMP JUMPDEST PUSH32 0x5800000000000000000000000000000000000000000000000000000000000000 PUSH0 DUP3 ADD MSTORE POP JUMP JUMPDEST PUSH0 PUSH2 0xC69 PUSH1 0x1 DUP4 PUSH2 0x873 JUMP JUMPDEST SWAP2 POP PUSH2 0xC74 DUP3 PUSH2 0xC35 JUMP JUMPDEST PUSH1 0x1 DUP3 ADD SWAP1 POP SWAP2 SWAP1 POP JUMP JUMPDEST PUSH0 PUSH2 0xC8A DUP3 DUP5 PUSH2 0x843 JUMP JUMPDEST SWAP2 POP PUSH2 0xC95 DUP3 PUSH2 0xC5D JUMP JUMPDEST SWAP2 POP DUP2 SWAP1 POP SWAP3 SWAP2 POP POP JUMP JUMPDEST PUSH32 0x4958000000000000000000000000000000000000000000000000000000000000 PUSH0 DUP3 ADD MSTORE POP JUMP JUMPDEST PUSH0 PUSH2 0xCD4 PUSH1 0x2 DUP4 PUSH2 0x873 JUMP JUMPDEST SWAP2 POP PUSH2 0xCDF DUP3 PUSH2 0xCA0 JUMP JUMPDEST PUSH1 0x2 DUP3 ADD SWAP1 POP SWAP2 SWAP1 POP JUMP JUMPDEST PUSH0 PUSH2 0xCF5 DUP3 DUP5 PUSH2 0x843 JUMP JUMPDEST SWAP2 POP PUSH2 0xD00 DUP3 PUSH2 0xCC8 JUMP JUMPDEST SWAP2 POP DUP2 SWAP1 POP SWAP3 SWAP2 POP POP JUMP JUMPDEST PUSH32 0x5600000000000000000000000000000000000000000000000000000000000000 PUSH0 DUP3 ADD MSTORE POP JUMP JUMPDEST PUSH0 PUSH2 0xD3F PUSH1 0x1 DUP4 PUSH2 0x873 JUMP JUMPDEST SWAP2 POP PUSH2 0xD4A DUP3 PUSH2 0xD0B JUMP JUMPDEST PUSH1 0x1 DUP3 ADD SWAP1 POP SWAP2 SWAP1 POP JUMP JUMPDEST PUSH0 PUSH2 0xD60 DUP3 DUP5 PUSH2 0x843 JUMP JUMPDEST SWAP2 POP PUSH2 0xD6B DUP3 PUSH2 0xD33 JUMP JUMPDEST SWAP2 POP DUP2 SWAP1 POP SWAP3 SWAP2 POP POP JUMP JUMPDEST PUSH32 0x4956000000000000000000000000000000000000000000000000000000000000 PUSH0 DUP3 ADD MSTORE POP JUMP JUMPDEST PUSH0 PUSH2 0xDAA PUSH1 0x2 DUP4 PUSH2 0x873 JUMP JUMPDEST SWAP2 POP PUSH2 0xDB5 DUP3 PUSH2 0xD76 JUMP JUMPDEST PUSH1 0x2 DUP3 ADD SWAP1 POP SWAP2 SWAP1 POP JUMP JUMPDEST PUSH0 PUSH2 0xDCB DUP3 DUP5 PUSH2 0x843 JUMP JUMPDEST SWAP2 POP PUSH2 0xDD6 DUP3 PUSH2 0xD9E JUMP JUMPDEST SWAP2 POP DUP2 SWAP1 POP SWAP3 SWAP2 POP POP JUMP JUMPDEST PUSH32 0x4900000000000000000000000000000000000000000000000000000000000000 PUSH0 DUP3 ADD MSTORE POP JUMP JUMPDEST PUSH0 PUSH2 0xE15 PUSH1 0x1 DUP4 PUSH2 0x873 JUMP JUMPDEST SWAP2 POP PUSH2 0xE20 DUP3 PUSH2 0xDE1 JUMP JUMPDEST PUSH1 0x1 DUP3 ADD SWAP1 POP SWAP2 SWAP1 POP JUMP JUMPDEST PUSH0 PUSH2 0xE36 DUP3 DUP5 PUSH2 0x843 JUMP JUMPDEST SWAP2 POP PUSH2 0xE41 DUP3 PUSH2 0xE09 JUMP JUMPDEST SWAP2 POP DUP2 SWAP1 POP SWAP3 SWAP2 POP POP JUMP JUMPDEST PUSH32 0x4E487B7100000000000000000000000000000000000000000000000000000000 PUSH0 MSTORE PUSH1 0x32 PUSH1 0x4 MSTORE PUSH1 0x24 PUSH0 REVERT INVALID LOG2 PUSH5 0x6970667358 0x22 SLT KECCAK256 0xEB 0xB6 EXTCODESIZE CREATE2 0xDD PUSH7 0xD8A2F69FFD1060 PUSH14 0x2601819F84E7B2656E6E478A61A2 SLT CALL KECCAK256 PUSH10 0x64736F6C634300081E00 CALLER "
		},
		"gasEstimates": {
			"creation": {
				"codeDepositCost": "751800",
				"executionCost": "784",
				"totalCost": "752584"
			},
			"external": {
				"intToRoman(uint256)": "infinite",
				"testAll()": "infinite"
			}
		},
		"methodIdentifiers": {
			"intToRoman(uint256)": "0cbc513a",
			"testAll()": "174714cd"
		}
	},
	"abi": [
		{
			"inputs": [
				{
					"internalType": "uint256",
					"name": "num",
					"type": "uint256"
				}
			],
			"name": "intToRoman",
			"outputs": [
				{
					"internalType": "string",
					"name": "",
					"type": "string"
				}
			],
			"stateMutability": "pure",
			"type": "function"
		},
		{
			"inputs": [],
			"name": "testAll",
			"outputs": [
				{
					"internalType": "string[5]",
					"name": "",
					"type": "string[5]"
				}
			],
			"stateMutability": "pure",
			"type": "function"
		}
	]
}