{
	"task03.sol": {
		"RomanToInteger": {
			"abi": [
				{
					"inputs": [],
					"name": "explainMCMXCIV",
					"outputs": [
						{
							"internalType": "string",
							"name": "",
							"type": "string"
						}
					],
					"stateMutability": "pure",
					"type": "function"
				},
				{
					"inputs": [
						{
							"internalType": "string",
							"name": "s",
							"type": "string"
						}
					],
					"name": "romanToInt",
					"outputs": [
						{
							"internalType": "uint256",
							"name": "",
							"type": "uint256"
						}
					],
					"stateMutability": "pure",
					"type": "function"
				},
				{
					"inputs": [],
					"name": "test",
					"outputs": [
						{
							"internalType": "uint256[5]",
							"name": "results",
							"type": "uint256[5]"
						}
					],
					"stateMutability": "pure",
					"type": "function"
				}
			],
			"devdoc": {
				"kind": "dev",
				"methods": {},
				"version": 1
			},
			"evm": {
				"assembly": "    /* \"task03.sol\":110:2055  contract RomanToInteger {... */\n  mstore(0x40, 0x80)\n  callvalue\n  dup1\n  iszero\n  tag_1\n  jumpi\n  revert(0x00, 0x00)\ntag_1:\n  pop\n  dataSize(sub_0)\n  dup1\n  dataOffset(sub_0)\n  0x00\n  codecopy\n  0x00\n  return\nstop\n\nsub_0: assembly {\n        /* \"task03.sol\":110:2055  contract RomanToInteger {... */\n      mstore(0x40, 0x80)\n      callvalue\n      dup1\n      iszero\n      tag_1\n      jumpi\n      revert(0x00, 0x00)\n    tag_1:\n      pop\n      jumpi(tag_2, lt(calldatasize, 0x04))\n      shr(0xe0, calldataload(0x00))\n      dup1\n      0xcb159dfe\n      eq\n      tag_3\n      jumpi\n      dup1\n      0xeab28df9\n      eq\n      tag_4\n      jumpi\n      dup1\n      0xf8a8fd6d\n      eq\n      tag_5\n      jumpi\n    tag_2:\n      revert(0x00, 0x00)\n        /* \"task03.sol\":183:952  function romanToInt(string memory s) public pure returns (uint256) {... */\n    tag_3:\n      tag_6\n      0x04\n      dup1\n      calldatasize\n      sub\n      dup2\n      add\n      swap1\n      tag_7\n      swap2\n      swap1\n      tag_8\n      jump\t// in\n    tag_7:\n      tag_9\n      jump\t// in\n    tag_6:\n      mload(0x40)\n      tag_10\n      swap2\n      swap1\n      tag_11\n      jump\t// in\n    tag_10:\n      mload(0x40)\n      dup1\n      swap2\n      sub\n      swap1\n      return\n        /* \"task03.sol\":1913:2052  function explainMCMXCIV() public pure returns (string memory) {... */\n    tag_4:\n      tag_12\n      tag_13\n      jump\t// in\n    tag_12:\n      mload(0x40)\n      tag_14\n      swap2\n      swap1\n      tag_15\n      jump\t// in\n    tag_14:\n      mload(0x40)\n      dup1\n      swap2\n      sub\n      swap1\n      return\n        /* \"task03.sol\":1543:1874  function test() public pure returns (uint256[5] memory results) {... */\n    tag_5:\n      tag_16\n      tag_17\n      jump\t// in\n    tag_16:\n      mload(0x40)\n      tag_18\n      swap2\n      swap1\n      tag_19\n      jump\t// in\n    tag_18:\n      mload(0x40)\n      dup1\n      swap2\n      sub\n      swap1\n      return\n        /* \"task03.sol\":183:952  function romanToInt(string memory s) public pure returns (uint256) {... */\n    tag_9:\n        /* \"task03.sol\":241:248  uint256 */\n      0x00\n        /* \"task03.sol\":261:279  bytes memory roman */\n      0x00\n        /* \"task03.sol\":288:289  s */\n      dup3\n        /* \"task03.sol\":261:290  bytes memory roman = bytes(s) */\n      swap1\n      pop\n        /* \"task03.sol\":339:353  uint256 length */\n      0x00\n        /* \"task03.sol\":356:361  roman */\n      dup2\n        /* \"task03.sol\":356:368  roman.length */\n      mload\n        /* \"task03.sol\":339:368  uint256 length = roman.length */\n      swap1\n      pop\n        /* \"task03.sol\":379:393  uint256 result */\n      0x00\n        /* \"task03.sol\":396:397  0 */\n      0x00\n        /* \"task03.sol\":379:397  uint256 result = 0 */\n      swap1\n      pop\n        /* \"task03.sol\":423:432  uint256 i */\n      0x00\n        /* \"task03.sol\":435:436  0 */\n      0x00\n        /* \"task03.sol\":423:436  uint256 i = 0 */\n      swap1\n      pop\n        /* \"task03.sol\":418:911  for (uint256 i = 0; i < length; i++) {... */\n    tag_21:\n        /* \"task03.sol\":442:448  length */\n      dup3\n        /* \"task03.sol\":438:439  i */\n      dup2\n        /* \"task03.sol\":438:448  i < length */\n      lt\n        /* \"task03.sol\":418:911  for (uint256 i = 0; i < length; i++) {... */\n      iszero\n      tag_22\n      jumpi\n        /* \"task03.sol\":511:526  uint256 current */\n      0x00\n        /* \"task03.sol\":529:548  _getValue(roman[i]) */\n      tag_24\n        /* \"task03.sol\":539:544  roman */\n      dup6\n        /* \"task03.sol\":545:546  i */\n      dup4\n        /* \"task03.sol\":539:547  roman[i] */\n      dup2\n      mload\n      dup2\n      lt\n      tag_25\n      jumpi\n      tag_26\n      tag_27\n      jump\t// in\n    tag_26:\n    tag_25:\n      0x20\n      add\n      add\n      mload\n      0xf8\n      shr\n      0xf8\n      shl\n        /* \"task03.sol\":529:538  _getValue */\n      tag_28\n        /* \"task03.sol\":529:548  _getValue(roman[i]) */\n      jump\t// in\n    tag_24:\n        /* \"task03.sol\":511:548  uint256 current = _getValue(roman[i]) */\n      swap1\n      pop\n        /* \"task03.sol\":680:681  1 */\n      0x01\n        /* \"task03.sol\":671:677  length */\n      dup5\n        /* \"task03.sol\":671:681  length - 1 */\n      tag_29\n      swap2\n      swap1\n      tag_30\n      jump\t// in\n    tag_29:\n        /* \"task03.sol\":667:668  i */\n      dup3\n        /* \"task03.sol\":667:681  i < length - 1 */\n      lt\n        /* \"task03.sol\":667:718  i < length - 1 && current < _getValue(roman[i + 1]) */\n      dup1\n      iszero\n      tag_31\n      jumpi\n      pop\n        /* \"task03.sol\":695:718  _getValue(roman[i + 1]) */\n      tag_32\n        /* \"task03.sol\":705:710  roman */\n      dup6\n        /* \"task03.sol\":715:716  1 */\n      0x01\n        /* \"task03.sol\":711:712  i */\n      dup5\n        /* \"task03.sol\":711:716  i + 1 */\n      tag_33\n      swap2\n      swap1\n      tag_34\n      jump\t// in\n    tag_33:\n        /* \"task03.sol\":705:717  roman[i + 1] */\n      dup2\n      mload\n      dup2\n      lt\n      tag_35\n      jumpi\n      tag_36\n      tag_27\n      jump\t// in\n    tag_36:\n    tag_35:\n      0x20\n      add\n      add\n      mload\n      0xf8\n      shr\n      0xf8\n      shl\n        /* \"task03.sol\":695:704  _getValue */\n      tag_28\n        /* \"task03.sol\":695:718  _getValue(roman[i + 1]) */\n      jump\t// in\n    tag_32:\n        /* \"task03.sol\":685:692  current */\n      dup2\n        /* \"task03.sol\":685:718  current < _getValue(roman[i + 1]) */\n      lt\n        /* \"task03.sol\":667:718  i < length - 1 && current < _getValue(roman[i + 1]) */\n    tag_31:\n        /* \"task03.sol\":663:900  if (i < length - 1 && current < _getValue(roman[i + 1])) {... */\n      iszero\n      tag_37\n      jumpi\n        /* \"task03.sol\":749:756  current */\n      dup1\n        /* \"task03.sol\":739:756  result -= current */\n      dup4\n      tag_38\n      swap2\n      swap1\n      tag_30\n      jump\t// in\n    tag_38:\n      swap3\n      pop\n        /* \"task03.sol\":663:900  if (i < length - 1 && current < _getValue(roman[i + 1])) {... */\n      jump(tag_39)\n    tag_37:\n        /* \"task03.sol\":842:849  current */\n      dup1\n        /* \"task03.sol\":832:849  result += current */\n      dup4\n      tag_40\n      swap2\n      swap1\n      tag_34\n      jump\t// in\n    tag_40:\n      swap3\n      pop\n        /* \"task03.sol\":663:900  if (i < length - 1 && current < _getValue(roman[i + 1])) {... */\n    tag_39:\n        /* \"task03.sol\":455:911  {... */\n      pop\n        /* \"task03.sol\":450:453  i++ */\n      dup1\n      dup1\n      0x01\n      add\n      swap2\n      pop\n      pop\n        /* \"task03.sol\":418:911  for (uint256 i = 0; i < length; i++) {... */\n      jump(tag_21)\n    tag_22:\n      pop\n        /* \"task03.sol\":938:944  result */\n      dup1\n        /* \"task03.sol\":931:944  return result */\n      swap4\n      pop\n      pop\n      pop\n      pop\n        /* \"task03.sol\":183:952  function romanToInt(string memory s) public pure returns (uint256) {... */\n      swap2\n      swap1\n      pop\n      jump\t// out\n        /* \"task03.sol\":1913:2052  function explainMCMXCIV() public pure returns (string memory) {... */\n    tag_13:\n        /* \"task03.sol\":1960:1973  string memory */\n      0x60\n        /* \"task03.sol\":1986:2044  return \"M=1000, CM=900, XC=90, IV=4 => 1000+900+90+4=1994\" */\n      mload(0x40)\n      dup1\n      0x60\n      add\n      0x40\n      mstore\n      dup1\n      0x31\n      dup2\n      mstore\n      0x20\n      add\n      data_8d9654d9fb7913ddcb3ee766558ff744f5fee37446b2f46f1a1d07130a82d19b\n      0x31\n      swap2\n      codecopy\n      swap1\n      pop\n        /* \"task03.sol\":1913:2052  function explainMCMXCIV() public pure returns (string memory) {... */\n      swap1\n      jump\t// out\n        /* \"task03.sol\":1543:1874  function test() public pure returns (uint256[5] memory results) {... */\n    tag_17:\n        /* \"task03.sol\":1580:1605  uint256[5] memory results */\n      tag_42\n      tag_43\n      jump\t// in\n    tag_42:\n        /* \"task03.sol\":1631:1648  romanToInt(\"III\") */\n      tag_45\n      mload(0x40)\n      dup1\n      0x40\n      add\n      0x40\n      mstore\n      dup1\n      0x03\n      dup2\n      mstore\n      0x20\n      add\n      0x4949490000000000000000000000000000000000000000000000000000000000\n      dup2\n      mstore\n      pop\n        /* \"task03.sol\":1631:1641  romanToInt */\n      tag_9\n        /* \"task03.sol\":1631:1648  romanToInt(\"III\") */\n      jump\t// in\n    tag_45:\n        /* \"task03.sol\":1618:1625  results */\n      dup2\n        /* \"task03.sol\":1626:1627  0 */\n      0x00\n        /* \"task03.sol\":1618:1628  results[0] */\n      0x05\n      dup2\n      lt\n      tag_46\n      jumpi\n      tag_47\n      tag_27\n      jump\t// in\n    tag_47:\n    tag_46:\n      0x20\n      mul\n      add\n        /* \"task03.sol\":1618:1648  results[0] = romanToInt(\"III\") */\n      dup2\n      dup2\n      mstore\n      pop\n      pop\n        /* \"task03.sol\":1682:1698  romanToInt(\"IV\") */\n      tag_48\n      mload(0x40)\n      dup1\n      0x40\n      add\n      0x40\n      mstore\n      dup1\n      0x02\n      dup2\n      mstore\n      0x20\n      add\n      0x4956000000000000000000000000000000000000000000000000000000000000\n      dup2\n      mstore\n      pop\n        /* \"task03.sol\":1682:1692  romanToInt */\n      tag_9\n        /* \"task03.sol\":1682:1698  romanToInt(\"IV\") */\n      jump\t// in\n    tag_48:\n        /* \"task03.sol\":1669:1676  results */\n      dup2\n        /* \"task03.sol\":1677:1678  1 */\n      0x01\n        /* \"task03.sol\":1669:1679  results[1] */\n      0x05\n      dup2\n      lt\n      tag_49\n      jumpi\n      tag_50\n      tag_27\n      jump\t// in\n    tag_50:\n    tag_49:\n      0x20\n      mul\n      add\n        /* \"task03.sol\":1669:1698  results[1] = romanToInt(\"IV\") */\n      dup2\n      dup2\n      mstore\n      pop\n      pop\n        /* \"task03.sol\":1733:1749  romanToInt(\"IX\") */\n      tag_51\n      mload(0x40)\n      dup1\n      0x40\n      add\n      0x40\n      mstore\n      dup1\n      0x02\n      dup2\n      mstore\n      0x20\n      add\n      0x4958000000000000000000000000000000000000000000000000000000000000\n      dup2\n      mstore\n      pop\n        /* \"task03.sol\":1733:1743  romanToInt */\n      tag_9\n        /* \"task03.sol\":1733:1749  romanToInt(\"IX\") */\n      jump\t// in\n    tag_51:\n        /* \"task03.sol\":1720:1727  results */\n      dup2\n        /* \"task03.sol\":1728:1729  2 */\n      0x02\n        /* \"task03.sol\":1720:1730  results[2] */\n      0x05\n      dup2\n      lt\n      tag_52\n      jumpi\n      tag_53\n      tag_27\n      jump\t// in\n    tag_53:\n    tag_52:\n      0x20\n      mul\n      add\n        /* \"task03.sol\":1720:1749  results[2] = romanToInt(\"IX\") */\n      dup2\n      dup2\n      mstore\n      pop\n      pop\n        /* \"task03.sol\":1784:1803  romanToInt(\"LVIII\") */\n      tag_54\n      mload(0x40)\n      dup1\n      0x40\n      add\n      0x40\n      mstore\n      dup1\n      0x05\n      dup2\n      mstore\n      0x20\n      add\n      0x4c56494949000000000000000000000000000000000000000000000000000000\n      dup2\n      mstore\n      pop\n        /* \"task03.sol\":1784:1794  romanToInt */\n      tag_9\n        /* \"task03.sol\":1784:1803  romanToInt(\"LVIII\") */\n      jump\t// in\n    tag_54:\n        /* \"task03.sol\":1771:1778  results */\n      dup2\n        /* \"task03.sol\":1779:1780  3 */\n      0x03\n        /* \"task03.sol\":1771:1781  results[3] */\n      0x05\n      dup2\n      lt\n      tag_55\n      jumpi\n      tag_56\n      tag_27\n      jump\t// in\n    tag_56:\n    tag_55:\n      0x20\n      mul\n      add\n        /* \"task03.sol\":1771:1803  results[3] = romanToInt(\"LVIII\") */\n      dup2\n      dup2\n      mstore\n      pop\n      pop\n        /* \"task03.sol\":1836:1857  romanToInt(\"MCMXCIV\") */\n      tag_57\n      mload(0x40)\n      dup1\n      0x40\n      add\n      0x40\n      mstore\n      dup1\n      0x07\n      dup2\n      mstore\n      0x20\n      add\n      0x4d434d5843495600000000000000000000000000000000000000000000000000\n      dup2\n      mstore\n      pop\n        /* \"task03.sol\":1836:1846  romanToInt */\n      tag_9\n        /* \"task03.sol\":1836:1857  romanToInt(\"MCMXCIV\") */\n      jump\t// in\n    tag_57:\n        /* \"task03.sol\":1823:1830  results */\n      dup2\n        /* \"task03.sol\":1831:1832  4 */\n      0x04\n        /* \"task03.sol\":1823:1833  results[4] */\n      0x05\n      dup2\n      lt\n      tag_58\n      jumpi\n      tag_59\n      tag_27\n      jump\t// in\n    tag_59:\n    tag_58:\n      0x20\n      mul\n      add\n        /* \"task03.sol\":1823:1857  results[4] = romanToInt(\"MCMXCIV\") */\n      dup2\n      dup2\n      mstore\n      pop\n      pop\n        /* \"task03.sol\":1543:1874  function test() public pure returns (uint256[5] memory results) {... */\n      swap1\n      jump\t// out\n        /* \"task03.sol\":1024:1510  function _getValue(bytes1 romanChar) private pure returns (uint256) {... */\n    tag_28:\n        /* \"task03.sol\":1083:1090  uint256 */\n      0x00\n        /* \"task03.sol\":1159:1175  romanChar == \"I\" */\n      0x4900000000000000000000000000000000000000000000000000000000000000\n        /* \"task03.sol\":1159:1168  romanChar */\n      dup3\n        /* \"task03.sol\":1159:1175  romanChar == \"I\" */\n      not(0xffffffffffffffffffffffffffffffffffffffffffffffffffffffffffffff)\n      and\n      sub\n        /* \"task03.sol\":1155:1185  if (romanChar == \"I\") return 1 */\n      tag_61\n      jumpi\n        /* \"task03.sol\":1184:1185  1 */\n      0x01\n        /* \"task03.sol\":1177:1185  return 1 */\n      swap1\n      pop\n      jump(tag_60)\n        /* \"task03.sol\":1155:1185  if (romanChar == \"I\") return 1 */\n    tag_61:\n        /* \"task03.sol\":1200:1216  romanChar == \"V\" */\n      0x5600000000000000000000000000000000000000000000000000000000000000\n        /* \"task03.sol\":1200:1209  romanChar */\n      dup3\n        /* \"task03.sol\":1200:1216  romanChar == \"V\" */\n      not(0xffffffffffffffffffffffffffffffffffffffffffffffffffffffffffffff)\n      and\n      sub\n        /* \"task03.sol\":1196:1226  if (romanChar == \"V\") return 5 */\n      tag_62\n      jumpi\n        /* \"task03.sol\":1225:1226  5 */\n      0x05\n        /* \"task03.sol\":1218:1226  return 5 */\n      swap1\n      pop\n      jump(tag_60)\n        /* \"task03.sol\":1196:1226  if (romanChar == \"V\") return 5 */\n    tag_62:\n        /* \"task03.sol\":1241:1257  romanChar == \"X\" */\n      0x5800000000000000000000000000000000000000000000000000000000000000\n        /* \"task03.sol\":1241:1250  romanChar */\n      dup3\n        /* \"task03.sol\":1241:1257  romanChar == \"X\" */\n      not(0xffffffffffffffffffffffffffffffffffffffffffffffffffffffffffffff)\n      and\n      sub\n        /* \"task03.sol\":1237:1268  if (romanChar == \"X\") return 10 */\n      tag_63\n      jumpi\n        /* \"task03.sol\":1266:1268  10 */\n      0x0a\n        /* \"task03.sol\":1259:1268  return 10 */\n      swap1\n      pop\n      jump(tag_60)\n        /* \"task03.sol\":1237:1268  if (romanChar == \"X\") return 10 */\n    tag_63:\n        /* \"task03.sol\":1283:1299  romanChar == \"L\" */\n      0x4c00000000000000000000000000000000000000000000000000000000000000\n        /* \"task03.sol\":1283:1292  romanChar */\n      dup3\n        /* \"task03.sol\":1283:1299  romanChar == \"L\" */\n      not(0xffffffffffffffffffffffffffffffffffffffffffffffffffffffffffffff)\n      and\n      sub\n        /* \"task03.sol\":1279:1310  if (romanChar == \"L\") return 50 */\n      tag_64\n      jumpi\n        /* \"task03.sol\":1308:1310  50 */\n      0x32\n        /* \"task03.sol\":1301:1310  return 50 */\n      swap1\n      pop\n      jump(tag_60)\n        /* \"task03.sol\":1279:1310  if (romanChar == \"L\") return 50 */\n    tag_64:\n        /* \"task03.sol\":1325:1341  romanChar == \"C\" */\n      0x4300000000000000000000000000000000000000000000000000000000000000\n        /* \"task03.sol\":1325:1334  romanChar */\n      dup3\n        /* \"task03.sol\":1325:1341  romanChar == \"C\" */\n      not(0xffffffffffffffffffffffffffffffffffffffffffffffffffffffffffffff)\n      and\n      sub\n        /* \"task03.sol\":1321:1353  if (romanChar == \"C\") return 100 */\n      tag_65\n      jumpi\n        /* \"task03.sol\":1350:1353  100 */\n      0x64\n        /* \"task03.sol\":1343:1353  return 100 */\n      swap1\n      pop\n      jump(tag_60)\n        /* \"task03.sol\":1321:1353  if (romanChar == \"C\") return 100 */\n    tag_65:\n        /* \"task03.sol\":1368:1384  romanChar == \"D\" */\n      0x4400000000000000000000000000000000000000000000000000000000000000\n        /* \"task03.sol\":1368:1377  romanChar */\n      dup3\n        /* \"task03.sol\":1368:1384  romanChar == \"D\" */\n      not(0xffffffffffffffffffffffffffffffffffffffffffffffffffffffffffffff)\n      and\n      sub\n        /* \"task03.sol\":1364:1396  if (romanChar == \"D\") return 500 */\n      tag_66\n      jumpi\n        /* \"task03.sol\":1393:1396  500 */\n      0x01f4\n        /* \"task03.sol\":1386:1396  return 500 */\n      swap1\n      pop\n      jump(tag_60)\n        /* \"task03.sol\":1364:1396  if (romanChar == \"D\") return 500 */\n    tag_66:\n        /* \"task03.sol\":1411:1427  romanChar == \"M\" */\n      0x4d00000000000000000000000000000000000000000000000000000000000000\n        /* \"task03.sol\":1411:1420  romanChar */\n      dup3\n        /* \"task03.sol\":1411:1427  romanChar == \"M\" */\n      not(0xffffffffffffffffffffffffffffffffffffffffffffffffffffffffffffff)\n      and\n      sub\n        /* \"task03.sol\":1407:1440  if (romanChar == \"M\") return 1000 */\n      tag_67\n      jumpi\n        /* \"task03.sol\":1436:1440  1000 */\n      0x03e8\n        /* \"task03.sol\":1429:1440  return 1000 */\n      swap1\n      pop\n      jump(tag_60)\n        /* \"task03.sol\":1407:1440  if (romanChar == \"M\") return 1000 */\n    tag_67:\n        /* \"task03.sol\":1461:1502  revert(\"Invalid Roman numeral character\") */\n      mload(0x40)\n      0x08c379a000000000000000000000000000000000000000000000000000000000\n      dup2\n      mstore\n      0x04\n      add\n      tag_68\n      swap1\n      tag_69\n      jump\t// in\n    tag_68:\n      mload(0x40)\n      dup1\n      swap2\n      sub\n      swap1\n      revert\n        /* \"task03.sol\":1024:1510  function _getValue(bytes1 romanChar) private pure returns (uint256) {... */\n    tag_60:\n      swap2\n      swap1\n      pop\n      jump\t// out\n    tag_43:\n      mload(0x40)\n      dup1\n      0xa0\n      add\n      0x40\n      mstore\n      dup1\n      0x05\n      swap1\n      0x20\n      dup3\n      mul\n      dup1\n      calldatasize\n      dup4\n      calldatacopy\n      dup1\n      dup3\n      add\n      swap2\n      pop\n      pop\n      swap1\n      pop\n      pop\n      swap1\n      jump\t// out\n        /* \"#utility.yul\":7:82   */\n    tag_70:\n        /* \"#utility.yul\":40:46   */\n      0x00\n        /* \"#utility.yul\":73:75   */\n      0x40\n        /* \"#utility.yul\":67:76   */\n      mload\n        /* \"#utility.yul\":57:76   */\n      swap1\n      pop\n        /* \"#utility.yul\":7:82   */\n      swap1\n      jump\t// out\n        /* \"#utility.yul\":88:205   */\n    tag_71:\n        /* \"#utility.yul\":197:198   */\n      0x00\n        /* \"#utility.yul\":194:195   */\n      0x00\n        /* \"#utility.yul\":187:199   */\n      revert\n        /* \"#utility.yul\":211:328   */\n    tag_72:\n        /* \"#utility.yul\":320:321   */\n      0x00\n        /* \"#utility.yul\":317:318   */\n      0x00\n        /* \"#utility.yul\":310:322   */\n      revert\n        /* \"#utility.yul\":334:451   */\n    tag_73:\n        /* \"#utility.yul\":443:444   */\n      0x00\n        /* \"#utility.yul\":440:441   */\n      0x00\n        /* \"#utility.yul\":433:445   */\n      revert\n        /* \"#utility.yul\":457:574   */\n    tag_74:\n        /* \"#utility.yul\":566:567   */\n      0x00\n        /* \"#utility.yul\":563:564   */\n      0x00\n        /* \"#utility.yul\":556:568   */\n      revert\n        /* \"#utility.yul\":580:682   */\n    tag_75:\n        /* \"#utility.yul\":621:627   */\n      0x00\n        /* \"#utility.yul\":672:674   */\n      0x1f\n        /* \"#utility.yul\":668:675   */\n      not\n        /* \"#utility.yul\":663:665   */\n      0x1f\n        /* \"#utility.yul\":656:661   */\n      dup4\n        /* \"#utility.yul\":652:666   */\n      add\n        /* \"#utility.yul\":648:676   */\n      and\n        /* \"#utility.yul\":638:676   */\n      swap1\n      pop\n        /* \"#utility.yul\":580:682   */\n      swap2\n      swap1\n      pop\n      jump\t// out\n        /* \"#utility.yul\":688:868   */\n    tag_76:\n        /* \"#utility.yul\":736:813   */\n      0x4e487b7100000000000000000000000000000000000000000000000000000000\n        /* \"#utility.yul\":733:734   */\n      0x00\n        /* \"#utility.yul\":726:814   */\n      mstore\n        /* \"#utility.yul\":833:837   */\n      0x41\n        /* \"#utility.yul\":830:831   */\n      0x04\n        /* \"#utility.yul\":823:838   */\n      mstore\n        /* \"#utility.yul\":857:861   */\n      0x24\n        /* \"#utility.yul\":854:855   */\n      0x00\n        /* \"#utility.yul\":847:862   */\n      revert\n        /* \"#utility.yul\":874:1155   */\n    tag_77:\n        /* \"#utility.yul\":957:984   */\n      tag_108\n        /* \"#utility.yul\":979:983   */\n      dup3\n        /* \"#utility.yul\":957:984   */\n      tag_75\n      jump\t// in\n    tag_108:\n        /* \"#utility.yul\":949:955   */\n      dup2\n        /* \"#utility.yul\":945:985   */\n      add\n        /* \"#utility.yul\":1087:1093   */\n      dup2\n        /* \"#utility.yul\":1075:1085   */\n      dup2\n        /* \"#utility.yul\":1072:1094   */\n      lt\n        /* \"#utility.yul\":1051:1069   */\n      0xffffffffffffffff\n        /* \"#utility.yul\":1039:1049   */\n      dup3\n        /* \"#utility.yul\":1036:1070   */\n      gt\n        /* \"#utility.yul\":1033:1095   */\n      or\n        /* \"#utility.yul\":1030:1118   */\n      iszero\n      tag_109\n      jumpi\n        /* \"#utility.yul\":1098:1116   */\n      tag_110\n      tag_76\n      jump\t// in\n    tag_110:\n        /* \"#utility.yul\":1030:1118   */\n    tag_109:\n        /* \"#utility.yul\":1138:1148   */\n      dup1\n        /* \"#utility.yul\":1134:1136   */\n      0x40\n        /* \"#utility.yul\":1127:1149   */\n      mstore\n        /* \"#utility.yul\":917:1155   */\n      pop\n        /* \"#utility.yul\":874:1155   */\n      pop\n      pop\n      jump\t// out\n        /* \"#utility.yul\":1161:1290   */\n    tag_78:\n        /* \"#utility.yul\":1195:1201   */\n      0x00\n        /* \"#utility.yul\":1222:1242   */\n      tag_112\n      tag_70\n      jump\t// in\n    tag_112:\n        /* \"#utility.yul\":1212:1242   */\n      swap1\n      pop\n        /* \"#utility.yul\":1251:1284   */\n      tag_113\n        /* \"#utility.yul\":1279:1283   */\n      dup3\n        /* \"#utility.yul\":1271:1277   */\n      dup3\n        /* \"#utility.yul\":1251:1284   */\n      tag_77\n      jump\t// in\n    tag_113:\n        /* \"#utility.yul\":1161:1290   */\n      swap2\n      swap1\n      pop\n      jump\t// out\n        /* \"#utility.yul\":1296:1604   */\n    tag_79:\n        /* \"#utility.yul\":1358:1362   */\n      0x00\n        /* \"#utility.yul\":1448:1466   */\n      0xffffffffffffffff\n        /* \"#utility.yul\":1440:1446   */\n      dup3\n        /* \"#utility.yul\":1437:1467   */\n      gt\n        /* \"#utility.yul\":1434:1490   */\n      iszero\n      tag_115\n      jumpi\n        /* \"#utility.yul\":1470:1488   */\n      tag_116\n      tag_76\n      jump\t// in\n    tag_116:\n        /* \"#utility.yul\":1434:1490   */\n    tag_115:\n        /* \"#utility.yul\":1508:1537   */\n      tag_117\n        /* \"#utility.yul\":1530:1536   */\n      dup3\n        /* \"#utility.yul\":1508:1537   */\n      tag_75\n      jump\t// in\n    tag_117:\n        /* \"#utility.yul\":1500:1537   */\n      swap1\n      pop\n        /* \"#utility.yul\":1592:1596   */\n      0x20\n        /* \"#utility.yul\":1586:1590   */\n      dup2\n        /* \"#utility.yul\":1582:1597   */\n      add\n        /* \"#utility.yul\":1574:1597   */\n      swap1\n      pop\n        /* \"#utility.yul\":1296:1604   */\n      swap2\n      swap1\n      pop\n      jump\t// out\n        /* \"#utility.yul\":1610:1758   */\n    tag_80:\n        /* \"#utility.yul\":1708:1714   */\n      dup3\n        /* \"#utility.yul\":1703:1706   */\n      dup2\n        /* \"#utility.yul\":1698:1701   */\n      dup4\n        /* \"#utility.yul\":1685:1715   */\n      calldatacopy\n        /* \"#utility.yul\":1749:1750   */\n      0x00\n        /* \"#utility.yul\":1740:1746   */\n      dup4\n        /* \"#utility.yul\":1735:1738   */\n      dup4\n        /* \"#utility.yul\":1731:1747   */\n      add\n        /* \"#utility.yul\":1724:1751   */\n      mstore\n        /* \"#utility.yul\":1610:1758   */\n      pop\n      pop\n      pop\n      jump\t// out\n        /* \"#utility.yul\":1764:2189   */\n    tag_81:\n        /* \"#utility.yul\":1842:1847   */\n      0x00\n        /* \"#utility.yul\":1867:1933   */\n      tag_120\n        /* \"#utility.yul\":1883:1932   */\n      tag_121\n        /* \"#utility.yul\":1925:1931   */\n      dup5\n        /* \"#utility.yul\":1883:1932   */\n      tag_79\n      jump\t// in\n    tag_121:\n        /* \"#utility.yul\":1867:1933   */\n      tag_78\n      jump\t// in\n    tag_120:\n        /* \"#utility.yul\":1858:1933   */\n      swap1\n      pop\n        /* \"#utility.yul\":1956:1962   */\n      dup3\n        /* \"#utility.yul\":1949:1954   */\n      dup2\n        /* \"#utility.yul\":1942:1963   */\n      mstore\n        /* \"#utility.yul\":1994:1998   */\n      0x20\n        /* \"#utility.yul\":1987:1992   */\n      dup2\n        /* \"#utility.yul\":1983:1999   */\n      add\n        /* \"#utility.yul\":2032:2035   */\n      dup5\n        /* \"#utility.yul\":2023:2029   */\n      dup5\n        /* \"#utility.yul\":2018:2021   */\n      dup5\n        /* \"#utility.yul\":2014:2030   */\n      add\n        /* \"#utility.yul\":2011:2036   */\n      gt\n        /* \"#utility.yul\":2008:2120   */\n      iszero\n      tag_122\n      jumpi\n        /* \"#utility.yul\":2039:2118   */\n      tag_123\n      tag_74\n      jump\t// in\n    tag_123:\n        /* \"#utility.yul\":2008:2120   */\n    tag_122:\n        /* \"#utility.yul\":2129:2183   */\n      tag_124\n        /* \"#utility.yul\":2176:2182   */\n      dup5\n        /* \"#utility.yul\":2171:2174   */\n      dup3\n        /* \"#utility.yul\":2166:2169   */\n      dup6\n        /* \"#utility.yul\":2129:2183   */\n      tag_80\n      jump\t// in\n    tag_124:\n        /* \"#utility.yul\":1848:2189   */\n      pop\n        /* \"#utility.yul\":1764:2189   */\n      swap4\n      swap3\n      pop\n      pop\n      pop\n      jump\t// out\n        /* \"#utility.yul\":2209:2549   */\n    tag_82:\n        /* \"#utility.yul\":2265:2270   */\n      0x00\n        /* \"#utility.yul\":2314:2317   */\n      dup3\n        /* \"#utility.yul\":2307:2311   */\n      0x1f\n        /* \"#utility.yul\":2299:2305   */\n      dup4\n        /* \"#utility.yul\":2295:2312   */\n      add\n        /* \"#utility.yul\":2291:2318   */\n      slt\n        /* \"#utility.yul\":2281:2403   */\n      tag_126\n      jumpi\n        /* \"#utility.yul\":2322:2401   */\n      tag_127\n      tag_73\n      jump\t// in\n    tag_127:\n        /* \"#utility.yul\":2281:2403   */\n    tag_126:\n        /* \"#utility.yul\":2439:2445   */\n      dup2\n        /* \"#utility.yul\":2426:2446   */\n      calldataload\n        /* \"#utility.yul\":2464:2543   */\n      tag_128\n        /* \"#utility.yul\":2539:2542   */\n      dup5\n        /* \"#utility.yul\":2531:2537   */\n      dup3\n        /* \"#utility.yul\":2524:2528   */\n      0x20\n        /* \"#utility.yul\":2516:2522   */\n      dup7\n        /* \"#utility.yul\":2512:2529   */\n      add\n        /* \"#utility.yul\":2464:2543   */\n      tag_81\n      jump\t// in\n    tag_128:\n        /* \"#utility.yul\":2455:2543   */\n      swap2\n      pop\n        /* \"#utility.yul\":2271:2549   */\n      pop\n        /* \"#utility.yul\":2209:2549   */\n      swap3\n      swap2\n      pop\n      pop\n      jump\t// out\n        /* \"#utility.yul\":2555:3064   */\n    tag_8:\n        /* \"#utility.yul\":2624:2630   */\n      0x00\n        /* \"#utility.yul\":2673:2675   */\n      0x20\n        /* \"#utility.yul\":2661:2670   */\n      dup3\n        /* \"#utility.yul\":2652:2659   */\n      dup5\n        /* \"#utility.yul\":2648:2671   */\n      sub\n        /* \"#utility.yul\":2644:2676   */\n      slt\n        /* \"#utility.yul\":2641:2760   */\n      iszero\n      tag_130\n      jumpi\n        /* \"#utility.yul\":2679:2758   */\n      tag_131\n      tag_71\n      jump\t// in\n    tag_131:\n        /* \"#utility.yul\":2641:2760   */\n    tag_130:\n        /* \"#utility.yul\":2827:2828   */\n      0x00\n        /* \"#utility.yul\":2816:2825   */\n      dup3\n        /* \"#utility.yul\":2812:2829   */\n      add\n        /* \"#utility.yul\":2799:2830   */\n      calldataload\n        /* \"#utility.yul\":2857:2875   */\n      0xffffffffffffffff\n        /* \"#utility.yul\":2849:2855   */\n      dup2\n        /* \"#utility.yul\":2846:2876   */\n      gt\n        /* \"#utility.yul\":2843:2960   */\n      iszero\n      tag_132\n      jumpi\n        /* \"#utility.yul\":2879:2958   */\n      tag_133\n      tag_72\n      jump\t// in\n    tag_133:\n        /* \"#utility.yul\":2843:2960   */\n    tag_132:\n        /* \"#utility.yul\":2984:3047   */\n      tag_134\n        /* \"#utility.yul\":3039:3046   */\n      dup5\n        /* \"#utility.yul\":3030:3036   */\n      dup3\n        /* \"#utility.yul\":3019:3028   */\n      dup6\n        /* \"#utility.yul\":3015:3037   */\n      add\n        /* \"#utility.yul\":2984:3047   */\n      tag_82\n      jump\t// in\n    tag_134:\n        /* \"#utility.yul\":2974:3047   */\n      swap2\n      pop\n        /* \"#utility.yul\":2770:3057   */\n      pop\n        /* \"#utility.yul\":2555:3064   */\n      swap3\n      swap2\n      pop\n      pop\n      jump\t// out\n        /* \"#utility.yul\":3070:3147   */\n    tag_83:\n        /* \"#utility.yul\":3107:3114   */\n      0x00\n        /* \"#utility.yul\":3136:3141   */\n      dup2\n        /* \"#utility.yul\":3125:3141   */\n      swap1\n      pop\n        /* \"#utility.yul\":3070:3147   */\n      swap2\n      swap1\n      pop\n      jump\t// out\n        /* \"#utility.yul\":3153:3271   */\n    tag_84:\n        /* \"#utility.yul\":3240:3264   */\n      tag_137\n        /* \"#utility.yul\":3258:3263   */\n      dup2\n        /* \"#utility.yul\":3240:3264   */\n      tag_83\n      jump\t// in\n    tag_137:\n        /* \"#utility.yul\":3235:3238   */\n      dup3\n        /* \"#utility.yul\":3228:3265   */\n      mstore\n        /* \"#utility.yul\":3153:3271   */\n      pop\n      pop\n      jump\t// out\n        /* \"#utility.yul\":3277:3499   */\n    tag_11:\n        /* \"#utility.yul\":3370:3374   */\n      0x00\n        /* \"#utility.yul\":3408:3410   */\n      0x20\n        /* \"#utility.yul\":3397:3406   */\n      dup3\n        /* \"#utility.yul\":3393:3411   */\n      add\n        /* \"#utility.yul\":3385:3411   */\n      swap1\n      pop\n        /* \"#utility.yul\":3421:3492   */\n      tag_139\n        /* \"#utility.yul\":3489:3490   */\n      0x00\n        /* \"#utility.yul\":3478:3487   */\n      dup4\n        /* \"#utility.yul\":3474:3491   */\n      add\n        /* \"#utility.yul\":3465:3471   */\n      dup5\n        /* \"#utility.yul\":3421:3492   */\n      tag_84\n      jump\t// in\n    tag_139:\n        /* \"#utility.yul\":3277:3499   */\n      swap3\n      swap2\n      pop\n      pop\n      jump\t// out\n        /* \"#utility.yul\":3505:3604   */\n    tag_85:\n        /* \"#utility.yul\":3557:3563   */\n      0x00\n        /* \"#utility.yul\":3591:3596   */\n      dup2\n        /* \"#utility.yul\":3585:3597   */\n      mload\n        /* \"#utility.yul\":3575:3597   */\n      swap1\n      pop\n        /* \"#utility.yul\":3505:3604   */\n      swap2\n      swap1\n      pop\n      jump\t// out\n        /* \"#utility.yul\":3610:3779   */\n    tag_86:\n        /* \"#utility.yul\":3694:3705   */\n      0x00\n        /* \"#utility.yul\":3728:3734   */\n      dup3\n        /* \"#utility.yul\":3723:3726   */\n      dup3\n        /* \"#utility.yul\":3716:3735   */\n      mstore\n        /* \"#utility.yul\":3768:3772   */\n      0x20\n        /* \"#utility.yul\":3763:3766   */\n      dup3\n        /* \"#utility.yul\":3759:3773   */\n      add\n        /* \"#utility.yul\":3744:3773   */\n      swap1\n      pop\n        /* \"#utility.yul\":3610:3779   */\n      swap3\n      swap2\n      pop\n      pop\n      jump\t// out\n        /* \"#utility.yul\":3785:3924   */\n    tag_87:\n        /* \"#utility.yul\":3874:3880   */\n      dup3\n        /* \"#utility.yul\":3869:3872   */\n      dup2\n        /* \"#utility.yul\":3864:3867   */\n      dup4\n        /* \"#utility.yul\":3858:3881   */\n      mcopy\n        /* \"#utility.yul\":3915:3916   */\n      0x00\n        /* \"#utility.yul\":3906:3912   */\n      dup4\n        /* \"#utility.yul\":3901:3904   */\n      dup4\n        /* \"#utility.yul\":3897:3913   */\n      add\n        /* \"#utility.yul\":3890:3917   */\n      mstore\n        /* \"#utility.yul\":3785:3924   */\n      pop\n      pop\n      pop\n      jump\t// out\n        /* \"#utility.yul\":3930:4307   */\n    tag_88:\n        /* \"#utility.yul\":4018:4021   */\n      0x00\n        /* \"#utility.yul\":4046:4085   */\n      tag_144\n        /* \"#utility.yul\":4079:4084   */\n      dup3\n        /* \"#utility.yul\":4046:4085   */\n      tag_85\n      jump\t// in\n    tag_144:\n        /* \"#utility.yul\":4101:4172   */\n      tag_145\n        /* \"#utility.yul\":4165:4171   */\n      dup2\n        /* \"#utility.yul\":4160:4163   */\n      dup6\n        /* \"#utility.yul\":4101:4172   */\n      tag_86\n      jump\t// in\n    tag_145:\n        /* \"#utility.yul\":4094:4172   */\n      swap4\n      pop\n        /* \"#utility.yul\":4181:4246   */\n      tag_146\n        /* \"#utility.yul\":4239:4245   */\n      dup2\n        /* \"#utility.yul\":4234:4237   */\n      dup6\n        /* \"#utility.yul\":4227:4231   */\n      0x20\n        /* \"#utility.yul\":4220:4225   */\n      dup7\n        /* \"#utility.yul\":4216:4232   */\n      add\n        /* \"#utility.yul\":4181:4246   */\n      tag_87\n      jump\t// in\n    tag_146:\n        /* \"#utility.yul\":4271:4300   */\n      tag_147\n        /* \"#utility.yul\":4293:4299   */\n      dup2\n        /* \"#utility.yul\":4271:4300   */\n      tag_75\n      jump\t// in\n    tag_147:\n        /* \"#utility.yul\":4266:4269   */\n      dup5\n        /* \"#utility.yul\":4262:4301   */\n      add\n        /* \"#utility.yul\":4255:4301   */\n      swap2\n      pop\n        /* \"#utility.yul\":4022:4307   */\n      pop\n        /* \"#utility.yul\":3930:4307   */\n      swap3\n      swap2\n      pop\n      pop\n      jump\t// out\n        /* \"#utility.yul\":4313:4626   */\n    tag_15:\n        /* \"#utility.yul\":4426:4430   */\n      0x00\n        /* \"#utility.yul\":4464:4466   */\n      0x20\n        /* \"#utility.yul\":4453:4462   */\n      dup3\n        /* \"#utility.yul\":4449:4467   */\n      add\n        /* \"#utility.yul\":4441:4467   */\n      swap1\n      pop\n        /* \"#utility.yul\":4513:4522   */\n      dup2\n        /* \"#utility.yul\":4507:4511   */\n      dup2\n        /* \"#utility.yul\":4503:4523   */\n      sub\n        /* \"#utility.yul\":4499:4500   */\n      0x00\n        /* \"#utility.yul\":4488:4497   */\n      dup4\n        /* \"#utility.yul\":4484:4501   */\n      add\n        /* \"#utility.yul\":4477:4524   */\n      mstore\n        /* \"#utility.yul\":4541:4619   */\n      tag_149\n        /* \"#utility.yul\":4614:4618   */\n      dup2\n        /* \"#utility.yul\":4605:4611   */\n      dup5\n        /* \"#utility.yul\":4541:4619   */\n      tag_88\n      jump\t// in\n    tag_149:\n        /* \"#utility.yul\":4533:4619   */\n      swap1\n      pop\n        /* \"#utility.yul\":4313:4626   */\n      swap3\n      swap2\n      pop\n      pop\n      jump\t// out\n        /* \"#utility.yul\":4632:4736   */\n    tag_89:\n        /* \"#utility.yul\":4697:4703   */\n      0x00\n        /* \"#utility.yul\":4725:4729   */\n      0x05\n        /* \"#utility.yul\":4715:4729   */\n      swap1\n      pop\n        /* \"#utility.yul\":4632:4736   */\n      swap2\n      swap1\n      pop\n      jump\t// out\n        /* \"#utility.yul\":4742:4885   */\n    tag_90:\n        /* \"#utility.yul\":4839:4850   */\n      0x00\n        /* \"#utility.yul\":4876:4879   */\n      dup2\n        /* \"#utility.yul\":4861:4879   */\n      swap1\n      pop\n        /* \"#utility.yul\":4742:4885   */\n      swap3\n      swap2\n      pop\n      pop\n      jump\t// out\n        /* \"#utility.yul\":4891:4989   */\n    tag_91:\n        /* \"#utility.yul\":4956:4960   */\n      0x00\n        /* \"#utility.yul\":4979:4982   */\n      dup2\n        /* \"#utility.yul\":4971:4982   */\n      swap1\n      pop\n        /* \"#utility.yul\":4891:4989   */\n      swap2\n      swap1\n      pop\n      jump\t// out\n        /* \"#utility.yul\":4995:5103   */\n    tag_92:\n        /* \"#utility.yul\":5072:5096   */\n      tag_154\n        /* \"#utility.yul\":5090:5095   */\n      dup2\n        /* \"#utility.yul\":5072:5096   */\n      tag_83\n      jump\t// in\n    tag_154:\n        /* \"#utility.yul\":5067:5070   */\n      dup3\n        /* \"#utility.yul\":5060:5097   */\n      mstore\n        /* \"#utility.yul\":4995:5103   */\n      pop\n      pop\n      jump\t// out\n        /* \"#utility.yul\":5109:5288   */\n    tag_93:\n        /* \"#utility.yul\":5178:5188   */\n      0x00\n        /* \"#utility.yul\":5199:5245   */\n      tag_156\n        /* \"#utility.yul\":5241:5244   */\n      dup4\n        /* \"#utility.yul\":5233:5239   */\n      dup4\n        /* \"#utility.yul\":5199:5245   */\n      tag_92\n      jump\t// in\n    tag_156:\n        /* \"#utility.yul\":5277:5281   */\n      0x20\n        /* \"#utility.yul\":5272:5275   */\n      dup4\n        /* \"#utility.yul\":5268:5282   */\n      add\n        /* \"#utility.yul\":5254:5282   */\n      swap1\n      pop\n        /* \"#utility.yul\":5109:5288   */\n      swap3\n      swap2\n      pop\n      pop\n      jump\t// out\n        /* \"#utility.yul\":5294:5405   */\n    tag_94:\n        /* \"#utility.yul\":5362:5366   */\n      0x00\n        /* \"#utility.yul\":5394:5398   */\n      0x20\n        /* \"#utility.yul\":5389:5392   */\n      dup3\n        /* \"#utility.yul\":5385:5399   */\n      add\n        /* \"#utility.yul\":5377:5399   */\n      swap1\n      pop\n        /* \"#utility.yul\":5294:5405   */\n      swap2\n      swap1\n      pop\n      jump\t// out\n        /* \"#utility.yul\":5443:6137   */\n    tag_95:\n        /* \"#utility.yul\":5579:5631   */\n      tag_159\n        /* \"#utility.yul\":5625:5630   */\n      dup2\n        /* \"#utility.yul\":5579:5631   */\n      tag_89\n      jump\t// in\n    tag_159:\n        /* \"#utility.yul\":5647:5731   */\n      tag_160\n        /* \"#utility.yul\":5724:5730   */\n      dup2\n        /* \"#utility.yul\":5719:5722   */\n      dup5\n        /* \"#utility.yul\":5647:5731   */\n      tag_90\n      jump\t// in\n    tag_160:\n        /* \"#utility.yul\":5640:5731   */\n      swap3\n      pop\n        /* \"#utility.yul\":5755:5809   */\n      tag_161\n        /* \"#utility.yul\":5803:5808   */\n      dup3\n        /* \"#utility.yul\":5755:5809   */\n      tag_91\n      jump\t// in\n    tag_161:\n        /* \"#utility.yul\":5832:5839   */\n      dup1\n        /* \"#utility.yul\":5863:5864   */\n      0x00\n        /* \"#utility.yul\":5848:6130   */\n    tag_162:\n        /* \"#utility.yul\":5873:5879   */\n      dup4\n        /* \"#utility.yul\":5870:5871   */\n      dup2\n        /* \"#utility.yul\":5867:5880   */\n      lt\n        /* \"#utility.yul\":5848:6130   */\n      iszero\n      tag_164\n      jumpi\n        /* \"#utility.yul\":5949:5955   */\n      dup2\n        /* \"#utility.yul\":5943:5956   */\n      mload\n        /* \"#utility.yul\":5976:6039   */\n      tag_165\n        /* \"#utility.yul\":6035:6038   */\n      dup8\n        /* \"#utility.yul\":6020:6033   */\n      dup3\n        /* \"#utility.yul\":5976:6039   */\n      tag_93\n      jump\t// in\n    tag_165:\n        /* \"#utility.yul\":5969:6039   */\n      swap7\n      pop\n        /* \"#utility.yul\":6062:6120   */\n      tag_166\n        /* \"#utility.yul\":6113:6119   */\n      dup4\n        /* \"#utility.yul\":6062:6120   */\n      tag_94\n      jump\t// in\n    tag_166:\n        /* \"#utility.yul\":6052:6120   */\n      swap3\n      pop\n        /* \"#utility.yul\":5908:6130   */\n      pop\n        /* \"#utility.yul\":5895:5896   */\n      0x01\n        /* \"#utility.yul\":5892:5893   */\n      dup2\n        /* \"#utility.yul\":5888:5897   */\n      add\n        /* \"#utility.yul\":5883:5897   */\n      swap1\n      pop\n        /* \"#utility.yul\":5848:6130   */\n      jump(tag_162)\n    tag_164:\n        /* \"#utility.yul\":5852:5866   */\n      pop\n        /* \"#utility.yul\":5555:6137   */\n      pop\n      pop\n      pop\n        /* \"#utility.yul\":5443:6137   */\n      pop\n      pop\n      jump\t// out\n        /* \"#utility.yul\":6143:6458   */\n    tag_19:\n        /* \"#utility.yul\":6282:6286   */\n      0x00\n        /* \"#utility.yul\":6320:6323   */\n      0xa0\n        /* \"#utility.yul\":6309:6318   */\n      dup3\n        /* \"#utility.yul\":6305:6324   */\n      add\n        /* \"#utility.yul\":6297:6324   */\n      swap1\n      pop\n        /* \"#utility.yul\":6334:6451   */\n      tag_168\n        /* \"#utility.yul\":6448:6449   */\n      0x00\n        /* \"#utility.yul\":6437:6446   */\n      dup4\n        /* \"#utility.yul\":6433:6450   */\n      add\n        /* \"#utility.yul\":6424:6430   */\n      dup5\n        /* \"#utility.yul\":6334:6451   */\n      tag_95\n      jump\t// in\n    tag_168:\n        /* \"#utility.yul\":6143:6458   */\n      swap3\n      swap2\n      pop\n      pop\n      jump\t// out\n        /* \"#utility.yul\":6464:6644   */\n    tag_27:\n        /* \"#utility.yul\":6512:6589   */\n      0x4e487b7100000000000000000000000000000000000000000000000000000000\n        /* \"#utility.yul\":6509:6510   */\n      0x00\n        /* \"#utility.yul\":6502:6590   */\n      mstore\n        /* \"#utility.yul\":6609:6613   */\n      0x32\n        /* \"#utility.yul\":6606:6607   */\n      0x04\n        /* \"#utility.yul\":6599:6614   */\n      mstore\n        /* \"#utility.yul\":6633:6637   */\n      0x24\n        /* \"#utility.yul\":6630:6631   */\n      0x00\n        /* \"#utility.yul\":6623:6638   */\n      revert\n        /* \"#utility.yul\":6650:6830   */\n    tag_96:\n        /* \"#utility.yul\":6698:6775   */\n      0x4e487b7100000000000000000000000000000000000000000000000000000000\n        /* \"#utility.yul\":6695:6696   */\n      0x00\n        /* \"#utility.yul\":6688:6776   */\n      mstore\n        /* \"#utility.yul\":6795:6799   */\n      0x11\n        /* \"#utility.yul\":6792:6793   */\n      0x04\n        /* \"#utility.yul\":6785:6800   */\n      mstore\n        /* \"#utility.yul\":6819:6823   */\n      0x24\n        /* \"#utility.yul\":6816:6817   */\n      0x00\n        /* \"#utility.yul\":6809:6824   */\n      revert\n        /* \"#utility.yul\":6836:7030   */\n    tag_30:\n        /* \"#utility.yul\":6876:6880   */\n      0x00\n        /* \"#utility.yul\":6896:6916   */\n      tag_172\n        /* \"#utility.yul\":6914:6915   */\n      dup3\n        /* \"#utility.yul\":6896:6916   */\n      tag_83\n      jump\t// in\n    tag_172:\n        /* \"#utility.yul\":6891:6916   */\n      swap2\n      pop\n        /* \"#utility.yul\":6930:6950   */\n      tag_173\n        /* \"#utility.yul\":6948:6949   */\n      dup4\n        /* \"#utility.yul\":6930:6950   */\n      tag_83\n      jump\t// in\n    tag_173:\n        /* \"#utility.yul\":6925:6950   */\n      swap3\n      pop\n        /* \"#utility.yul\":6974:6975   */\n      dup3\n        /* \"#utility.yul\":6971:6972   */\n      dup3\n        /* \"#utility.yul\":6967:6976   */\n      sub\n        /* \"#utility.yul\":6959:6976   */\n      swap1\n      pop\n        /* \"#utility.yul\":6998:6999   */\n      dup2\n        /* \"#utility.yul\":6992:6996   */\n      dup2\n        /* \"#utility.yul\":6989:7000   */\n      gt\n        /* \"#utility.yul\":6986:7023   */\n      iszero\n      tag_174\n      jumpi\n        /* \"#utility.yul\":7003:7021   */\n      tag_175\n      tag_96\n      jump\t// in\n    tag_175:\n        /* \"#utility.yul\":6986:7023   */\n    tag_174:\n        /* \"#utility.yul\":6836:7030   */\n      swap3\n      swap2\n      pop\n      pop\n      jump\t// out\n        /* \"#utility.yul\":7036:7227   */\n    tag_34:\n        /* \"#utility.yul\":7076:7079   */\n      0x00\n        /* \"#utility.yul\":7095:7115   */\n      tag_177\n        /* \"#utility.yul\":7113:7114   */\n      dup3\n        /* \"#utility.yul\":7095:7115   */\n      tag_83\n      jump\t// in\n    tag_177:\n        /* \"#utility.yul\":7090:7115   */\n      swap2\n      pop\n        /* \"#utility.yul\":7129:7149   */\n      tag_178\n        /* \"#utility.yul\":7147:7148   */\n      dup4\n        /* \"#utility.yul\":7129:7149   */\n      tag_83\n      jump\t// in\n    tag_178:\n        /* \"#utility.yul\":7124:7149   */\n      swap3\n      pop\n        /* \"#utility.yul\":7172:7173   */\n      dup3\n        /* \"#utility.yul\":7169:7170   */\n      dup3\n        /* \"#utility.yul\":7165:7174   */\n      add\n        /* \"#utility.yul\":7158:7174   */\n      swap1\n      pop\n        /* \"#utility.yul\":7193:7196   */\n      dup1\n        /* \"#utility.yul\":7190:7191   */\n      dup3\n        /* \"#utility.yul\":7187:7197   */\n      gt\n        /* \"#utility.yul\":7184:7220   */\n      iszero\n      tag_179\n      jumpi\n        /* \"#utility.yul\":7200:7218   */\n      tag_180\n      tag_96\n      jump\t// in\n    tag_180:\n        /* \"#utility.yul\":7184:7220   */\n    tag_179:\n        /* \"#utility.yul\":7036:7227   */\n      swap3\n      swap2\n      pop\n      pop\n      jump\t// out\n        /* \"#utility.yul\":7233:7414   */\n    tag_97:\n        /* \"#utility.yul\":7373:7406   */\n      0x496e76616c696420526f6d616e206e756d6572616c2063686172616374657200\n        /* \"#utility.yul\":7369:7370   */\n      0x00\n        /* \"#utility.yul\":7361:7367   */\n      dup3\n        /* \"#utility.yul\":7357:7371   */\n      add\n        /* \"#utility.yul\":7350:7407   */\n      mstore\n        /* \"#utility.yul\":7233:7414   */\n      pop\n      jump\t// out\n        /* \"#utility.yul\":7420:7786   */\n    tag_98:\n        /* \"#utility.yul\":7562:7565   */\n      0x00\n        /* \"#utility.yul\":7583:7650   */\n      tag_183\n        /* \"#utility.yul\":7647:7649   */\n      0x1f\n        /* \"#utility.yul\":7642:7645   */\n      dup4\n        /* \"#utility.yul\":7583:7650   */\n      tag_86\n      jump\t// in\n    tag_183:\n        /* \"#utility.yul\":7576:7650   */\n      swap2\n      pop\n        /* \"#utility.yul\":7659:7752   */\n      tag_184\n        /* \"#utility.yul\":7748:7751   */\n      dup3\n        /* \"#utility.yul\":7659:7752   */\n      tag_97\n      jump\t// in\n    tag_184:\n        /* \"#utility.yul\":7777:7779   */\n      0x20\n        /* \"#utility.yul\":7772:7775   */\n      dup3\n        /* \"#utility.yul\":7768:7780   */\n      add\n        /* \"#utility.yul\":7761:7780   */\n      swap1\n      pop\n        /* \"#utility.yul\":7420:7786   */\n      swap2\n      swap1\n      pop\n      jump\t// out\n        /* \"#utility.yul\":7792:8211   */\n    tag_69:\n        /* \"#utility.yul\":7958:7962   */\n      0x00\n        /* \"#utility.yul\":7996:7998   */\n      0x20\n        /* \"#utility.yul\":7985:7994   */\n      dup3\n        /* \"#utility.yul\":7981:7999   */\n      add\n        /* \"#utility.yul\":7973:7999   */\n      swap1\n      pop\n        /* \"#utility.yul\":8045:8054   */\n      dup2\n        /* \"#utility.yul\":8039:8043   */\n      dup2\n        /* \"#utility.yul\":8035:8055   */\n      sub\n        /* \"#utility.yul\":8031:8032   */\n      0x00\n        /* \"#utility.yul\":8020:8029   */\n      dup4\n        /* \"#utility.yul\":8016:8033   */\n      add\n        /* \"#utility.yul\":8009:8056   */\n      mstore\n        /* \"#utility.yul\":8073:8204   */\n      tag_186\n        /* \"#utility.yul\":8199:8203   */\n      dup2\n        /* \"#utility.yul\":8073:8204   */\n      tag_98\n      jump\t// in\n    tag_186:\n        /* \"#utility.yul\":8065:8204   */\n      swap1\n      pop\n        /* \"#utility.yul\":7792:8211   */\n      swap2\n      swap1\n      pop\n      jump\t// out\n    stop\n    data_8d9654d9fb7913ddcb3ee766558ff744f5fee37446b2f46f1a1d07130a82d19b 4d3d313030302c20434d3d3930302c2058433d39302c2049563d34203d3e20313030302b3930302b39302b343d31393934\n\n    auxdata: 0xa2646970667358221220a04f0f5404fc0bd4378d07430b091984978de21c9be1dc6351d211cc5cd5ba9264736f6c634300081e0033\n}\n",
				"bytecode": {
					"linkReferences": {},
					"object": "6080604052348015600e575f5ffd5b50610aa58061001c5f395ff3fe608060405234801561000f575f5ffd5b506004361061003f575f3560e01c8063cb159dfe14610043578063eab28df914610073578063f8a8fd6d14610091575b5f5ffd5b61005d60048036038101906100589190610760565b6100af565b60405161006a91906107bf565b60405180910390f35b61007b61017f565b6040516100889190610838565b60405180910390f35b61009961019f565b6040516100a691906108fd565b60405180910390f35b5f5f8290505f815190505f5f90505f5f90505b82811015610173575f6100f18583815181106100e1576100e0610916565b5b602001015160f81c60f81b610370565b90506001846101009190610970565b8210801561013e575061013b8560018461011a91906109a3565b8151811061012b5761012a610916565b5b602001015160f81c60f81b610370565b81105b1561015657808361014f9190610970565b9250610165565b808361016291906109a3565b92505b5080806001019150506100c2565b50809350505050919050565b6060604051806060016040528060318152602001610a3f60319139905090565b6101a76105f1565b6101e56040518060400160405280600381526020017f49494900000000000000000000000000000000000000000000000000000000008152506100af565b815f600581106101f8576101f7610916565b5b60200201818152505061023f6040518060400160405280600281526020017f49560000000000000000000000000000000000000000000000000000000000008152506100af565b8160016005811061025357610252610916565b5b60200201818152505061029a6040518060400160405280600281526020017f49580000000000000000000000000000000000000000000000000000000000008152506100af565b816002600581106102ae576102ad610916565b5b6020020181815250506102f56040518060400160405280600581526020017f4c564949490000000000000000000000000000000000000000000000000000008152506100af565b8160036005811061030957610308610916565b5b6020020181815250506103506040518060400160405280600781526020017f4d434d58434956000000000000000000000000000000000000000000000000008152506100af565b8160046005811061036457610363610916565b5b60200201818152505090565b5f7f4900000000000000000000000000000000000000000000000000000000000000827effffffffffffffffffffffffffffffffffffffffffffffffffffffffffffff1916036103c357600190506105ec565b7f5600000000000000000000000000000000000000000000000000000000000000827effffffffffffffffffffffffffffffffffffffffffffffffffffffffffffff19160361041557600590506105ec565b7f5800000000000000000000000000000000000000000000000000000000000000827effffffffffffffffffffffffffffffffffffffffffffffffffffffffffffff19160361046757600a90506105ec565b7f4c00000000000000000000000000000000000000000000000000000000000000827effffffffffffffffffffffffffffffffffffffffffffffffffffffffffffff1916036104b957603290506105ec565b7f4300000000000000000000000000000000000000000000000000000000000000827effffffffffffffffffffffffffffffffffffffffffffffffffffffffffffff19160361050b57606490506105ec565b7f4400000000000000000000000000000000000000000000000000000000000000827effffffffffffffffffffffffffffffffffffffffffffffffffffffffffffff19160361055e576101f490506105ec565b7f4d00000000000000000000000000000000000000000000000000000000000000827effffffffffffffffffffffffffffffffffffffffffffffffffffffffffffff1916036105b1576103e890506105ec565b6040517f08c379a00000000000000000000000000000000000000000000000000000000081526004016105e390610a20565b60405180910390fd5b919050565b6040518060a00160405280600590602082028036833780820191505090505090565b5f604051905090565b5f5ffd5b5f5ffd5b5f5ffd5b5f5ffd5b5f601f19601f8301169050919050565b7f4e487b71000000000000000000000000000000000000000000000000000000005f52604160045260245ffd5b6106728261062c565b810181811067ffffffffffffffff821117156106915761069061063c565b5b80604052505050565b5f6106a3610613565b90506106af8282610669565b919050565b5f67ffffffffffffffff8211156106ce576106cd61063c565b5b6106d78261062c565b9050602081019050919050565b828183375f83830152505050565b5f6107046106ff846106b4565b61069a565b9050828152602081018484840111156107205761071f610628565b5b61072b8482856106e4565b509392505050565b5f82601f83011261074757610746610624565b5b81356107578482602086016106f2565b91505092915050565b5f602082840312156107755761077461061c565b5b5f82013567ffffffffffffffff81111561079257610791610620565b5b61079e84828501610733565b91505092915050565b5f819050919050565b6107b9816107a7565b82525050565b5f6020820190506107d25f8301846107b0565b92915050565b5f81519050919050565b5f82825260208201905092915050565b8281835e5f83830152505050565b5f61080a826107d8565b61081481856107e2565b93506108248185602086016107f2565b61082d8161062c565b840191505092915050565b5f6020820190508181035f8301526108508184610800565b905092915050565b5f60059050919050565b5f81905092915050565b5f819050919050565b61087e816107a7565b82525050565b5f61088f8383610875565b60208301905092915050565b5f602082019050919050565b6108b081610858565b6108ba8184610862565b92506108c58261086c565b805f5b838110156108f55781516108dc8782610884565b96506108e78361089b565b9250506001810190506108c8565b505050505050565b5f60a0820190506109105f8301846108a7565b92915050565b7f4e487b71000000000000000000000000000000000000000000000000000000005f52603260045260245ffd5b7f4e487b71000000000000000000000000000000000000000000000000000000005f52601160045260245ffd5b5f61097a826107a7565b9150610985836107a7565b925082820390508181111561099d5761099c610943565b5b92915050565b5f6109ad826107a7565b91506109b8836107a7565b92508282019050808211156109d0576109cf610943565b5b92915050565b7f496e76616c696420526f6d616e206e756d6572616c20636861726163746572005f82015250565b5f610a0a601f836107e2565b9150610a15826109d6565b602082019050919050565b5f6020820190508181035f830152610a37816109fe565b905091905056fe4d3d313030302c20434d3d3930302c2058433d39302c2049563d34203d3e20313030302b3930302b39302b343d31393934a2646970667358221220a04f0f5404fc0bd4378d07430b091984978de21c9be1dc6351d211cc5cd5ba9264736f6c634300081e0033",
					"opcodes": "PUSH1 0x80 PUSH1 0x40 MSTORE CALLVALUE DUP1 ISZERO PUSH1 0xE JUMPI PUSH0 PUSH0 REVERT JUMPDEST POP PUSH2 0xAA5 DUP1 PUSH2 0x1C PUSH0 CODECOPY PUSH0 RETURN INVALID PUSH1 0x80 PUSH1 0x40 MSTORE CALLVALUE DUP1 ISZERO PUSH2 0xF JUMPI PUSH0 PUSH0 REVERT JUMPDEST POP PUSH1 0x4 CALLDATASIZE LT PUSH2 0x3F JUMPI PUSH0 CALLDATALOAD PUSH1 0xE0 SHR DUP1 PUSH4 0xCB159DFE EQ PUSH2 0x43 JUMPI DUP1 PUSH4 0xEAB28DF9 EQ PUSH2 0x73 JUMPI DUP1 PUSH4 0xF8A8FD6D EQ PUSH2 0x91 JUMPI JUMPDEST PUSH0 PUSH0 REVERT JUMPDEST PUSH2 0x5D PUSH1 0x4 DUP1 CALLDATASIZE SUB DUP2 ADD SWAP1 PUSH2 0x58 SWAP2 SWAP1 PUSH2 0x760 JUMP JUMPDEST PUSH2 0xAF JUMP JUMPDEST PUSH1 0x40 MLOAD PUSH2 0x6A SWAP2 SWAP1 PUSH2 0x7BF JUMP JUMPDEST PUSH1 0x40 MLOAD DUP1 SWAP2 SUB SWAP1 RETURN JUMPDEST PUSH2 0x7B PUSH2 0x17F JUMP JUMPDEST PUSH1 0x40 MLOAD PUSH2 0x88 SWAP2 SWAP1 PUSH2 0x838 JUMP JUMPDEST PUSH1 0x40 MLOAD DUP1 SWAP2 SUB SWAP1 RETURN JUMPDEST PUSH2 0x99 PUSH2 0x19F JUMP JUMPDEST PUSH1 0x40 MLOAD PUSH2 0xA6 SWAP2 SWAP1 PUSH2 0x8FD JUMP JUMPDEST PUSH1 0x40 MLOAD DUP1 SWAP2 SUB SWAP1 RETURN JUMPDEST PUSH0 PUSH0 DUP3 SWAP1 POP PUSH0 DUP2 MLOAD SWAP1 POP PUSH0 PUSH0 SWAP1 POP PUSH0 PUSH0 SWAP1 POP JUMPDEST DUP3 DUP2 LT ISZERO PUSH2 0x173 JUMPI PUSH0 PUSH2 0xF1 DUP6 DUP4 DUP2 MLOAD DUP2 LT PUSH2 0xE1 JUMPI PUSH2 0xE0 PUSH2 0x916 JUMP JUMPDEST JUMPDEST PUSH1 0x20 ADD ADD MLOAD PUSH1 0xF8 SHR PUSH1 0xF8 SHL PUSH2 0x370 JUMP JUMPDEST SWAP1 POP PUSH1 0x1 DUP5 PUSH2 0x100 SWAP2 SWAP1 PUSH2 0x970 JUMP JUMPDEST DUP3 LT DUP1 ISZERO PUSH2 0x13E JUMPI POP PUSH2 0x13B DUP6 PUSH1 0x1 DUP5 PUSH2 0x11A SWAP2 SWAP1 PUSH2 0x9A3 JUMP JUMPDEST DUP2 MLOAD DUP2 LT PUSH2 0x12B JUMPI PUSH2 0x12A PUSH2 0x916 JUMP JUMPDEST JUMPDEST PUSH1 0x20 ADD ADD MLOAD PUSH1 0xF8 SHR PUSH1 0xF8 SHL PUSH2 0x370 JUMP JUMPDEST DUP2 LT JUMPDEST ISZERO PUSH2 0x156 JUMPI DUP1 DUP4 PUSH2 0x14F SWAP2 SWAP1 PUSH2 0x970 JUMP JUMPDEST SWAP3 POP PUSH2 0x165 JUMP JUMPDEST DUP1 DUP4 PUSH2 0x162 SWAP2 SWAP1 PUSH2 0x9A3 JUMP JUMPDEST SWAP3 POP JUMPDEST POP DUP1 DUP1 PUSH1 0x1 ADD SWAP2 POP POP PUSH2 0xC2 JUMP JUMPDEST POP DUP1 SWAP4 POP POP POP POP SWAP2 SWAP1 POP JUMP JUMPDEST PUSH1 0x60 PUSH1 0x40 MLOAD DUP1 PUSH1 0x60 ADD PUSH1 0x40 MSTORE DUP1 PUSH1 0x31 DUP2 MSTORE PUSH1 0x20 ADD PUSH2 0xA3F PUSH1 0x31 SWAP2 CODECOPY SWAP1 POP SWAP1 JUMP JUMPDEST PUSH2 0x1A7 PUSH2 0x5F1 JUMP JUMPDEST PUSH2 0x1E5 PUSH1 0x40 MLOAD DUP1 PUSH1 0x40 ADD PUSH1 0x40 MSTORE DUP1 PUSH1 0x3 DUP2 MSTORE PUSH1 0x20 ADD PUSH32 0x4949490000000000000000000000000000000000000000000000000000000000 DUP2 MSTORE POP PUSH2 0xAF JUMP JUMPDEST DUP2 PUSH0 PUSH1 0x5 DUP2 LT PUSH2 0x1F8 JUMPI PUSH2 0x1F7 PUSH2 0x916 JUMP JUMPDEST JUMPDEST PUSH1 0x20 MUL ADD DUP2 DUP2 MSTORE POP POP PUSH2 0x23F PUSH1 0x40 MLOAD DUP1 PUSH1 0x40 ADD PUSH1 0x40 MSTORE DUP1 PUSH1 0x2 DUP2 MSTORE PUSH1 0x20 ADD PUSH32 0x4956000000000000000000000000000000000000000000000000000000000000 DUP2 MSTORE POP PUSH2 0xAF JUMP JUMPDEST DUP2 PUSH1 0x1 PUSH1 0x5 DUP2 LT PUSH2 0x253 JUMPI PUSH2 0x252 PUSH2 0x916 JUMP JUMPDEST JUMPDEST PUSH1 0x20 MUL ADD DUP2 DUP2 MSTORE POP POP PUSH2 0x29A PUSH1 0x40 MLOAD DUP1 PUSH1 0x40 ADD PUSH1 0x40 MSTORE DUP1 PUSH1 0x2 DUP2 MSTORE PUSH1 0x20 ADD PUSH32 0x4958000000000000000000000000000000000000000000000000000000000000 DUP2 MSTORE POP PUSH2 0xAF JUMP JUMPDEST DUP2 PUSH1 0x2 PUSH1 0x5 DUP2 LT PUSH2 0x2AE JUMPI PUSH2 0x2AD PUSH2 0x916 JUMP JUMPDEST JUMPDEST PUSH1 0x20 MUL ADD DUP2 DUP2 MSTORE POP POP PUSH2 0x2F5 PUSH1 0x40 MLOAD DUP1 PUSH1 0x40 ADD PUSH1 0x40 MSTORE DUP1 PUSH1 0x5 DUP2 MSTORE PUSH1 0x20 ADD PUSH32 0x4C56494949000000000000000000000000000000000000000000000000000000 DUP2 MSTORE POP PUSH2 0xAF JUMP JUMPDEST DUP2 PUSH1 0x3 PUSH1 0x5 DUP2 LT PUSH2 0x309 JUMPI PUSH2 0x308 PUSH2 0x916 JUMP JUMPDEST JUMPDEST PUSH1 0x20 MUL ADD DUP2 DUP2 MSTORE POP POP PUSH2 0x350 PUSH1 0x40 MLOAD DUP1 PUSH1 0x40 ADD PUSH1 0x40 MSTORE DUP1 PUSH1 0x7 DUP2 MSTORE PUSH1 0x20 ADD PUSH32 0x4D434D5843495600000000000000000000000000000000000000000000000000 DUP2 MSTORE POP PUSH2 0xAF JUMP JUMPDEST DUP2 PUSH1 0x4 PUSH1 0x5 DUP2 LT PUSH2 0x364 JUMPI PUSH2 0x363 PUSH2 0x916 JUMP JUMPDEST JUMPDEST PUSH1 0x20 MUL ADD DUP2 DUP2 MSTORE POP POP SWAP1 JUMP JUMPDEST PUSH0 PUSH32 0x4900000000000000000000000000000000000000000000000000000000000000 DUP3 PUSH31 0xFFFFFFFFFFFFFFFFFFFFFFFFFFFFFFFFFFFFFFFFFFFFFFFFFFFFFFFFFFFFFF NOT AND SUB PUSH2 0x3C3 JUMPI PUSH1 0x1 SWAP1 POP PUSH2 0x5EC JUMP JUMPDEST PUSH32 0x5600000000000000000000000000000000000000000000000000000000000000 DUP3 PUSH31 0xFFFFFFFFFFFFFFFFFFFFFFFFFFFFFFFFFFFFFFFFFFFFFFFFFFFFFFFFFFFFFF NOT AND SUB PUSH2 0x415 JUMPI PUSH1 0x5 SWAP1 POP PUSH2 0x5EC JUMP JUMPDEST PUSH32 0x5800000000000000000000000000000000000000000000000000000000000000 DUP3 PUSH31 0xFFFFFFFFFFFFFFFFFFFFFFFFFFFFFFFFFFFFFFFFFFFFFFFFFFFFFFFFFFFFFF NOT AND SUB PUSH2 0x467 JUMPI PUSH1 0xA SWAP1 POP PUSH2 0x5EC JUMP JUMPDEST PUSH32 0x4C00000000000000000000000000000000000000000000000000000000000000 DUP3 PUSH31 0xFFFFFFFFFFFFFFFFFFFFFFFFFFFFFFFFFFFFFFFFFFFFFFFFFFFFFFFFFFFFFF NOT AND SUB PUSH2 0x4B9 JUMPI PUSH1 0x32 SWAP1 POP PUSH2 0x5EC JUMP JUMPDEST PUSH32 0x4300000000000000000000000000000000000000000000000000000000000000 DUP3 PUSH31 0xFFFFFFFFFFFFFFFFFFFFFFFFFFFFFFFFFFFFFFFFFFFFFFFFFFFFFFFFFFFFFF NOT AND SUB PUSH2 0x50B JUMPI PUSH1 0x64 SWAP1 POP PUSH2 0x5EC JUMP JUMPDEST PUSH32 0x4400000000000000000000000000000000000000000000000000000000000000 DUP3 PUSH31 0xFFFFFFFFFFFFFFFFFFFFFFFFFFFFFFFFFFFFFFFFFFFFFFFFFFFFFFFFFFFFFF NOT AND SUB PUSH2 0x55E JUMPI PUSH2 0x1F4 SWAP1 POP PUSH2 0x5EC JUMP JUMPDEST PUSH32 0x4D00000000000000000000000000000000000000000000000000000000000000 DUP3 PUSH31 0xFFFFFFFFFFFFFFFFFFFFFFFFFFFFFFFFFFFFFFFFFFFFFFFFFFFFFFFFFFFFFF NOT AND SUB PUSH2 0x5B1 JUMPI PUSH2 0x3E8 SWAP1 POP PUSH2 0x5EC JUMP JUMPDEST PUSH1 0x40 MLOAD PUSH32 0x8C379A000000000000000000000000000000000000000000000000000000000 DUP2 MSTORE PUSH1 0x4 ADD PUSH2 0x5E3 SWAP1 PUSH2 0xA20 JUMP JUMPDEST PUSH1 0x40 MLOAD DUP1 SWAP2 SUB SWAP1 REVERT JUMPDEST SWAP2 SWAP1 POP JUMP JUMPDEST PUSH1 0x40 MLOAD DUP1 PUSH1 0xA0 ADD PUSH1 0x40 MSTORE DUP1 PUSH1 0x5 SWAP1 PUSH1 0x20 DUP3 MUL DUP1 CALLDATASIZE DUP4 CALLDATACOPY DUP1 DUP3 ADD SWAP2 POP POP SWAP1 POP POP SWAP1 JUMP JUMPDEST PUSH0 PUSH1 0x40 MLOAD SWAP1 POP SWAP1 JUMP JUMPDEST PUSH0 PUSH0 REVERT JUMPDEST PUSH0 PUSH0 REVERT JUMPDEST PUSH0 PUSH0 REVERT JUMPDEST PUSH0 PUSH0 REVERT JUMPDEST PUSH0 PUSH1 0x1F NOT PUSH1 0x1F DUP4 ADD AND SWAP1 POP SWAP2 SWAP1 POP JUMP JUMPDEST PUSH32 0x4E487B7100000000000000000000000000000000000000000000000000000000 PUSH0 MSTORE PUSH1 0x41 PUSH1 0x4 MSTORE PUSH1 0x24 PUSH0 REVERT JUMPDEST PUSH2 0x672 DUP3 PUSH2 0x62C JUMP JUMPDEST DUP2 ADD DUP2 DUP2 LT PUSH8 0xFFFFFFFFFFFFFFFF DUP3 GT OR ISZERO PUSH2 0x691 JUMPI PUSH2 0x690 PUSH2 0x63C JUMP JUMPDEST JUMPDEST DUP1 PUSH1 0x40 MSTORE POP POP POP JUMP JUMPDEST PUSH0 PUSH2 0x6A3 PUSH2 0x613 JUMP JUMPDEST SWAP1 POP PUSH2 0x6AF DUP3 DUP3 PUSH2 0x669 JUMP JUMPDEST SWAP2 SWAP1 POP JUMP JUMPDEST PUSH0 PUSH8 0xFFFFFFFFFFFFFFFF DUP3 GT ISZERO PUSH2 0x6CE JUMPI PUSH2 0x6CD PUSH2 0x63C JUMP JUMPDEST JUMPDEST PUSH2 0x6D7 DUP3 PUSH2 0x62C JUMP JUMPDEST SWAP1 POP PUSH1 0x20 DUP2 ADD SWAP1 POP SWAP2 SWAP1 POP JUMP JUMPDEST DUP3 DUP2 DUP4 CALLDATACOPY PUSH0 DUP4 DUP4 ADD MSTORE POP POP POP JUMP JUMPDEST PUSH0 PUSH2 0x704 PUSH2 0x6FF DUP5 PUSH2 0x6B4 JUMP JUMPDEST PUSH2 0x69A JUMP JUMPDEST SWAP1 POP DUP3 DUP2 MSTORE PUSH1 0x20 DUP2 ADD DUP5 DUP5 DUP5 ADD GT ISZERO PUSH2 0x720 JUMPI PUSH2 0x71F PUSH2 0x628 JUMP JUMPDEST JUMPDEST PUSH2 0x72B DUP5 DUP3 DUP6 PUSH2 0x6E4 JUMP JUMPDEST POP SWAP4 SWAP3 POP POP POP JUMP JUMPDEST PUSH0 DUP3 PUSH1 0x1F DUP4 ADD SLT PUSH2 0x747 JUMPI PUSH2 0x746 PUSH2 0x624 JUMP JUMPDEST JUMPDEST DUP2 CALLDATALOAD PUSH2 0x757 DUP5 DUP3 PUSH1 0x20 DUP7 ADD PUSH2 0x6F2 JUMP JUMPDEST SWAP2 POP POP SWAP3 SWAP2 POP POP JUMP JUMPDEST PUSH0 PUSH1 0x20 DUP3 DUP5 SUB SLT ISZERO PUSH2 0x775 JUMPI PUSH2 0x774 PUSH2 0x61C JUMP JUMPDEST JUMPDEST PUSH0 DUP3 ADD CALLDATALOAD PUSH8 0xFFFFFFFFFFFFFFFF DUP2 GT ISZERO PUSH2 0x792 JUMPI PUSH2 0x791 PUSH2 0x620 JUMP JUMPDEST JUMPDEST PUSH2 0x79E DUP5 DUP3 DUP6 ADD PUSH2 0x733 JUMP JUMPDEST SWAP2 POP POP SWAP3 SWAP2 POP POP JUMP JUMPDEST PUSH0 DUP2 SWAP1 POP SWAP2 SWAP1 POP JUMP JUMPDEST PUSH2 0x7B9 DUP2 PUSH2 0x7A7 JUMP JUMPDEST DUP3 MSTORE POP POP JUMP JUMPDEST PUSH0 PUSH1 0x20 DUP3 ADD SWAP1 POP PUSH2 0x7D2 PUSH0 DUP4 ADD DUP5 PUSH2 0x7B0 JUMP JUMPDEST SWAP3 SWAP2 POP POP JUMP JUMPDEST PUSH0 DUP2 MLOAD SWAP1 POP SWAP2 SWAP1 POP JUMP JUMPDEST PUSH0 DUP3 DUP3 MSTORE PUSH1 0x20 DUP3 ADD SWAP1 POP SWAP3 SWAP2 POP POP JUMP JUMPDEST DUP3 DUP2 DUP4 MCOPY PUSH0 DUP4 DUP4 ADD MSTORE POP POP POP JUMP JUMPDEST PUSH0 PUSH2 0x80A DUP3 PUSH2 0x7D8 JUMP JUMPDEST PUSH2 0x814 DUP2 DUP6 PUSH2 0x7E2 JUMP JUMPDEST SWAP4 POP PUSH2 0x824 DUP2 DUP6 PUSH1 0x20 DUP7 ADD PUSH2 0x7F2 JUMP JUMPDEST PUSH2 0x82D DUP2 PUSH2 0x62C JUMP JUMPDEST DUP5 ADD SWAP2 POP POP SWAP3 SWAP2 POP POP JUMP JUMPDEST PUSH0 PUSH1 0x20 DUP3 ADD SWAP1 POP DUP2 DUP2 SUB PUSH0 DUP4 ADD MSTORE PUSH2 0x850 DUP2 DUP5 PUSH2 0x800 JUMP JUMPDEST SWAP1 POP SWAP3 SWAP2 POP POP JUMP JUMPDEST PUSH0 PUSH1 0x5 SWAP1 POP SWAP2 SWAP1 POP JUMP JUMPDEST PUSH0 DUP2 SWAP1 POP SWAP3 SWAP2 POP POP JUMP JUMPDEST PUSH0 DUP2 SWAP1 POP SWAP2 SWAP1 POP JUMP JUMPDEST PUSH2 0x87E DUP2 PUSH2 0x7A7 JUMP JUMPDEST DUP3 MSTORE POP POP JUMP JUMPDEST PUSH0 PUSH2 0x88F DUP4 DUP4 PUSH2 0x875 JUMP JUMPDEST PUSH1 0x20 DUP4 ADD SWAP1 POP SWAP3 SWAP2 POP POP JUMP JUMPDEST PUSH0 PUSH1 0x20 DUP3 ADD SWAP1 POP SWAP2 SWAP1 POP JUMP JUMPDEST PUSH2 0x8B0 DUP2 PUSH2 0x858 JUMP JUMPDEST PUSH2 0x8BA DUP2 DUP5 PUSH2 0x862 JUMP JUMPDEST SWAP3 POP PUSH2 0x8C5 DUP3 PUSH2 0x86C JUMP JUMPDEST DUP1 PUSH0 JUMPDEST DUP4 DUP2 LT ISZERO PUSH2 0x8F5 JUMPI DUP2 MLOAD PUSH2 0x8DC DUP8 DUP3 PUSH2 0x884 JUMP JUMPDEST SWAP7 POP PUSH2 0x8E7 DUP4 PUSH2 0x89B JUMP JUMPDEST SWAP3 POP POP PUSH1 0x1 DUP2 ADD SWAP1 POP PUSH2 0x8C8 JUMP JUMPDEST POP POP POP POP POP POP JUMP JUMPDEST PUSH0 PUSH1 0xA0 DUP3 ADD SWAP1 POP PUSH2 0x910 PUSH0 DUP4 ADD DUP5 PUSH2 0x8A7 JUMP JUMPDEST SWAP3 SWAP2 POP POP JUMP JUMPDEST PUSH32 0x4E487B7100000000000000000000000000000000000000000000000000000000 PUSH0 MSTORE PUSH1 0x32 PUSH1 0x4 MSTORE PUSH1 0x24 PUSH0 REVERT JUMPDEST PUSH32 0x4E487B7100000000000000000000000000000000000000000000000000000000 PUSH0 MSTORE PUSH1 0x11 PUSH1 0x4 MSTORE PUSH1 0x24 PUSH0 REVERT JUMPDEST PUSH0 PUSH2 0x97A DUP3 PUSH2 0x7A7 JUMP JUMPDEST SWAP2 POP PUSH2 0x985 DUP4 PUSH2 0x7A7 JUMP JUMPDEST SWAP3 POP DUP3 DUP3 SUB SWAP1 POP DUP2 DUP2 GT ISZERO PUSH2 0x99D JUMPI PUSH2 0x99C PUSH2 0x943 JUMP JUMPDEST JUMPDEST SWAP3 SWAP2 POP POP JUMP JUMPDEST PUSH0 PUSH2 0x9AD DUP3 PUSH2 0x7A7 JUMP JUMPDEST SWAP2 POP PUSH2 0x9B8 DUP4 PUSH2 0x7A7 JUMP JUMPDEST SWAP3 POP DUP3 DUP3 ADD SWAP1 POP DUP1 DUP3 GT ISZERO PUSH2 0x9D0 JUMPI PUSH2 0x9CF PUSH2 0x943 JUMP JUMPDEST JUMPDEST SWAP3 SWAP2 POP POP JUMP JUMPDEST PUSH32 0x496E76616C696420526F6D616E206E756D6572616C2063686172616374657200 PUSH0 DUP3 ADD MSTORE POP JUMP JUMPDEST PUSH0 PUSH2 0xA0A PUSH1 0x1F DUP4 PUSH2 0x7E2 JUMP JUMPDEST SWAP2 POP PUSH2 0xA15 DUP3 PUSH2 0x9D6 JUMP JUMPDEST PUSH1 0x20 DUP3 ADD SWAP1 POP SWAP2 SWAP1 POP JUMP JUMPDEST PUSH0 PUSH1 0x20 DUP3 ADD SWAP1 POP DUP2 DUP2 SUB PUSH0 DUP4 ADD MSTORE PUSH2 0xA37 DUP2 PUSH2 0x9FE JUMP JUMPDEST SWAP1 POP SWAP2 SWAP1 POP JUMP INVALID 0x4D RETURNDATASIZE BALANCE ADDRESS ADDRESS ADDRESS 0x2C KECCAK256 NUMBER 0x4D RETURNDATASIZE CODECOPY ADDRESS ADDRESS 0x2C KECCAK256 PC NUMBER RETURNDATASIZE CODECOPY ADDRESS 0x2C KECCAK256 BLOBHASH JUMP RETURNDATASIZE CALLVALUE KECCAK256 RETURNDATASIZE RETURNDATACOPY KECCAK256 BALANCE ADDRESS ADDRESS ADDRESS 0x2B CODECOPY ADDRESS ADDRESS 0x2B CODECOPY ADDRESS 0x2B CALLVALUE RETURNDATASIZE BALANCE CODECOPY CODECOPY CALLVALUE LOG2 PUSH5 0x6970667358 0x22 SLT KECCAK256 LOG0 0x4F 0xF SLOAD DIV 0xFC SIGNEXTEND 0xD4 CALLDATACOPY DUP14 SMOD NUMBER SIGNEXTEND MULMOD NOT DUP5 SWAP8 DUP14 0xE2 SHR SWAP12 RJUMPI 0xDC63 MLOAD 0xD2 GT 0xCC TLOAD 0xD5 0xBA SWAP3 PUSH5 0x736F6C6343 STOP ADDMOD 0x1E STOP CALLER "
				},
				"gasEstimates": {
					"creation": {
						"codeDepositCost": "545000",
						"executionCost": "579",
						"totalCost": "545579"
					},
					"external": {
						"explainMCMXCIV()": "infinite",
						"romanToInt(string)": "infinite",
						"test()": "infinite"
					},
					"internal": {
						"_getValue(bytes1)": "infinite"
					}
				},
				"methodIdentifiers": {
					"explainMCMXCIV()": "eab28df9",
					"romanToInt(string)": "cb159dfe",
					"test()": "f8a8fd6d"
				}
			},
			"storageLayout": {
				"storage": [],
				"types": null
			},
			"userdoc": {
				"kind": "user",
				"methods": {},
				"version": 1
			}
		}
	}
}