{
  "_format": "hh-sol-artifact-1",
  "contractName": "NftAuctionV2",
  "sourceName": "contracts/NftAuctionV2.sol",
  "abi": [
    {
      "inputs": [
        {
          "internalType": "address",
          "name": "target",
          "type": "address"
        }
      ],
      "name": "AddressEmptyCode",
      "type": "error"
    },
    {
      "inputs": [
        {
          "internalType": "address",
          "name": "implementation",
          "type": "address"
        }
      ],
      "name": "ERC1967InvalidImplementation",
      "type": "error"
    },
    {
      "inputs": [],
      "name": "ERC1967NonPayable",
      "type": "error"
    },
    {
      "inputs": [],
      "name": "FailedCall",
      "type": "error"
    },
    {
      "inputs": [],
      "name": "InvalidInitialization",
      "type": "error"
    },
    {
      "inputs": [],
      "name": "NotInitializing",
      "type": "error"
    },
    {
      "inputs": [],
      "name": "UUPSUnauthorizedCallContext",
      "type": "error"
    },
    {
      "inputs": [
        {
          "internalType": "bytes32",
          "name": "slot",
          "type": "bytes32"
        }
      ],
      "name": "UUPSUnsupportedProxiableUUID",
      "type": "error"
    },
    {
      "anonymous": false,
      "inputs": [
        {
          "indexed": true,
          "internalType": "address",
          "name": "seller",
          "type": "address"
        },
        {
          "indexed": true,
          "internalType": "uint256",
          "name": "auctionId",
          "type": "uint256"
        },
        {
          "indexed": false,
          "internalType": "uint256",
          "name": "startingPrice",
          "type": "uint256"
        },
        {
          "indexed": false,
          "internalType": "uint256",
          "name": "duration",
          "type": "uint256"
        },
        {
          "indexed": false,
          "internalType": "uint256",
          "name": "startTime",
          "type": "uint256"
        },
        {
          "indexed": false,
          "internalType": "uint256",
          "name": "endTime",
          "type": "uint256"
        },
        {
          "indexed": false,
          "internalType": "address",
          "name": "nftAddress",
          "type": "address"
        },
        {
          "indexed": false,
          "internalType": "uint256",
          "name": "tokenId",
          "type": "uint256"
        }
      ],
      "name": "AuctionCreated",
      "type": "event"
    },
    {
      "anonymous": false,
      "inputs": [
        {
          "indexed": false,
          "internalType": "uint64",
          "name": "version",
          "type": "uint64"
        }
      ],
      "name": "Initialized",
      "type": "event"
    },
    {
      "anonymous": false,
      "inputs": [
        {
          "indexed": true,
          "internalType": "uint256",
          "name": "auctionId",
          "type": "uint256"
        },
        {
          "indexed": true,
          "internalType": "address",
          "name": "bidder",
          "type": "address"
        },
        {
          "indexed": false,
          "internalType": "address",
          "name": "tokenAddress",
          "type": "address"
        },
        {
          "indexed": false,
          "internalType": "uint256",
          "name": "tokenAmount",
          "type": "uint256"
        },
        {
          "indexed": false,
          "internalType": "uint256",
          "name": "usdValue",
          "type": "uint256"
        }
      ],
      "name": "NewBid",
      "type": "event"
    },
    {
      "anonymous": false,
      "inputs": [
        {
          "indexed": true,
          "internalType": "address",
          "name": "implementation",
          "type": "address"
        }
      ],
      "name": "Upgraded",
      "type": "event"
    },
    {
      "inputs": [],
      "name": "UPGRADE_INTERFACE_VERSION",
      "outputs": [
        {
          "internalType": "string",
          "name": "",
          "type": "string"
        }
      ],
      "stateMutability": "view",
      "type": "function"
    },
    {
      "inputs": [],
      "name": "auctionCount",
      "outputs": [
        {
          "internalType": "uint256",
          "name": "",
          "type": "uint256"
        }
      ],
      "stateMutability": "view",
      "type": "function"
    },
    {
      "inputs": [
        {
          "internalType": "uint256",
          "name": "nextAuctionId",
          "type": "uint256"
        }
      ],
      "name": "auctions",
      "outputs": [
        {
          "internalType": "address payable",
          "name": "seller",
          "type": "address"
        },
        {
          "internalType": "uint256",
          "name": "startingPrice",
          "type": "uint256"
        },
        {
          "internalType": "uint256",
          "name": "duration",
          "type": "uint256"
        },
        {
          "internalType": "uint256",
          "name": "startTime",
          "type": "uint256"
        },
        {
          "internalType": "uint256",
          "name": "endTime",
          "type": "uint256"
        },
        {
          "internalType": "uint256",
          "name": "highestBid",
          "type": "uint256"
        },
        {
          "internalType": "address payable",
          "name": "highestBidder",
          "type": "address"
        },
        {
          "internalType": "bool",
          "name": "ended",
          "type": "bool"
        },
        {
          "internalType": "address",
          "name": "nftAddress",
          "type": "address"
        },
        {
          "internalType": "uint256",
          "name": "tokenId",
          "type": "uint256"
        },
        {
          "internalType": "address",
          "name": "tokenAddress",
          "type": "address"
        },
        {
          "internalType": "bool",
          "name": "isEth",
          "type": "bool"
        },
        {
          "internalType": "uint256",
          "name": "highestBidValue",
          "type": "uint256"
        },
        {
          "internalType": "uint256",
          "name": "highestBidAmount",
          "type": "uint256"
        }
      ],
      "stateMutability": "view",
      "type": "function"
    },
    {
      "inputs": [
        {
          "internalType": "address",
          "name": "_tokenAddress",
          "type": "address"
        },
        {
          "internalType": "uint256",
          "name": "_tokenAmount",
          "type": "uint256"
        }
      ],
      "name": "calculateUSDValue",
      "outputs": [
        {
          "internalType": "uint256",
          "name": "",
          "type": "uint256"
        }
      ],
      "stateMutability": "view",
      "type": "function"
    },
    {
      "inputs": [
        {
          "internalType": "uint256",
          "name": "_startingPriceUSD",
          "type": "uint256"
        },
        {
          "internalType": "uint256",
          "name": "_duration",
          "type": "uint256"
        },
        {
          "internalType": "address",
          "name": "_nftAddress",
          "type": "address"
        },
        {
          "internalType": "uint256",
          "name": "_tokenId",
          "type": "uint256"
        }
      ],
      "name": "createdAuction",
      "outputs": [],
      "stateMutability": "nonpayable",
      "type": "function"
    },
    {
      "inputs": [
        {
          "internalType": "uint256",
          "name": "_auctionId",
          "type": "uint256"
        }
      ],
      "name": "emergencyCancel",
      "outputs": [],
      "stateMutability": "nonpayable",
      "type": "function"
    },
    {
      "inputs": [
        {
          "internalType": "uint256",
          "name": "_auctionId",
          "type": "uint256"
        }
      ],
      "name": "endAuction",
      "outputs": [],
      "stateMutability": "nonpayable",
      "type": "function"
    },
    {
      "inputs": [],
      "name": "getAuctionCount",
      "outputs": [
        {
          "internalType": "uint256",
          "name": "",
          "type": "uint256"
        }
      ],
      "stateMutability": "view",
      "type": "function"
    },
    {
      "inputs": [
        {
          "internalType": "uint256",
          "name": "_auctionId",
          "type": "uint256"
        }
      ],
      "name": "getAuctionDetails",
      "outputs": [
        {
          "components": [
            {
              "internalType": "address payable",
              "name": "seller",
              "type": "address"
            },
            {
              "internalType": "uint256",
              "name": "startingPrice",
              "type": "uint256"
            },
            {
              "internalType": "uint256",
              "name": "duration",
              "type": "uint256"
            },
            {
              "internalType": "uint256",
              "name": "startTime",
              "type": "uint256"
            },
            {
              "internalType": "uint256",
              "name": "endTime",
              "type": "uint256"
            },
            {
              "internalType": "uint256",
              "name": "highestBid",
              "type": "uint256"
            },
            {
              "internalType": "address payable",
              "name": "highestBidder",
              "type": "address"
            },
            {
              "internalType": "bool",
              "name": "ended",
              "type": "bool"
            },
            {
              "internalType": "address",
              "name": "nftAddress",
              "type": "address"
            },
            {
              "internalType": "uint256",
              "name": "tokenId",
              "type": "uint256"
            },
            {
              "internalType": "address",
              "name": "tokenAddress",
              "type": "address"
            },
            {
              "internalType": "bool",
              "name": "isEth",
              "type": "bool"
            },
            {
              "internalType": "uint256",
              "name": "highestBidValue",
              "type": "uint256"
            },
            {
              "internalType": "uint256",
              "name": "highestBidAmount",
              "type": "uint256"
            }
          ],
          "internalType": "struct NftAuctionV2.Auction",
          "name": "",
          "type": "tuple"
        }
      ],
      "stateMutability": "view",
      "type": "function"
    },
    {
      "inputs": [
        {
          "internalType": "address",
          "name": "_tokenAddress",
          "type": "address"
        }
      ],
      "name": "getChainlinkDataFeedLatestAnswer",
      "outputs": [
        {
          "internalType": "int256",
          "name": "",
          "type": "int256"
        }
      ],
      "stateMutability": "view",
      "type": "function"
    },
    {
      "inputs": [
        {
          "internalType": "uint256",
          "name": "_auctionId",
          "type": "uint256"
        }
      ],
      "name": "getCurrentPriceUSD",
      "outputs": [
        {
          "internalType": "uint256",
          "name": "",
          "type": "uint256"
        }
      ],
      "stateMutability": "view",
      "type": "function"
    },
    {
      "inputs": [],
      "name": "initialize",
      "outputs": [],
      "stateMutability": "nonpayable",
      "type": "function"
    },
    {
      "inputs": [],
      "name": "nextAuctionId",
      "outputs": [
        {
          "internalType": "uint256",
          "name": "",
          "type": "uint256"
        }
      ],
      "stateMutability": "view",
      "type": "function"
    },
    {
      "inputs": [
        {
          "internalType": "address",
          "name": "operator",
          "type": "address"
        },
        {
          "internalType": "address",
          "name": "from",
          "type": "address"
        },
        {
          "internalType": "uint256",
          "name": "tokenId",
          "type": "uint256"
        },
        {
          "internalType": "bytes",
          "name": "data",
          "type": "bytes"
        }
      ],
      "name": "onERC721Received",
      "outputs": [
        {
          "internalType": "bytes4",
          "name": "",
          "type": "bytes4"
        }
      ],
      "stateMutability": "pure",
      "type": "function"
    },
    {
      "inputs": [
        {
          "internalType": "uint256",
          "name": "_auctionId",
          "type": "uint256"
        },
        {
          "internalType": "address",
          "name": "_tokenAddress",
          "type": "address"
        },
        {
          "internalType": "uint256",
          "name": "_amount",
          "type": "uint256"
        }
      ],
      "name": "placeBid",
      "outputs": [],
      "stateMutability": "payable",
      "type": "function"
    },
    {
      "inputs": [
        {
          "internalType": "address",
          "name": "",
          "type": "address"
        }
      ],
      "name": "priceFeeds",
      "outputs": [
        {
          "internalType": "contract AggregatorV3Interface",
          "name": "",
          "type": "address"
        }
      ],
      "stateMutability": "view",
      "type": "function"
    },
    {
      "inputs": [],
      "name": "proxiableUUID",
      "outputs": [
        {
          "internalType": "bytes32",
          "name": "",
          "type": "bytes32"
        }
      ],
      "stateMutability": "view",
      "type": "function"
    },
    {
      "inputs": [
        {
          "internalType": "address",
          "name": "_tokenAddress",
          "type": "address"
        },
        {
          "internalType": "address",
          "name": "_aggregator",
          "type": "address"
        },
        {
          "internalType": "uint8",
          "name": "_decimals",
          "type": "uint8"
        }
      ],
      "name": "setAggregator",
      "outputs": [],
      "stateMutability": "nonpayable",
      "type": "function"
    },
    {
      "inputs": [
        {
          "internalType": "address",
          "name": "_tokenAddress",
          "type": "address"
        },
        {
          "internalType": "uint8",
          "name": "_decimals",
          "type": "uint8"
        }
      ],
      "name": "setTokenDecimals",
      "outputs": [],
      "stateMutability": "nonpayable",
      "type": "function"
    },
    {
      "inputs": [
        {
          "internalType": "address",
          "name": "",
          "type": "address"
        }
      ],
      "name": "tokenDecimals",
      "outputs": [
        {
          "internalType": "uint8",
          "name": "",
          "type": "uint8"
        }
      ],
      "stateMutability": "view",
      "type": "function"
    },
    {
      "inputs": [
        {
          "internalType": "address",
          "name": "newImplementation",
          "type": "address"
        },
        {
          "internalType": "bytes",
          "name": "data",
          "type": "bytes"
        }
      ],
      "name": "upgradeToAndCall",
      "outputs": [],
      "stateMutability": "payable",
      "type": "function"
    },
    {
      "stateMutability": "payable",
      "type": "receive"
    }
  ],
  "bytecode": "0x60a0806040523461002a5730608052611b3a90816100308239608051818181610f170152610ffd0152f35b600080fdfe608080604052600436101561001d575b50361561001b57600080fd5b005b600090813560e01c90816314f6a4ad1461126357508063150b7a02146111f85780632ad715731461082f5780634f1ef28614610f8157806352d1902d14610f04578063571a26a014610e2f5780635cdcd8bb14610d895780637d9f9dc714610d5d5780638129fc1c14610c225780638ee573ac14610be55780639dcb511a14610ba9578063ac4ffcdf14610b81578063ad3cb1cc14610adb578063b9a2de3a1461084d578063c44e66401461082f578063dd75cd9b146106ba578063e7078f921461068e578063f1e2f348146103ea578063f20e5e35146101f8578063f2b33cc11461012d5763fc5284820361000f573461012a578060031936011261012a576020600154604051908152f35b80fd5b503461012a57606036600319011261012a576101476115da565b61014f6115f0565b6044359160ff83168093036101f3576003546001600160a01b039190821633036101ae578116845260046020526040842091166bffffffffffffffffffffffff60a01b8254161790556005602052604082209060ff1982541617905580f35b60405162461bcd60e51b815260206004820152601d60248201527f4f6e6c792061646d696e2063616e207365742061676772656761746f720000006044820152606490fd5b600080fd5b503461012a57602036600319011261012a576040816101c0926101a0835161021f8161161a565b82815282602082015282858201528260608201528260808201528260a08201528260c08201528260e082015282610100820152826101208201528261014082015282610160820152826101808201520152600435815280602052206101a06040516102898161161a565b600b60018060a01b038454169384835260018101546020840152600281015460408401526003810154606084015260048101546080840152600581015460a084015260ff600682015460018060a01b03811660c086015260a01c16151560e084015260018060a01b03600782015416610100840152600881015461012084015260ff600982015460018060a01b03811661014086015260a01c161515610160840152600a8101546101808401520154828201526040519283526020810151602084015260408101516040840152606081015160608401526080810151608084015260a081015160a084015260018060a01b0360c08201511660c084015260e0810151151560e084015260018060a01b036101008201511661010084015261012081015161012084015260018060a01b0361014082015116610140840152610160810151151561016084015261018081015161018084015201516101a0820152f35b50606036600319011261012a576004356104026115f0565b906044358184526020928484526040852093600685019261042a60ff855460a01c1615611929565b60038601544210610649576104456004870154421115611929565b6001600160a01b038381169690948715929091908315610577575061046b3480966116cb565b95600a820190815488111561051e578392888b936009936104d998975416610510575b55600b810188905583546001600160a01b0319163317909355909101805460ff60a01b199092166001600160a81b03199092169190911791151560a01b60ff60a01b16919091179055565b60405194855284015260408301527f1333d04c209455388393f41ecaa1d0da218799e9c029c23e61611518a81920ae60603393a380f35b610519836119b1565b61048e565b60405162461bcd60e51b815260048101879052602b60248201527f426964206d75737420626520686967686572207468616e2063757272656e742060448201526a1a1a59da195cdd08189a5960aa1b6064820152608490fd5b948580156105fa576040516323b872dd60e01b815233600482015230602482015260448101919091529085826064818e8e5af19081156105ef5761046b9288926105c2575b506116cb565b6105e190883d8a116105e8575b6105d98183611637565b810190611969565b50386105bc565b503d6105cf565b6040513d8d823e3d90fd5b60405162461bcd60e51b815260048101879052602160248201527f42696420616d6f756e74206d7573742062652067726561746572207468616e206044820152600360fc1b6064820152608490fd5b60405162461bcd60e51b815260048101839052601b60248201527f41756374696f6e20686173206e6f7420737461727465642079657400000000006044820152606490fd5b503461012a57602036600319011261012a5760206106b26106ad6115da565b61183f565b604051908152f35b503461012a57602036600319011261012a576003546001600160a01b0390811633036107ea5760043582528160205260408220600681019182549160ff8360a01c166107ad578185931661079f575b60088260078301541692825416910154823b1561079b57604051632142170760e11b81523060048201526001600160a01b0392909216602483015260448201529082908290606490829084905af1801561079057610778575b5050805460ff60a01b1916600160a01b17905580f35b61078190611606565b61078c578138610762565b5080fd5b6040513d84823e3d90fd5b8380fd5b6107a8816119b1565b610709565b60405162461bcd60e51b8152602060048201526015602482015274105d58dd1a5bdb88185b1c9958591e48195b991959605a1b6044820152606490fd5b60405162461bcd60e51b815260206004820152601d60248201527f4f6e6c792061646d696e2063616e2063616e63656c2061756374696f6e0000006044820152606490fd5b503461012a578060031936011261012a576020600254604051908152f35b503461012a5760208060031936011261078c57600435825281815260408220906006820191825460ff8160a01c16610a965760048201544210610a51576001600160a01b039081168015610a1b579082918160078895015416906008840154823b15610a1757604051632142170760e11b81523060048201526001600160a01b0392909216602483015260448201529084908290606490829084905af19081156109f45784916109ff575b505083600983015460ff8160a01c166000146109895750508282600b82949383945416910154905af1610929611981565b501561094557505b805460ff60a01b1916600160a01b17905580f35b6064906040519062461bcd60e51b82526004820152601c60248201527f4661696c656420746f2073656e642045544820746f2073656c6c6572000000006044820152fd5b8354600b9094015460405163a9059cbb60e01b81529484166001600160a01b03166004860152602485015292939092849260449284929091165af180156109f4576109d6575b5050610931565b816109ec92903d106105e8576105d98183611637565b5038806109cf565b6040513d86823e3d90fd5b610a0890611606565b610a135782386108f8565b8280fd5b8580fd5b60405162461bcd60e51b815260048101859052600e60248201526d139bc8189a591cc81c1b1858d95960921b6044820152606490fd5b60405162461bcd60e51b815260048101849052601960248201527f41756374696f6e20686173206e6f7420656e64656420796574000000000000006044820152606490fd5b60405162461bcd60e51b815260048101849052601960248201527f41756374696f6e2068617320616c726561647920656e646564000000000000006044820152606490fd5b503461012a578060031936011261012a576040516040810181811067ffffffffffffffff821117610b6b5760405260058152602091640352e302e360dc1b602083015260405192839160208352835191826020850152815b838110610b5457505060408094508284010152601f80199101168101030190f35b808601820151878201604001528694508101610b33565b634e487b7160e01b600052604160045260246000fd5b503461012a57604036600319011261012a5760206106b2610ba06115da565b602435906116cb565b503461012a57602036600319011261012a576020906001600160a01b039060409082610bd36115da565b16815260048452205416604051908152f35b503461012a57602036600319011261012a5760209060ff906040906001600160a01b03610c106115da565b16815260058452205416604051908152f35b503461012a578060031936011261012a577ff0c57e16840df040f15088dc2f81fe391c3923bec73e23a9662efc9c229c6a00805460ff8160401c16159067ffffffffffffffff811680159081610d55575b6001149081610d4b575b159081610d42575b50610d305767ffffffffffffffff198116600117835581610d11575b50600380546001600160a01b03191633179055828052600560205260408320805460ff19166012179055610cd3575080f35b68ff00000000000000001981541690557fc7f505b2f371ae2175ee4913f4499e1f2633a7b5936321eed1cdaeb6115181d2602060405160018152a180f35b68ffffffffffffffffff19166801000000000000000117825538610ca1565b60405163f92ee8a960e01b8152600490fd5b90501538610c85565b303b159150610c7d565b839150610c73565b503461012a57602036600319011261012a57600a60406020926004358152808452200154604051908152f35b503461012a57604036600319011261012a57610da36115da565b6024359060ff82168092036101f3576003546001600160a01b03919082163303610de0571682526005602052604082209060ff1982541617905580f35b60405162461bcd60e51b815260206004820152602160248201527f4f6e6c792061646d696e2063616e2073657420746f6b656e20646563696d616c6044820152607360f81b6064820152608490fd5b503461012a57602036600319011261012a5760043581528060205260409020600160a01b6001900380825416916001810154916002820154906003830154600484015460058501546006860154908460078801541692600888015494600989015497600a8a015499600b01549a6040519c8d5260208d015260408c015260608b015260808a015260a089015283811660c089015260a01c60ff16151560e0880152610100870152610120860152811661014085015260a01c60ff1615156101608401526101808301526101a08201526101c090f35b503461012a578060031936011261012a577f00000000000000000000000000000000000000000000000000000000000000006001600160a01b03163003610f6f5760206040517f360894a13ba1a3210667c828492db98dca3e2076cc3735a920a3ca505d382bbc8152f35b60405163703e46dd60e11b8152600490fd5b50604036600319011261012a57610f966115da565b602491823567ffffffffffffffff811161078c573660238201121561078c57806004013592610fc484611659565b610fd16040519182611637565b8481526020948582019336888383010111610a1757818692898993018737830101526001600160a01b037f000000000000000000000000000000000000000000000000000000000000000081163081149081156111ca575b50610f6f5780600354163303611186576040516352d1902d60e01b81529083169580826004818a5afa9182918793611156575b505061107a57604051634c9c8ce360e01b8152600481018790528790fd5b8590877f360894a13ba1a3210667c828492db98dca3e2076cc3735a920a3ca505d382bbc918281036111415750843b1561112b575080546001600160a01b031916821790556040518592917fbc7cd75a20ee27fd9adebab32041f755214dbc6bffa90cc0225b39da2e5c2d3b8480a281511561110e575061110a9382915190845af4611104611981565b91611aa1565b5080f35b93505050503461111c575080f35b63b398979f60e01b8152600490fd5b604051634c9c8ce360e01b815260048101849052fd5b60405190632a87526960e21b82526004820152fd5b9080929350813d831161117f575b61116e8183611637565b81010312610a17575190388061105c565b503d611164565b60405162461bcd60e51b815260048101879052601f818901527f4f6e6c792061646d696e2063616e207570677261646520636f6e7472616374006044820152606490fd5b9050817f360894a13ba1a3210667c828492db98dca3e2076cc3735a920a3ca505d382bbc5416141538611029565b503461012a57608036600319011261012a576112126115da565b5061121b6115f0565b5060643567ffffffffffffffff808211610a135736602383011215610a13578160040135908111610a13573691016024011161012a57604051630a85bd0160e11b8152602090f35b823461012a57608036600319011261012a57602435916044356001600160a01b03811690819003610a135760035460643592906001600160a01b0316330361159857506004351561154557801561150057803b15610a1357604051632142170760e11b815233600482015230602482015260448101839052838160648183865af180156109f4576114ed575b50836112ff6114e7949542611675565b6040519061130c8261161a565b338252600435602083015282604083015242606083015260808201528560a08201528560c08201528560e082015282610100820152836101208201528561014082015285610160820152600435610180820152856101a0820152600154865285602052600b6101a0604088209261146b60018060a01b038251166bffffffffffffffffffffffff60a01b90818754161786556020830151600187015560408301516002870155606083015160038701556080830151600487015560a0830151600587015561140e6006870160018060a01b0360c0860151168382541617815560e0850151151581549060ff60a01b90151560a01b169060ff60a01b1916179055565b61010083015160078701805483166001600160a01b03928316179055610120840151600888015561014084015160098801805461016087015160ff60a01b199190951616919092161791151560a01b60ff60a01b16919091179055565b610180810151600a850155015191015560015492839261148b8342611675565b60405193600435855260208501524260408501526060840152608083015260a08201527f7170fe9a759bed09d16ee193b3d97e8388dd2d50959c8cfde8e548b62f4bbd6f60c03392a36114df600254611698565b600255611698565b60015580f35b926114fa6114e794611606565b926112ef565b60405162461bcd60e51b815260206004820152601960248201527f4e46542061646472657373206d7573742062652076616c6964000000000000006044820152606490fd5b60405162461bcd60e51b815260206004820152602560248201527f5374617274696e67207072696365206d75737420626520677265617465722074604482015264068616e20360dc1b6064820152608490fd5b62461bcd60e51b815260206004820152601d60248201527f4f6e6c792061646d696e2063616e206372656174652061756374696f6e0000006044820152606490fd5b600435906001600160a01b03821682036101f357565b602435906001600160a01b03821682036101f357565b67ffffffffffffffff8111610b6b57604052565b6101c0810190811067ffffffffffffffff821117610b6b57604052565b90601f8019910116810190811067ffffffffffffffff821117610b6b57604052565b67ffffffffffffffff8111610b6b57601f01601f191660200190565b9190820180921161168257565b634e487b7160e01b600052601160045260246000fd5b60001981146116825760010190565b60ff16604d811161168257600a0a90565b8181029291811591840414171561168257565b6001600160a01b03811660009081526005602052604081205460ff169182156117ea576116f79061183f565b91818313156117b5576012811161174e576012039060ff821161173a5750916117316117369261172b6305f5e100956116a7565b926116b8565b6116b8565b0490565b634e487b7160e01b81526011600452602490fd5b9091906011190160ff81116117a1579061176a611770926116a7565b936116b8565b906305f5e100928084029384040361173a57821561178d57500490565b634e487b7160e01b81526012600452602490fd5b634e487b7160e01b83526011600452602483fd5b60405162461bcd60e51b815260206004820152600d60248201526c496e76616c696420707269636560981b6044820152606490fd5b60405162461bcd60e51b8152602060048201526016602482015275151bdad95b88191958da5b585b1cc81b9bdd081cd95d60521b6044820152606490fd5b519069ffffffffffffffffffff821682036101f357565b6001600160a01b0390811660009081526004602052604081205490911680156118e45760a060049160405192838092633fabe5a360e21b82525afa9182156118d857809261188c57505090565b90915060a0823d60a0116118d0575b816118a860a09383611637565b8101031261012a57506118ba81611828565b506118cc608060208301519201611828565b5090565b3d915061189b565b604051903d90823e3d90fd5b60405162461bcd60e51b815260206004820152601c60248201527f50726963652066656564206e6f742073657420666f7220746f6b656e000000006044820152606490fd5b1561193057565b60405162461bcd60e51b8152602060048201526011602482015270105d58dd1a5bdb881a185cc8195b991959607a1b6044820152606490fd5b908160209103126101f3575180151581036101f35790565b3d156119ac573d9061199282611659565b916119a06040519384611637565b82523d6000602084013e565b606090565b600981015460ff8160a01c16600014611a2c5750600080808093600b60018060a01b03600683015416910154905af16119e8611981565b50156119f057565b60405162461bcd60e51b815260206004820152601460248201527308cc2d2d8cac840e8de40e4cacceadcc8408aa8960631b6044820152606490fd5b6006820154600b9092015460405163a9059cbb60e01b81526001600160a01b03938416600482015260248101919091529160209183916044918391600091165af18015611a9557611a7a5750565b611a929060203d6020116105e8576105d98183611637565b50565b6040513d6000823e3d90fd5b90611ac85750805115611ab657602081519101fd5b60405163d6bda27560e01b8152600490fd5b81511580611afb575b611ad9575090565b604051639996b31560e01b81526001600160a01b039091166004820152602490fd5b50803b15611ad156fea26469706673582212200823aedd8da362d39a183c908f6bdc6043fd42a3b1775a2c070f1dc27e057dab64736f6c63430008180033",
  "linkReferences": {},
  "deployedLinkReferences": {}
}