{
	"ERC721/MyERC721.sol": {
		"MyERC721": {
			"abi": [
				{
					"inputs": [
						{
							"internalType": "string",
							"name": "name_",
							"type": "string"
						},
						{
							"internalType": "string",
							"name": "symbol_",
							"type": "string"
						}
					],
					"stateMutability": "nonpayable",
					"type": "constructor"
				},
				{
					"inputs": [
						{
							"internalType": "address",
							"name": "receiver",
							"type": "address"
						}
					],
					"name": "ERC721InvalidReceiver",
					"type": "error"
				},
				{
					"anonymous": false,
					"inputs": [
						{
							"indexed": true,
							"internalType": "address",
							"name": "owner",
							"type": "address"
						},
						{
							"indexed": true,
							"internalType": "address",
							"name": "approved",
							"type": "address"
						},
						{
							"indexed": true,
							"internalType": "uint256",
							"name": "tokenId",
							"type": "uint256"
						}
					],
					"name": "Approval",
					"type": "event"
				},
				{
					"anonymous": false,
					"inputs": [
						{
							"indexed": true,
							"internalType": "address",
							"name": "owner",
							"type": "address"
						},
						{
							"indexed": true,
							"internalType": "address",
							"name": "operator",
							"type": "address"
						},
						{
							"indexed": false,
							"internalType": "bool",
							"name": "approved",
							"type": "bool"
						}
					],
					"name": "ApprovalForAll",
					"type": "event"
				},
				{
					"anonymous": false,
					"inputs": [
						{
							"indexed": true,
							"internalType": "address",
							"name": "from",
							"type": "address"
						},
						{
							"indexed": true,
							"internalType": "address",
							"name": "to",
							"type": "address"
						},
						{
							"indexed": true,
							"internalType": "uint256",
							"name": "tokenId",
							"type": "uint256"
						}
					],
					"name": "Transfer",
					"type": "event"
				},
				{
					"inputs": [
						{
							"internalType": "address",
							"name": "to",
							"type": "address"
						},
						{
							"internalType": "uint256",
							"name": "tokenId",
							"type": "uint256"
						}
					],
					"name": "approve",
					"outputs": [],
					"stateMutability": "nonpayable",
					"type": "function"
				},
				{
					"inputs": [
						{
							"internalType": "address",
							"name": "owner",
							"type": "address"
						}
					],
					"name": "balanceOf",
					"outputs": [
						{
							"internalType": "uint256",
							"name": "balance",
							"type": "uint256"
						}
					],
					"stateMutability": "view",
					"type": "function"
				},
				{
					"inputs": [
						{
							"internalType": "uint256",
							"name": "tokenId",
							"type": "uint256"
						}
					],
					"name": "burn",
					"outputs": [],
					"stateMutability": "nonpayable",
					"type": "function"
				},
				{
					"inputs": [
						{
							"internalType": "uint256",
							"name": "tokenId",
							"type": "uint256"
						}
					],
					"name": "getApproved",
					"outputs": [
						{
							"internalType": "address",
							"name": "operator",
							"type": "address"
						}
					],
					"stateMutability": "view",
					"type": "function"
				},
				{
					"inputs": [
						{
							"internalType": "address",
							"name": "owner",
							"type": "address"
						},
						{
							"internalType": "address",
							"name": "operator",
							"type": "address"
						}
					],
					"name": "isApprovedForAll",
					"outputs": [
						{
							"internalType": "bool",
							"name": "",
							"type": "bool"
						}
					],
					"stateMutability": "view",
					"type": "function"
				},
				{
					"inputs": [],
					"name": "name",
					"outputs": [
						{
							"internalType": "string",
							"name": "",
							"type": "string"
						}
					],
					"stateMutability": "view",
					"type": "function"
				},
				{
					"inputs": [
						{
							"internalType": "uint256",
							"name": "tokenId",
							"type": "uint256"
						}
					],
					"name": "ownerOf",
					"outputs": [
						{
							"internalType": "address",
							"name": "owner",
							"type": "address"
						}
					],
					"stateMutability": "view",
					"type": "function"
				},
				{
					"inputs": [
						{
							"internalType": "address",
							"name": "from",
							"type": "address"
						},
						{
							"internalType": "address",
							"name": "to",
							"type": "address"
						},
						{
							"internalType": "uint256",
							"name": "tokenId",
							"type": "uint256"
						}
					],
					"name": "safeTransferFrom",
					"outputs": [],
					"stateMutability": "nonpayable",
					"type": "function"
				},
				{
					"inputs": [
						{
							"internalType": "address",
							"name": "from",
							"type": "address"
						},
						{
							"internalType": "address",
							"name": "to",
							"type": "address"
						},
						{
							"internalType": "uint256",
							"name": "tokenId",
							"type": "uint256"
						},
						{
							"internalType": "bytes",
							"name": "data",
							"type": "bytes"
						}
					],
					"name": "safeTransferFrom",
					"outputs": [],
					"stateMutability": "nonpayable",
					"type": "function"
				},
				{
					"inputs": [
						{
							"internalType": "address",
							"name": "to",
							"type": "address"
						},
						{
							"internalType": "uint256",
							"name": "tokenId",
							"type": "uint256"
						}
					],
					"name": "saleMint",
					"outputs": [],
					"stateMutability": "nonpayable",
					"type": "function"
				},
				{
					"inputs": [
						{
							"internalType": "address",
							"name": "operator",
							"type": "address"
						},
						{
							"internalType": "bool",
							"name": "approved",
							"type": "bool"
						}
					],
					"name": "setApprovalForAll",
					"outputs": [],
					"stateMutability": "nonpayable",
					"type": "function"
				},
				{
					"inputs": [
						{
							"internalType": "bytes4",
							"name": "interfaceId",
							"type": "bytes4"
						}
					],
					"name": "supportsInterface",
					"outputs": [
						{
							"internalType": "bool",
							"name": "",
							"type": "bool"
						}
					],
					"stateMutability": "pure",
					"type": "function"
				},
				{
					"inputs": [],
					"name": "symbol",
					"outputs": [
						{
							"internalType": "string",
							"name": "",
							"type": "string"
						}
					],
					"stateMutability": "view",
					"type": "function"
				},
				{
					"inputs": [
						{
							"internalType": "uint256",
							"name": "tokenId",
							"type": "uint256"
						}
					],
					"name": "tokenURI",
					"outputs": [
						{
							"internalType": "string",
							"name": "",
							"type": "string"
						}
					],
					"stateMutability": "view",
					"type": "function"
				},
				{
					"inputs": [
						{
							"internalType": "address",
							"name": "from",
							"type": "address"
						},
						{
							"internalType": "address",
							"name": "to",
							"type": "address"
						},
						{
							"internalType": "uint256",
							"name": "tokenId",
							"type": "uint256"
						}
					],
					"name": "transferFrom",
					"outputs": [],
					"stateMutability": "nonpayable",
					"type": "function"
				}
			],
			"devdoc": {
				"events": {
					"Approval(address,address,uint256)": {
						"details": "Emitted when `owner` enables `approved` to manage the `tokenId` token."
					},
					"ApprovalForAll(address,address,bool)": {
						"details": "Emitted when `owner` enables or disables (`approved`) `operator` to manage all of its assets."
					},
					"Transfer(address,address,uint256)": {
						"details": "Emitted when `tokenId` token is transferred from `from` to `to`."
					}
				},
				"kind": "dev",
				"methods": {
					"approve(address,uint256)": {
						"details": "Gives permission to `to` to transfer `tokenId` token to another account. The approval is cleared when the token is transferred. Only a single account can be approved at a time, so approving the zero address clears previous approvals. Requirements: - The caller must own the token or be an approved operator. - `tokenId` must exist. Emits an {Approval} event."
					},
					"balanceOf(address)": {
						"details": "Returns the number of tokens in ``owner``'s account."
					},
					"getApproved(uint256)": {
						"details": "Returns the account approved for `tokenId` token. Requirements: - `tokenId` must exist."
					},
					"isApprovedForAll(address,address)": {
						"details": "Returns if the `operator` is allowed to manage all of the assets of `owner`. See {setApprovalForAll}"
					},
					"ownerOf(uint256)": {
						"details": "Returns the owner of the `tokenId` token. Requirements: - `tokenId` must exist."
					},
					"safeTransferFrom(address,address,uint256)": {
						"details": "Safely transfers `tokenId` token from `from` to `to`, checking first that contract recipients are aware of the ERC-721 protocol to prevent tokens from being forever locked. Requirements: - `from` cannot be the zero address. - `to` cannot be the zero address. - `tokenId` token must exist and be owned by `from`. - If the caller is not `from`, it must have been allowed to move this token by either {approve} or   {setApprovalForAll}. - If `to` refers to a smart contract, it must implement {IERC721Receiver-onERC721Received}, which is called upon   a safe transfer. Emits a {Transfer} event."
					},
					"safeTransferFrom(address,address,uint256,bytes)": {
						"details": "Safely transfers `tokenId` token from `from` to `to`. Requirements: - `from` cannot be the zero address. - `to` cannot be the zero address. - `tokenId` token must exist and be owned by `from`. - If the caller is not `from`, it must be approved to move this token by either {approve} or {setApprovalForAll}. - If `to` refers to a smart contract, it must implement {IERC721Receiver-onERC721Received}, which is called upon   a safe transfer. Emits a {Transfer} event."
					},
					"setApprovalForAll(address,bool)": {
						"details": "Approve or remove `operator` as an operator for the caller. Operators can call {transferFrom} or {safeTransferFrom} for any token owned by the caller. Requirements: - The `operator` cannot be the address zero. Emits an {ApprovalForAll} event."
					},
					"supportsInterface(bytes4)": {
						"details": "Returns true if this contract implements the interface defined by `interfaceId`. See the corresponding https://eips.ethereum.org/EIPS/eip-165#how-interfaces-are-identified[ERC section] to learn more about how these ids are created. This function call must use less than 30 000 gas."
					},
					"transferFrom(address,address,uint256)": {
						"details": "Transfers `tokenId` token from `from` to `to`. WARNING: Note that the caller is responsible to confirm that the recipient is capable of receiving ERC-721 or else they may be permanently lost. Usage of {safeTransferFrom} prevents loss, though the caller must understand this adds an external call which potentially creates a reentrancy vulnerability. Requirements: - `from` cannot be the zero address. - `to` cannot be the zero address. - `tokenId` token must be owned by `from`. - If the caller is not `from`, it must be approved to move this token by either {approve} or {setApprovalForAll}. Emits a {Transfer} event."
					}
				},
				"version": 1
			},
			"evm": {
				"assembly": "    /* \"ERC721/MyERC721.sol\":215:9802  contract MyERC721 is IERC721, IERC721Metadata {... */\n  mstore(0x40, 0x80)\n    /* \"ERC721/MyERC721.sol\":988:1102  constructor(string memory name_,string memory symbol_){... */\n  callvalue\n  dup1\n  iszero\n  tag_1\n  jumpi\n  revert(0x00, 0x00)\ntag_1:\n  pop\n  mload(0x40)\n  sub(codesize, bytecodeSize)\n  dup1\n  bytecodeSize\n  dup4\n  codecopy\n  dup2\n  dup2\n  add\n  0x40\n  mstore\n  dup2\n  add\n  swap1\n  tag_2\n  swap2\n  swap1\n  tag_3\n  jump\t// in\ntag_2:\n    /* \"ERC721/MyERC721.sol\":1061:1066  name_ */\n  dup2\n    /* \"ERC721/MyERC721.sol\":1053:1058  _name */\n  0x04\n    /* \"ERC721/MyERC721.sol\":1053:1066  _name = name_ */\n  swap1\n  dup2\n  tag_6\n  swap2\n  swap1\n  tag_7\n  jump\t// in\ntag_6:\n  pop\n    /* \"ERC721/MyERC721.sol\":1087:1094  symbol_ */\n  dup1\n    /* \"ERC721/MyERC721.sol\":1077:1084  _symbol */\n  0x05\n    /* \"ERC721/MyERC721.sol\":1077:1094  _symbol = symbol_ */\n  swap1\n  dup2\n  tag_8\n  swap2\n  swap1\n  tag_7\n  jump\t// in\ntag_8:\n  pop\n    /* \"ERC721/MyERC721.sol\":988:1102  constructor(string memory name_,string memory symbol_){... */\n  pop\n  pop\n    /* \"ERC721/MyERC721.sol\":215:9802  contract MyERC721 is IERC721, IERC721Metadata {... */\n  jump(tag_9)\n    /* \"#utility.yul\":7:82   */\ntag_10:\n    /* \"#utility.yul\":40:46   */\n  0x00\n    /* \"#utility.yul\":73:75   */\n  0x40\n    /* \"#utility.yul\":67:76   */\n  mload\n    /* \"#utility.yul\":57:76   */\n  swap1\n  pop\n    /* \"#utility.yul\":7:82   */\n  swap1\n  jump\t// out\n    /* \"#utility.yul\":88:205   */\ntag_11:\n    /* \"#utility.yul\":197:198   */\n  0x00\n    /* \"#utility.yul\":194:195   */\n  0x00\n    /* \"#utility.yul\":187:199   */\n  revert\n    /* \"#utility.yul\":211:328   */\ntag_12:\n    /* \"#utility.yul\":320:321   */\n  0x00\n    /* \"#utility.yul\":317:318   */\n  0x00\n    /* \"#utility.yul\":310:322   */\n  revert\n    /* \"#utility.yul\":334:451   */\ntag_13:\n    /* \"#utility.yul\":443:444   */\n  0x00\n    /* \"#utility.yul\":440:441   */\n  0x00\n    /* \"#utility.yul\":433:445   */\n  revert\n    /* \"#utility.yul\":457:574   */\ntag_14:\n    /* \"#utility.yul\":566:567   */\n  0x00\n    /* \"#utility.yul\":563:564   */\n  0x00\n    /* \"#utility.yul\":556:568   */\n  revert\n    /* \"#utility.yul\":580:682   */\ntag_15:\n    /* \"#utility.yul\":621:627   */\n  0x00\n    /* \"#utility.yul\":672:674   */\n  0x1f\n    /* \"#utility.yul\":668:675   */\n  not\n    /* \"#utility.yul\":663:665   */\n  0x1f\n    /* \"#utility.yul\":656:661   */\n  dup4\n    /* \"#utility.yul\":652:666   */\n  add\n    /* \"#utility.yul\":648:676   */\n  and\n    /* \"#utility.yul\":638:676   */\n  swap1\n  pop\n    /* \"#utility.yul\":580:682   */\n  swap2\n  swap1\n  pop\n  jump\t// out\n    /* \"#utility.yul\":688:868   */\ntag_16:\n    /* \"#utility.yul\":736:813   */\n  0x4e487b7100000000000000000000000000000000000000000000000000000000\n    /* \"#utility.yul\":733:734   */\n  0x00\n    /* \"#utility.yul\":726:814   */\n  mstore\n    /* \"#utility.yul\":833:837   */\n  0x41\n    /* \"#utility.yul\":830:831   */\n  0x04\n    /* \"#utility.yul\":823:838   */\n  mstore\n    /* \"#utility.yul\":857:861   */\n  0x24\n    /* \"#utility.yul\":854:855   */\n  0x00\n    /* \"#utility.yul\":847:862   */\n  revert\n    /* \"#utility.yul\":874:1155   */\ntag_17:\n    /* \"#utility.yul\":957:984   */\n  tag_51\n    /* \"#utility.yul\":979:983   */\n  dup3\n    /* \"#utility.yul\":957:984   */\n  tag_15\n  jump\t// in\ntag_51:\n    /* \"#utility.yul\":949:955   */\n  dup2\n    /* \"#utility.yul\":945:985   */\n  add\n    /* \"#utility.yul\":1087:1093   */\n  dup2\n    /* \"#utility.yul\":1075:1085   */\n  dup2\n    /* \"#utility.yul\":1072:1094   */\n  lt\n    /* \"#utility.yul\":1051:1069   */\n  0xffffffffffffffff\n    /* \"#utility.yul\":1039:1049   */\n  dup3\n    /* \"#utility.yul\":1036:1070   */\n  gt\n    /* \"#utility.yul\":1033:1095   */\n  or\n    /* \"#utility.yul\":1030:1118   */\n  iszero\n  tag_52\n  jumpi\n    /* \"#utility.yul\":1098:1116   */\n  tag_53\n  tag_16\n  jump\t// in\ntag_53:\n    /* \"#utility.yul\":1030:1118   */\ntag_52:\n    /* \"#utility.yul\":1138:1148   */\n  dup1\n    /* \"#utility.yul\":1134:1136   */\n  0x40\n    /* \"#utility.yul\":1127:1149   */\n  mstore\n    /* \"#utility.yul\":917:1155   */\n  pop\n    /* \"#utility.yul\":874:1155   */\n  pop\n  pop\n  jump\t// out\n    /* \"#utility.yul\":1161:1290   */\ntag_18:\n    /* \"#utility.yul\":1195:1201   */\n  0x00\n    /* \"#utility.yul\":1222:1242   */\n  tag_55\n  tag_10\n  jump\t// in\ntag_55:\n    /* \"#utility.yul\":1212:1242   */\n  swap1\n  pop\n    /* \"#utility.yul\":1251:1284   */\n  tag_56\n    /* \"#utility.yul\":1279:1283   */\n  dup3\n    /* \"#utility.yul\":1271:1277   */\n  dup3\n    /* \"#utility.yul\":1251:1284   */\n  tag_17\n  jump\t// in\ntag_56:\n    /* \"#utility.yul\":1161:1290   */\n  swap2\n  swap1\n  pop\n  jump\t// out\n    /* \"#utility.yul\":1296:1604   */\ntag_19:\n    /* \"#utility.yul\":1358:1362   */\n  0x00\n    /* \"#utility.yul\":1448:1466   */\n  0xffffffffffffffff\n    /* \"#utility.yul\":1440:1446   */\n  dup3\n    /* \"#utility.yul\":1437:1467   */\n  gt\n    /* \"#utility.yul\":1434:1490   */\n  iszero\n  tag_58\n  jumpi\n    /* \"#utility.yul\":1470:1488   */\n  tag_59\n  tag_16\n  jump\t// in\ntag_59:\n    /* \"#utility.yul\":1434:1490   */\ntag_58:\n    /* \"#utility.yul\":1508:1537   */\n  tag_60\n    /* \"#utility.yul\":1530:1536   */\n  dup3\n    /* \"#utility.yul\":1508:1537   */\n  tag_15\n  jump\t// in\ntag_60:\n    /* \"#utility.yul\":1500:1537   */\n  swap1\n  pop\n    /* \"#utility.yul\":1592:1596   */\n  0x20\n    /* \"#utility.yul\":1586:1590   */\n  dup2\n    /* \"#utility.yul\":1582:1597   */\n  add\n    /* \"#utility.yul\":1574:1597   */\n  swap1\n  pop\n    /* \"#utility.yul\":1296:1604   */\n  swap2\n  swap1\n  pop\n  jump\t// out\n    /* \"#utility.yul\":1610:1749   */\ntag_20:\n    /* \"#utility.yul\":1699:1705   */\n  dup3\n    /* \"#utility.yul\":1694:1697   */\n  dup2\n    /* \"#utility.yul\":1689:1692   */\n  dup4\n    /* \"#utility.yul\":1683:1706   */\n  mcopy\n    /* \"#utility.yul\":1740:1741   */\n  0x00\n    /* \"#utility.yul\":1731:1737   */\n  dup4\n    /* \"#utility.yul\":1726:1729   */\n  dup4\n    /* \"#utility.yul\":1722:1738   */\n  add\n    /* \"#utility.yul\":1715:1742   */\n  mstore\n    /* \"#utility.yul\":1610:1749   */\n  pop\n  pop\n  pop\n  jump\t// out\n    /* \"#utility.yul\":1755:2189   */\ntag_21:\n    /* \"#utility.yul\":1844:1849   */\n  0x00\n    /* \"#utility.yul\":1869:1935   */\n  tag_63\n    /* \"#utility.yul\":1885:1934   */\n  tag_64\n    /* \"#utility.yul\":1927:1933   */\n  dup5\n    /* \"#utility.yul\":1885:1934   */\n  tag_19\n  jump\t// in\ntag_64:\n    /* \"#utility.yul\":1869:1935   */\n  tag_18\n  jump\t// in\ntag_63:\n    /* \"#utility.yul\":1860:1935   */\n  swap1\n  pop\n    /* \"#utility.yul\":1958:1964   */\n  dup3\n    /* \"#utility.yul\":1951:1956   */\n  dup2\n    /* \"#utility.yul\":1944:1965   */\n  mstore\n    /* \"#utility.yul\":1996:2000   */\n  0x20\n    /* \"#utility.yul\":1989:1994   */\n  dup2\n    /* \"#utility.yul\":1985:2001   */\n  add\n    /* \"#utility.yul\":2034:2037   */\n  dup5\n    /* \"#utility.yul\":2025:2031   */\n  dup5\n    /* \"#utility.yul\":2020:2023   */\n  dup5\n    /* \"#utility.yul\":2016:2032   */\n  add\n    /* \"#utility.yul\":2013:2038   */\n  gt\n    /* \"#utility.yul\":2010:2122   */\n  iszero\n  tag_65\n  jumpi\n    /* \"#utility.yul\":2041:2120   */\n  tag_66\n  tag_14\n  jump\t// in\ntag_66:\n    /* \"#utility.yul\":2010:2122   */\ntag_65:\n    /* \"#utility.yul\":2131:2183   */\n  tag_67\n    /* \"#utility.yul\":2176:2182   */\n  dup5\n    /* \"#utility.yul\":2171:2174   */\n  dup3\n    /* \"#utility.yul\":2166:2169   */\n  dup6\n    /* \"#utility.yul\":2131:2183   */\n  tag_20\n  jump\t// in\ntag_67:\n    /* \"#utility.yul\":1850:2189   */\n  pop\n    /* \"#utility.yul\":1755:2189   */\n  swap4\n  swap3\n  pop\n  pop\n  pop\n  jump\t// out\n    /* \"#utility.yul\":2209:2564   */\ntag_22:\n    /* \"#utility.yul\":2276:2281   */\n  0x00\n    /* \"#utility.yul\":2325:2328   */\n  dup3\n    /* \"#utility.yul\":2318:2322   */\n  0x1f\n    /* \"#utility.yul\":2310:2316   */\n  dup4\n    /* \"#utility.yul\":2306:2323   */\n  add\n    /* \"#utility.yul\":2302:2329   */\n  slt\n    /* \"#utility.yul\":2292:2414   */\n  tag_69\n  jumpi\n    /* \"#utility.yul\":2333:2412   */\n  tag_70\n  tag_13\n  jump\t// in\ntag_70:\n    /* \"#utility.yul\":2292:2414   */\ntag_69:\n    /* \"#utility.yul\":2443:2449   */\n  dup2\n    /* \"#utility.yul\":2437:2450   */\n  mload\n    /* \"#utility.yul\":2468:2558   */\n  tag_71\n    /* \"#utility.yul\":2554:2557   */\n  dup5\n    /* \"#utility.yul\":2546:2552   */\n  dup3\n    /* \"#utility.yul\":2539:2543   */\n  0x20\n    /* \"#utility.yul\":2531:2537   */\n  dup7\n    /* \"#utility.yul\":2527:2544   */\n  add\n    /* \"#utility.yul\":2468:2558   */\n  tag_21\n  jump\t// in\ntag_71:\n    /* \"#utility.yul\":2459:2558   */\n  swap2\n  pop\n    /* \"#utility.yul\":2282:2564   */\n  pop\n    /* \"#utility.yul\":2209:2564   */\n  swap3\n  swap2\n  pop\n  pop\n  jump\t// out\n    /* \"#utility.yul\":2570:3423   */\ntag_3:\n    /* \"#utility.yul\":2669:2675   */\n  0x00\n    /* \"#utility.yul\":2677:2683   */\n  0x00\n    /* \"#utility.yul\":2726:2728   */\n  0x40\n    /* \"#utility.yul\":2714:2723   */\n  dup4\n    /* \"#utility.yul\":2705:2712   */\n  dup6\n    /* \"#utility.yul\":2701:2724   */\n  sub\n    /* \"#utility.yul\":2697:2729   */\n  slt\n    /* \"#utility.yul\":2694:2813   */\n  iszero\n  tag_73\n  jumpi\n    /* \"#utility.yul\":2732:2811   */\n  tag_74\n  tag_11\n  jump\t// in\ntag_74:\n    /* \"#utility.yul\":2694:2813   */\ntag_73:\n    /* \"#utility.yul\":2873:2874   */\n  0x00\n    /* \"#utility.yul\":2862:2871   */\n  dup4\n    /* \"#utility.yul\":2858:2875   */\n  add\n    /* \"#utility.yul\":2852:2876   */\n  mload\n    /* \"#utility.yul\":2903:2921   */\n  0xffffffffffffffff\n    /* \"#utility.yul\":2895:2901   */\n  dup2\n    /* \"#utility.yul\":2892:2922   */\n  gt\n    /* \"#utility.yul\":2889:3006   */\n  iszero\n  tag_75\n  jumpi\n    /* \"#utility.yul\":2925:3004   */\n  tag_76\n  tag_12\n  jump\t// in\ntag_76:\n    /* \"#utility.yul\":2889:3006   */\ntag_75:\n    /* \"#utility.yul\":3030:3104   */\n  tag_77\n    /* \"#utility.yul\":3096:3103   */\n  dup6\n    /* \"#utility.yul\":3087:3093   */\n  dup3\n    /* \"#utility.yul\":3076:3085   */\n  dup7\n    /* \"#utility.yul\":3072:3094   */\n  add\n    /* \"#utility.yul\":3030:3104   */\n  tag_22\n  jump\t// in\ntag_77:\n    /* \"#utility.yul\":3020:3104   */\n  swap3\n  pop\n    /* \"#utility.yul\":2823:3114   */\n  pop\n    /* \"#utility.yul\":3174:3176   */\n  0x20\n    /* \"#utility.yul\":3163:3172   */\n  dup4\n    /* \"#utility.yul\":3159:3177   */\n  add\n    /* \"#utility.yul\":3153:3178   */\n  mload\n    /* \"#utility.yul\":3205:3223   */\n  0xffffffffffffffff\n    /* \"#utility.yul\":3197:3203   */\n  dup2\n    /* \"#utility.yul\":3194:3224   */\n  gt\n    /* \"#utility.yul\":3191:3308   */\n  iszero\n  tag_78\n  jumpi\n    /* \"#utility.yul\":3227:3306   */\n  tag_79\n  tag_12\n  jump\t// in\ntag_79:\n    /* \"#utility.yul\":3191:3308   */\ntag_78:\n    /* \"#utility.yul\":3332:3406   */\n  tag_80\n    /* \"#utility.yul\":3398:3405   */\n  dup6\n    /* \"#utility.yul\":3389:3395   */\n  dup3\n    /* \"#utility.yul\":3378:3387   */\n  dup7\n    /* \"#utility.yul\":3374:3396   */\n  add\n    /* \"#utility.yul\":3332:3406   */\n  tag_22\n  jump\t// in\ntag_80:\n    /* \"#utility.yul\":3322:3406   */\n  swap2\n  pop\n    /* \"#utility.yul\":3124:3416   */\n  pop\n    /* \"#utility.yul\":2570:3423   */\n  swap3\n  pop\n  swap3\n  swap1\n  pop\n  jump\t// out\n    /* \"#utility.yul\":3429:3528   */\ntag_23:\n    /* \"#utility.yul\":3481:3487   */\n  0x00\n    /* \"#utility.yul\":3515:3520   */\n  dup2\n    /* \"#utility.yul\":3509:3521   */\n  mload\n    /* \"#utility.yul\":3499:3521   */\n  swap1\n  pop\n    /* \"#utility.yul\":3429:3528   */\n  swap2\n  swap1\n  pop\n  jump\t// out\n    /* \"#utility.yul\":3534:3714   */\ntag_24:\n    /* \"#utility.yul\":3582:3659   */\n  0x4e487b7100000000000000000000000000000000000000000000000000000000\n    /* \"#utility.yul\":3579:3580   */\n  0x00\n    /* \"#utility.yul\":3572:3660   */\n  mstore\n    /* \"#utility.yul\":3679:3683   */\n  0x22\n    /* \"#utility.yul\":3676:3677   */\n  0x04\n    /* \"#utility.yul\":3669:3684   */\n  mstore\n    /* \"#utility.yul\":3703:3707   */\n  0x24\n    /* \"#utility.yul\":3700:3701   */\n  0x00\n    /* \"#utility.yul\":3693:3708   */\n  revert\n    /* \"#utility.yul\":3720:4040   */\ntag_25:\n    /* \"#utility.yul\":3764:3770   */\n  0x00\n    /* \"#utility.yul\":3801:3802   */\n  0x02\n    /* \"#utility.yul\":3795:3799   */\n  dup3\n    /* \"#utility.yul\":3791:3803   */\n  div\n    /* \"#utility.yul\":3781:3803   */\n  swap1\n  pop\n    /* \"#utility.yul\":3848:3849   */\n  0x01\n    /* \"#utility.yul\":3842:3846   */\n  dup3\n    /* \"#utility.yul\":3838:3850   */\n  and\n    /* \"#utility.yul\":3869:3887   */\n  dup1\n    /* \"#utility.yul\":3859:3940   */\n  tag_84\n  jumpi\n    /* \"#utility.yul\":3925:3929   */\n  0x7f\n    /* \"#utility.yul\":3917:3923   */\n  dup3\n    /* \"#utility.yul\":3913:3930   */\n  and\n    /* \"#utility.yul\":3903:3930   */\n  swap2\n  pop\n    /* \"#utility.yul\":3859:3940   */\ntag_84:\n    /* \"#utility.yul\":3987:3989   */\n  0x20\n    /* \"#utility.yul\":3979:3985   */\n  dup3\n    /* \"#utility.yul\":3976:3990   */\n  lt\n    /* \"#utility.yul\":3956:3974   */\n  dup2\n    /* \"#utility.yul\":3953:3991   */\n  sub\n    /* \"#utility.yul\":3950:4034   */\n  tag_85\n  jumpi\n    /* \"#utility.yul\":4006:4024   */\n  tag_86\n  tag_24\n  jump\t// in\ntag_86:\n    /* \"#utility.yul\":3950:4034   */\ntag_85:\n    /* \"#utility.yul\":3771:4040   */\n  pop\n    /* \"#utility.yul\":3720:4040   */\n  swap2\n  swap1\n  pop\n  jump\t// out\n    /* \"#utility.yul\":4046:4187   */\ntag_26:\n    /* \"#utility.yul\":4095:4099   */\n  0x00\n    /* \"#utility.yul\":4118:4121   */\n  dup2\n    /* \"#utility.yul\":4110:4121   */\n  swap1\n  pop\n    /* \"#utility.yul\":4141:4144   */\n  dup2\n    /* \"#utility.yul\":4138:4139   */\n  0x00\n    /* \"#utility.yul\":4131:4145   */\n  mstore\n    /* \"#utility.yul\":4175:4179   */\n  0x20\n    /* \"#utility.yul\":4172:4173   */\n  0x00\n    /* \"#utility.yul\":4162:4180   */\n  keccak256\n    /* \"#utility.yul\":4154:4180   */\n  swap1\n  pop\n    /* \"#utility.yul\":4046:4187   */\n  swap2\n  swap1\n  pop\n  jump\t// out\n    /* \"#utility.yul\":4193:4286   */\ntag_27:\n    /* \"#utility.yul\":4230:4236   */\n  0x00\n    /* \"#utility.yul\":4277:4279   */\n  0x20\n    /* \"#utility.yul\":4272:4274   */\n  0x1f\n    /* \"#utility.yul\":4265:4270   */\n  dup4\n    /* \"#utility.yul\":4261:4275   */\n  add\n    /* \"#utility.yul\":4257:4280   */\n  div\n    /* \"#utility.yul\":4247:4280   */\n  swap1\n  pop\n    /* \"#utility.yul\":4193:4286   */\n  swap2\n  swap1\n  pop\n  jump\t// out\n    /* \"#utility.yul\":4292:4399   */\ntag_28:\n    /* \"#utility.yul\":4336:4344   */\n  0x00\n    /* \"#utility.yul\":4386:4391   */\n  dup3\n    /* \"#utility.yul\":4380:4384   */\n  dup3\n    /* \"#utility.yul\":4376:4392   */\n  shl\n    /* \"#utility.yul\":4355:4392   */\n  swap1\n  pop\n    /* \"#utility.yul\":4292:4399   */\n  swap3\n  swap2\n  pop\n  pop\n  jump\t// out\n    /* \"#utility.yul\":4405:4798   */\ntag_29:\n    /* \"#utility.yul\":4474:4480   */\n  0x00\n    /* \"#utility.yul\":4524:4525   */\n  0x08\n    /* \"#utility.yul\":4512:4522   */\n  dup4\n    /* \"#utility.yul\":4508:4526   */\n  mul\n    /* \"#utility.yul\":4547:4644   */\n  tag_91\n    /* \"#utility.yul\":4577:4643   */\n  0xffffffffffffffffffffffffffffffffffffffffffffffffffffffffffffffff\n    /* \"#utility.yul\":4566:4575   */\n  dup3\n    /* \"#utility.yul\":4547:4644   */\n  tag_28\n  jump\t// in\ntag_91:\n    /* \"#utility.yul\":4665:4704   */\n  tag_92\n    /* \"#utility.yul\":4695:4703   */\n  dup7\n    /* \"#utility.yul\":4684:4693   */\n  dup4\n    /* \"#utility.yul\":4665:4704   */\n  tag_28\n  jump\t// in\ntag_92:\n    /* \"#utility.yul\":4653:4704   */\n  swap6\n  pop\n    /* \"#utility.yul\":4737:4741   */\n  dup1\n    /* \"#utility.yul\":4733:4742   */\n  not\n    /* \"#utility.yul\":4726:4731   */\n  dup5\n    /* \"#utility.yul\":4722:4743   */\n  and\n    /* \"#utility.yul\":4713:4743   */\n  swap4\n  pop\n    /* \"#utility.yul\":4786:4790   */\n  dup1\n    /* \"#utility.yul\":4776:4784   */\n  dup7\n    /* \"#utility.yul\":4772:4791   */\n  and\n    /* \"#utility.yul\":4765:4770   */\n  dup5\n    /* \"#utility.yul\":4762:4792   */\n  or\n    /* \"#utility.yul\":4752:4792   */\n  swap3\n  pop\n    /* \"#utility.yul\":4481:4798   */\n  pop\n  pop\n    /* \"#utility.yul\":4405:4798   */\n  swap4\n  swap3\n  pop\n  pop\n  pop\n  jump\t// out\n    /* \"#utility.yul\":4804:4881   */\ntag_30:\n    /* \"#utility.yul\":4841:4848   */\n  0x00\n    /* \"#utility.yul\":4870:4875   */\n  dup2\n    /* \"#utility.yul\":4859:4875   */\n  swap1\n  pop\n    /* \"#utility.yul\":4804:4881   */\n  swap2\n  swap1\n  pop\n  jump\t// out\n    /* \"#utility.yul\":4887:4947   */\ntag_31:\n    /* \"#utility.yul\":4915:4918   */\n  0x00\n    /* \"#utility.yul\":4936:4941   */\n  dup2\n    /* \"#utility.yul\":4929:4941   */\n  swap1\n  pop\n    /* \"#utility.yul\":4887:4947   */\n  swap2\n  swap1\n  pop\n  jump\t// out\n    /* \"#utility.yul\":4953:5095   */\ntag_32:\n    /* \"#utility.yul\":5003:5012   */\n  0x00\n    /* \"#utility.yul\":5036:5089   */\n  tag_96\n    /* \"#utility.yul\":5054:5088   */\n  tag_97\n    /* \"#utility.yul\":5063:5087   */\n  tag_98\n    /* \"#utility.yul\":5081:5086   */\n  dup5\n    /* \"#utility.yul\":5063:5087   */\n  tag_30\n  jump\t// in\ntag_98:\n    /* \"#utility.yul\":5054:5088   */\n  tag_31\n  jump\t// in\ntag_97:\n    /* \"#utility.yul\":5036:5089   */\n  tag_30\n  jump\t// in\ntag_96:\n    /* \"#utility.yul\":5023:5089   */\n  swap1\n  pop\n    /* \"#utility.yul\":4953:5095   */\n  swap2\n  swap1\n  pop\n  jump\t// out\n    /* \"#utility.yul\":5101:5176   */\ntag_33:\n    /* \"#utility.yul\":5144:5147   */\n  0x00\n    /* \"#utility.yul\":5165:5170   */\n  dup2\n    /* \"#utility.yul\":5158:5170   */\n  swap1\n  pop\n    /* \"#utility.yul\":5101:5176   */\n  swap2\n  swap1\n  pop\n  jump\t// out\n    /* \"#utility.yul\":5182:5451   */\ntag_34:\n    /* \"#utility.yul\":5292:5331   */\n  tag_101\n    /* \"#utility.yul\":5323:5330   */\n  dup4\n    /* \"#utility.yul\":5292:5331   */\n  tag_32\n  jump\t// in\ntag_101:\n    /* \"#utility.yul\":5353:5444   */\n  tag_102\n    /* \"#utility.yul\":5402:5443   */\n  tag_103\n    /* \"#utility.yul\":5426:5442   */\n  dup3\n    /* \"#utility.yul\":5402:5443   */\n  tag_33\n  jump\t// in\ntag_103:\n    /* \"#utility.yul\":5394:5400   */\n  dup5\n    /* \"#utility.yul\":5387:5391   */\n  dup5\n    /* \"#utility.yul\":5381:5392   */\n  sload\n    /* \"#utility.yul\":5353:5444   */\n  tag_29\n  jump\t// in\ntag_102:\n    /* \"#utility.yul\":5347:5351   */\n  dup3\n    /* \"#utility.yul\":5340:5445   */\n  sstore\n    /* \"#utility.yul\":5258:5451   */\n  pop\n    /* \"#utility.yul\":5182:5451   */\n  pop\n  pop\n  pop\n  jump\t// out\n    /* \"#utility.yul\":5457:5530   */\ntag_35:\n    /* \"#utility.yul\":5502:5505   */\n  0x00\n    /* \"#utility.yul\":5523:5524   */\n  0x00\n    /* \"#utility.yul\":5516:5524   */\n  swap1\n  pop\n    /* \"#utility.yul\":5457:5530   */\n  swap1\n  jump\t// out\n    /* \"#utility.yul\":5536:5725   */\ntag_36:\n    /* \"#utility.yul\":5613:5645   */\n  tag_106\n  tag_35\n  jump\t// in\ntag_106:\n    /* \"#utility.yul\":5654:5719   */\n  tag_107\n    /* \"#utility.yul\":5712:5718   */\n  dup2\n    /* \"#utility.yul\":5704:5710   */\n  dup5\n    /* \"#utility.yul\":5698:5702   */\n  dup5\n    /* \"#utility.yul\":5654:5719   */\n  tag_34\n  jump\t// in\ntag_107:\n    /* \"#utility.yul\":5589:5725   */\n  pop\n    /* \"#utility.yul\":5536:5725   */\n  pop\n  pop\n  jump\t// out\n    /* \"#utility.yul\":5731:5917   */\ntag_37:\n    /* \"#utility.yul\":5791:5911   */\ntag_109:\n    /* \"#utility.yul\":5808:5811   */\n  dup2\n    /* \"#utility.yul\":5801:5806   */\n  dup2\n    /* \"#utility.yul\":5798:5812   */\n  lt\n    /* \"#utility.yul\":5791:5911   */\n  iszero\n  tag_111\n  jumpi\n    /* \"#utility.yul\":5862:5901   */\n  tag_112\n    /* \"#utility.yul\":5899:5900   */\n  0x00\n    /* \"#utility.yul\":5892:5897   */\n  dup3\n    /* \"#utility.yul\":5862:5901   */\n  tag_36\n  jump\t// in\ntag_112:\n    /* \"#utility.yul\":5835:5836   */\n  0x01\n    /* \"#utility.yul\":5828:5833   */\n  dup2\n    /* \"#utility.yul\":5824:5837   */\n  add\n    /* \"#utility.yul\":5815:5837   */\n  swap1\n  pop\n    /* \"#utility.yul\":5791:5911   */\n  jump(tag_109)\ntag_111:\n    /* \"#utility.yul\":5731:5917   */\n  pop\n  pop\n  jump\t// out\n    /* \"#utility.yul\":5923:6466   */\ntag_38:\n    /* \"#utility.yul\":6024:6026   */\n  0x1f\n    /* \"#utility.yul\":6019:6022   */\n  dup3\n    /* \"#utility.yul\":6016:6027   */\n  gt\n    /* \"#utility.yul\":6013:6459   */\n  iszero\n  tag_114\n  jumpi\n    /* \"#utility.yul\":6058:6096   */\n  tag_115\n    /* \"#utility.yul\":6090:6095   */\n  dup2\n    /* \"#utility.yul\":6058:6096   */\n  tag_26\n  jump\t// in\ntag_115:\n    /* \"#utility.yul\":6142:6171   */\n  tag_116\n    /* \"#utility.yul\":6160:6170   */\n  dup5\n    /* \"#utility.yul\":6142:6171   */\n  tag_27\n  jump\t// in\ntag_116:\n    /* \"#utility.yul\":6132:6140   */\n  dup2\n    /* \"#utility.yul\":6128:6172   */\n  add\n    /* \"#utility.yul\":6325:6327   */\n  0x20\n    /* \"#utility.yul\":6313:6323   */\n  dup6\n    /* \"#utility.yul\":6310:6328   */\n  lt\n    /* \"#utility.yul\":6307:6356   */\n  iszero\n  tag_117\n  jumpi\n    /* \"#utility.yul\":6346:6354   */\n  dup2\n    /* \"#utility.yul\":6331:6354   */\n  swap1\n  pop\n    /* \"#utility.yul\":6307:6356   */\ntag_117:\n    /* \"#utility.yul\":6369:6449   */\n  tag_118\n    /* \"#utility.yul\":6425:6447   */\n  tag_119\n    /* \"#utility.yul\":6443:6446   */\n  dup6\n    /* \"#utility.yul\":6425:6447   */\n  tag_27\n  jump\t// in\ntag_119:\n    /* \"#utility.yul\":6415:6423   */\n  dup4\n    /* \"#utility.yul\":6411:6448   */\n  add\n    /* \"#utility.yul\":6398:6409   */\n  dup3\n    /* \"#utility.yul\":6369:6449   */\n  tag_37\n  jump\t// in\ntag_118:\n    /* \"#utility.yul\":6028:6459   */\n  pop\n  pop\n    /* \"#utility.yul\":6013:6459   */\ntag_114:\n    /* \"#utility.yul\":5923:6466   */\n  pop\n  pop\n  pop\n  jump\t// out\n    /* \"#utility.yul\":6472:6589   */\ntag_39:\n    /* \"#utility.yul\":6526:6534   */\n  0x00\n    /* \"#utility.yul\":6576:6581   */\n  dup3\n    /* \"#utility.yul\":6570:6574   */\n  dup3\n    /* \"#utility.yul\":6566:6582   */\n  shr\n    /* \"#utility.yul\":6545:6582   */\n  swap1\n  pop\n    /* \"#utility.yul\":6472:6589   */\n  swap3\n  swap2\n  pop\n  pop\n  jump\t// out\n    /* \"#utility.yul\":6595:6764   */\ntag_40:\n    /* \"#utility.yul\":6639:6645   */\n  0x00\n    /* \"#utility.yul\":6672:6723   */\n  tag_122\n    /* \"#utility.yul\":6720:6721   */\n  0x00\n    /* \"#utility.yul\":6716:6722   */\n  not\n    /* \"#utility.yul\":6708:6713   */\n  dup5\n    /* \"#utility.yul\":6705:6706   */\n  0x08\n    /* \"#utility.yul\":6701:6714   */\n  mul\n    /* \"#utility.yul\":6672:6723   */\n  tag_39\n  jump\t// in\ntag_122:\n    /* \"#utility.yul\":6668:6724   */\n  not\n    /* \"#utility.yul\":6753:6757   */\n  dup1\n    /* \"#utility.yul\":6747:6751   */\n  dup4\n    /* \"#utility.yul\":6743:6758   */\n  and\n    /* \"#utility.yul\":6733:6758   */\n  swap2\n  pop\n    /* \"#utility.yul\":6646:6764   */\n  pop\n    /* \"#utility.yul\":6595:6764   */\n  swap3\n  swap2\n  pop\n  pop\n  jump\t// out\n    /* \"#utility.yul\":6769:7064   */\ntag_41:\n    /* \"#utility.yul\":6845:6849   */\n  0x00\n    /* \"#utility.yul\":6991:7020   */\n  tag_124\n    /* \"#utility.yul\":7016:7019   */\n  dup4\n    /* \"#utility.yul\":7010:7014   */\n  dup4\n    /* \"#utility.yul\":6991:7020   */\n  tag_40\n  jump\t// in\ntag_124:\n    /* \"#utility.yul\":6983:7020   */\n  swap2\n  pop\n    /* \"#utility.yul\":7053:7056   */\n  dup3\n    /* \"#utility.yul\":7050:7051   */\n  0x02\n    /* \"#utility.yul\":7046:7057   */\n  mul\n    /* \"#utility.yul\":7040:7044   */\n  dup3\n    /* \"#utility.yul\":7037:7058   */\n  or\n    /* \"#utility.yul\":7029:7058   */\n  swap1\n  pop\n    /* \"#utility.yul\":6769:7064   */\n  swap3\n  swap2\n  pop\n  pop\n  jump\t// out\n    /* \"#utility.yul\":7069:8464   */\ntag_7:\n    /* \"#utility.yul\":7186:7223   */\n  tag_126\n    /* \"#utility.yul\":7219:7222   */\n  dup3\n    /* \"#utility.yul\":7186:7223   */\n  tag_23\n  jump\t// in\ntag_126:\n    /* \"#utility.yul\":7288:7306   */\n  0xffffffffffffffff\n    /* \"#utility.yul\":7280:7286   */\n  dup2\n    /* \"#utility.yul\":7277:7307   */\n  gt\n    /* \"#utility.yul\":7274:7330   */\n  iszero\n  tag_127\n  jumpi\n    /* \"#utility.yul\":7310:7328   */\n  tag_128\n  tag_16\n  jump\t// in\ntag_128:\n    /* \"#utility.yul\":7274:7330   */\ntag_127:\n    /* \"#utility.yul\":7354:7392   */\n  tag_129\n    /* \"#utility.yul\":7386:7390   */\n  dup3\n    /* \"#utility.yul\":7380:7391   */\n  sload\n    /* \"#utility.yul\":7354:7392   */\n  tag_25\n  jump\t// in\ntag_129:\n    /* \"#utility.yul\":7439:7506   */\n  tag_130\n    /* \"#utility.yul\":7499:7505   */\n  dup3\n    /* \"#utility.yul\":7491:7497   */\n  dup3\n    /* \"#utility.yul\":7485:7489   */\n  dup6\n    /* \"#utility.yul\":7439:7506   */\n  tag_38\n  jump\t// in\ntag_130:\n    /* \"#utility.yul\":7533:7534   */\n  0x00\n    /* \"#utility.yul\":7557:7561   */\n  0x20\n    /* \"#utility.yul\":7544:7561   */\n  swap1\n  pop\n    /* \"#utility.yul\":7589:7591   */\n  0x1f\n    /* \"#utility.yul\":7581:7587   */\n  dup4\n    /* \"#utility.yul\":7578:7592   */\n  gt\n    /* \"#utility.yul\":7606:7607   */\n  0x01\n    /* \"#utility.yul\":7601:8219   */\n  dup2\n  eq\n  tag_132\n  jumpi\n    /* \"#utility.yul\":8263:8264   */\n  0x00\n    /* \"#utility.yul\":8280:8286   */\n  dup5\n    /* \"#utility.yul\":8277:8354   */\n  iszero\n  tag_133\n  jumpi\n    /* \"#utility.yul\":8329:8338   */\n  dup3\n    /* \"#utility.yul\":8324:8327   */\n  dup8\n    /* \"#utility.yul\":8320:8339   */\n  add\n    /* \"#utility.yul\":8314:8340   */\n  mload\n    /* \"#utility.yul\":8305:8340   */\n  swap1\n  pop\n    /* \"#utility.yul\":8277:8354   */\ntag_133:\n    /* \"#utility.yul\":8380:8447   */\n  tag_134\n    /* \"#utility.yul\":8440:8446   */\n  dup6\n    /* \"#utility.yul\":8433:8438   */\n  dup3\n    /* \"#utility.yul\":8380:8447   */\n  tag_41\n  jump\t// in\ntag_134:\n    /* \"#utility.yul\":8374:8378   */\n  dup7\n    /* \"#utility.yul\":8367:8448   */\n  sstore\n    /* \"#utility.yul\":8236:8458   */\n  pop\n    /* \"#utility.yul\":7571:8458   */\n  jump(tag_131)\n    /* \"#utility.yul\":7601:8219   */\ntag_132:\n    /* \"#utility.yul\":7653:7657   */\n  0x1f\n    /* \"#utility.yul\":7649:7658   */\n  not\n    /* \"#utility.yul\":7641:7647   */\n  dup5\n    /* \"#utility.yul\":7637:7659   */\n  and\n    /* \"#utility.yul\":7687:7724   */\n  tag_135\n    /* \"#utility.yul\":7719:7723   */\n  dup7\n    /* \"#utility.yul\":7687:7724   */\n  tag_26\n  jump\t// in\ntag_135:\n    /* \"#utility.yul\":7746:7747   */\n  0x00\n    /* \"#utility.yul\":7760:7968   */\ntag_136:\n    /* \"#utility.yul\":7774:7781   */\n  dup3\n    /* \"#utility.yul\":7771:7772   */\n  dup2\n    /* \"#utility.yul\":7768:7782   */\n  lt\n    /* \"#utility.yul\":7760:7968   */\n  iszero\n  tag_138\n  jumpi\n    /* \"#utility.yul\":7853:7862   */\n  dup5\n    /* \"#utility.yul\":7848:7851   */\n  dup10\n    /* \"#utility.yul\":7844:7863   */\n  add\n    /* \"#utility.yul\":7838:7864   */\n  mload\n    /* \"#utility.yul\":7830:7836   */\n  dup3\n    /* \"#utility.yul\":7823:7865   */\n  sstore\n    /* \"#utility.yul\":7904:7905   */\n  0x01\n    /* \"#utility.yul\":7896:7902   */\n  dup3\n    /* \"#utility.yul\":7892:7906   */\n  add\n    /* \"#utility.yul\":7882:7906   */\n  swap2\n  pop\n    /* \"#utility.yul\":7951:7953   */\n  0x20\n    /* \"#utility.yul\":7940:7949   */\n  dup6\n    /* \"#utility.yul\":7936:7954   */\n  add\n    /* \"#utility.yul\":7923:7954   */\n  swap5\n  pop\n    /* \"#utility.yul\":7797:7801   */\n  0x20\n    /* \"#utility.yul\":7794:7795   */\n  dup2\n    /* \"#utility.yul\":7790:7802   */\n  add\n    /* \"#utility.yul\":7785:7802   */\n  swap1\n  pop\n    /* \"#utility.yul\":7760:7968   */\n  jump(tag_136)\ntag_138:\n    /* \"#utility.yul\":7996:8002   */\n  dup7\n    /* \"#utility.yul\":7987:7994   */\n  dup4\n    /* \"#utility.yul\":7984:8003   */\n  lt\n    /* \"#utility.yul\":7981:8160   */\n  iszero\n  tag_139\n  jumpi\n    /* \"#utility.yul\":8054:8063   */\n  dup5\n    /* \"#utility.yul\":8049:8052   */\n  dup10\n    /* \"#utility.yul\":8045:8064   */\n  add\n    /* \"#utility.yul\":8039:8065   */\n  mload\n    /* \"#utility.yul\":8097:8145   */\n  tag_140\n    /* \"#utility.yul\":8139:8143   */\n  0x1f\n    /* \"#utility.yul\":8131:8137   */\n  dup10\n    /* \"#utility.yul\":8127:8144   */\n  and\n    /* \"#utility.yul\":8116:8125   */\n  dup3\n    /* \"#utility.yul\":8097:8145   */\n  tag_40\n  jump\t// in\ntag_140:\n    /* \"#utility.yul\":8089:8095   */\n  dup4\n    /* \"#utility.yul\":8082:8146   */\n  sstore\n    /* \"#utility.yul\":8004:8160   */\n  pop\n    /* \"#utility.yul\":7981:8160   */\ntag_139:\n    /* \"#utility.yul\":8206:8207   */\n  0x01\n    /* \"#utility.yul\":8202:8203   */\n  0x02\n    /* \"#utility.yul\":8194:8200   */\n  dup9\n    /* \"#utility.yul\":8190:8204   */\n  mul\n    /* \"#utility.yul\":8186:8208   */\n  add\n    /* \"#utility.yul\":8180:8184   */\n  dup9\n    /* \"#utility.yul\":8173:8209   */\n  sstore\n    /* \"#utility.yul\":7608:8219   */\n  pop\n  pop\n  pop\n    /* \"#utility.yul\":7571:8458   */\ntag_131:\n  pop\n    /* \"#utility.yul\":7161:8464   */\n  pop\n  pop\n  pop\n    /* \"#utility.yul\":7069:8464   */\n  pop\n  pop\n  jump\t// out\n    /* \"ERC721/MyERC721.sol\":215:9802  contract MyERC721 is IERC721, IERC721Metadata {... */\ntag_9:\n  dataSize(sub_0)\n  dup1\n  dataOffset(sub_0)\n  0x00\n  codecopy\n  0x00\n  return\nstop\n\nsub_0: assembly {\n        /* \"ERC721/MyERC721.sol\":215:9802  contract MyERC721 is IERC721, IERC721Metadata {... */\n      mstore(0x40, 0x80)\n      callvalue\n      dup1\n      iszero\n      tag_1\n      jumpi\n      revert(0x00, 0x00)\n    tag_1:\n      pop\n      jumpi(tag_2, lt(calldatasize, 0x04))\n      shr(0xe0, calldataload(0x00))\n      dup1\n      0x47457a2c\n      gt\n      tag_18\n      jumpi\n      dup1\n      0xa22cb465\n      gt\n      tag_19\n      jumpi\n      dup1\n      0xa22cb465\n      eq\n      tag_14\n      jumpi\n      dup1\n      0xb88d4fde\n      eq\n      tag_15\n      jumpi\n      dup1\n      0xc87b56dd\n      eq\n      tag_16\n      jumpi\n      dup1\n      0xe985e9c5\n      eq\n      tag_17\n      jumpi\n      jump(tag_2)\n    tag_19:\n      dup1\n      0x47457a2c\n      eq\n      tag_10\n      jumpi\n      dup1\n      0x6352211e\n      eq\n      tag_11\n      jumpi\n      dup1\n      0x70a08231\n      eq\n      tag_12\n      jumpi\n      dup1\n      0x95d89b41\n      eq\n      tag_13\n      jumpi\n      jump(tag_2)\n    tag_18:\n      dup1\n      0x095ea7b3\n      gt\n      tag_20\n      jumpi\n      dup1\n      0x095ea7b3\n      eq\n      tag_6\n      jumpi\n      dup1\n      0x23b872dd\n      eq\n      tag_7\n      jumpi\n      dup1\n      0x42842e0e\n      eq\n      tag_8\n      jumpi\n      dup1\n      0x42966c68\n      eq\n      tag_9\n      jumpi\n      jump(tag_2)\n    tag_20:\n      dup1\n      0x01ffc9a7\n      eq\n      tag_3\n      jumpi\n      dup1\n      0x06fdde03\n      eq\n      tag_4\n      jumpi\n      dup1\n      0x081812fc\n      eq\n      tag_5\n      jumpi\n    tag_2:\n      revert(0x00, 0x00)\n        /* \"ERC721/MyERC721.sol\":1156:1440  function supportsInterface(bytes4 interfaceId)external pure override returns (bool){... */\n    tag_3:\n      tag_21\n      0x04\n      dup1\n      calldatasize\n      sub\n      dup2\n      add\n      swap1\n      tag_22\n      swap2\n      swap1\n      tag_23\n      jump\t// in\n    tag_22:\n      tag_24\n      jump\t// in\n    tag_21:\n      mload(0x40)\n      tag_25\n      swap2\n      swap1\n      tag_26\n      jump\t// in\n    tag_25:\n      mload(0x40)\n      dup1\n      swap2\n      sub\n      swap1\n      return\n        /* \"ERC721/MyERC721.sol\":1448:1532  function name() external view returns (string memory){... */\n    tag_4:\n      tag_27\n      tag_28\n      jump\t// in\n    tag_27:\n      mload(0x40)\n      tag_29\n      swap2\n      swap1\n      tag_30\n      jump\t// in\n    tag_29:\n      mload(0x40)\n      dup1\n      swap2\n      sub\n      swap1\n      return\n        /* \"ERC721/MyERC721.sol\":7619:7747  function getApproved(uint256 tokenId) external view returns (address operator){... */\n    tag_5:\n      tag_31\n      0x04\n      dup1\n      calldatasize\n      sub\n      dup2\n      add\n      swap1\n      tag_32\n      swap2\n      swap1\n      tag_33\n      jump\t// in\n    tag_32:\n      tag_34\n      jump\t// in\n    tag_31:\n      mload(0x40)\n      tag_35\n      swap2\n      swap1\n      tag_36\n      jump\t// in\n    tag_35:\n      mload(0x40)\n      dup1\n      swap2\n      sub\n      swap1\n      return\n        /* \"ERC721/MyERC721.sol\":6629:6853  function approve(address to, uint256 tokenId) external{... */\n    tag_6:\n      tag_37\n      0x04\n      dup1\n      calldatasize\n      sub\n      dup2\n      add\n      swap1\n      tag_38\n      swap2\n      swap1\n      tag_39\n      jump\t// in\n    tag_38:\n      tag_40\n      jump\t// in\n    tag_37:\n      stop\n        /* \"ERC721/MyERC721.sol\":5531:5865  function transferFrom(address from, address to, uint256 tokenId) external{... */\n    tag_7:\n      tag_41\n      0x04\n      dup1\n      calldatasize\n      sub\n      dup2\n      add\n      swap1\n      tag_42\n      swap2\n      swap1\n      tag_43\n      jump\t// in\n    tag_42:\n      tag_44\n      jump\t// in\n    tag_41:\n      stop\n        /* \"ERC721/MyERC721.sol\":4374:4769  function safeTransferFrom(address from, address to, uint256 tokenId) external{... */\n    tag_8:\n      tag_45\n      0x04\n      dup1\n      calldatasize\n      sub\n      dup2\n      add\n      swap1\n      tag_46\n      swap2\n      swap1\n      tag_43\n      jump\t// in\n    tag_46:\n      tag_47\n      jump\t// in\n    tag_45:\n      stop\n        /* \"ERC721/MyERC721.sol\":8582:8836  function burn(uint256 tokenId) external {... */\n    tag_9:\n      tag_48\n      0x04\n      dup1\n      calldatasize\n      sub\n      dup2\n      add\n      swap1\n      tag_49\n      swap2\n      swap1\n      tag_33\n      jump\t// in\n    tag_49:\n      tag_50\n      jump\t// in\n    tag_48:\n      stop\n        /* \"ERC721/MyERC721.sol\":8479:8574  function saleMint(address to,uint256 tokenId) external {... */\n    tag_10:\n      tag_51\n      0x04\n      dup1\n      calldatasize\n      sub\n      dup2\n      add\n      swap1\n      tag_52\n      swap2\n      swap1\n      tag_39\n      jump\t// in\n    tag_52:\n      tag_53\n      jump\t// in\n    tag_51:\n      stop\n        /* \"ERC721/MyERC721.sol\":2475:2588  function ownerOf(uint256 tokenId) external view returns (address owner){... */\n    tag_11:\n      tag_54\n      0x04\n      dup1\n      calldatasize\n      sub\n      dup2\n      add\n      swap1\n      tag_55\n      swap2\n      swap1\n      tag_33\n      jump\t// in\n    tag_55:\n      tag_56\n      jump\t// in\n    tag_54:\n      mload(0x40)\n      tag_57\n      swap2\n      swap1\n      tag_36\n      jump\t// in\n    tag_57:\n      mload(0x40)\n      dup1\n      swap2\n      sub\n      swap1\n      return\n        /* \"ERC721/MyERC721.sol\":2118:2324  function balanceOf(address owner) external view returns (uint256 balance){... */\n    tag_12:\n      tag_58\n      0x04\n      dup1\n      calldatasize\n      sub\n      dup2\n      add\n      swap1\n      tag_59\n      swap2\n      swap1\n      tag_60\n      jump\t// in\n    tag_59:\n      tag_61\n      jump\t// in\n    tag_58:\n      mload(0x40)\n      tag_62\n      swap2\n      swap1\n      tag_63\n      jump\t// in\n    tag_62:\n      mload(0x40)\n      dup1\n      swap2\n      sub\n      swap1\n      return\n        /* \"ERC721/MyERC721.sol\":1540:1628  function symbol() external view returns (string memory){... */\n    tag_13:\n      tag_64\n      tag_65\n      jump\t// in\n    tag_64:\n      mload(0x40)\n      tag_66\n      swap2\n      swap1\n      tag_30\n      jump\t// in\n    tag_66:\n      mload(0x40)\n      dup1\n      swap2\n      sub\n      swap1\n      return\n        /* \"ERC721/MyERC721.sol\":7191:7458  function setApprovalForAll(address operator, bool approved) external{... */\n    tag_14:\n      tag_67\n      0x04\n      dup1\n      calldatasize\n      sub\n      dup2\n      add\n      swap1\n      tag_68\n      swap2\n      swap1\n      tag_69\n      jump\t// in\n    tag_68:\n      tag_70\n      jump\t// in\n    tag_67:\n      stop\n        /* \"ERC721/MyERC721.sol\":3180:3639  function safeTransferFrom(address from, address to, uint256 tokenId, bytes calldata data) external{... */\n    tag_15:\n      tag_71\n      0x04\n      dup1\n      calldatasize\n      sub\n      dup2\n      add\n      swap1\n      tag_72\n      swap2\n      swap1\n      tag_73\n      jump\t// in\n    tag_72:\n      tag_74\n      jump\t// in\n    tag_71:\n      stop\n        /* \"ERC721/MyERC721.sol\":1636:1923  function tokenURI(uint256 tokenId) external view returns (string memory){... */\n    tag_16:\n      tag_75\n      0x04\n      dup1\n      calldatasize\n      sub\n      dup2\n      add\n      swap1\n      tag_76\n      swap2\n      swap1\n      tag_33\n      jump\t// in\n    tag_76:\n      tag_77\n      jump\t// in\n    tag_75:\n      mload(0x40)\n      tag_78\n      swap2\n      swap1\n      tag_30\n      jump\t// in\n    tag_78:\n      mload(0x40)\n      dup1\n      swap2\n      sub\n      swap1\n      return\n        /* \"ERC721/MyERC721.sol\":7903:8051  function isApprovedForAll(address owner, address operator) external view returns (bool){... */\n    tag_17:\n      tag_79\n      0x04\n      dup1\n      calldatasize\n      sub\n      dup2\n      add\n      swap1\n      tag_80\n      swap2\n      swap1\n      tag_81\n      jump\t// in\n    tag_80:\n      tag_82\n      jump\t// in\n    tag_79:\n      mload(0x40)\n      tag_83\n      swap2\n      swap1\n      tag_26\n      jump\t// in\n    tag_83:\n      mload(0x40)\n      dup1\n      swap2\n      sub\n      swap1\n      return\n        /* \"ERC721/MyERC721.sol\":1156:1440  function supportsInterface(bytes4 interfaceId)external pure override returns (bool){... */\n    tag_24:\n        /* \"ERC721/MyERC721.sol\":1234:1238  bool */\n      0x00\n        /* \"ERC721/MyERC721.sol\":1285:1310  type(IERC721).interfaceId */\n      0x80ac58cd00000000000000000000000000000000000000000000000000000000\n        /* \"ERC721/MyERC721.sol\":1270:1310  interfaceId == type(IERC721).interfaceId */\n      not(0xffffffffffffffffffffffffffffffffffffffffffffffffffffffff)\n      and\n        /* \"ERC721/MyERC721.sol\":1270:1281  interfaceId */\n      dup3\n        /* \"ERC721/MyERC721.sol\":1270:1310  interfaceId == type(IERC721).interfaceId */\n      not(0xffffffffffffffffffffffffffffffffffffffffffffffffffffffff)\n      and\n      eq\n        /* \"ERC721/MyERC721.sol\":1270:1367  interfaceId == type(IERC721).interfaceId ||... */\n      dup1\n      tag_85\n      jumpi\n      pop\n        /* \"ERC721/MyERC721.sol\":1342:1367  type(IERC165).interfaceId */\n      0x01ffc9a700000000000000000000000000000000000000000000000000000000\n        /* \"ERC721/MyERC721.sol\":1327:1367  interfaceId == type(IERC165).interfaceId */\n      not(0xffffffffffffffffffffffffffffffffffffffffffffffffffffffff)\n      and\n        /* \"ERC721/MyERC721.sol\":1327:1338  interfaceId */\n      dup3\n        /* \"ERC721/MyERC721.sol\":1327:1367  interfaceId == type(IERC165).interfaceId */\n      not(0xffffffffffffffffffffffffffffffffffffffffffffffffffffffff)\n      and\n      eq\n        /* \"ERC721/MyERC721.sol\":1270:1367  interfaceId == type(IERC721).interfaceId ||... */\n    tag_85:\n        /* \"ERC721/MyERC721.sol\":1270:1432  interfaceId == type(IERC721).interfaceId ||... */\n      dup1\n      tag_86\n      jumpi\n      pop\n        /* \"ERC721/MyERC721.sol\":1399:1432  type(IERC721Metadata).interfaceId */\n      0x5b5e139f00000000000000000000000000000000000000000000000000000000\n        /* \"ERC721/MyERC721.sol\":1384:1432  interfaceId == type(IERC721Metadata).interfaceId */\n      not(0xffffffffffffffffffffffffffffffffffffffffffffffffffffffff)\n      and\n        /* \"ERC721/MyERC721.sol\":1384:1395  interfaceId */\n      dup3\n        /* \"ERC721/MyERC721.sol\":1384:1432  interfaceId == type(IERC721Metadata).interfaceId */\n      not(0xffffffffffffffffffffffffffffffffffffffffffffffffffffffff)\n      and\n      eq\n        /* \"ERC721/MyERC721.sol\":1270:1432  interfaceId == type(IERC721).interfaceId ||... */\n    tag_86:\n        /* \"ERC721/MyERC721.sol\":1250:1432  return... */\n      swap1\n      pop\n        /* \"ERC721/MyERC721.sol\":1156:1440  function supportsInterface(bytes4 interfaceId)external pure override returns (bool){... */\n      swap2\n      swap1\n      pop\n      jump\t// out\n        /* \"ERC721/MyERC721.sol\":1448:1532  function name() external view returns (string memory){... */\n    tag_28:\n        /* \"ERC721/MyERC721.sol\":1487:1500  string memory */\n      0x60\n        /* \"ERC721/MyERC721.sol\":1519:1524  _name */\n      0x04\n        /* \"ERC721/MyERC721.sol\":1512:1524  return _name */\n      dup1\n      sload\n      tag_88\n      swap1\n      tag_89\n      jump\t// in\n    tag_88:\n      dup1\n      0x1f\n      add\n      0x20\n      dup1\n      swap2\n      div\n      mul\n      0x20\n      add\n      mload(0x40)\n      swap1\n      dup2\n      add\n      0x40\n      mstore\n      dup1\n      swap3\n      swap2\n      swap1\n      dup2\n      dup2\n      mstore\n      0x20\n      add\n      dup3\n      dup1\n      sload\n      tag_90\n      swap1\n      tag_89\n      jump\t// in\n    tag_90:\n      dup1\n      iszero\n      tag_91\n      jumpi\n      dup1\n      0x1f\n      lt\n      tag_92\n      jumpi\n      0x0100\n      dup1\n      dup4\n      sload\n      div\n      mul\n      dup4\n      mstore\n      swap2\n      0x20\n      add\n      swap2\n      jump(tag_91)\n    tag_92:\n      dup3\n      add\n      swap2\n      swap1\n      0x00\n      mstore\n      keccak256(0x00, 0x20)\n      swap1\n    tag_93:\n      dup2\n      sload\n      dup2\n      mstore\n      swap1\n      0x01\n      add\n      swap1\n      0x20\n      add\n      dup1\n      dup4\n      gt\n      tag_93\n      jumpi\n      dup3\n      swap1\n      sub\n      0x1f\n      and\n      dup3\n      add\n      swap2\n    tag_91:\n      pop\n      pop\n      pop\n      pop\n      pop\n      swap1\n      pop\n        /* \"ERC721/MyERC721.sol\":1448:1532  function name() external view returns (string memory){... */\n      swap1\n      jump\t// out\n        /* \"ERC721/MyERC721.sol\":7619:7747  function getApproved(uint256 tokenId) external view returns (address operator){... */\n    tag_34:\n        /* \"ERC721/MyERC721.sol\":7680:7696  address operator */\n      0x00\n        /* \"ERC721/MyERC721.sol\":7715:7730  _tokenApprovals */\n      0x02\n        /* \"ERC721/MyERC721.sol\":7715:7739  _tokenApprovals[tokenId] */\n      0x00\n        /* \"ERC721/MyERC721.sol\":7731:7738  tokenId */\n      dup4\n        /* \"ERC721/MyERC721.sol\":7715:7739  _tokenApprovals[tokenId] */\n      dup2\n      mstore\n      0x20\n      add\n      swap1\n      dup2\n      mstore\n      0x20\n      add\n      0x00\n      keccak256\n      0x00\n      swap1\n      sload\n      swap1\n      0x0100\n      exp\n      swap1\n      div\n      0xffffffffffffffffffffffffffffffffffffffff\n      and\n        /* \"ERC721/MyERC721.sol\":7708:7739  return _tokenApprovals[tokenId] */\n      swap1\n      pop\n        /* \"ERC721/MyERC721.sol\":7619:7747  function getApproved(uint256 tokenId) external view returns (address operator){... */\n      swap2\n      swap1\n      pop\n      jump\t// out\n        /* \"ERC721/MyERC721.sol\":6629:6853  function approve(address to, uint256 tokenId) external{... */\n    tag_40:\n        /* \"ERC721/MyERC721.sol\":6722:6732  msg.sender */\n      caller\n        /* \"ERC721/MyERC721.sol\":6702:6732  _owners[tokenId] == msg.sender */\n      0xffffffffffffffffffffffffffffffffffffffff\n      and\n        /* \"ERC721/MyERC721.sol\":6702:6709  _owners */\n      0x01\n        /* \"ERC721/MyERC721.sol\":6702:6718  _owners[tokenId] */\n      0x00\n        /* \"ERC721/MyERC721.sol\":6710:6717  tokenId */\n      dup4\n        /* \"ERC721/MyERC721.sol\":6702:6718  _owners[tokenId] */\n      dup2\n      mstore\n      0x20\n      add\n      swap1\n      dup2\n      mstore\n      0x20\n      add\n      0x00\n      keccak256\n      0x00\n      swap1\n      sload\n      swap1\n      0x0100\n      exp\n      swap1\n      div\n      0xffffffffffffffffffffffffffffffffffffffff\n      and\n        /* \"ERC721/MyERC721.sol\":6702:6732  _owners[tokenId] == msg.sender */\n      0xffffffffffffffffffffffffffffffffffffffff\n      and\n      eq\n        /* \"ERC721/MyERC721.sol\":6694:6756  require(_owners[tokenId] == msg.sender,\"tokenId not is owner\") */\n      tag_96\n      jumpi\n      mload(0x40)\n      0x08c379a000000000000000000000000000000000000000000000000000000000\n      dup2\n      mstore\n      0x04\n      add\n      tag_97\n      swap1\n      tag_98\n      jump\t// in\n    tag_97:\n      mload(0x40)\n      dup1\n      swap2\n      sub\n      swap1\n      revert\n    tag_96:\n        /* \"ERC721/MyERC721.sol\":6797:6804  tokenId */\n      dup1\n        /* \"ERC721/MyERC721.sol\":6793:6795  to */\n      dup3\n        /* \"ERC721/MyERC721.sol\":6772:6805  Approval(msg.sender, to, tokenId) */\n      0xffffffffffffffffffffffffffffffffffffffff\n      and\n        /* \"ERC721/MyERC721.sol\":6781:6791  msg.sender */\n      caller\n        /* \"ERC721/MyERC721.sol\":6772:6805  Approval(msg.sender, to, tokenId) */\n      0xffffffffffffffffffffffffffffffffffffffff\n      and\n      0x8c5be1e5ebec7d5bd14f71427d1e84f3dd0314c0f7b2291e5b200ac8c7c3b925\n      mload(0x40)\n      mload(0x40)\n      dup1\n      swap2\n      sub\n      swap1\n      log4\n        /* \"ERC721/MyERC721.sol\":6843:6845  to */\n      dup2\n        /* \"ERC721/MyERC721.sol\":6816:6831  _tokenApprovals */\n      0x02\n        /* \"ERC721/MyERC721.sol\":6816:6840  _tokenApprovals[tokenId] */\n      0x00\n        /* \"ERC721/MyERC721.sol\":6832:6839  tokenId */\n      dup4\n        /* \"ERC721/MyERC721.sol\":6816:6840  _tokenApprovals[tokenId] */\n      dup2\n      mstore\n      0x20\n      add\n      swap1\n      dup2\n      mstore\n      0x20\n      add\n      0x00\n      keccak256\n      0x00\n        /* \"ERC721/MyERC721.sol\":6816:6845  _tokenApprovals[tokenId] = to */\n      0x0100\n      exp\n      dup2\n      sload\n      dup2\n      0xffffffffffffffffffffffffffffffffffffffff\n      mul\n      not\n      and\n      swap1\n      dup4\n      0xffffffffffffffffffffffffffffffffffffffff\n      and\n      mul\n      or\n      swap1\n      sstore\n      pop\n        /* \"ERC721/MyERC721.sol\":6629:6853  function approve(address to, uint256 tokenId) external{... */\n      pop\n      pop\n      jump\t// out\n        /* \"ERC721/MyERC721.sol\":5531:5865  function transferFrom(address from, address to, uint256 tokenId) external{... */\n    tag_44:\n        /* \"ERC721/MyERC721.sol\":5682:5692  msg.sender */\n      caller\n        /* \"ERC721/MyERC721.sol\":5654:5692  _tokenApprovals[tokenId] == msg.sender */\n      0xffffffffffffffffffffffffffffffffffffffff\n      and\n        /* \"ERC721/MyERC721.sol\":5654:5669  _tokenApprovals */\n      0x02\n        /* \"ERC721/MyERC721.sol\":5654:5678  _tokenApprovals[tokenId] */\n      0x00\n        /* \"ERC721/MyERC721.sol\":5670:5677  tokenId */\n      dup4\n        /* \"ERC721/MyERC721.sol\":5654:5678  _tokenApprovals[tokenId] */\n      dup2\n      mstore\n      0x20\n      add\n      swap1\n      dup2\n      mstore\n      0x20\n      add\n      0x00\n      keccak256\n      0x00\n      swap1\n      sload\n      swap1\n      0x0100\n      exp\n      swap1\n      div\n      0xffffffffffffffffffffffffffffffffffffffff\n      and\n        /* \"ERC721/MyERC721.sol\":5654:5692  _tokenApprovals[tokenId] == msg.sender */\n      0xffffffffffffffffffffffffffffffffffffffff\n      and\n      eq\n        /* \"ERC721/MyERC721.sol\":5646:5708  require(_tokenApprovals[tokenId] == msg.sender,\"not approval\") */\n      tag_100\n      jumpi\n      mload(0x40)\n      0x08c379a000000000000000000000000000000000000000000000000000000000\n      dup2\n      mstore\n      0x04\n      add\n      tag_101\n      swap1\n      tag_102\n      jump\t// in\n    tag_101:\n      mload(0x40)\n      dup1\n      swap2\n      sub\n      swap1\n      revert\n    tag_100:\n        /* \"ERC721/MyERC721.sol\":5741:5742  0 */\n      0x00\n        /* \"ERC721/MyERC721.sol\":5727:5743  to != address(0) */\n      0xffffffffffffffffffffffffffffffffffffffff\n      and\n        /* \"ERC721/MyERC721.sol\":5727:5729  to */\n      dup3\n        /* \"ERC721/MyERC721.sol\":5727:5743  to != address(0) */\n      0xffffffffffffffffffffffffffffffffffffffff\n      and\n      sub\n        /* \"ERC721/MyERC721.sol\":5719:5761  require(to != address(0),\"to not is 0x00\") */\n      tag_103\n      jumpi\n      mload(0x40)\n      0x08c379a000000000000000000000000000000000000000000000000000000000\n      dup2\n      mstore\n      0x04\n      add\n      tag_104\n      swap1\n      tag_105\n      jump\t// in\n    tag_104:\n      mload(0x40)\n      dup1\n      swap2\n      sub\n      swap1\n      revert\n    tag_103:\n        /* \"ERC721/MyERC721.sol\":5796:5797  0 */\n      0x00\n        /* \"ERC721/MyERC721.sol\":5780:5798  from != address(0) */\n      0xffffffffffffffffffffffffffffffffffffffff\n      and\n        /* \"ERC721/MyERC721.sol\":5780:5784  from */\n      dup4\n        /* \"ERC721/MyERC721.sol\":5780:5798  from != address(0) */\n      0xffffffffffffffffffffffffffffffffffffffff\n      and\n      sub\n        /* \"ERC721/MyERC721.sol\":5772:5818  require(from != address(0),\"from not is 0x00\") */\n      tag_106\n      jumpi\n      mload(0x40)\n      0x08c379a000000000000000000000000000000000000000000000000000000000\n      dup2\n      mstore\n      0x04\n      add\n      tag_107\n      swap1\n      tag_108\n      jump\t// in\n    tag_107:\n      mload(0x40)\n      dup1\n      swap2\n      sub\n      swap1\n      revert\n    tag_106:\n        /* \"ERC721/MyERC721.sol\":5829:5857  _transfer(from, to, tokenId) */\n      tag_109\n        /* \"ERC721/MyERC721.sol\":5839:5843  from */\n      dup4\n        /* \"ERC721/MyERC721.sol\":5845:5847  to */\n      dup4\n        /* \"ERC721/MyERC721.sol\":5849:5856  tokenId */\n      dup4\n        /* \"ERC721/MyERC721.sol\":5829:5838  _transfer */\n      tag_110\n        /* \"ERC721/MyERC721.sol\":5829:5857  _transfer(from, to, tokenId) */\n      jump\t// in\n    tag_109:\n        /* \"ERC721/MyERC721.sol\":5531:5865  function transferFrom(address from, address to, uint256 tokenId) external{... */\n      pop\n      pop\n      pop\n      jump\t// out\n        /* \"ERC721/MyERC721.sol\":4374:4769  function safeTransferFrom(address from, address to, uint256 tokenId) external{... */\n    tag_47:\n        /* \"ERC721/MyERC721.sol\":4533:4543  msg.sender */\n      caller\n        /* \"ERC721/MyERC721.sol\":4505:4543  _tokenApprovals[tokenId] == msg.sender */\n      0xffffffffffffffffffffffffffffffffffffffff\n      and\n        /* \"ERC721/MyERC721.sol\":4505:4520  _tokenApprovals */\n      0x02\n        /* \"ERC721/MyERC721.sol\":4505:4529  _tokenApprovals[tokenId] */\n      0x00\n        /* \"ERC721/MyERC721.sol\":4521:4528  tokenId */\n      dup4\n        /* \"ERC721/MyERC721.sol\":4505:4529  _tokenApprovals[tokenId] */\n      dup2\n      mstore\n      0x20\n      add\n      swap1\n      dup2\n      mstore\n      0x20\n      add\n      0x00\n      keccak256\n      0x00\n      swap1\n      sload\n      swap1\n      0x0100\n      exp\n      swap1\n      div\n      0xffffffffffffffffffffffffffffffffffffffff\n      and\n        /* \"ERC721/MyERC721.sol\":4505:4543  _tokenApprovals[tokenId] == msg.sender */\n      0xffffffffffffffffffffffffffffffffffffffff\n      and\n      eq\n        /* \"ERC721/MyERC721.sol\":4497:4559  require(_tokenApprovals[tokenId] == msg.sender,\"not approval\") */\n      tag_112\n      jumpi\n      mload(0x40)\n      0x08c379a000000000000000000000000000000000000000000000000000000000\n      dup2\n      mstore\n      0x04\n      add\n      tag_113\n      swap1\n      tag_102\n      jump\t// in\n    tag_113:\n      mload(0x40)\n      dup1\n      swap2\n      sub\n      swap1\n      revert\n    tag_112:\n        /* \"ERC721/MyERC721.sol\":4592:4593  0 */\n      0x00\n        /* \"ERC721/MyERC721.sol\":4578:4594  to != address(0) */\n      0xffffffffffffffffffffffffffffffffffffffff\n      and\n        /* \"ERC721/MyERC721.sol\":4578:4580  to */\n      dup3\n        /* \"ERC721/MyERC721.sol\":4578:4594  to != address(0) */\n      0xffffffffffffffffffffffffffffffffffffffff\n      and\n      sub\n        /* \"ERC721/MyERC721.sol\":4570:4612  require(to != address(0),\"to not is 0x00\") */\n      tag_114\n      jumpi\n      mload(0x40)\n      0x08c379a000000000000000000000000000000000000000000000000000000000\n      dup2\n      mstore\n      0x04\n      add\n      tag_115\n      swap1\n      tag_105\n      jump\t// in\n    tag_115:\n      mload(0x40)\n      dup1\n      swap2\n      sub\n      swap1\n      revert\n    tag_114:\n        /* \"ERC721/MyERC721.sol\":4647:4648  0 */\n      0x00\n        /* \"ERC721/MyERC721.sol\":4631:4649  from != address(0) */\n      0xffffffffffffffffffffffffffffffffffffffff\n      and\n        /* \"ERC721/MyERC721.sol\":4631:4635  from */\n      dup4\n        /* \"ERC721/MyERC721.sol\":4631:4649  from != address(0) */\n      0xffffffffffffffffffffffffffffffffffffffff\n      and\n      sub\n        /* \"ERC721/MyERC721.sol\":4623:4669  require(from != address(0),\"from not is 0x00\") */\n      tag_116\n      jumpi\n      mload(0x40)\n      0x08c379a000000000000000000000000000000000000000000000000000000000\n      dup2\n      mstore\n      0x04\n      add\n      tag_117\n      swap1\n      tag_108\n      jump\t// in\n    tag_117:\n      mload(0x40)\n      dup1\n      swap2\n      sub\n      swap1\n      revert\n    tag_116:\n        /* \"ERC721/MyERC721.sol\":4680:4708  _transfer(from, to, tokenId) */\n      tag_118\n        /* \"ERC721/MyERC721.sol\":4690:4694  from */\n      dup4\n        /* \"ERC721/MyERC721.sol\":4696:4698  to */\n      dup4\n        /* \"ERC721/MyERC721.sol\":4700:4707  tokenId */\n      dup4\n        /* \"ERC721/MyERC721.sol\":4680:4689  _transfer */\n      tag_110\n        /* \"ERC721/MyERC721.sol\":4680:4708  _transfer(from, to, tokenId) */\n      jump\t// in\n    tag_118:\n        /* \"ERC721/MyERC721.sol\":4719:4761  _checkOnERC721Received(from,to,tokenId,\"\") */\n      tag_119\n        /* \"ERC721/MyERC721.sol\":4742:4746  from */\n      dup4\n        /* \"ERC721/MyERC721.sol\":4747:4749  to */\n      dup4\n        /* \"ERC721/MyERC721.sol\":4750:4757  tokenId */\n      dup4\n        /* \"ERC721/MyERC721.sol\":4719:4761  _checkOnERC721Received(from,to,tokenId,\"\") */\n      mload(0x40)\n      dup1\n      0x20\n      add\n      0x40\n      mstore\n      dup1\n      0x00\n      dup2\n      mstore\n      pop\n        /* \"ERC721/MyERC721.sol\":4719:4741  _checkOnERC721Received */\n      tag_120\n        /* \"ERC721/MyERC721.sol\":4719:4761  _checkOnERC721Received(from,to,tokenId,\"\") */\n      jump\t// in\n    tag_119:\n        /* \"ERC721/MyERC721.sol\":4374:4769  function safeTransferFrom(address from, address to, uint256 tokenId) external{... */\n      pop\n      pop\n      pop\n      jump\t// out\n        /* \"ERC721/MyERC721.sol\":8582:8836  function burn(uint256 tokenId) external {... */\n    tag_50:\n        /* \"ERC721/MyERC721.sol\":8633:8646  address owner */\n      0x00\n        /* \"ERC721/MyERC721.sol\":8649:8656  _owners */\n      0x01\n        /* \"ERC721/MyERC721.sol\":8649:8665  _owners[tokenId] */\n      0x00\n        /* \"ERC721/MyERC721.sol\":8657:8664  tokenId */\n      dup4\n        /* \"ERC721/MyERC721.sol\":8649:8665  _owners[tokenId] */\n      dup2\n      mstore\n      0x20\n      add\n      swap1\n      dup2\n      mstore\n      0x20\n      add\n      0x00\n      keccak256\n      0x00\n      swap1\n      sload\n      swap1\n      0x0100\n      exp\n      swap1\n      div\n      0xffffffffffffffffffffffffffffffffffffffff\n      and\n        /* \"ERC721/MyERC721.sol\":8633:8665  address owner = _owners[tokenId] */\n      swap1\n      pop\n        /* \"ERC721/MyERC721.sol\":8688:8698  msg.sender */\n      caller\n        /* \"ERC721/MyERC721.sol\":8679:8698  owner != msg.sender */\n      0xffffffffffffffffffffffffffffffffffffffff\n      and\n        /* \"ERC721/MyERC721.sol\":8679:8684  owner */\n      dup2\n        /* \"ERC721/MyERC721.sol\":8679:8698  owner != msg.sender */\n      0xffffffffffffffffffffffffffffffffffffffff\n      and\n      eq\n        /* \"ERC721/MyERC721.sol\":8676:8757  if(owner != msg.sender){... */\n      tag_122\n      jumpi\n        /* \"ERC721/MyERC721.sol\":8714:8745  revert (\"tokenId not is owner\") */\n      mload(0x40)\n      0x08c379a000000000000000000000000000000000000000000000000000000000\n      dup2\n      mstore\n      0x04\n      add\n      tag_123\n      swap1\n      tag_98\n      jump\t// in\n    tag_123:\n      mload(0x40)\n      dup1\n      swap2\n      sub\n      swap1\n      revert\n        /* \"ERC721/MyERC721.sol\":8676:8757  if(owner != msg.sender){... */\n    tag_122:\n        /* \"ERC721/MyERC721.sol\":8787:8788  1 */\n      0x01\n        /* \"ERC721/MyERC721.sol\":8767:8776  _balances */\n      0x00\n        /* \"ERC721/MyERC721.sol\":8767:8783  _balances[owner] */\n      0x00\n        /* \"ERC721/MyERC721.sol\":8777:8782  owner */\n      dup4\n        /* \"ERC721/MyERC721.sol\":8767:8783  _balances[owner] */\n      0xffffffffffffffffffffffffffffffffffffffff\n      and\n      0xffffffffffffffffffffffffffffffffffffffff\n      and\n      dup2\n      mstore\n      0x20\n      add\n      swap1\n      dup2\n      mstore\n      0x20\n      add\n      0x00\n      keccak256\n      0x00\n        /* \"ERC721/MyERC721.sol\":8767:8788  _balances[owner] -= 1 */\n      dup3\n      dup3\n      sload\n      tag_124\n      swap2\n      swap1\n      tag_125\n      jump\t// in\n    tag_124:\n      swap3\n      pop\n      pop\n      dup2\n      swap1\n      sstore\n      pop\n        /* \"ERC721/MyERC721.sol\":8826:8827  0 */\n      0x00\n        /* \"ERC721/MyERC721.sol\":8799:8806  _owners */\n      0x01\n        /* \"ERC721/MyERC721.sol\":8799:8815  _owners[tokenId] */\n      0x00\n        /* \"ERC721/MyERC721.sol\":8807:8814  tokenId */\n      dup5\n        /* \"ERC721/MyERC721.sol\":8799:8815  _owners[tokenId] */\n      dup2\n      mstore\n      0x20\n      add\n      swap1\n      dup2\n      mstore\n      0x20\n      add\n      0x00\n      keccak256\n      0x00\n        /* \"ERC721/MyERC721.sol\":8799:8828  _owners[tokenId] = address(0) */\n      0x0100\n      exp\n      dup2\n      sload\n      dup2\n      0xffffffffffffffffffffffffffffffffffffffff\n      mul\n      not\n      and\n      swap1\n      dup4\n      0xffffffffffffffffffffffffffffffffffffffff\n      and\n      mul\n      or\n      swap1\n      sstore\n      pop\n        /* \"ERC721/MyERC721.sol\":8622:8836  {... */\n      pop\n        /* \"ERC721/MyERC721.sol\":8582:8836  function burn(uint256 tokenId) external {... */\n      pop\n      jump\t// out\n        /* \"ERC721/MyERC721.sol\":8479:8574  function saleMint(address to,uint256 tokenId) external {... */\n    tag_53:\n        /* \"ERC721/MyERC721.sol\":8545:8566  _saleMint(to,tokenId) */\n      tag_127\n        /* \"ERC721/MyERC721.sol\":8555:8557  to */\n      dup3\n        /* \"ERC721/MyERC721.sol\":8558:8565  tokenId */\n      dup3\n        /* \"ERC721/MyERC721.sol\":8545:8554  _saleMint */\n      tag_128\n        /* \"ERC721/MyERC721.sol\":8545:8566  _saleMint(to,tokenId) */\n      jump\t// in\n    tag_127:\n        /* \"ERC721/MyERC721.sol\":8479:8574  function saleMint(address to,uint256 tokenId) external {... */\n      pop\n      pop\n      jump\t// out\n        /* \"ERC721/MyERC721.sol\":2475:2588  function ownerOf(uint256 tokenId) external view returns (address owner){... */\n    tag_56:\n        /* \"ERC721/MyERC721.sol\":2532:2545  address owner */\n      0x00\n        /* \"ERC721/MyERC721.sol\":2564:2571  _owners */\n      0x01\n        /* \"ERC721/MyERC721.sol\":2564:2580  _owners[tokenId] */\n      0x00\n        /* \"ERC721/MyERC721.sol\":2572:2579  tokenId */\n      dup4\n        /* \"ERC721/MyERC721.sol\":2564:2580  _owners[tokenId] */\n      dup2\n      mstore\n      0x20\n      add\n      swap1\n      dup2\n      mstore\n      0x20\n      add\n      0x00\n      keccak256\n      0x00\n      swap1\n      sload\n      swap1\n      0x0100\n      exp\n      swap1\n      div\n      0xffffffffffffffffffffffffffffffffffffffff\n      and\n        /* \"ERC721/MyERC721.sol\":2557:2580  return _owners[tokenId] */\n      swap1\n      pop\n        /* \"ERC721/MyERC721.sol\":2475:2588  function ownerOf(uint256 tokenId) external view returns (address owner){... */\n      swap2\n      swap1\n      pop\n      jump\t// out\n        /* \"ERC721/MyERC721.sol\":2118:2324  function balanceOf(address owner) external view returns (uint256 balance){... */\n    tag_61:\n        /* \"ERC721/MyERC721.sol\":2175:2190  uint256 balance */\n      0x00\n        /* \"ERC721/MyERC721.sol\":2224:2225  0 */\n      0x00\n        /* \"ERC721/MyERC721.sol\":2207:2226  owner == address(0) */\n      0xffffffffffffffffffffffffffffffffffffffff\n      and\n        /* \"ERC721/MyERC721.sol\":2207:2212  owner */\n      dup3\n        /* \"ERC721/MyERC721.sol\":2207:2226  owner == address(0) */\n      0xffffffffffffffffffffffffffffffffffffffff\n      and\n      sub\n        /* \"ERC721/MyERC721.sol\":2203:2283  if (owner == address(0)) {... */\n      tag_131\n      jumpi\n        /* \"ERC721/MyERC721.sol\":2243:2271  revert (\"owner not is 0x00\") */\n      mload(0x40)\n      0x08c379a000000000000000000000000000000000000000000000000000000000\n      dup2\n      mstore\n      0x04\n      add\n      tag_132\n      swap1\n      tag_133\n      jump\t// in\n    tag_132:\n      mload(0x40)\n      dup1\n      swap2\n      sub\n      swap1\n      revert\n        /* \"ERC721/MyERC721.sol\":2203:2283  if (owner == address(0)) {... */\n    tag_131:\n        /* \"ERC721/MyERC721.sol\":2300:2309  _balances */\n      0x00\n        /* \"ERC721/MyERC721.sol\":2300:2316  _balances[owner] */\n      0x00\n        /* \"ERC721/MyERC721.sol\":2310:2315  owner */\n      dup4\n        /* \"ERC721/MyERC721.sol\":2300:2316  _balances[owner] */\n      0xffffffffffffffffffffffffffffffffffffffff\n      and\n      0xffffffffffffffffffffffffffffffffffffffff\n      and\n      dup2\n      mstore\n      0x20\n      add\n      swap1\n      dup2\n      mstore\n      0x20\n      add\n      0x00\n      keccak256\n      sload\n        /* \"ERC721/MyERC721.sol\":2293:2316  return _balances[owner] */\n      swap1\n      pop\n        /* \"ERC721/MyERC721.sol\":2118:2324  function balanceOf(address owner) external view returns (uint256 balance){... */\n      swap2\n      swap1\n      pop\n      jump\t// out\n        /* \"ERC721/MyERC721.sol\":1540:1628  function symbol() external view returns (string memory){... */\n    tag_65:\n        /* \"ERC721/MyERC721.sol\":1581:1594  string memory */\n      0x60\n        /* \"ERC721/MyERC721.sol\":1613:1620  _symbol */\n      0x05\n        /* \"ERC721/MyERC721.sol\":1606:1620  return _symbol */\n      dup1\n      sload\n      tag_135\n      swap1\n      tag_89\n      jump\t// in\n    tag_135:\n      dup1\n      0x1f\n      add\n      0x20\n      dup1\n      swap2\n      div\n      mul\n      0x20\n      add\n      mload(0x40)\n      swap1\n      dup2\n      add\n      0x40\n      mstore\n      dup1\n      swap3\n      swap2\n      swap1\n      dup2\n      dup2\n      mstore\n      0x20\n      add\n      dup3\n      dup1\n      sload\n      tag_136\n      swap1\n      tag_89\n      jump\t// in\n    tag_136:\n      dup1\n      iszero\n      tag_137\n      jumpi\n      dup1\n      0x1f\n      lt\n      tag_138\n      jumpi\n      0x0100\n      dup1\n      dup4\n      sload\n      div\n      mul\n      dup4\n      mstore\n      swap2\n      0x20\n      add\n      swap2\n      jump(tag_137)\n    tag_138:\n      dup3\n      add\n      swap2\n      swap1\n      0x00\n      mstore\n      keccak256(0x00, 0x20)\n      swap1\n    tag_139:\n      dup2\n      sload\n      dup2\n      mstore\n      swap1\n      0x01\n      add\n      swap1\n      0x20\n      add\n      dup1\n      dup4\n      gt\n      tag_139\n      jumpi\n      dup3\n      swap1\n      sub\n      0x1f\n      and\n      dup3\n      add\n      swap2\n    tag_137:\n      pop\n      pop\n      pop\n      pop\n      pop\n      swap1\n      pop\n        /* \"ERC721/MyERC721.sol\":1540:1628  function symbol() external view returns (string memory){... */\n      swap1\n      jump\t// out\n        /* \"ERC721/MyERC721.sol\":7191:7458  function setApprovalForAll(address operator, bool approved) external{... */\n    tag_70:\n        /* \"ERC721/MyERC721.sol\":7298:7299  0 */\n      0x00\n        /* \"ERC721/MyERC721.sol\":7278:7300  operator != address(0) */\n      0xffffffffffffffffffffffffffffffffffffffff\n      and\n        /* \"ERC721/MyERC721.sol\":7278:7286  operator */\n      dup3\n        /* \"ERC721/MyERC721.sol\":7278:7300  operator != address(0) */\n      0xffffffffffffffffffffffffffffffffffffffff\n      and\n      sub\n        /* \"ERC721/MyERC721.sol\":7270:7324  require(operator != address(0),\"operator not is 0x00\") */\n      tag_141\n      jumpi\n      mload(0x40)\n      0x08c379a000000000000000000000000000000000000000000000000000000000\n      dup2\n      mstore\n      0x04\n      add\n      tag_142\n      swap1\n      tag_143\n      jump\t// in\n    tag_142:\n      mload(0x40)\n      dup1\n      swap2\n      sub\n      swap1\n      revert\n    tag_141:\n        /* \"ERC721/MyERC721.sol\":7365:7366  0 */\n      0x00\n        /* \"ERC721/MyERC721.sol\":7343:7367  msg.sender != address(0) */\n      0xffffffffffffffffffffffffffffffffffffffff\n      and\n        /* \"ERC721/MyERC721.sol\":7343:7353  msg.sender */\n      caller\n        /* \"ERC721/MyERC721.sol\":7343:7367  msg.sender != address(0) */\n      0xffffffffffffffffffffffffffffffffffffffff\n      and\n      sub\n        /* \"ERC721/MyERC721.sol\":7335:7388  require(msg.sender != address(0),\"owner not is 0x00\") */\n      tag_144\n      jumpi\n      mload(0x40)\n      0x08c379a000000000000000000000000000000000000000000000000000000000\n      dup2\n      mstore\n      0x04\n      add\n      tag_145\n      swap1\n      tag_133\n      jump\t// in\n    tag_145:\n      mload(0x40)\n      dup1\n      swap2\n      sub\n      swap1\n      revert\n    tag_144:\n        /* \"ERC721/MyERC721.sol\":7442:7450  approved */\n      dup1\n        /* \"ERC721/MyERC721.sol\":7399:7417  _operatorApprovals */\n      0x03\n        /* \"ERC721/MyERC721.sol\":7399:7429  _operatorApprovals[msg.sender] */\n      0x00\n        /* \"ERC721/MyERC721.sol\":7418:7428  msg.sender */\n      caller\n        /* \"ERC721/MyERC721.sol\":7399:7429  _operatorApprovals[msg.sender] */\n      0xffffffffffffffffffffffffffffffffffffffff\n      and\n      0xffffffffffffffffffffffffffffffffffffffff\n      and\n      dup2\n      mstore\n      0x20\n      add\n      swap1\n      dup2\n      mstore\n      0x20\n      add\n      0x00\n      keccak256\n        /* \"ERC721/MyERC721.sol\":7399:7439  _operatorApprovals[msg.sender][operator] */\n      0x00\n        /* \"ERC721/MyERC721.sol\":7430:7438  operator */\n      dup5\n        /* \"ERC721/MyERC721.sol\":7399:7439  _operatorApprovals[msg.sender][operator] */\n      0xffffffffffffffffffffffffffffffffffffffff\n      and\n      0xffffffffffffffffffffffffffffffffffffffff\n      and\n      dup2\n      mstore\n      0x20\n      add\n      swap1\n      dup2\n      mstore\n      0x20\n      add\n      0x00\n      keccak256\n      0x00\n        /* \"ERC721/MyERC721.sol\":7399:7450  _operatorApprovals[msg.sender][operator] = approved */\n      0x0100\n      exp\n      dup2\n      sload\n      dup2\n      0xff\n      mul\n      not\n      and\n      swap1\n      dup4\n      iszero\n      iszero\n      mul\n      or\n      swap1\n      sstore\n      pop\n        /* \"ERC721/MyERC721.sol\":7191:7458  function setApprovalForAll(address operator, bool approved) external{... */\n      pop\n      pop\n      jump\t// out\n        /* \"ERC721/MyERC721.sol\":3180:3639  function safeTransferFrom(address from, address to, uint256 tokenId, bytes calldata data) external{... */\n    tag_74:\n        /* \"ERC721/MyERC721.sol\":3356:3366  msg.sender */\n      caller\n        /* \"ERC721/MyERC721.sol\":3328:3366  _tokenApprovals[tokenId] == msg.sender */\n      0xffffffffffffffffffffffffffffffffffffffff\n      and\n        /* \"ERC721/MyERC721.sol\":3328:3343  _tokenApprovals */\n      0x02\n        /* \"ERC721/MyERC721.sol\":3328:3352  _tokenApprovals[tokenId] */\n      0x00\n        /* \"ERC721/MyERC721.sol\":3344:3351  tokenId */\n      dup6\n        /* \"ERC721/MyERC721.sol\":3328:3352  _tokenApprovals[tokenId] */\n      dup2\n      mstore\n      0x20\n      add\n      swap1\n      dup2\n      mstore\n      0x20\n      add\n      0x00\n      keccak256\n      0x00\n      swap1\n      sload\n      swap1\n      0x0100\n      exp\n      swap1\n      div\n      0xffffffffffffffffffffffffffffffffffffffff\n      and\n        /* \"ERC721/MyERC721.sol\":3328:3366  _tokenApprovals[tokenId] == msg.sender */\n      0xffffffffffffffffffffffffffffffffffffffff\n      and\n      eq\n        /* \"ERC721/MyERC721.sol\":3320:3382  require(_tokenApprovals[tokenId] == msg.sender,\"not approval\") */\n      tag_147\n      jumpi\n      mload(0x40)\n      0x08c379a000000000000000000000000000000000000000000000000000000000\n      dup2\n      mstore\n      0x04\n      add\n      tag_148\n      swap1\n      tag_102\n      jump\t// in\n    tag_148:\n      mload(0x40)\n      dup1\n      swap2\n      sub\n      swap1\n      revert\n    tag_147:\n        /* \"ERC721/MyERC721.sol\":3415:3416  0 */\n      0x00\n        /* \"ERC721/MyERC721.sol\":3401:3417  to != address(0) */\n      0xffffffffffffffffffffffffffffffffffffffff\n      and\n        /* \"ERC721/MyERC721.sol\":3401:3403  to */\n      dup5\n        /* \"ERC721/MyERC721.sol\":3401:3417  to != address(0) */\n      0xffffffffffffffffffffffffffffffffffffffff\n      and\n      sub\n        /* \"ERC721/MyERC721.sol\":3393:3435  require(to != address(0),\"to not is 0x00\") */\n      tag_149\n      jumpi\n      mload(0x40)\n      0x08c379a000000000000000000000000000000000000000000000000000000000\n      dup2\n      mstore\n      0x04\n      add\n      tag_150\n      swap1\n      tag_105\n      jump\t// in\n    tag_150:\n      mload(0x40)\n      dup1\n      swap2\n      sub\n      swap1\n      revert\n    tag_149:\n        /* \"ERC721/MyERC721.sol\":3470:3471  0 */\n      0x00\n        /* \"ERC721/MyERC721.sol\":3454:3472  from != address(0) */\n      0xffffffffffffffffffffffffffffffffffffffff\n      and\n        /* \"ERC721/MyERC721.sol\":3454:3458  from */\n      dup6\n        /* \"ERC721/MyERC721.sol\":3454:3472  from != address(0) */\n      0xffffffffffffffffffffffffffffffffffffffff\n      and\n      sub\n        /* \"ERC721/MyERC721.sol\":3446:3492  require(from != address(0),\"from not is 0x00\") */\n      tag_151\n      jumpi\n      mload(0x40)\n      0x08c379a000000000000000000000000000000000000000000000000000000000\n      dup2\n      mstore\n      0x04\n      add\n      tag_152\n      swap1\n      tag_108\n      jump\t// in\n    tag_152:\n      mload(0x40)\n      dup1\n      swap2\n      sub\n      swap1\n      revert\n    tag_151:\n        /* \"ERC721/MyERC721.sol\":3504:3532  _transfer(from, to, tokenId) */\n      tag_153\n        /* \"ERC721/MyERC721.sol\":3514:3518  from */\n      dup6\n        /* \"ERC721/MyERC721.sol\":3520:3522  to */\n      dup6\n        /* \"ERC721/MyERC721.sol\":3524:3531  tokenId */\n      dup6\n        /* \"ERC721/MyERC721.sol\":3504:3513  _transfer */\n      tag_110\n        /* \"ERC721/MyERC721.sol\":3504:3532  _transfer(from, to, tokenId) */\n      jump\t// in\n    tag_153:\n        /* \"ERC721/MyERC721.sol\":3544:3588  _checkOnERC721Received(from,to,tokenId,data) */\n      tag_154\n        /* \"ERC721/MyERC721.sol\":3567:3571  from */\n      dup6\n        /* \"ERC721/MyERC721.sol\":3572:3574  to */\n      dup6\n        /* \"ERC721/MyERC721.sol\":3575:3582  tokenId */\n      dup6\n        /* \"ERC721/MyERC721.sol\":3583:3587  data */\n      dup6\n      dup6\n        /* \"ERC721/MyERC721.sol\":3544:3588  _checkOnERC721Received(from,to,tokenId,data) */\n      dup1\n      dup1\n      0x1f\n      add\n      0x20\n      dup1\n      swap2\n      div\n      mul\n      0x20\n      add\n      mload(0x40)\n      swap1\n      dup2\n      add\n      0x40\n      mstore\n      dup1\n      swap4\n      swap3\n      swap2\n      swap1\n      dup2\n      dup2\n      mstore\n      0x20\n      add\n      dup4\n      dup4\n      dup1\n      dup3\n      dup5\n      calldatacopy\n      0x00\n      dup2\n      dup5\n      add\n      mstore\n      not(0x1f)\n      0x1f\n      dup3\n      add\n      and\n      swap1\n      pop\n      dup1\n      dup4\n      add\n      swap3\n      pop\n      pop\n      pop\n      pop\n      pop\n      pop\n      pop\n        /* \"ERC721/MyERC721.sol\":3544:3566  _checkOnERC721Received */\n      tag_120\n        /* \"ERC721/MyERC721.sol\":3544:3588  _checkOnERC721Received(from,to,tokenId,data) */\n      jump\t// in\n    tag_154:\n        /* \"ERC721/MyERC721.sol\":3623:3630  tokenId */\n      dup3\n        /* \"ERC721/MyERC721.sol\":3619:3621  to */\n      dup5\n        /* \"ERC721/MyERC721.sol\":3604:3631  Transfer(from, to, tokenId) */\n      0xffffffffffffffffffffffffffffffffffffffff\n      and\n        /* \"ERC721/MyERC721.sol\":3613:3617  from */\n      dup7\n        /* \"ERC721/MyERC721.sol\":3604:3631  Transfer(from, to, tokenId) */\n      0xffffffffffffffffffffffffffffffffffffffff\n      and\n      0xddf252ad1be2c89b69c2b068fc378daa952ba7f163c4a11628f55a4df523b3ef\n      mload(0x40)\n      mload(0x40)\n      dup1\n      swap2\n      sub\n      swap1\n      log4\n        /* \"ERC721/MyERC721.sol\":3180:3639  function safeTransferFrom(address from, address to, uint256 tokenId, bytes calldata data) external{... */\n      pop\n      pop\n      pop\n      pop\n      pop\n      jump\t// out\n        /* \"ERC721/MyERC721.sol\":1636:1923  function tokenURI(uint256 tokenId) external view returns (string memory){... */\n    tag_77:\n        /* \"ERC721/MyERC721.sol\":1694:1707  string memory */\n      0x60\n        /* \"ERC721/MyERC721.sol\":1755:1756  0 */\n      0x00\n        /* \"ERC721/MyERC721.sol\":1727:1757  _owners[tokenId] != address(0) */\n      0xffffffffffffffffffffffffffffffffffffffff\n      and\n        /* \"ERC721/MyERC721.sol\":1727:1734  _owners */\n      0x01\n        /* \"ERC721/MyERC721.sol\":1727:1743  _owners[tokenId] */\n      0x00\n        /* \"ERC721/MyERC721.sol\":1735:1742  tokenId */\n      dup5\n        /* \"ERC721/MyERC721.sol\":1727:1743  _owners[tokenId] */\n      dup2\n      mstore\n      0x20\n      add\n      swap1\n      dup2\n      mstore\n      0x20\n      add\n      0x00\n      keccak256\n      0x00\n      swap1\n      sload\n      swap1\n      0x0100\n      exp\n      swap1\n      div\n      0xffffffffffffffffffffffffffffffffffffffff\n      and\n        /* \"ERC721/MyERC721.sol\":1727:1757  _owners[tokenId] != address(0) */\n      0xffffffffffffffffffffffffffffffffffffffff\n      and\n      sub\n        /* \"ERC721/MyERC721.sol\":1719:1777  require(_owners[tokenId] != address(0), \"Token Not Exist\") */\n      tag_156\n      jumpi\n      mload(0x40)\n      0x08c379a000000000000000000000000000000000000000000000000000000000\n      dup2\n      mstore\n      0x04\n      add\n      tag_157\n      swap1\n      tag_158\n      jump\t// in\n    tag_157:\n      mload(0x40)\n      dup1\n      swap2\n      sub\n      swap1\n      revert\n    tag_156:\n        /* \"ERC721/MyERC721.sol\":1788:1809  string memory baseURI */\n      0x00\n        /* \"ERC721/MyERC721.sol\":1812:1822  _baseURI() */\n      tag_159\n        /* \"ERC721/MyERC721.sol\":1812:1820  _baseURI */\n      tag_160\n        /* \"ERC721/MyERC721.sol\":1812:1822  _baseURI() */\n      jump\t// in\n    tag_159:\n        /* \"ERC721/MyERC721.sol\":1788:1822  string memory baseURI = _baseURI() */\n      swap1\n      pop\n        /* \"ERC721/MyERC721.sol\":1864:1865  0 */\n      0x00\n        /* \"ERC721/MyERC721.sol\":1846:1853  baseURI */\n      dup2\n        /* \"ERC721/MyERC721.sol\":1840:1861  bytes(baseURI).length */\n      mload\n        /* \"ERC721/MyERC721.sol\":1840:1865  bytes(baseURI).length > 0 */\n      gt\n        /* \"ERC721/MyERC721.sol\":1840:1915  bytes(baseURI).length > 0 ? string.concat(baseURI, tokenId.toString()) : \"\" */\n      tag_161\n      jumpi\n      mload(0x40)\n      dup1\n      0x20\n      add\n      0x40\n      mstore\n      dup1\n      0x00\n      dup2\n      mstore\n      pop\n      jump(tag_162)\n    tag_161:\n        /* \"ERC721/MyERC721.sol\":1882:1889  baseURI */\n      dup1\n        /* \"ERC721/MyERC721.sol\":1891:1909  tokenId.toString() */\n      tag_163\n        /* \"ERC721/MyERC721.sol\":1891:1898  tokenId */\n      dup5\n        /* \"ERC721/MyERC721.sol\":1891:1907  tokenId.toString */\n      tag_164\n        /* \"ERC721/MyERC721.sol\":1891:1909  tokenId.toString() */\n      jump\t// in\n    tag_163:\n        /* \"ERC721/MyERC721.sol\":1868:1910  string.concat(baseURI, tokenId.toString()) */\n      add(0x20, mload(0x40))\n      tag_165\n      swap3\n      swap2\n      swap1\n      tag_166\n      jump\t// in\n    tag_165:\n      mload(0x40)\n      0x20\n      dup2\n      dup4\n      sub\n      sub\n      dup2\n      mstore\n      swap1\n      0x40\n      mstore\n        /* \"ERC721/MyERC721.sol\":1840:1915  bytes(baseURI).length > 0 ? string.concat(baseURI, tokenId.toString()) : \"\" */\n    tag_162:\n        /* \"ERC721/MyERC721.sol\":1833:1915  return bytes(baseURI).length > 0 ? string.concat(baseURI, tokenId.toString()) : \"\" */\n      swap2\n      pop\n      pop\n        /* \"ERC721/MyERC721.sol\":1636:1923  function tokenURI(uint256 tokenId) external view returns (string memory){... */\n      swap2\n      swap1\n      pop\n      jump\t// out\n        /* \"ERC721/MyERC721.sol\":7903:8051  function isApprovedForAll(address owner, address operator) external view returns (bool){... */\n    tag_82:\n        /* \"ERC721/MyERC721.sol\":7985:7989  bool */\n      0x00\n        /* \"ERC721/MyERC721.sol\":8008:8026  _operatorApprovals */\n      0x03\n        /* \"ERC721/MyERC721.sol\":8008:8033  _operatorApprovals[owner] */\n      0x00\n        /* \"ERC721/MyERC721.sol\":8027:8032  owner */\n      dup5\n        /* \"ERC721/MyERC721.sol\":8008:8033  _operatorApprovals[owner] */\n      0xffffffffffffffffffffffffffffffffffffffff\n      and\n      0xffffffffffffffffffffffffffffffffffffffff\n      and\n      dup2\n      mstore\n      0x20\n      add\n      swap1\n      dup2\n      mstore\n      0x20\n      add\n      0x00\n      keccak256\n        /* \"ERC721/MyERC721.sol\":8008:8043  _operatorApprovals[owner][operator] */\n      0x00\n        /* \"ERC721/MyERC721.sol\":8034:8042  operator */\n      dup4\n        /* \"ERC721/MyERC721.sol\":8008:8043  _operatorApprovals[owner][operator] */\n      0xffffffffffffffffffffffffffffffffffffffff\n      and\n      0xffffffffffffffffffffffffffffffffffffffff\n      and\n      dup2\n      mstore\n      0x20\n      add\n      swap1\n      dup2\n      mstore\n      0x20\n      add\n      0x00\n      keccak256\n      0x00\n      swap1\n      sload\n      swap1\n      0x0100\n      exp\n      swap1\n      div\n      0xff\n      and\n        /* \"ERC721/MyERC721.sol\":8001:8043  return _operatorApprovals[owner][operator] */\n      swap1\n      pop\n        /* \"ERC721/MyERC721.sol\":7903:8051  function isApprovedForAll(address owner, address operator) external view returns (bool){... */\n      swap3\n      swap2\n      pop\n      pop\n      jump\t// out\n        /* \"ERC721/MyERC721.sol\":5873:6151  function _transfer(address from,address to,uint256 tokenId) internal {... */\n    tag_110:\n        /* \"ERC721/MyERC721.sol\":6007:6008  1 */\n      0x01\n        /* \"ERC721/MyERC721.sol\":5988:5997  _balances */\n      0x00\n        /* \"ERC721/MyERC721.sol\":5988:6003  _balances[from] */\n      0x00\n        /* \"ERC721/MyERC721.sol\":5998:6002  from */\n      dup6\n        /* \"ERC721/MyERC721.sol\":5988:6003  _balances[from] */\n      0xffffffffffffffffffffffffffffffffffffffff\n      and\n      0xffffffffffffffffffffffffffffffffffffffff\n      and\n      dup2\n      mstore\n      0x20\n      add\n      swap1\n      dup2\n      mstore\n      0x20\n      add\n      0x00\n      keccak256\n      0x00\n        /* \"ERC721/MyERC721.sol\":5988:6008  _balances[from] -= 1 */\n      dup3\n      dup3\n      sload\n      tag_169\n      swap2\n      swap1\n      tag_125\n      jump\t// in\n    tag_169:\n      swap3\n      pop\n      pop\n      dup2\n      swap1\n      sstore\n      pop\n        /* \"ERC721/MyERC721.sol\":6036:6037  1 */\n      0x01\n        /* \"ERC721/MyERC721.sol\":6019:6028  _balances */\n      0x00\n        /* \"ERC721/MyERC721.sol\":6019:6032  _balances[to] */\n      0x00\n        /* \"ERC721/MyERC721.sol\":6029:6031  to */\n      dup5\n        /* \"ERC721/MyERC721.sol\":6019:6032  _balances[to] */\n      0xffffffffffffffffffffffffffffffffffffffff\n      and\n      0xffffffffffffffffffffffffffffffffffffffff\n      and\n      dup2\n      mstore\n      0x20\n      add\n      swap1\n      dup2\n      mstore\n      0x20\n      add\n      0x00\n      keccak256\n      0x00\n        /* \"ERC721/MyERC721.sol\":6019:6037  _balances[to] += 1 */\n      dup3\n      dup3\n      sload\n      tag_170\n      swap2\n      swap1\n      tag_171\n      jump\t// in\n    tag_170:\n      swap3\n      pop\n      pop\n      dup2\n      swap1\n      sstore\n      pop\n        /* \"ERC721/MyERC721.sol\":6098:6100  to */\n      dup2\n        /* \"ERC721/MyERC721.sol\":6079:6086  _owners */\n      0x01\n        /* \"ERC721/MyERC721.sol\":6079:6095  _owners[tokenId] */\n      0x00\n        /* \"ERC721/MyERC721.sol\":6087:6094  tokenId */\n      dup4\n        /* \"ERC721/MyERC721.sol\":6079:6095  _owners[tokenId] */\n      dup2\n      mstore\n      0x20\n      add\n      swap1\n      dup2\n      mstore\n      0x20\n      add\n      0x00\n      keccak256\n      0x00\n        /* \"ERC721/MyERC721.sol\":6079:6100  _owners[tokenId] = to */\n      0x0100\n      exp\n      dup2\n      sload\n      dup2\n      0xffffffffffffffffffffffffffffffffffffffff\n      mul\n      not\n      and\n      swap1\n      dup4\n      0xffffffffffffffffffffffffffffffffffffffff\n      and\n      mul\n      or\n      swap1\n      sstore\n      pop\n        /* \"ERC721/MyERC721.sol\":6135:6142  tokenId */\n      dup1\n        /* \"ERC721/MyERC721.sol\":6131:6133  to */\n      dup3\n        /* \"ERC721/MyERC721.sol\":6116:6143  Transfer(from, to, tokenId) */\n      0xffffffffffffffffffffffffffffffffffffffff\n      and\n        /* \"ERC721/MyERC721.sol\":6125:6129  from */\n      dup5\n        /* \"ERC721/MyERC721.sol\":6116:6143  Transfer(from, to, tokenId) */\n      0xffffffffffffffffffffffffffffffffffffffff\n      and\n      0xddf252ad1be2c89b69c2b068fc378daa952ba7f163c4a11628f55a4df523b3ef\n      mload(0x40)\n      mload(0x40)\n      dup1\n      swap2\n      sub\n      swap1\n      log4\n        /* \"ERC721/MyERC721.sol\":5873:6151  function _transfer(address from,address to,uint256 tokenId) internal {... */\n      pop\n      pop\n      pop\n      jump\t// out\n        /* \"ERC721/MyERC721.sol\":9002:9799  function _checkOnERC721Received(address from, address to, uint256 tokenId, bytes memory data) private {... */\n    tag_120:\n        /* \"ERC721/MyERC721.sol\":9136:9137  0 */\n      0x00\n        /* \"ERC721/MyERC721.sol\":9119:9121  to */\n      dup4\n        /* \"ERC721/MyERC721.sol\":9119:9133  to.code.length */\n      0xffffffffffffffffffffffffffffffffffffffff\n      and\n      extcodesize\n        /* \"ERC721/MyERC721.sol\":9119:9137  to.code.length > 0 */\n      gt\n        /* \"ERC721/MyERC721.sol\":9115:9792  if (to.code.length > 0) {... */\n      iszero\n      tag_173\n      jumpi\n        /* \"ERC721/MyERC721.sol\":9174:9176  to */\n      dup3\n        /* \"ERC721/MyERC721.sol\":9158:9194  IERC721Receiver(to).onERC721Received */\n      0xffffffffffffffffffffffffffffffffffffffff\n      and\n      0x150b7a02\n        /* \"ERC721/MyERC721.sol\":9195:9205  msg.sender */\n      caller\n        /* \"ERC721/MyERC721.sol\":9207:9211  from */\n      dup7\n        /* \"ERC721/MyERC721.sol\":9213:9220  tokenId */\n      dup6\n        /* \"ERC721/MyERC721.sol\":9222:9226  data */\n      dup6\n        /* \"ERC721/MyERC721.sol\":9158:9227  IERC721Receiver(to).onERC721Received(msg.sender, from, tokenId, data) */\n      mload(0x40)\n      dup6\n      0xffffffff\n      and\n      0xe0\n      shl\n      dup2\n      mstore\n      0x04\n      add\n      tag_174\n      swap5\n      swap4\n      swap3\n      swap2\n      swap1\n      tag_175\n      jump\t// in\n    tag_174:\n      0x20\n      mload(0x40)\n      dup1\n      dup4\n      sub\n      dup2\n      0x00\n      dup8\n      gas\n      call\n      swap3\n      pop\n      pop\n      pop\n      dup1\n      iszero\n      tag_176\n      jumpi\n      pop\n      mload(0x40)\n      returndatasize\n      not(0x1f)\n      0x1f\n      dup3\n      add\n      and\n      dup3\n      add\n      dup1\n      0x40\n      mstore\n      pop\n      dup2\n      add\n      swap1\n      tag_177\n      swap2\n      swap1\n      tag_178\n      jump\t// in\n    tag_177:\n      0x01\n    tag_176:\n        /* \"ERC721/MyERC721.sol\":9154:9781  try IERC721Receiver(to).onERC721Received(msg.sender, from, tokenId, data) returns (bytes4 retval) {... */\n      tag_179\n      jumpi\n      returndatasize\n      dup1\n      0x00\n      dup2\n      eq\n      tag_184\n      jumpi\n      mload(0x40)\n      swap2\n      pop\n      and(add(returndatasize, 0x3f), not(0x1f))\n      dup3\n      add\n      0x40\n      mstore\n      returndatasize\n      dup3\n      mstore\n      returndatasize\n      0x00\n      0x20\n      dup5\n      add\n      returndatacopy\n      jump(tag_183)\n    tag_184:\n      0x60\n      swap2\n      pop\n    tag_183:\n      pop\n        /* \"ERC721/MyERC721.sol\":9487:9488  0 */\n      0x00\n        /* \"ERC721/MyERC721.sol\":9470:9476  reason */\n      dup2\n        /* \"ERC721/MyERC721.sol\":9470:9483  reason.length */\n      mload\n        /* \"ERC721/MyERC721.sol\":9470:9488  reason.length == 0 */\n      sub\n        /* \"ERC721/MyERC721.sol\":9466:9766  if (reason.length == 0) {... */\n      tag_185\n      jumpi\n        /* \"ERC721/MyERC721.sol\":9542:9544  to */\n      dup4\n        /* \"ERC721/MyERC721.sol\":9520:9545  ERC721InvalidReceiver(to) */\n      mload(0x40)\n      0x64a0ae9200000000000000000000000000000000000000000000000000000000\n      dup2\n      mstore\n      0x04\n      add\n      tag_186\n      swap2\n      swap1\n      tag_36\n      jump\t// in\n    tag_186:\n      mload(0x40)\n      dup1\n      swap2\n      sub\n      swap1\n      revert\n        /* \"ERC721/MyERC721.sol\":9466:9766  if (reason.length == 0) {... */\n    tag_185:\n        /* \"ERC721/MyERC721.sol\":9716:9722  reason */\n      dup1\n        /* \"ERC721/MyERC721.sol\":9710:9723  mload(reason) */\n      mload\n        /* \"ERC721/MyERC721.sol\":9701:9707  reason */\n      dup2\n        /* \"ERC721/MyERC721.sol\":9697:9699  32 */\n      0x20\n        /* \"ERC721/MyERC721.sol\":9693:9708  add(32, reason) */\n      add\n        /* \"ERC721/MyERC721.sol\":9686:9724  revert(add(32, reason), mload(reason)) */\n      revert\n        /* \"ERC721/MyERC721.sol\":9154:9781  try IERC721Receiver(to).onERC721Received(msg.sender, from, tokenId, data) returns (bytes4 retval) {... */\n    tag_179:\n        /* \"ERC721/MyERC721.sol\":9285:9326  IERC721Receiver.onERC721Received.selector */\n      shl(0xe0, 0x150b7a02)\n        /* \"ERC721/MyERC721.sol\":9275:9326  retval != IERC721Receiver.onERC721Received.selector */\n      not(0xffffffffffffffffffffffffffffffffffffffffffffffffffffffff)\n      and\n        /* \"ERC721/MyERC721.sol\":9275:9281  retval */\n      dup2\n        /* \"ERC721/MyERC721.sol\":9275:9326  retval != IERC721Receiver.onERC721Received.selector */\n      not(0xffffffffffffffffffffffffffffffffffffffffffffffffffffffff)\n      and\n      eq\n        /* \"ERC721/MyERC721.sol\":9271:9403  if (retval != IERC721Receiver.onERC721Received.selector) {... */\n      tag_189\n      jumpi\n        /* \"ERC721/MyERC721.sol\":9380:9382  to */\n      dup4\n        /* \"ERC721/MyERC721.sol\":9358:9383  ERC721InvalidReceiver(to) */\n      mload(0x40)\n      0x64a0ae9200000000000000000000000000000000000000000000000000000000\n      dup2\n      mstore\n      0x04\n      add\n      tag_190\n      swap2\n      swap1\n      tag_36\n      jump\t// in\n    tag_190:\n      mload(0x40)\n      dup1\n      swap2\n      sub\n      swap1\n      revert\n        /* \"ERC721/MyERC721.sol\":9271:9403  if (retval != IERC721Receiver.onERC721Received.selector) {... */\n    tag_189:\n        /* \"ERC721/MyERC721.sol\":9228:9418  returns (bytes4 retval) {... */\n      pop\n        /* \"ERC721/MyERC721.sol\":9115:9792  if (to.code.length > 0) {... */\n    tag_173:\n        /* \"ERC721/MyERC721.sol\":9002:9799  function _checkOnERC721Received(address from, address to, uint256 tokenId, bytes memory data) private {... */\n      pop\n      pop\n      pop\n      pop\n      jump\t// out\n        /* \"ERC721/MyERC721.sol\":8320:8471  function _saleMint(address to,uint256 tokenId) internal {... */\n    tag_128:\n        /* \"ERC721/MyERC721.sol\":8387:8404  _mint(to,tokenId) */\n      tag_192\n        /* \"ERC721/MyERC721.sol\":8393:8395  to */\n      dup3\n        /* \"ERC721/MyERC721.sol\":8396:8403  tokenId */\n      dup3\n        /* \"ERC721/MyERC721.sol\":8387:8392  _mint */\n      tag_193\n        /* \"ERC721/MyERC721.sol\":8387:8404  _mint(to,tokenId) */\n      jump\t// in\n    tag_192:\n        /* \"ERC721/MyERC721.sol\":8415:8463  _checkOnERC721Received(msg.sender,to,tokenId,\"\") */\n      tag_194\n        /* \"ERC721/MyERC721.sol\":8438:8448  msg.sender */\n      caller\n        /* \"ERC721/MyERC721.sol\":8449:8451  to */\n      dup4\n        /* \"ERC721/MyERC721.sol\":8452:8459  tokenId */\n      dup4\n        /* \"ERC721/MyERC721.sol\":8415:8463  _checkOnERC721Received(msg.sender,to,tokenId,\"\") */\n      mload(0x40)\n      dup1\n      0x20\n      add\n      0x40\n      mstore\n      dup1\n      0x00\n      dup2\n      mstore\n      pop\n        /* \"ERC721/MyERC721.sol\":8415:8437  _checkOnERC721Received */\n      tag_120\n        /* \"ERC721/MyERC721.sol\":8415:8463  _checkOnERC721Received(msg.sender,to,tokenId,\"\") */\n      jump\t// in\n    tag_194:\n        /* \"ERC721/MyERC721.sol\":8320:8471  function _saleMint(address to,uint256 tokenId) internal {... */\n      pop\n      pop\n      jump\t// out\n        /* \"ERC721/MyERC721.sol\":1931:2025  function _baseURI() internal view virtual returns (string memory) {... */\n    tag_160:\n        /* \"ERC721/MyERC721.sol\":1982:1995  string memory */\n      0x60\n        /* \"ERC721/MyERC721.sol\":2008:2017  return \"\" */\n      mload(0x40)\n      dup1\n      0x20\n      add\n      0x40\n      mstore\n      dup1\n      0x00\n      dup2\n      mstore\n      pop\n      swap1\n      pop\n        /* \"ERC721/MyERC721.sol\":1931:2025  function _baseURI() internal view virtual returns (string memory) {... */\n      swap1\n      jump\t// out\n        /* \"ERC721/String.sol\":408:1131  function toString(uint256 value) internal pure returns (string memory) {... */\n    tag_164:\n        /* \"ERC721/String.sol\":464:477  string memory */\n      0x60\n        /* \"ERC721/String.sol\":694:695  0 */\n      0x00\n        /* \"ERC721/String.sol\":685:690  value */\n      dup3\n        /* \"ERC721/String.sol\":685:695  value == 0 */\n      sub\n        /* \"ERC721/String.sol\":681:734  if (value == 0) {... */\n      tag_197\n      jumpi\n        /* \"ERC721/String.sol\":712:722  return \"0\" */\n      mload(0x40)\n      dup1\n      0x40\n      add\n      0x40\n      mstore\n      dup1\n      0x01\n      dup2\n      mstore\n      0x20\n      add\n      0x3000000000000000000000000000000000000000000000000000000000000000\n      dup2\n      mstore\n      pop\n      swap1\n      pop\n      jump(tag_196)\n        /* \"ERC721/String.sol\":681:734  if (value == 0) {... */\n    tag_197:\n        /* \"ERC721/String.sol\":744:756  uint256 temp */\n      0x00\n        /* \"ERC721/String.sol\":759:764  value */\n      dup3\n        /* \"ERC721/String.sol\":744:764  uint256 temp = value */\n      swap1\n      pop\n        /* \"ERC721/String.sol\":775:789  uint256 digits */\n      0x00\n        /* \"ERC721/String.sol\":800:878  while (temp != 0) {... */\n    tag_198:\n        /* \"ERC721/String.sol\":815:816  0 */\n      0x00\n        /* \"ERC721/String.sol\":807:811  temp */\n      dup3\n        /* \"ERC721/String.sol\":807:816  temp != 0 */\n      eq\n        /* \"ERC721/String.sol\":800:878  while (temp != 0) {... */\n      tag_199\n      jumpi\n        /* \"ERC721/String.sol\":833:841  digits++ */\n      dup1\n      dup1\n      tag_200\n      swap1\n      tag_201\n      jump\t// in\n    tag_200:\n      swap2\n      pop\n      pop\n        /* \"ERC721/String.sol\":864:866  10 */\n      0x0a\n        /* \"ERC721/String.sol\":856:866  temp /= 10 */\n      dup3\n      tag_202\n      swap2\n      swap1\n      tag_203\n      jump\t// in\n    tag_202:\n      swap2\n      pop\n        /* \"ERC721/String.sol\":800:878  while (temp != 0) {... */\n      jump(tag_198)\n    tag_199:\n        /* \"ERC721/String.sol\":888:907  bytes memory buffer */\n      0x00\n        /* \"ERC721/String.sol\":920:926  digits */\n      dup2\n        /* \"ERC721/String.sol\":910:927  new bytes(digits) */\n      0xffffffffffffffff\n      dup2\n      gt\n      iszero\n      tag_204\n      jumpi\n      tag_205\n      tag_206\n      jump\t// in\n    tag_205:\n    tag_204:\n      mload(0x40)\n      swap1\n      dup1\n      dup3\n      mstore\n      dup1\n      0x1f\n      add\n      not(0x1f)\n      and\n      0x20\n      add\n      dup3\n      add\n      0x40\n      mstore\n      dup1\n      iszero\n      tag_207\n      jumpi\n      dup2\n      0x20\n      add\n      0x01\n      dup3\n      mul\n      dup1\n      calldatasize\n      dup4\n      calldatacopy\n      dup1\n      dup3\n      add\n      swap2\n      pop\n      pop\n      swap1\n      pop\n    tag_207:\n      pop\n        /* \"ERC721/String.sol\":888:927  bytes memory buffer = new bytes(digits) */\n      swap1\n      pop\n        /* \"ERC721/String.sol\":938:1092  while (value != 0) {... */\n    tag_208:\n        /* \"ERC721/String.sol\":954:955  0 */\n      0x00\n        /* \"ERC721/String.sol\":945:950  value */\n      dup6\n        /* \"ERC721/String.sol\":945:955  value != 0 */\n      eq\n        /* \"ERC721/String.sol\":938:1092  while (value != 0) {... */\n      tag_209\n      jumpi\n        /* \"ERC721/String.sol\":982:983  1 */\n      0x01\n        /* \"ERC721/String.sol\":972:983  digits -= 1 */\n      dup3\n      tag_210\n      swap2\n      swap1\n      tag_125\n      jump\t// in\n    tag_210:\n      swap2\n      pop\n        /* \"ERC721/String.sol\":1049:1051  10 */\n      0x0a\n        /* \"ERC721/String.sol\":1041:1046  value */\n      dup6\n        /* \"ERC721/String.sol\":1041:1051  value % 10 */\n      tag_211\n      swap2\n      swap1\n      tag_212\n      jump\t// in\n    tag_211:\n        /* \"ERC721/String.sol\":1028:1030  48 */\n      0x30\n        /* \"ERC721/String.sol\":1028:1052  48 + uint256(value % 10) */\n      tag_213\n      swap2\n      swap1\n      tag_171\n      jump\t// in\n    tag_213:\n        /* \"ERC721/String.sol\":1015:1054  bytes1(uint8(48 + uint256(value % 10))) */\n      0xf8\n      shl\n        /* \"ERC721/String.sol\":998:1004  buffer */\n      dup2\n        /* \"ERC721/String.sol\":1005:1011  digits */\n      dup4\n        /* \"ERC721/String.sol\":998:1012  buffer[digits] */\n      dup2\n      mload\n      dup2\n      lt\n      tag_214\n      jumpi\n      tag_215\n      tag_216\n      jump\t// in\n    tag_215:\n    tag_214:\n      0x20\n      add\n      add\n        /* \"ERC721/String.sol\":998:1054  buffer[digits] = bytes1(uint8(48 + uint256(value % 10))) */\n      swap1\n      not(0xffffffffffffffffffffffffffffffffffffffffffffffffffffffffffffff)\n      and\n      swap1\n      dup2\n      0x00\n      byte\n      swap1\n      mstore8\n      pop\n        /* \"ERC721/String.sol\":1078:1080  10 */\n      0x0a\n        /* \"ERC721/String.sol\":1069:1080  value /= 10 */\n      dup6\n      tag_217\n      swap2\n      swap1\n      tag_203\n      jump\t// in\n    tag_217:\n      swap5\n      pop\n        /* \"ERC721/String.sol\":938:1092  while (value != 0) {... */\n      jump(tag_208)\n    tag_209:\n        /* \"ERC721/String.sol\":1116:1122  buffer */\n      dup1\n        /* \"ERC721/String.sol\":1102:1123  return string(buffer) */\n      swap4\n      pop\n      pop\n      pop\n      pop\n        /* \"ERC721/String.sol\":408:1131  function toString(uint256 value) internal pure returns (string memory) {... */\n    tag_196:\n      swap2\n      swap1\n      pop\n      jump\t// out\n        /* \"ERC721/MyERC721.sol\":8059:8312  function _mint(address to, uint256 tokenId) internal {... */\n    tag_193:\n        /* \"ERC721/MyERC721.sol\":8140:8141  0 */\n      0x00\n        /* \"ERC721/MyERC721.sol\":8126:8142  to == address(0) */\n      0xffffffffffffffffffffffffffffffffffffffff\n      and\n        /* \"ERC721/MyERC721.sol\":8126:8128  to */\n      dup3\n        /* \"ERC721/MyERC721.sol\":8126:8142  to == address(0) */\n      0xffffffffffffffffffffffffffffffffffffffff\n      and\n      sub\n        /* \"ERC721/MyERC721.sol\":8123:8195  if(to == address(0)){... */\n      tag_219\n      jumpi\n        /* \"ERC721/MyERC721.sol\":8158:8183  revert (\"to not is 0x00\") */\n      mload(0x40)\n      0x08c379a000000000000000000000000000000000000000000000000000000000\n      dup2\n      mstore\n      0x04\n      add\n      tag_220\n      swap1\n      tag_105\n      jump\t// in\n    tag_220:\n      mload(0x40)\n      dup1\n      swap2\n      sub\n      swap1\n      revert\n        /* \"ERC721/MyERC721.sol\":8123:8195  if(to == address(0)){... */\n    tag_219:\n        /* \"ERC721/MyERC721.sol\":8222:8223  1 */\n      0x01\n        /* \"ERC721/MyERC721.sol\":8205:8214  _balances */\n      0x00\n        /* \"ERC721/MyERC721.sol\":8205:8218  _balances[to] */\n      0x00\n        /* \"ERC721/MyERC721.sol\":8215:8217  to */\n      dup5\n        /* \"ERC721/MyERC721.sol\":8205:8218  _balances[to] */\n      0xffffffffffffffffffffffffffffffffffffffff\n      and\n      0xffffffffffffffffffffffffffffffffffffffff\n      and\n      dup2\n      mstore\n      0x20\n      add\n      swap1\n      dup2\n      mstore\n      0x20\n      add\n      0x00\n      keccak256\n      0x00\n        /* \"ERC721/MyERC721.sol\":8205:8223  _balances[to] += 1 */\n      dup3\n      dup3\n      sload\n      tag_221\n      swap2\n      swap1\n      tag_171\n      jump\t// in\n    tag_221:\n      swap3\n      pop\n      pop\n      dup2\n      swap1\n      sstore\n      pop\n        /* \"ERC721/MyERC721.sol\":8253:8255  to */\n      dup2\n        /* \"ERC721/MyERC721.sol\":8234:8241  _owners */\n      0x01\n        /* \"ERC721/MyERC721.sol\":8234:8250  _owners[tokenId] */\n      0x00\n        /* \"ERC721/MyERC721.sol\":8242:8249  tokenId */\n      dup4\n        /* \"ERC721/MyERC721.sol\":8234:8250  _owners[tokenId] */\n      dup2\n      mstore\n      0x20\n      add\n      swap1\n      dup2\n      mstore\n      0x20\n      add\n      0x00\n      keccak256\n      0x00\n        /* \"ERC721/MyERC721.sol\":8234:8255  _owners[tokenId] = to */\n      0x0100\n      exp\n      dup2\n      sload\n      dup2\n      0xffffffffffffffffffffffffffffffffffffffff\n      mul\n      not\n      and\n      swap1\n      dup4\n      0xffffffffffffffffffffffffffffffffffffffff\n      and\n      mul\n      or\n      swap1\n      sstore\n      pop\n        /* \"ERC721/MyERC721.sol\":8296:8303  tokenId */\n      dup1\n        /* \"ERC721/MyERC721.sol\":8292:8294  to */\n      dup3\n        /* \"ERC721/MyERC721.sol\":8271:8304  Transfer(address(0), to, tokenId) */\n      0xffffffffffffffffffffffffffffffffffffffff\n      and\n        /* \"ERC721/MyERC721.sol\":8288:8289  0 */\n      0x00\n        /* \"ERC721/MyERC721.sol\":8271:8304  Transfer(address(0), to, tokenId) */\n      0xffffffffffffffffffffffffffffffffffffffff\n      and\n      0xddf252ad1be2c89b69c2b068fc378daa952ba7f163c4a11628f55a4df523b3ef\n      mload(0x40)\n      mload(0x40)\n      dup1\n      swap2\n      sub\n      swap1\n      log4\n        /* \"ERC721/MyERC721.sol\":8059:8312  function _mint(address to, uint256 tokenId) internal {... */\n      pop\n      pop\n      jump\t// out\n        /* \"#utility.yul\":88:205   */\n    tag_223:\n        /* \"#utility.yul\":197:198   */\n      0x00\n        /* \"#utility.yul\":194:195   */\n      0x00\n        /* \"#utility.yul\":187:199   */\n      revert\n        /* \"#utility.yul\":211:328   */\n    tag_224:\n        /* \"#utility.yul\":320:321   */\n      0x00\n        /* \"#utility.yul\":317:318   */\n      0x00\n        /* \"#utility.yul\":310:322   */\n      revert\n        /* \"#utility.yul\":334:483   */\n    tag_225:\n        /* \"#utility.yul\":370:377   */\n      0x00\n        /* \"#utility.yul\":410:476   */\n      0xffffffff00000000000000000000000000000000000000000000000000000000\n        /* \"#utility.yul\":403:408   */\n      dup3\n        /* \"#utility.yul\":399:477   */\n      and\n        /* \"#utility.yul\":388:477   */\n      swap1\n      pop\n        /* \"#utility.yul\":334:483   */\n      swap2\n      swap1\n      pop\n      jump\t// out\n        /* \"#utility.yul\":489:609   */\n    tag_226:\n        /* \"#utility.yul\":561:584   */\n      tag_279\n        /* \"#utility.yul\":578:583   */\n      dup2\n        /* \"#utility.yul\":561:584   */\n      tag_225\n      jump\t// in\n    tag_279:\n        /* \"#utility.yul\":554:559   */\n      dup2\n        /* \"#utility.yul\":551:585   */\n      eq\n        /* \"#utility.yul\":541:603   */\n      tag_280\n      jumpi\n        /* \"#utility.yul\":599:600   */\n      0x00\n        /* \"#utility.yul\":596:597   */\n      0x00\n        /* \"#utility.yul\":589:601   */\n      revert\n        /* \"#utility.yul\":541:603   */\n    tag_280:\n        /* \"#utility.yul\":489:609   */\n      pop\n      jump\t// out\n        /* \"#utility.yul\":615:752   */\n    tag_227:\n        /* \"#utility.yul\":660:665   */\n      0x00\n        /* \"#utility.yul\":698:704   */\n      dup2\n        /* \"#utility.yul\":685:705   */\n      calldataload\n        /* \"#utility.yul\":676:705   */\n      swap1\n      pop\n        /* \"#utility.yul\":714:746   */\n      tag_282\n        /* \"#utility.yul\":740:745   */\n      dup2\n        /* \"#utility.yul\":714:746   */\n      tag_226\n      jump\t// in\n    tag_282:\n        /* \"#utility.yul\":615:752   */\n      swap3\n      swap2\n      pop\n      pop\n      jump\t// out\n        /* \"#utility.yul\":758:1085   */\n    tag_23:\n        /* \"#utility.yul\":816:822   */\n      0x00\n        /* \"#utility.yul\":865:867   */\n      0x20\n        /* \"#utility.yul\":853:862   */\n      dup3\n        /* \"#utility.yul\":844:851   */\n      dup5\n        /* \"#utility.yul\":840:863   */\n      sub\n        /* \"#utility.yul\":836:868   */\n      slt\n        /* \"#utility.yul\":833:952   */\n      iszero\n      tag_284\n      jumpi\n        /* \"#utility.yul\":871:950   */\n      tag_285\n      tag_223\n      jump\t// in\n    tag_285:\n        /* \"#utility.yul\":833:952   */\n    tag_284:\n        /* \"#utility.yul\":991:992   */\n      0x00\n        /* \"#utility.yul\":1016:1068   */\n      tag_286\n        /* \"#utility.yul\":1060:1067   */\n      dup5\n        /* \"#utility.yul\":1051:1057   */\n      dup3\n        /* \"#utility.yul\":1040:1049   */\n      dup6\n        /* \"#utility.yul\":1036:1058   */\n      add\n        /* \"#utility.yul\":1016:1068   */\n      tag_227\n      jump\t// in\n    tag_286:\n        /* \"#utility.yul\":1006:1068   */\n      swap2\n      pop\n        /* \"#utility.yul\":962:1078   */\n      pop\n        /* \"#utility.yul\":758:1085   */\n      swap3\n      swap2\n      pop\n      pop\n      jump\t// out\n        /* \"#utility.yul\":1091:1181   */\n    tag_228:\n        /* \"#utility.yul\":1125:1132   */\n      0x00\n        /* \"#utility.yul\":1168:1173   */\n      dup2\n        /* \"#utility.yul\":1161:1174   */\n      iszero\n        /* \"#utility.yul\":1154:1175   */\n      iszero\n        /* \"#utility.yul\":1143:1175   */\n      swap1\n      pop\n        /* \"#utility.yul\":1091:1181   */\n      swap2\n      swap1\n      pop\n      jump\t// out\n        /* \"#utility.yul\":1187:1296   */\n    tag_229:\n        /* \"#utility.yul\":1268:1289   */\n      tag_289\n        /* \"#utility.yul\":1283:1288   */\n      dup2\n        /* \"#utility.yul\":1268:1289   */\n      tag_228\n      jump\t// in\n    tag_289:\n        /* \"#utility.yul\":1263:1266   */\n      dup3\n        /* \"#utility.yul\":1256:1290   */\n      mstore\n        /* \"#utility.yul\":1187:1296   */\n      pop\n      pop\n      jump\t// out\n        /* \"#utility.yul\":1302:1512   */\n    tag_26:\n        /* \"#utility.yul\":1389:1393   */\n      0x00\n        /* \"#utility.yul\":1427:1429   */\n      0x20\n        /* \"#utility.yul\":1416:1425   */\n      dup3\n        /* \"#utility.yul\":1412:1430   */\n      add\n        /* \"#utility.yul\":1404:1430   */\n      swap1\n      pop\n        /* \"#utility.yul\":1440:1505   */\n      tag_291\n        /* \"#utility.yul\":1502:1503   */\n      0x00\n        /* \"#utility.yul\":1491:1500   */\n      dup4\n        /* \"#utility.yul\":1487:1504   */\n      add\n        /* \"#utility.yul\":1478:1484   */\n      dup5\n        /* \"#utility.yul\":1440:1505   */\n      tag_229\n      jump\t// in\n    tag_291:\n        /* \"#utility.yul\":1302:1512   */\n      swap3\n      swap2\n      pop\n      pop\n      jump\t// out\n        /* \"#utility.yul\":1518:1617   */\n    tag_230:\n        /* \"#utility.yul\":1570:1576   */\n      0x00\n        /* \"#utility.yul\":1604:1609   */\n      dup2\n        /* \"#utility.yul\":1598:1610   */\n      mload\n        /* \"#utility.yul\":1588:1610   */\n      swap1\n      pop\n        /* \"#utility.yul\":1518:1617   */\n      swap2\n      swap1\n      pop\n      jump\t// out\n        /* \"#utility.yul\":1623:1792   */\n    tag_231:\n        /* \"#utility.yul\":1707:1718   */\n      0x00\n        /* \"#utility.yul\":1741:1747   */\n      dup3\n        /* \"#utility.yul\":1736:1739   */\n      dup3\n        /* \"#utility.yul\":1729:1748   */\n      mstore\n        /* \"#utility.yul\":1781:1785   */\n      0x20\n        /* \"#utility.yul\":1776:1779   */\n      dup3\n        /* \"#utility.yul\":1772:1786   */\n      add\n        /* \"#utility.yul\":1757:1786   */\n      swap1\n      pop\n        /* \"#utility.yul\":1623:1792   */\n      swap3\n      swap2\n      pop\n      pop\n      jump\t// out\n        /* \"#utility.yul\":1798:1937   */\n    tag_232:\n        /* \"#utility.yul\":1887:1893   */\n      dup3\n        /* \"#utility.yul\":1882:1885   */\n      dup2\n        /* \"#utility.yul\":1877:1880   */\n      dup4\n        /* \"#utility.yul\":1871:1894   */\n      mcopy\n        /* \"#utility.yul\":1928:1929   */\n      0x00\n        /* \"#utility.yul\":1919:1925   */\n      dup4\n        /* \"#utility.yul\":1914:1917   */\n      dup4\n        /* \"#utility.yul\":1910:1926   */\n      add\n        /* \"#utility.yul\":1903:1930   */\n      mstore\n        /* \"#utility.yul\":1798:1937   */\n      pop\n      pop\n      pop\n      jump\t// out\n        /* \"#utility.yul\":1943:2045   */\n    tag_233:\n        /* \"#utility.yul\":1984:1990   */\n      0x00\n        /* \"#utility.yul\":2035:2037   */\n      0x1f\n        /* \"#utility.yul\":2031:2038   */\n      not\n        /* \"#utility.yul\":2026:2028   */\n      0x1f\n        /* \"#utility.yul\":2019:2024   */\n      dup4\n        /* \"#utility.yul\":2015:2029   */\n      add\n        /* \"#utility.yul\":2011:2039   */\n      and\n        /* \"#utility.yul\":2001:2039   */\n      swap1\n      pop\n        /* \"#utility.yul\":1943:2045   */\n      swap2\n      swap1\n      pop\n      jump\t// out\n        /* \"#utility.yul\":2051:2428   */\n    tag_234:\n        /* \"#utility.yul\":2139:2142   */\n      0x00\n        /* \"#utility.yul\":2167:2206   */\n      tag_297\n        /* \"#utility.yul\":2200:2205   */\n      dup3\n        /* \"#utility.yul\":2167:2206   */\n      tag_230\n      jump\t// in\n    tag_297:\n        /* \"#utility.yul\":2222:2293   */\n      tag_298\n        /* \"#utility.yul\":2286:2292   */\n      dup2\n        /* \"#utility.yul\":2281:2284   */\n      dup6\n        /* \"#utility.yul\":2222:2293   */\n      tag_231\n      jump\t// in\n    tag_298:\n        /* \"#utility.yul\":2215:2293   */\n      swap4\n      pop\n        /* \"#utility.yul\":2302:2367   */\n      tag_299\n        /* \"#utility.yul\":2360:2366   */\n      dup2\n        /* \"#utility.yul\":2355:2358   */\n      dup6\n        /* \"#utility.yul\":2348:2352   */\n      0x20\n        /* \"#utility.yul\":2341:2346   */\n      dup7\n        /* \"#utility.yul\":2337:2353   */\n      add\n        /* \"#utility.yul\":2302:2367   */\n      tag_232\n      jump\t// in\n    tag_299:\n        /* \"#utility.yul\":2392:2421   */\n      tag_300\n        /* \"#utility.yul\":2414:2420   */\n      dup2\n        /* \"#utility.yul\":2392:2421   */\n      tag_233\n      jump\t// in\n    tag_300:\n        /* \"#utility.yul\":2387:2390   */\n      dup5\n        /* \"#utility.yul\":2383:2422   */\n      add\n        /* \"#utility.yul\":2376:2422   */\n      swap2\n      pop\n        /* \"#utility.yul\":2143:2428   */\n      pop\n        /* \"#utility.yul\":2051:2428   */\n      swap3\n      swap2\n      pop\n      pop\n      jump\t// out\n        /* \"#utility.yul\":2434:2747   */\n    tag_30:\n        /* \"#utility.yul\":2547:2551   */\n      0x00\n        /* \"#utility.yul\":2585:2587   */\n      0x20\n        /* \"#utility.yul\":2574:2583   */\n      dup3\n        /* \"#utility.yul\":2570:2588   */\n      add\n        /* \"#utility.yul\":2562:2588   */\n      swap1\n      pop\n        /* \"#utility.yul\":2634:2643   */\n      dup2\n        /* \"#utility.yul\":2628:2632   */\n      dup2\n        /* \"#utility.yul\":2624:2644   */\n      sub\n        /* \"#utility.yul\":2620:2621   */\n      0x00\n        /* \"#utility.yul\":2609:2618   */\n      dup4\n        /* \"#utility.yul\":2605:2622   */\n      add\n        /* \"#utility.yul\":2598:2645   */\n      mstore\n        /* \"#utility.yul\":2662:2740   */\n      tag_302\n        /* \"#utility.yul\":2735:2739   */\n      dup2\n        /* \"#utility.yul\":2726:2732   */\n      dup5\n        /* \"#utility.yul\":2662:2740   */\n      tag_234\n      jump\t// in\n    tag_302:\n        /* \"#utility.yul\":2654:2740   */\n      swap1\n      pop\n        /* \"#utility.yul\":2434:2747   */\n      swap3\n      swap2\n      pop\n      pop\n      jump\t// out\n        /* \"#utility.yul\":2753:2830   */\n    tag_235:\n        /* \"#utility.yul\":2790:2797   */\n      0x00\n        /* \"#utility.yul\":2819:2824   */\n      dup2\n        /* \"#utility.yul\":2808:2824   */\n      swap1\n      pop\n        /* \"#utility.yul\":2753:2830   */\n      swap2\n      swap1\n      pop\n      jump\t// out\n        /* \"#utility.yul\":2836:2958   */\n    tag_236:\n        /* \"#utility.yul\":2909:2933   */\n      tag_305\n        /* \"#utility.yul\":2927:2932   */\n      dup2\n        /* \"#utility.yul\":2909:2933   */\n      tag_235\n      jump\t// in\n    tag_305:\n        /* \"#utility.yul\":2902:2907   */\n      dup2\n        /* \"#utility.yul\":2899:2934   */\n      eq\n        /* \"#utility.yul\":2889:2952   */\n      tag_306\n      jumpi\n        /* \"#utility.yul\":2948:2949   */\n      0x00\n        /* \"#utility.yul\":2945:2946   */\n      0x00\n        /* \"#utility.yul\":2938:2950   */\n      revert\n        /* \"#utility.yul\":2889:2952   */\n    tag_306:\n        /* \"#utility.yul\":2836:2958   */\n      pop\n      jump\t// out\n        /* \"#utility.yul\":2964:3103   */\n    tag_237:\n        /* \"#utility.yul\":3010:3015   */\n      0x00\n        /* \"#utility.yul\":3048:3054   */\n      dup2\n        /* \"#utility.yul\":3035:3055   */\n      calldataload\n        /* \"#utility.yul\":3026:3055   */\n      swap1\n      pop\n        /* \"#utility.yul\":3064:3097   */\n      tag_308\n        /* \"#utility.yul\":3091:3096   */\n      dup2\n        /* \"#utility.yul\":3064:3097   */\n      tag_236\n      jump\t// in\n    tag_308:\n        /* \"#utility.yul\":2964:3103   */\n      swap3\n      swap2\n      pop\n      pop\n      jump\t// out\n        /* \"#utility.yul\":3109:3438   */\n    tag_33:\n        /* \"#utility.yul\":3168:3174   */\n      0x00\n        /* \"#utility.yul\":3217:3219   */\n      0x20\n        /* \"#utility.yul\":3205:3214   */\n      dup3\n        /* \"#utility.yul\":3196:3203   */\n      dup5\n        /* \"#utility.yul\":3192:3215   */\n      sub\n        /* \"#utility.yul\":3188:3220   */\n      slt\n        /* \"#utility.yul\":3185:3304   */\n      iszero\n      tag_310\n      jumpi\n        /* \"#utility.yul\":3223:3302   */\n      tag_311\n      tag_223\n      jump\t// in\n    tag_311:\n        /* \"#utility.yul\":3185:3304   */\n    tag_310:\n        /* \"#utility.yul\":3343:3344   */\n      0x00\n        /* \"#utility.yul\":3368:3421   */\n      tag_312\n        /* \"#utility.yul\":3413:3420   */\n      dup5\n        /* \"#utility.yul\":3404:3410   */\n      dup3\n        /* \"#utility.yul\":3393:3402   */\n      dup6\n        /* \"#utility.yul\":3389:3411   */\n      add\n        /* \"#utility.yul\":3368:3421   */\n      tag_237\n      jump\t// in\n    tag_312:\n        /* \"#utility.yul\":3358:3421   */\n      swap2\n      pop\n        /* \"#utility.yul\":3314:3431   */\n      pop\n        /* \"#utility.yul\":3109:3438   */\n      swap3\n      swap2\n      pop\n      pop\n      jump\t// out\n        /* \"#utility.yul\":3444:3570   */\n    tag_238:\n        /* \"#utility.yul\":3481:3488   */\n      0x00\n        /* \"#utility.yul\":3521:3563   */\n      0xffffffffffffffffffffffffffffffffffffffff\n        /* \"#utility.yul\":3514:3519   */\n      dup3\n        /* \"#utility.yul\":3510:3564   */\n      and\n        /* \"#utility.yul\":3499:3564   */\n      swap1\n      pop\n        /* \"#utility.yul\":3444:3570   */\n      swap2\n      swap1\n      pop\n      jump\t// out\n        /* \"#utility.yul\":3576:3672   */\n    tag_239:\n        /* \"#utility.yul\":3613:3620   */\n      0x00\n        /* \"#utility.yul\":3642:3666   */\n      tag_315\n        /* \"#utility.yul\":3660:3665   */\n      dup3\n        /* \"#utility.yul\":3642:3666   */\n      tag_238\n      jump\t// in\n    tag_315:\n        /* \"#utility.yul\":3631:3666   */\n      swap1\n      pop\n        /* \"#utility.yul\":3576:3672   */\n      swap2\n      swap1\n      pop\n      jump\t// out\n        /* \"#utility.yul\":3678:3796   */\n    tag_240:\n        /* \"#utility.yul\":3765:3789   */\n      tag_317\n        /* \"#utility.yul\":3783:3788   */\n      dup2\n        /* \"#utility.yul\":3765:3789   */\n      tag_239\n      jump\t// in\n    tag_317:\n        /* \"#utility.yul\":3760:3763   */\n      dup3\n        /* \"#utility.yul\":3753:3790   */\n      mstore\n        /* \"#utility.yul\":3678:3796   */\n      pop\n      pop\n      jump\t// out\n        /* \"#utility.yul\":3802:4024   */\n    tag_36:\n        /* \"#utility.yul\":3895:3899   */\n      0x00\n        /* \"#utility.yul\":3933:3935   */\n      0x20\n        /* \"#utility.yul\":3922:3931   */\n      dup3\n        /* \"#utility.yul\":3918:3936   */\n      add\n        /* \"#utility.yul\":3910:3936   */\n      swap1\n      pop\n        /* \"#utility.yul\":3946:4017   */\n      tag_319\n        /* \"#utility.yul\":4014:4015   */\n      0x00\n        /* \"#utility.yul\":4003:4012   */\n      dup4\n        /* \"#utility.yul\":3999:4016   */\n      add\n        /* \"#utility.yul\":3990:3996   */\n      dup5\n        /* \"#utility.yul\":3946:4017   */\n      tag_240\n      jump\t// in\n    tag_319:\n        /* \"#utility.yul\":3802:4024   */\n      swap3\n      swap2\n      pop\n      pop\n      jump\t// out\n        /* \"#utility.yul\":4030:4152   */\n    tag_241:\n        /* \"#utility.yul\":4103:4127   */\n      tag_321\n        /* \"#utility.yul\":4121:4126   */\n      dup2\n        /* \"#utility.yul\":4103:4127   */\n      tag_239\n      jump\t// in\n    tag_321:\n        /* \"#utility.yul\":4096:4101   */\n      dup2\n        /* \"#utility.yul\":4093:4128   */\n      eq\n        /* \"#utility.yul\":4083:4146   */\n      tag_322\n      jumpi\n        /* \"#utility.yul\":4142:4143   */\n      0x00\n        /* \"#utility.yul\":4139:4140   */\n      0x00\n        /* \"#utility.yul\":4132:4144   */\n      revert\n        /* \"#utility.yul\":4083:4146   */\n    tag_322:\n        /* \"#utility.yul\":4030:4152   */\n      pop\n      jump\t// out\n        /* \"#utility.yul\":4158:4297   */\n    tag_242:\n        /* \"#utility.yul\":4204:4209   */\n      0x00\n        /* \"#utility.yul\":4242:4248   */\n      dup2\n        /* \"#utility.yul\":4229:4249   */\n      calldataload\n        /* \"#utility.yul\":4220:4249   */\n      swap1\n      pop\n        /* \"#utility.yul\":4258:4291   */\n      tag_324\n        /* \"#utility.yul\":4285:4290   */\n      dup2\n        /* \"#utility.yul\":4258:4291   */\n      tag_241\n      jump\t// in\n    tag_324:\n        /* \"#utility.yul\":4158:4297   */\n      swap3\n      swap2\n      pop\n      pop\n      jump\t// out\n        /* \"#utility.yul\":4303:4777   */\n    tag_39:\n        /* \"#utility.yul\":4371:4377   */\n      0x00\n        /* \"#utility.yul\":4379:4385   */\n      0x00\n        /* \"#utility.yul\":4428:4430   */\n      0x40\n        /* \"#utility.yul\":4416:4425   */\n      dup4\n        /* \"#utility.yul\":4407:4414   */\n      dup6\n        /* \"#utility.yul\":4403:4426   */\n      sub\n        /* \"#utility.yul\":4399:4431   */\n      slt\n        /* \"#utility.yul\":4396:4515   */\n      iszero\n      tag_326\n      jumpi\n        /* \"#utility.yul\":4434:4513   */\n      tag_327\n      tag_223\n      jump\t// in\n    tag_327:\n        /* \"#utility.yul\":4396:4515   */\n    tag_326:\n        /* \"#utility.yul\":4554:4555   */\n      0x00\n        /* \"#utility.yul\":4579:4632   */\n      tag_328\n        /* \"#utility.yul\":4624:4631   */\n      dup6\n        /* \"#utility.yul\":4615:4621   */\n      dup3\n        /* \"#utility.yul\":4604:4613   */\n      dup7\n        /* \"#utility.yul\":4600:4622   */\n      add\n        /* \"#utility.yul\":4579:4632   */\n      tag_242\n      jump\t// in\n    tag_328:\n        /* \"#utility.yul\":4569:4632   */\n      swap3\n      pop\n        /* \"#utility.yul\":4525:4642   */\n      pop\n        /* \"#utility.yul\":4681:4683   */\n      0x20\n        /* \"#utility.yul\":4707:4760   */\n      tag_329\n        /* \"#utility.yul\":4752:4759   */\n      dup6\n        /* \"#utility.yul\":4743:4749   */\n      dup3\n        /* \"#utility.yul\":4732:4741   */\n      dup7\n        /* \"#utility.yul\":4728:4750   */\n      add\n        /* \"#utility.yul\":4707:4760   */\n      tag_237\n      jump\t// in\n    tag_329:\n        /* \"#utility.yul\":4697:4760   */\n      swap2\n      pop\n        /* \"#utility.yul\":4652:4770   */\n      pop\n        /* \"#utility.yul\":4303:4777   */\n      swap3\n      pop\n      swap3\n      swap1\n      pop\n      jump\t// out\n        /* \"#utility.yul\":4783:5402   */\n    tag_43:\n        /* \"#utility.yul\":4860:4866   */\n      0x00\n        /* \"#utility.yul\":4868:4874   */\n      0x00\n        /* \"#utility.yul\":4876:4882   */\n      0x00\n        /* \"#utility.yul\":4925:4927   */\n      0x60\n        /* \"#utility.yul\":4913:4922   */\n      dup5\n        /* \"#utility.yul\":4904:4911   */\n      dup7\n        /* \"#utility.yul\":4900:4923   */\n      sub\n        /* \"#utility.yul\":4896:4928   */\n      slt\n        /* \"#utility.yul\":4893:5012   */\n      iszero\n      tag_331\n      jumpi\n        /* \"#utility.yul\":4931:5010   */\n      tag_332\n      tag_223\n      jump\t// in\n    tag_332:\n        /* \"#utility.yul\":4893:5012   */\n    tag_331:\n        /* \"#utility.yul\":5051:5052   */\n      0x00\n        /* \"#utility.yul\":5076:5129   */\n      tag_333\n        /* \"#utility.yul\":5121:5128   */\n      dup7\n        /* \"#utility.yul\":5112:5118   */\n      dup3\n        /* \"#utility.yul\":5101:5110   */\n      dup8\n        /* \"#utility.yul\":5097:5119   */\n      add\n        /* \"#utility.yul\":5076:5129   */\n      tag_242\n      jump\t// in\n    tag_333:\n        /* \"#utility.yul\":5066:5129   */\n      swap4\n      pop\n        /* \"#utility.yul\":5022:5139   */\n      pop\n        /* \"#utility.yul\":5178:5180   */\n      0x20\n        /* \"#utility.yul\":5204:5257   */\n      tag_334\n        /* \"#utility.yul\":5249:5256   */\n      dup7\n        /* \"#utility.yul\":5240:5246   */\n      dup3\n        /* \"#utility.yul\":5229:5238   */\n      dup8\n        /* \"#utility.yul\":5225:5247   */\n      add\n        /* \"#utility.yul\":5204:5257   */\n      tag_242\n      jump\t// in\n    tag_334:\n        /* \"#utility.yul\":5194:5257   */\n      swap3\n      pop\n        /* \"#utility.yul\":5149:5267   */\n      pop\n        /* \"#utility.yul\":5306:5308   */\n      0x40\n        /* \"#utility.yul\":5332:5385   */\n      tag_335\n        /* \"#utility.yul\":5377:5384   */\n      dup7\n        /* \"#utility.yul\":5368:5374   */\n      dup3\n        /* \"#utility.yul\":5357:5366   */\n      dup8\n        /* \"#utility.yul\":5353:5375   */\n      add\n        /* \"#utility.yul\":5332:5385   */\n      tag_237\n      jump\t// in\n    tag_335:\n        /* \"#utility.yul\":5322:5385   */\n      swap2\n      pop\n        /* \"#utility.yul\":5277:5395   */\n      pop\n        /* \"#utility.yul\":4783:5402   */\n      swap3\n      pop\n      swap3\n      pop\n      swap3\n      jump\t// out\n        /* \"#utility.yul\":5408:5737   */\n    tag_60:\n        /* \"#utility.yul\":5467:5473   */\n      0x00\n        /* \"#utility.yul\":5516:5518   */\n      0x20\n        /* \"#utility.yul\":5504:5513   */\n      dup3\n        /* \"#utility.yul\":5495:5502   */\n      dup5\n        /* \"#utility.yul\":5491:5514   */\n      sub\n        /* \"#utility.yul\":5487:5519   */\n      slt\n        /* \"#utility.yul\":5484:5603   */\n      iszero\n      tag_337\n      jumpi\n        /* \"#utility.yul\":5522:5601   */\n      tag_338\n      tag_223\n      jump\t// in\n    tag_338:\n        /* \"#utility.yul\":5484:5603   */\n    tag_337:\n        /* \"#utility.yul\":5642:5643   */\n      0x00\n        /* \"#utility.yul\":5667:5720   */\n      tag_339\n        /* \"#utility.yul\":5712:5719   */\n      dup5\n        /* \"#utility.yul\":5703:5709   */\n      dup3\n        /* \"#utility.yul\":5692:5701   */\n      dup6\n        /* \"#utility.yul\":5688:5710   */\n      add\n        /* \"#utility.yul\":5667:5720   */\n      tag_242\n      jump\t// in\n    tag_339:\n        /* \"#utility.yul\":5657:5720   */\n      swap2\n      pop\n        /* \"#utility.yul\":5613:5730   */\n      pop\n        /* \"#utility.yul\":5408:5737   */\n      swap3\n      swap2\n      pop\n      pop\n      jump\t// out\n        /* \"#utility.yul\":5743:5861   */\n    tag_243:\n        /* \"#utility.yul\":5830:5854   */\n      tag_341\n        /* \"#utility.yul\":5848:5853   */\n      dup2\n        /* \"#utility.yul\":5830:5854   */\n      tag_235\n      jump\t// in\n    tag_341:\n        /* \"#utility.yul\":5825:5828   */\n      dup3\n        /* \"#utility.yul\":5818:5855   */\n      mstore\n        /* \"#utility.yul\":5743:5861   */\n      pop\n      pop\n      jump\t// out\n        /* \"#utility.yul\":5867:6089   */\n    tag_63:\n        /* \"#utility.yul\":5960:5964   */\n      0x00\n        /* \"#utility.yul\":5998:6000   */\n      0x20\n        /* \"#utility.yul\":5987:5996   */\n      dup3\n        /* \"#utility.yul\":5983:6001   */\n      add\n        /* \"#utility.yul\":5975:6001   */\n      swap1\n      pop\n        /* \"#utility.yul\":6011:6082   */\n      tag_343\n        /* \"#utility.yul\":6079:6080   */\n      0x00\n        /* \"#utility.yul\":6068:6077   */\n      dup4\n        /* \"#utility.yul\":6064:6081   */\n      add\n        /* \"#utility.yul\":6055:6061   */\n      dup5\n        /* \"#utility.yul\":6011:6082   */\n      tag_243\n      jump\t// in\n    tag_343:\n        /* \"#utility.yul\":5867:6089   */\n      swap3\n      swap2\n      pop\n      pop\n      jump\t// out\n        /* \"#utility.yul\":6095:6211   */\n    tag_244:\n        /* \"#utility.yul\":6165:6186   */\n      tag_345\n        /* \"#utility.yul\":6180:6185   */\n      dup2\n        /* \"#utility.yul\":6165:6186   */\n      tag_228\n      jump\t// in\n    tag_345:\n        /* \"#utility.yul\":6158:6163   */\n      dup2\n        /* \"#utility.yul\":6155:6187   */\n      eq\n        /* \"#utility.yul\":6145:6205   */\n      tag_346\n      jumpi\n        /* \"#utility.yul\":6201:6202   */\n      0x00\n        /* \"#utility.yul\":6198:6199   */\n      0x00\n        /* \"#utility.yul\":6191:6203   */\n      revert\n        /* \"#utility.yul\":6145:6205   */\n    tag_346:\n        /* \"#utility.yul\":6095:6211   */\n      pop\n      jump\t// out\n        /* \"#utility.yul\":6217:6350   */\n    tag_245:\n        /* \"#utility.yul\":6260:6265   */\n      0x00\n        /* \"#utility.yul\":6298:6304   */\n      dup2\n        /* \"#utility.yul\":6285:6305   */\n      calldataload\n        /* \"#utility.yul\":6276:6305   */\n      swap1\n      pop\n        /* \"#utility.yul\":6314:6344   */\n      tag_348\n        /* \"#utility.yul\":6338:6343   */\n      dup2\n        /* \"#utility.yul\":6314:6344   */\n      tag_244\n      jump\t// in\n    tag_348:\n        /* \"#utility.yul\":6217:6350   */\n      swap3\n      swap2\n      pop\n      pop\n      jump\t// out\n        /* \"#utility.yul\":6356:6824   */\n    tag_69:\n        /* \"#utility.yul\":6421:6427   */\n      0x00\n        /* \"#utility.yul\":6429:6435   */\n      0x00\n        /* \"#utility.yul\":6478:6480   */\n      0x40\n        /* \"#utility.yul\":6466:6475   */\n      dup4\n        /* \"#utility.yul\":6457:6464   */\n      dup6\n        /* \"#utility.yul\":6453:6476   */\n      sub\n        /* \"#utility.yul\":6449:6481   */\n      slt\n        /* \"#utility.yul\":6446:6565   */\n      iszero\n      tag_350\n      jumpi\n        /* \"#utility.yul\":6484:6563   */\n      tag_351\n      tag_223\n      jump\t// in\n    tag_351:\n        /* \"#utility.yul\":6446:6565   */\n    tag_350:\n        /* \"#utility.yul\":6604:6605   */\n      0x00\n        /* \"#utility.yul\":6629:6682   */\n      tag_352\n        /* \"#utility.yul\":6674:6681   */\n      dup6\n        /* \"#utility.yul\":6665:6671   */\n      dup3\n        /* \"#utility.yul\":6654:6663   */\n      dup7\n        /* \"#utility.yul\":6650:6672   */\n      add\n        /* \"#utility.yul\":6629:6682   */\n      tag_242\n      jump\t// in\n    tag_352:\n        /* \"#utility.yul\":6619:6682   */\n      swap3\n      pop\n        /* \"#utility.yul\":6575:6692   */\n      pop\n        /* \"#utility.yul\":6731:6733   */\n      0x20\n        /* \"#utility.yul\":6757:6807   */\n      tag_353\n        /* \"#utility.yul\":6799:6806   */\n      dup6\n        /* \"#utility.yul\":6790:6796   */\n      dup3\n        /* \"#utility.yul\":6779:6788   */\n      dup7\n        /* \"#utility.yul\":6775:6797   */\n      add\n        /* \"#utility.yul\":6757:6807   */\n      tag_245\n      jump\t// in\n    tag_353:\n        /* \"#utility.yul\":6747:6807   */\n      swap2\n      pop\n        /* \"#utility.yul\":6702:6817   */\n      pop\n        /* \"#utility.yul\":6356:6824   */\n      swap3\n      pop\n      swap3\n      swap1\n      pop\n      jump\t// out\n        /* \"#utility.yul\":6830:6947   */\n    tag_246:\n        /* \"#utility.yul\":6939:6940   */\n      0x00\n        /* \"#utility.yul\":6936:6937   */\n      0x00\n        /* \"#utility.yul\":6929:6941   */\n      revert\n        /* \"#utility.yul\":6953:7070   */\n    tag_247:\n        /* \"#utility.yul\":7062:7063   */\n      0x00\n        /* \"#utility.yul\":7059:7060   */\n      0x00\n        /* \"#utility.yul\":7052:7064   */\n      revert\n        /* \"#utility.yul\":7076:7193   */\n    tag_248:\n        /* \"#utility.yul\":7185:7186   */\n      0x00\n        /* \"#utility.yul\":7182:7183   */\n      0x00\n        /* \"#utility.yul\":7175:7187   */\n      revert\n        /* \"#utility.yul\":7212:7764   */\n    tag_249:\n        /* \"#utility.yul\":7269:7277   */\n      0x00\n        /* \"#utility.yul\":7279:7285   */\n      0x00\n        /* \"#utility.yul\":7329:7332   */\n      dup4\n        /* \"#utility.yul\":7322:7326   */\n      0x1f\n        /* \"#utility.yul\":7314:7320   */\n      dup5\n        /* \"#utility.yul\":7310:7327   */\n      add\n        /* \"#utility.yul\":7306:7333   */\n      slt\n        /* \"#utility.yul\":7296:7418   */\n      tag_358\n      jumpi\n        /* \"#utility.yul\":7337:7416   */\n      tag_359\n      tag_246\n      jump\t// in\n    tag_359:\n        /* \"#utility.yul\":7296:7418   */\n    tag_358:\n        /* \"#utility.yul\":7450:7456   */\n      dup3\n        /* \"#utility.yul\":7437:7457   */\n      calldataload\n        /* \"#utility.yul\":7427:7457   */\n      swap1\n      pop\n        /* \"#utility.yul\":7480:7498   */\n      0xffffffffffffffff\n        /* \"#utility.yul\":7472:7478   */\n      dup2\n        /* \"#utility.yul\":7469:7499   */\n      gt\n        /* \"#utility.yul\":7466:7583   */\n      iszero\n      tag_360\n      jumpi\n        /* \"#utility.yul\":7502:7581   */\n      tag_361\n      tag_247\n      jump\t// in\n    tag_361:\n        /* \"#utility.yul\":7466:7583   */\n    tag_360:\n        /* \"#utility.yul\":7616:7620   */\n      0x20\n        /* \"#utility.yul\":7608:7614   */\n      dup4\n        /* \"#utility.yul\":7604:7621   */\n      add\n        /* \"#utility.yul\":7592:7621   */\n      swap2\n      pop\n        /* \"#utility.yul\":7670:7673   */\n      dup4\n        /* \"#utility.yul\":7662:7666   */\n      0x01\n        /* \"#utility.yul\":7654:7660   */\n      dup3\n        /* \"#utility.yul\":7650:7667   */\n      mul\n        /* \"#utility.yul\":7640:7648   */\n      dup4\n        /* \"#utility.yul\":7636:7668   */\n      add\n        /* \"#utility.yul\":7633:7674   */\n      gt\n        /* \"#utility.yul\":7630:7758   */\n      iszero\n      tag_362\n      jumpi\n        /* \"#utility.yul\":7677:7756   */\n      tag_363\n      tag_248\n      jump\t// in\n    tag_363:\n        /* \"#utility.yul\":7630:7758   */\n    tag_362:\n        /* \"#utility.yul\":7212:7764   */\n      swap3\n      pop\n      swap3\n      swap1\n      pop\n      jump\t// out\n        /* \"#utility.yul\":7770:8733   */\n    tag_73:\n        /* \"#utility.yul\":7867:7873   */\n      0x00\n        /* \"#utility.yul\":7875:7881   */\n      0x00\n        /* \"#utility.yul\":7883:7889   */\n      0x00\n        /* \"#utility.yul\":7891:7897   */\n      0x00\n        /* \"#utility.yul\":7899:7905   */\n      0x00\n        /* \"#utility.yul\":7948:7951   */\n      0x80\n        /* \"#utility.yul\":7936:7945   */\n      dup7\n        /* \"#utility.yul\":7927:7934   */\n      dup9\n        /* \"#utility.yul\":7923:7946   */\n      sub\n        /* \"#utility.yul\":7919:7952   */\n      slt\n        /* \"#utility.yul\":7916:8036   */\n      iszero\n      tag_365\n      jumpi\n        /* \"#utility.yul\":7955:8034   */\n      tag_366\n      tag_223\n      jump\t// in\n    tag_366:\n        /* \"#utility.yul\":7916:8036   */\n    tag_365:\n        /* \"#utility.yul\":8075:8076   */\n      0x00\n        /* \"#utility.yul\":8100:8153   */\n      tag_367\n        /* \"#utility.yul\":8145:8152   */\n      dup9\n        /* \"#utility.yul\":8136:8142   */\n      dup3\n        /* \"#utility.yul\":8125:8134   */\n      dup10\n        /* \"#utility.yul\":8121:8143   */\n      add\n        /* \"#utility.yul\":8100:8153   */\n      tag_242\n      jump\t// in\n    tag_367:\n        /* \"#utility.yul\":8090:8153   */\n      swap6\n      pop\n        /* \"#utility.yul\":8046:8163   */\n      pop\n        /* \"#utility.yul\":8202:8204   */\n      0x20\n        /* \"#utility.yul\":8228:8281   */\n      tag_368\n        /* \"#utility.yul\":8273:8280   */\n      dup9\n        /* \"#utility.yul\":8264:8270   */\n      dup3\n        /* \"#utility.yul\":8253:8262   */\n      dup10\n        /* \"#utility.yul\":8249:8271   */\n      add\n        /* \"#utility.yul\":8228:8281   */\n      tag_242\n      jump\t// in\n    tag_368:\n        /* \"#utility.yul\":8218:8281   */\n      swap5\n      pop\n        /* \"#utility.yul\":8173:8291   */\n      pop\n        /* \"#utility.yul\":8330:8332   */\n      0x40\n        /* \"#utility.yul\":8356:8409   */\n      tag_369\n        /* \"#utility.yul\":8401:8408   */\n      dup9\n        /* \"#utility.yul\":8392:8398   */\n      dup3\n        /* \"#utility.yul\":8381:8390   */\n      dup10\n        /* \"#utility.yul\":8377:8399   */\n      add\n        /* \"#utility.yul\":8356:8409   */\n      tag_237\n      jump\t// in\n    tag_369:\n        /* \"#utility.yul\":8346:8409   */\n      swap4\n      pop\n        /* \"#utility.yul\":8301:8419   */\n      pop\n        /* \"#utility.yul\":8486:8488   */\n      0x60\n        /* \"#utility.yul\":8475:8484   */\n      dup7\n        /* \"#utility.yul\":8471:8489   */\n      add\n        /* \"#utility.yul\":8458:8490   */\n      calldataload\n        /* \"#utility.yul\":8517:8535   */\n      0xffffffffffffffff\n        /* \"#utility.yul\":8509:8515   */\n      dup2\n        /* \"#utility.yul\":8506:8536   */\n      gt\n        /* \"#utility.yul\":8503:8620   */\n      iszero\n      tag_370\n      jumpi\n        /* \"#utility.yul\":8539:8618   */\n      tag_371\n      tag_224\n      jump\t// in\n    tag_371:\n        /* \"#utility.yul\":8503:8620   */\n    tag_370:\n        /* \"#utility.yul\":8652:8716   */\n      tag_372\n        /* \"#utility.yul\":8708:8715   */\n      dup9\n        /* \"#utility.yul\":8699:8705   */\n      dup3\n        /* \"#utility.yul\":8688:8697   */\n      dup10\n        /* \"#utility.yul\":8684:8706   */\n      add\n        /* \"#utility.yul\":8652:8716   */\n      tag_249\n      jump\t// in\n    tag_372:\n        /* \"#utility.yul\":8634:8716   */\n      swap3\n      pop\n      swap3\n      pop\n        /* \"#utility.yul\":8429:8726   */\n      pop\n        /* \"#utility.yul\":7770:8733   */\n      swap3\n      swap6\n      pop\n      swap3\n      swap6\n      swap1\n      swap4\n      pop\n      jump\t// out\n        /* \"#utility.yul\":8739:9213   */\n    tag_81:\n        /* \"#utility.yul\":8807:8813   */\n      0x00\n        /* \"#utility.yul\":8815:8821   */\n      0x00\n        /* \"#utility.yul\":8864:8866   */\n      0x40\n        /* \"#utility.yul\":8852:8861   */\n      dup4\n        /* \"#utility.yul\":8843:8850   */\n      dup6\n        /* \"#utility.yul\":8839:8862   */\n      sub\n        /* \"#utility.yul\":8835:8867   */\n      slt\n        /* \"#utility.yul\":8832:8951   */\n      iszero\n      tag_374\n      jumpi\n        /* \"#utility.yul\":8870:8949   */\n      tag_375\n      tag_223\n      jump\t// in\n    tag_375:\n        /* \"#utility.yul\":8832:8951   */\n    tag_374:\n        /* \"#utility.yul\":8990:8991   */\n      0x00\n        /* \"#utility.yul\":9015:9068   */\n      tag_376\n        /* \"#utility.yul\":9060:9067   */\n      dup6\n        /* \"#utility.yul\":9051:9057   */\n      dup3\n        /* \"#utility.yul\":9040:9049   */\n      dup7\n        /* \"#utility.yul\":9036:9058   */\n      add\n        /* \"#utility.yul\":9015:9068   */\n      tag_242\n      jump\t// in\n    tag_376:\n        /* \"#utility.yul\":9005:9068   */\n      swap3\n      pop\n        /* \"#utility.yul\":8961:9078   */\n      pop\n        /* \"#utility.yul\":9117:9119   */\n      0x20\n        /* \"#utility.yul\":9143:9196   */\n      tag_377\n        /* \"#utility.yul\":9188:9195   */\n      dup6\n        /* \"#utility.yul\":9179:9185   */\n      dup3\n        /* \"#utility.yul\":9168:9177   */\n      dup7\n        /* \"#utility.yul\":9164:9186   */\n      add\n        /* \"#utility.yul\":9143:9196   */\n      tag_242\n      jump\t// in\n    tag_377:\n        /* \"#utility.yul\":9133:9196   */\n      swap2\n      pop\n        /* \"#utility.yul\":9088:9206   */\n      pop\n        /* \"#utility.yul\":8739:9213   */\n      swap3\n      pop\n      swap3\n      swap1\n      pop\n      jump\t// out\n        /* \"#utility.yul\":9219:9399   */\n    tag_250:\n        /* \"#utility.yul\":9267:9344   */\n      0x4e487b7100000000000000000000000000000000000000000000000000000000\n        /* \"#utility.yul\":9264:9265   */\n      0x00\n        /* \"#utility.yul\":9257:9345   */\n      mstore\n        /* \"#utility.yul\":9364:9368   */\n      0x22\n        /* \"#utility.yul\":9361:9362   */\n      0x04\n        /* \"#utility.yul\":9354:9369   */\n      mstore\n        /* \"#utility.yul\":9388:9392   */\n      0x24\n        /* \"#utility.yul\":9385:9386   */\n      0x00\n        /* \"#utility.yul\":9378:9393   */\n      revert\n        /* \"#utility.yul\":9405:9725   */\n    tag_89:\n        /* \"#utility.yul\":9449:9455   */\n      0x00\n        /* \"#utility.yul\":9486:9487   */\n      0x02\n        /* \"#utility.yul\":9480:9484   */\n      dup3\n        /* \"#utility.yul\":9476:9488   */\n      div\n        /* \"#utility.yul\":9466:9488   */\n      swap1\n      pop\n        /* \"#utility.yul\":9533:9534   */\n      0x01\n        /* \"#utility.yul\":9527:9531   */\n      dup3\n        /* \"#utility.yul\":9523:9535   */\n      and\n        /* \"#utility.yul\":9554:9572   */\n      dup1\n        /* \"#utility.yul\":9544:9625   */\n      tag_380\n      jumpi\n        /* \"#utility.yul\":9610:9614   */\n      0x7f\n        /* \"#utility.yul\":9602:9608   */\n      dup3\n        /* \"#utility.yul\":9598:9615   */\n      and\n        /* \"#utility.yul\":9588:9615   */\n      swap2\n      pop\n        /* \"#utility.yul\":9544:9625   */\n    tag_380:\n        /* \"#utility.yul\":9672:9674   */\n      0x20\n        /* \"#utility.yul\":9664:9670   */\n      dup3\n        /* \"#utility.yul\":9661:9675   */\n      lt\n        /* \"#utility.yul\":9641:9659   */\n      dup2\n        /* \"#utility.yul\":9638:9676   */\n      sub\n        /* \"#utility.yul\":9635:9719   */\n      tag_381\n      jumpi\n        /* \"#utility.yul\":9691:9709   */\n      tag_382\n      tag_250\n      jump\t// in\n    tag_382:\n        /* \"#utility.yul\":9635:9719   */\n    tag_381:\n        /* \"#utility.yul\":9456:9725   */\n      pop\n        /* \"#utility.yul\":9405:9725   */\n      swap2\n      swap1\n      pop\n      jump\t// out\n        /* \"#utility.yul\":9731:9901   */\n    tag_251:\n        /* \"#utility.yul\":9871:9893   */\n      0x746f6b656e4964206e6f74206973206f776e6572000000000000000000000000\n        /* \"#utility.yul\":9867:9868   */\n      0x00\n        /* \"#utility.yul\":9859:9865   */\n      dup3\n        /* \"#utility.yul\":9855:9869   */\n      add\n        /* \"#utility.yul\":9848:9894   */\n      mstore\n        /* \"#utility.yul\":9731:9901   */\n      pop\n      jump\t// out\n        /* \"#utility.yul\":9907:10273   */\n    tag_252:\n        /* \"#utility.yul\":10049:10052   */\n      0x00\n        /* \"#utility.yul\":10070:10137   */\n      tag_385\n        /* \"#utility.yul\":10134:10136   */\n      0x14\n        /* \"#utility.yul\":10129:10132   */\n      dup4\n        /* \"#utility.yul\":10070:10137   */\n      tag_231\n      jump\t// in\n    tag_385:\n        /* \"#utility.yul\":10063:10137   */\n      swap2\n      pop\n        /* \"#utility.yul\":10146:10239   */\n      tag_386\n        /* \"#utility.yul\":10235:10238   */\n      dup3\n        /* \"#utility.yul\":10146:10239   */\n      tag_251\n      jump\t// in\n    tag_386:\n        /* \"#utility.yul\":10264:10266   */\n      0x20\n        /* \"#utility.yul\":10259:10262   */\n      dup3\n        /* \"#utility.yul\":10255:10267   */\n      add\n        /* \"#utility.yul\":10248:10267   */\n      swap1\n      pop\n        /* \"#utility.yul\":9907:10273   */\n      swap2\n      swap1\n      pop\n      jump\t// out\n        /* \"#utility.yul\":10279:10698   */\n    tag_98:\n        /* \"#utility.yul\":10445:10449   */\n      0x00\n        /* \"#utility.yul\":10483:10485   */\n      0x20\n        /* \"#utility.yul\":10472:10481   */\n      dup3\n        /* \"#utility.yul\":10468:10486   */\n      add\n        /* \"#utility.yul\":10460:10486   */\n      swap1\n      pop\n        /* \"#utility.yul\":10532:10541   */\n      dup2\n        /* \"#utility.yul\":10526:10530   */\n      dup2\n        /* \"#utility.yul\":10522:10542   */\n      sub\n        /* \"#utility.yul\":10518:10519   */\n      0x00\n        /* \"#utility.yul\":10507:10516   */\n      dup4\n        /* \"#utility.yul\":10503:10520   */\n      add\n        /* \"#utility.yul\":10496:10543   */\n      mstore\n        /* \"#utility.yul\":10560:10691   */\n      tag_388\n        /* \"#utility.yul\":10686:10690   */\n      dup2\n        /* \"#utility.yul\":10560:10691   */\n      tag_252\n      jump\t// in\n    tag_388:\n        /* \"#utility.yul\":10552:10691   */\n      swap1\n      pop\n        /* \"#utility.yul\":10279:10698   */\n      swap2\n      swap1\n      pop\n      jump\t// out\n        /* \"#utility.yul\":10704:10866   */\n    tag_253:\n        /* \"#utility.yul\":10844:10858   */\n      0x6e6f7420617070726f76616c0000000000000000000000000000000000000000\n        /* \"#utility.yul\":10840:10841   */\n      0x00\n        /* \"#utility.yul\":10832:10838   */\n      dup3\n        /* \"#utility.yul\":10828:10842   */\n      add\n        /* \"#utility.yul\":10821:10859   */\n      mstore\n        /* \"#utility.yul\":10704:10866   */\n      pop\n      jump\t// out\n        /* \"#utility.yul\":10872:11238   */\n    tag_254:\n        /* \"#utility.yul\":11014:11017   */\n      0x00\n        /* \"#utility.yul\":11035:11102   */\n      tag_391\n        /* \"#utility.yul\":11099:11101   */\n      0x0c\n        /* \"#utility.yul\":11094:11097   */\n      dup4\n        /* \"#utility.yul\":11035:11102   */\n      tag_231\n      jump\t// in\n    tag_391:\n        /* \"#utility.yul\":11028:11102   */\n      swap2\n      pop\n        /* \"#utility.yul\":11111:11204   */\n      tag_392\n        /* \"#utility.yul\":11200:11203   */\n      dup3\n        /* \"#utility.yul\":11111:11204   */\n      tag_253\n      jump\t// in\n    tag_392:\n        /* \"#utility.yul\":11229:11231   */\n      0x20\n        /* \"#utility.yul\":11224:11227   */\n      dup3\n        /* \"#utility.yul\":11220:11232   */\n      add\n        /* \"#utility.yul\":11213:11232   */\n      swap1\n      pop\n        /* \"#utility.yul\":10872:11238   */\n      swap2\n      swap1\n      pop\n      jump\t// out\n        /* \"#utility.yul\":11244:11663   */\n    tag_102:\n        /* \"#utility.yul\":11410:11414   */\n      0x00\n        /* \"#utility.yul\":11448:11450   */\n      0x20\n        /* \"#utility.yul\":11437:11446   */\n      dup3\n        /* \"#utility.yul\":11433:11451   */\n      add\n        /* \"#utility.yul\":11425:11451   */\n      swap1\n      pop\n        /* \"#utility.yul\":11497:11506   */\n      dup2\n        /* \"#utility.yul\":11491:11495   */\n      dup2\n        /* \"#utility.yul\":11487:11507   */\n      sub\n        /* \"#utility.yul\":11483:11484   */\n      0x00\n        /* \"#utility.yul\":11472:11481   */\n      dup4\n        /* \"#utility.yul\":11468:11485   */\n      add\n        /* \"#utility.yul\":11461:11508   */\n      mstore\n        /* \"#utility.yul\":11525:11656   */\n      tag_394\n        /* \"#utility.yul\":11651:11655   */\n      dup2\n        /* \"#utility.yul\":11525:11656   */\n      tag_254\n      jump\t// in\n    tag_394:\n        /* \"#utility.yul\":11517:11656   */\n      swap1\n      pop\n        /* \"#utility.yul\":11244:11663   */\n      swap2\n      swap1\n      pop\n      jump\t// out\n        /* \"#utility.yul\":11669:11833   */\n    tag_255:\n        /* \"#utility.yul\":11809:11825   */\n      0x746f206e6f742069732030783030000000000000000000000000000000000000\n        /* \"#utility.yul\":11805:11806   */\n      0x00\n        /* \"#utility.yul\":11797:11803   */\n      dup3\n        /* \"#utility.yul\":11793:11807   */\n      add\n        /* \"#utility.yul\":11786:11826   */\n      mstore\n        /* \"#utility.yul\":11669:11833   */\n      pop\n      jump\t// out\n        /* \"#utility.yul\":11839:12205   */\n    tag_256:\n        /* \"#utility.yul\":11981:11984   */\n      0x00\n        /* \"#utility.yul\":12002:12069   */\n      tag_397\n        /* \"#utility.yul\":12066:12068   */\n      0x0e\n        /* \"#utility.yul\":12061:12064   */\n      dup4\n        /* \"#utility.yul\":12002:12069   */\n      tag_231\n      jump\t// in\n    tag_397:\n        /* \"#utility.yul\":11995:12069   */\n      swap2\n      pop\n        /* \"#utility.yul\":12078:12171   */\n      tag_398\n        /* \"#utility.yul\":12167:12170   */\n      dup3\n        /* \"#utility.yul\":12078:12171   */\n      tag_255\n      jump\t// in\n    tag_398:\n        /* \"#utility.yul\":12196:12198   */\n      0x20\n        /* \"#utility.yul\":12191:12194   */\n      dup3\n        /* \"#utility.yul\":12187:12199   */\n      add\n        /* \"#utility.yul\":12180:12199   */\n      swap1\n      pop\n        /* \"#utility.yul\":11839:12205   */\n      swap2\n      swap1\n      pop\n      jump\t// out\n        /* \"#utility.yul\":12211:12630   */\n    tag_105:\n        /* \"#utility.yul\":12377:12381   */\n      0x00\n        /* \"#utility.yul\":12415:12417   */\n      0x20\n        /* \"#utility.yul\":12404:12413   */\n      dup3\n        /* \"#utility.yul\":12400:12418   */\n      add\n        /* \"#utility.yul\":12392:12418   */\n      swap1\n      pop\n        /* \"#utility.yul\":12464:12473   */\n      dup2\n        /* \"#utility.yul\":12458:12462   */\n      dup2\n        /* \"#utility.yul\":12454:12474   */\n      sub\n        /* \"#utility.yul\":12450:12451   */\n      0x00\n        /* \"#utility.yul\":12439:12448   */\n      dup4\n        /* \"#utility.yul\":12435:12452   */\n      add\n        /* \"#utility.yul\":12428:12475   */\n      mstore\n        /* \"#utility.yul\":12492:12623   */\n      tag_400\n        /* \"#utility.yul\":12618:12622   */\n      dup2\n        /* \"#utility.yul\":12492:12623   */\n      tag_256\n      jump\t// in\n    tag_400:\n        /* \"#utility.yul\":12484:12623   */\n      swap1\n      pop\n        /* \"#utility.yul\":12211:12630   */\n      swap2\n      swap1\n      pop\n      jump\t// out\n        /* \"#utility.yul\":12636:12802   */\n    tag_257:\n        /* \"#utility.yul\":12776:12794   */\n      0x66726f6d206e6f74206973203078303000000000000000000000000000000000\n        /* \"#utility.yul\":12772:12773   */\n      0x00\n        /* \"#utility.yul\":12764:12770   */\n      dup3\n        /* \"#utility.yul\":12760:12774   */\n      add\n        /* \"#utility.yul\":12753:12795   */\n      mstore\n        /* \"#utility.yul\":12636:12802   */\n      pop\n      jump\t// out\n        /* \"#utility.yul\":12808:13174   */\n    tag_258:\n        /* \"#utility.yul\":12950:12953   */\n      0x00\n        /* \"#utility.yul\":12971:13038   */\n      tag_403\n        /* \"#utility.yul\":13035:13037   */\n      0x10\n        /* \"#utility.yul\":13030:13033   */\n      dup4\n        /* \"#utility.yul\":12971:13038   */\n      tag_231\n      jump\t// in\n    tag_403:\n        /* \"#utility.yul\":12964:13038   */\n      swap2\n      pop\n        /* \"#utility.yul\":13047:13140   */\n      tag_404\n        /* \"#utility.yul\":13136:13139   */\n      dup3\n        /* \"#utility.yul\":13047:13140   */\n      tag_257\n      jump\t// in\n    tag_404:\n        /* \"#utility.yul\":13165:13167   */\n      0x20\n        /* \"#utility.yul\":13160:13163   */\n      dup3\n        /* \"#utility.yul\":13156:13168   */\n      add\n        /* \"#utility.yul\":13149:13168   */\n      swap1\n      pop\n        /* \"#utility.yul\":12808:13174   */\n      swap2\n      swap1\n      pop\n      jump\t// out\n        /* \"#utility.yul\":13180:13599   */\n    tag_108:\n        /* \"#utility.yul\":13346:13350   */\n      0x00\n        /* \"#utility.yul\":13384:13386   */\n      0x20\n        /* \"#utility.yul\":13373:13382   */\n      dup3\n        /* \"#utility.yul\":13369:13387   */\n      add\n        /* \"#utility.yul\":13361:13387   */\n      swap1\n      pop\n        /* \"#utility.yul\":13433:13442   */\n      dup2\n        /* \"#utility.yul\":13427:13431   */\n      dup2\n        /* \"#utility.yul\":13423:13443   */\n      sub\n        /* \"#utility.yul\":13419:13420   */\n      0x00\n        /* \"#utility.yul\":13408:13417   */\n      dup4\n        /* \"#utility.yul\":13404:13421   */\n      add\n        /* \"#utility.yul\":13397:13444   */\n      mstore\n        /* \"#utility.yul\":13461:13592   */\n      tag_406\n        /* \"#utility.yul\":13587:13591   */\n      dup2\n        /* \"#utility.yul\":13461:13592   */\n      tag_258\n      jump\t// in\n    tag_406:\n        /* \"#utility.yul\":13453:13592   */\n      swap1\n      pop\n        /* \"#utility.yul\":13180:13599   */\n      swap2\n      swap1\n      pop\n      jump\t// out\n        /* \"#utility.yul\":13605:13785   */\n    tag_259:\n        /* \"#utility.yul\":13653:13730   */\n      0x4e487b7100000000000000000000000000000000000000000000000000000000\n        /* \"#utility.yul\":13650:13651   */\n      0x00\n        /* \"#utility.yul\":13643:13731   */\n      mstore\n        /* \"#utility.yul\":13750:13754   */\n      0x11\n        /* \"#utility.yul\":13747:13748   */\n      0x04\n        /* \"#utility.yul\":13740:13755   */\n      mstore\n        /* \"#utility.yul\":13774:13778   */\n      0x24\n        /* \"#utility.yul\":13771:13772   */\n      0x00\n        /* \"#utility.yul\":13764:13779   */\n      revert\n        /* \"#utility.yul\":13791:13985   */\n    tag_125:\n        /* \"#utility.yul\":13831:13835   */\n      0x00\n        /* \"#utility.yul\":13851:13871   */\n      tag_409\n        /* \"#utility.yul\":13869:13870   */\n      dup3\n        /* \"#utility.yul\":13851:13871   */\n      tag_235\n      jump\t// in\n    tag_409:\n        /* \"#utility.yul\":13846:13871   */\n      swap2\n      pop\n        /* \"#utility.yul\":13885:13905   */\n      tag_410\n        /* \"#utility.yul\":13903:13904   */\n      dup4\n        /* \"#utility.yul\":13885:13905   */\n      tag_235\n      jump\t// in\n    tag_410:\n        /* \"#utility.yul\":13880:13905   */\n      swap3\n      pop\n        /* \"#utility.yul\":13929:13930   */\n      dup3\n        /* \"#utility.yul\":13926:13927   */\n      dup3\n        /* \"#utility.yul\":13922:13931   */\n      sub\n        /* \"#utility.yul\":13914:13931   */\n      swap1\n      pop\n        /* \"#utility.yul\":13953:13954   */\n      dup2\n        /* \"#utility.yul\":13947:13951   */\n      dup2\n        /* \"#utility.yul\":13944:13955   */\n      gt\n        /* \"#utility.yul\":13941:13978   */\n      iszero\n      tag_411\n      jumpi\n        /* \"#utility.yul\":13958:13976   */\n      tag_412\n      tag_259\n      jump\t// in\n    tag_412:\n        /* \"#utility.yul\":13941:13978   */\n    tag_411:\n        /* \"#utility.yul\":13791:13985   */\n      swap3\n      swap2\n      pop\n      pop\n      jump\t// out\n        /* \"#utility.yul\":13991:14158   */\n    tag_260:\n        /* \"#utility.yul\":14131:14150   */\n      0x6f776e6572206e6f742069732030783030000000000000000000000000000000\n        /* \"#utility.yul\":14127:14128   */\n      0x00\n        /* \"#utility.yul\":14119:14125   */\n      dup3\n        /* \"#utility.yul\":14115:14129   */\n      add\n        /* \"#utility.yul\":14108:14151   */\n      mstore\n        /* \"#utility.yul\":13991:14158   */\n      pop\n      jump\t// out\n        /* \"#utility.yul\":14164:14530   */\n    tag_261:\n        /* \"#utility.yul\":14306:14309   */\n      0x00\n        /* \"#utility.yul\":14327:14394   */\n      tag_415\n        /* \"#utility.yul\":14391:14393   */\n      0x11\n        /* \"#utility.yul\":14386:14389   */\n      dup4\n        /* \"#utility.yul\":14327:14394   */\n      tag_231\n      jump\t// in\n    tag_415:\n        /* \"#utility.yul\":14320:14394   */\n      swap2\n      pop\n        /* \"#utility.yul\":14403:14496   */\n      tag_416\n        /* \"#utility.yul\":14492:14495   */\n      dup3\n        /* \"#utility.yul\":14403:14496   */\n      tag_260\n      jump\t// in\n    tag_416:\n        /* \"#utility.yul\":14521:14523   */\n      0x20\n        /* \"#utility.yul\":14516:14519   */\n      dup3\n        /* \"#utility.yul\":14512:14524   */\n      add\n        /* \"#utility.yul\":14505:14524   */\n      swap1\n      pop\n        /* \"#utility.yul\":14164:14530   */\n      swap2\n      swap1\n      pop\n      jump\t// out\n        /* \"#utility.yul\":14536:14955   */\n    tag_133:\n        /* \"#utility.yul\":14702:14706   */\n      0x00\n        /* \"#utility.yul\":14740:14742   */\n      0x20\n        /* \"#utility.yul\":14729:14738   */\n      dup3\n        /* \"#utility.yul\":14725:14743   */\n      add\n        /* \"#utility.yul\":14717:14743   */\n      swap1\n      pop\n        /* \"#utility.yul\":14789:14798   */\n      dup2\n        /* \"#utility.yul\":14783:14787   */\n      dup2\n        /* \"#utility.yul\":14779:14799   */\n      sub\n        /* \"#utility.yul\":14775:14776   */\n      0x00\n        /* \"#utility.yul\":14764:14773   */\n      dup4\n        /* \"#utility.yul\":14760:14777   */\n      add\n        /* \"#utility.yul\":14753:14800   */\n      mstore\n        /* \"#utility.yul\":14817:14948   */\n      tag_418\n        /* \"#utility.yul\":14943:14947   */\n      dup2\n        /* \"#utility.yul\":14817:14948   */\n      tag_261\n      jump\t// in\n    tag_418:\n        /* \"#utility.yul\":14809:14948   */\n      swap1\n      pop\n        /* \"#utility.yul\":14536:14955   */\n      swap2\n      swap1\n      pop\n      jump\t// out\n        /* \"#utility.yul\":14961:15131   */\n    tag_262:\n        /* \"#utility.yul\":15101:15123   */\n      0x6f70657261746f72206e6f742069732030783030000000000000000000000000\n        /* \"#utility.yul\":15097:15098   */\n      0x00\n        /* \"#utility.yul\":15089:15095   */\n      dup3\n        /* \"#utility.yul\":15085:15099   */\n      add\n        /* \"#utility.yul\":15078:15124   */\n      mstore\n        /* \"#utility.yul\":14961:15131   */\n      pop\n      jump\t// out\n        /* \"#utility.yul\":15137:15503   */\n    tag_263:\n        /* \"#utility.yul\":15279:15282   */\n      0x00\n        /* \"#utility.yul\":15300:15367   */\n      tag_421\n        /* \"#utility.yul\":15364:15366   */\n      0x14\n        /* \"#utility.yul\":15359:15362   */\n      dup4\n        /* \"#utility.yul\":15300:15367   */\n      tag_231\n      jump\t// in\n    tag_421:\n        /* \"#utility.yul\":15293:15367   */\n      swap2\n      pop\n        /* \"#utility.yul\":15376:15469   */\n      tag_422\n        /* \"#utility.yul\":15465:15468   */\n      dup3\n        /* \"#utility.yul\":15376:15469   */\n      tag_262\n      jump\t// in\n    tag_422:\n        /* \"#utility.yul\":15494:15496   */\n      0x20\n        /* \"#utility.yul\":15489:15492   */\n      dup3\n        /* \"#utility.yul\":15485:15497   */\n      add\n        /* \"#utility.yul\":15478:15497   */\n      swap1\n      pop\n        /* \"#utility.yul\":15137:15503   */\n      swap2\n      swap1\n      pop\n      jump\t// out\n        /* \"#utility.yul\":15509:15928   */\n    tag_143:\n        /* \"#utility.yul\":15675:15679   */\n      0x00\n        /* \"#utility.yul\":15713:15715   */\n      0x20\n        /* \"#utility.yul\":15702:15711   */\n      dup3\n        /* \"#utility.yul\":15698:15716   */\n      add\n        /* \"#utility.yul\":15690:15716   */\n      swap1\n      pop\n        /* \"#utility.yul\":15762:15771   */\n      dup2\n        /* \"#utility.yul\":15756:15760   */\n      dup2\n        /* \"#utility.yul\":15752:15772   */\n      sub\n        /* \"#utility.yul\":15748:15749   */\n      0x00\n        /* \"#utility.yul\":15737:15746   */\n      dup4\n        /* \"#utility.yul\":15733:15750   */\n      add\n        /* \"#utility.yul\":15726:15773   */\n      mstore\n        /* \"#utility.yul\":15790:15921   */\n      tag_424\n        /* \"#utility.yul\":15916:15920   */\n      dup2\n        /* \"#utility.yul\":15790:15921   */\n      tag_263\n      jump\t// in\n    tag_424:\n        /* \"#utility.yul\":15782:15921   */\n      swap1\n      pop\n        /* \"#utility.yul\":15509:15928   */\n      swap2\n      swap1\n      pop\n      jump\t// out\n        /* \"#utility.yul\":15934:16099   */\n    tag_264:\n        /* \"#utility.yul\":16074:16091   */\n      0x546f6b656e204e6f742045786973740000000000000000000000000000000000\n        /* \"#utility.yul\":16070:16071   */\n      0x00\n        /* \"#utility.yul\":16062:16068   */\n      dup3\n        /* \"#utility.yul\":16058:16072   */\n      add\n        /* \"#utility.yul\":16051:16092   */\n      mstore\n        /* \"#utility.yul\":15934:16099   */\n      pop\n      jump\t// out\n        /* \"#utility.yul\":16105:16471   */\n    tag_265:\n        /* \"#utility.yul\":16247:16250   */\n      0x00\n        /* \"#utility.yul\":16268:16335   */\n      tag_427\n        /* \"#utility.yul\":16332:16334   */\n      0x0f\n        /* \"#utility.yul\":16327:16330   */\n      dup4\n        /* \"#utility.yul\":16268:16335   */\n      tag_231\n      jump\t// in\n    tag_427:\n        /* \"#utility.yul\":16261:16335   */\n      swap2\n      pop\n        /* \"#utility.yul\":16344:16437   */\n      tag_428\n        /* \"#utility.yul\":16433:16436   */\n      dup3\n        /* \"#utility.yul\":16344:16437   */\n      tag_264\n      jump\t// in\n    tag_428:\n        /* \"#utility.yul\":16462:16464   */\n      0x20\n        /* \"#utility.yul\":16457:16460   */\n      dup3\n        /* \"#utility.yul\":16453:16465   */\n      add\n        /* \"#utility.yul\":16446:16465   */\n      swap1\n      pop\n        /* \"#utility.yul\":16105:16471   */\n      swap2\n      swap1\n      pop\n      jump\t// out\n        /* \"#utility.yul\":16477:16896   */\n    tag_158:\n        /* \"#utility.yul\":16643:16647   */\n      0x00\n        /* \"#utility.yul\":16681:16683   */\n      0x20\n        /* \"#utility.yul\":16670:16679   */\n      dup3\n        /* \"#utility.yul\":16666:16684   */\n      add\n        /* \"#utility.yul\":16658:16684   */\n      swap1\n      pop\n        /* \"#utility.yul\":16730:16739   */\n      dup2\n        /* \"#utility.yul\":16724:16728   */\n      dup2\n        /* \"#utility.yul\":16720:16740   */\n      sub\n        /* \"#utility.yul\":16716:16717   */\n      0x00\n        /* \"#utility.yul\":16705:16714   */\n      dup4\n        /* \"#utility.yul\":16701:16718   */\n      add\n        /* \"#utility.yul\":16694:16741   */\n      mstore\n        /* \"#utility.yul\":16758:16889   */\n      tag_430\n        /* \"#utility.yul\":16884:16888   */\n      dup2\n        /* \"#utility.yul\":16758:16889   */\n      tag_265\n      jump\t// in\n    tag_430:\n        /* \"#utility.yul\":16750:16889   */\n      swap1\n      pop\n        /* \"#utility.yul\":16477:16896   */\n      swap2\n      swap1\n      pop\n      jump\t// out\n        /* \"#utility.yul\":16902:17050   */\n    tag_266:\n        /* \"#utility.yul\":17004:17015   */\n      0x00\n        /* \"#utility.yul\":17041:17044   */\n      dup2\n        /* \"#utility.yul\":17026:17044   */\n      swap1\n      pop\n        /* \"#utility.yul\":16902:17050   */\n      swap3\n      swap2\n      pop\n      pop\n      jump\t// out\n        /* \"#utility.yul\":17056:17446   */\n    tag_267:\n        /* \"#utility.yul\":17162:17165   */\n      0x00\n        /* \"#utility.yul\":17190:17229   */\n      tag_433\n        /* \"#utility.yul\":17223:17228   */\n      dup3\n        /* \"#utility.yul\":17190:17229   */\n      tag_230\n      jump\t// in\n    tag_433:\n        /* \"#utility.yul\":17245:17334   */\n      tag_434\n        /* \"#utility.yul\":17327:17333   */\n      dup2\n        /* \"#utility.yul\":17322:17325   */\n      dup6\n        /* \"#utility.yul\":17245:17334   */\n      tag_266\n      jump\t// in\n    tag_434:\n        /* \"#utility.yul\":17238:17334   */\n      swap4\n      pop\n        /* \"#utility.yul\":17343:17408   */\n      tag_435\n        /* \"#utility.yul\":17401:17407   */\n      dup2\n        /* \"#utility.yul\":17396:17399   */\n      dup6\n        /* \"#utility.yul\":17389:17393   */\n      0x20\n        /* \"#utility.yul\":17382:17387   */\n      dup7\n        /* \"#utility.yul\":17378:17394   */\n      add\n        /* \"#utility.yul\":17343:17408   */\n      tag_232\n      jump\t// in\n    tag_435:\n        /* \"#utility.yul\":17433:17439   */\n      dup1\n        /* \"#utility.yul\":17428:17431   */\n      dup5\n        /* \"#utility.yul\":17424:17440   */\n      add\n        /* \"#utility.yul\":17417:17440   */\n      swap2\n      pop\n        /* \"#utility.yul\":17166:17446   */\n      pop\n        /* \"#utility.yul\":17056:17446   */\n      swap3\n      swap2\n      pop\n      pop\n      jump\t// out\n        /* \"#utility.yul\":17452:17887   */\n    tag_166:\n        /* \"#utility.yul\":17632:17635   */\n      0x00\n        /* \"#utility.yul\":17654:17749   */\n      tag_437\n        /* \"#utility.yul\":17745:17748   */\n      dup3\n        /* \"#utility.yul\":17736:17742   */\n      dup6\n        /* \"#utility.yul\":17654:17749   */\n      tag_267\n      jump\t// in\n    tag_437:\n        /* \"#utility.yul\":17647:17749   */\n      swap2\n      pop\n        /* \"#utility.yul\":17766:17861   */\n      tag_438\n        /* \"#utility.yul\":17857:17860   */\n      dup3\n        /* \"#utility.yul\":17848:17854   */\n      dup5\n        /* \"#utility.yul\":17766:17861   */\n      tag_267\n      jump\t// in\n    tag_438:\n        /* \"#utility.yul\":17759:17861   */\n      swap2\n      pop\n        /* \"#utility.yul\":17878:17881   */\n      dup2\n        /* \"#utility.yul\":17871:17881   */\n      swap1\n      pop\n        /* \"#utility.yul\":17452:17887   */\n      swap4\n      swap3\n      pop\n      pop\n      pop\n      jump\t// out\n        /* \"#utility.yul\":17893:18084   */\n    tag_171:\n        /* \"#utility.yul\":17933:17936   */\n      0x00\n        /* \"#utility.yul\":17952:17972   */\n      tag_440\n        /* \"#utility.yul\":17970:17971   */\n      dup3\n        /* \"#utility.yul\":17952:17972   */\n      tag_235\n      jump\t// in\n    tag_440:\n        /* \"#utility.yul\":17947:17972   */\n      swap2\n      pop\n        /* \"#utility.yul\":17986:18006   */\n      tag_441\n        /* \"#utility.yul\":18004:18005   */\n      dup4\n        /* \"#utility.yul\":17986:18006   */\n      tag_235\n      jump\t// in\n    tag_441:\n        /* \"#utility.yul\":17981:18006   */\n      swap3\n      pop\n        /* \"#utility.yul\":18029:18030   */\n      dup3\n        /* \"#utility.yul\":18026:18027   */\n      dup3\n        /* \"#utility.yul\":18022:18031   */\n      add\n        /* \"#utility.yul\":18015:18031   */\n      swap1\n      pop\n        /* \"#utility.yul\":18050:18053   */\n      dup1\n        /* \"#utility.yul\":18047:18048   */\n      dup3\n        /* \"#utility.yul\":18044:18054   */\n      gt\n        /* \"#utility.yul\":18041:18077   */\n      iszero\n      tag_442\n      jumpi\n        /* \"#utility.yul\":18057:18075   */\n      tag_443\n      tag_259\n      jump\t// in\n    tag_443:\n        /* \"#utility.yul\":18041:18077   */\n    tag_442:\n        /* \"#utility.yul\":17893:18084   */\n      swap3\n      swap2\n      pop\n      pop\n      jump\t// out\n        /* \"#utility.yul\":18090:18188   */\n    tag_268:\n        /* \"#utility.yul\":18141:18147   */\n      0x00\n        /* \"#utility.yul\":18175:18180   */\n      dup2\n        /* \"#utility.yul\":18169:18181   */\n      mload\n        /* \"#utility.yul\":18159:18181   */\n      swap1\n      pop\n        /* \"#utility.yul\":18090:18188   */\n      swap2\n      swap1\n      pop\n      jump\t// out\n        /* \"#utility.yul\":18194:18362   */\n    tag_269:\n        /* \"#utility.yul\":18277:18288   */\n      0x00\n        /* \"#utility.yul\":18311:18317   */\n      dup3\n        /* \"#utility.yul\":18306:18309   */\n      dup3\n        /* \"#utility.yul\":18299:18318   */\n      mstore\n        /* \"#utility.yul\":18351:18355   */\n      0x20\n        /* \"#utility.yul\":18346:18349   */\n      dup3\n        /* \"#utility.yul\":18342:18356   */\n      add\n        /* \"#utility.yul\":18327:18356   */\n      swap1\n      pop\n        /* \"#utility.yul\":18194:18362   */\n      swap3\n      swap2\n      pop\n      pop\n      jump\t// out\n        /* \"#utility.yul\":18368:18741   */\n    tag_270:\n        /* \"#utility.yul\":18454:18457   */\n      0x00\n        /* \"#utility.yul\":18482:18520   */\n      tag_447\n        /* \"#utility.yul\":18514:18519   */\n      dup3\n        /* \"#utility.yul\":18482:18520   */\n      tag_268\n      jump\t// in\n    tag_447:\n        /* \"#utility.yul\":18536:18606   */\n      tag_448\n        /* \"#utility.yul\":18599:18605   */\n      dup2\n        /* \"#utility.yul\":18594:18597   */\n      dup6\n        /* \"#utility.yul\":18536:18606   */\n      tag_269\n      jump\t// in\n    tag_448:\n        /* \"#utility.yul\":18529:18606   */\n      swap4\n      pop\n        /* \"#utility.yul\":18615:18680   */\n      tag_449\n        /* \"#utility.yul\":18673:18679   */\n      dup2\n        /* \"#utility.yul\":18668:18671   */\n      dup6\n        /* \"#utility.yul\":18661:18665   */\n      0x20\n        /* \"#utility.yul\":18654:18659   */\n      dup7\n        /* \"#utility.yul\":18650:18666   */\n      add\n        /* \"#utility.yul\":18615:18680   */\n      tag_232\n      jump\t// in\n    tag_449:\n        /* \"#utility.yul\":18705:18734   */\n      tag_450\n        /* \"#utility.yul\":18727:18733   */\n      dup2\n        /* \"#utility.yul\":18705:18734   */\n      tag_233\n      jump\t// in\n    tag_450:\n        /* \"#utility.yul\":18700:18703   */\n      dup5\n        /* \"#utility.yul\":18696:18735   */\n      add\n        /* \"#utility.yul\":18689:18735   */\n      swap2\n      pop\n        /* \"#utility.yul\":18458:18741   */\n      pop\n        /* \"#utility.yul\":18368:18741   */\n      swap3\n      swap2\n      pop\n      pop\n      jump\t// out\n        /* \"#utility.yul\":18747:19387   */\n    tag_175:\n        /* \"#utility.yul\":18942:18946   */\n      0x00\n        /* \"#utility.yul\":18980:18983   */\n      0x80\n        /* \"#utility.yul\":18969:18978   */\n      dup3\n        /* \"#utility.yul\":18965:18984   */\n      add\n        /* \"#utility.yul\":18957:18984   */\n      swap1\n      pop\n        /* \"#utility.yul\":18994:19065   */\n      tag_452\n        /* \"#utility.yul\":19062:19063   */\n      0x00\n        /* \"#utility.yul\":19051:19060   */\n      dup4\n        /* \"#utility.yul\":19047:19064   */\n      add\n        /* \"#utility.yul\":19038:19044   */\n      dup8\n        /* \"#utility.yul\":18994:19065   */\n      tag_240\n      jump\t// in\n    tag_452:\n        /* \"#utility.yul\":19075:19147   */\n      tag_453\n        /* \"#utility.yul\":19143:19145   */\n      0x20\n        /* \"#utility.yul\":19132:19141   */\n      dup4\n        /* \"#utility.yul\":19128:19146   */\n      add\n        /* \"#utility.yul\":19119:19125   */\n      dup7\n        /* \"#utility.yul\":19075:19147   */\n      tag_240\n      jump\t// in\n    tag_453:\n        /* \"#utility.yul\":19157:19229   */\n      tag_454\n        /* \"#utility.yul\":19225:19227   */\n      0x40\n        /* \"#utility.yul\":19214:19223   */\n      dup4\n        /* \"#utility.yul\":19210:19228   */\n      add\n        /* \"#utility.yul\":19201:19207   */\n      dup6\n        /* \"#utility.yul\":19157:19229   */\n      tag_243\n      jump\t// in\n    tag_454:\n        /* \"#utility.yul\":19276:19285   */\n      dup2\n        /* \"#utility.yul\":19270:19274   */\n      dup2\n        /* \"#utility.yul\":19266:19286   */\n      sub\n        /* \"#utility.yul\":19261:19263   */\n      0x60\n        /* \"#utility.yul\":19250:19259   */\n      dup4\n        /* \"#utility.yul\":19246:19264   */\n      add\n        /* \"#utility.yul\":19239:19287   */\n      mstore\n        /* \"#utility.yul\":19304:19380   */\n      tag_455\n        /* \"#utility.yul\":19375:19379   */\n      dup2\n        /* \"#utility.yul\":19366:19372   */\n      dup5\n        /* \"#utility.yul\":19304:19380   */\n      tag_270\n      jump\t// in\n    tag_455:\n        /* \"#utility.yul\":19296:19380   */\n      swap1\n      pop\n        /* \"#utility.yul\":18747:19387   */\n      swap6\n      swap5\n      pop\n      pop\n      pop\n      pop\n      pop\n      jump\t// out\n        /* \"#utility.yul\":19393:19534   */\n    tag_271:\n        /* \"#utility.yul\":19449:19454   */\n      0x00\n        /* \"#utility.yul\":19480:19486   */\n      dup2\n        /* \"#utility.yul\":19474:19487   */\n      mload\n        /* \"#utility.yul\":19465:19487   */\n      swap1\n      pop\n        /* \"#utility.yul\":19496:19528   */\n      tag_457\n        /* \"#utility.yul\":19522:19527   */\n      dup2\n        /* \"#utility.yul\":19496:19528   */\n      tag_226\n      jump\t// in\n    tag_457:\n        /* \"#utility.yul\":19393:19534   */\n      swap3\n      swap2\n      pop\n      pop\n      jump\t// out\n        /* \"#utility.yul\":19540:19889   */\n    tag_178:\n        /* \"#utility.yul\":19609:19615   */\n      0x00\n        /* \"#utility.yul\":19658:19660   */\n      0x20\n        /* \"#utility.yul\":19646:19655   */\n      dup3\n        /* \"#utility.yul\":19637:19644   */\n      dup5\n        /* \"#utility.yul\":19633:19656   */\n      sub\n        /* \"#utility.yul\":19629:19661   */\n      slt\n        /* \"#utility.yul\":19626:19745   */\n      iszero\n      tag_459\n      jumpi\n        /* \"#utility.yul\":19664:19743   */\n      tag_460\n      tag_223\n      jump\t// in\n    tag_460:\n        /* \"#utility.yul\":19626:19745   */\n    tag_459:\n        /* \"#utility.yul\":19784:19785   */\n      0x00\n        /* \"#utility.yul\":19809:19872   */\n      tag_461\n        /* \"#utility.yul\":19864:19871   */\n      dup5\n        /* \"#utility.yul\":19855:19861   */\n      dup3\n        /* \"#utility.yul\":19844:19853   */\n      dup6\n        /* \"#utility.yul\":19840:19862   */\n      add\n        /* \"#utility.yul\":19809:19872   */\n      tag_271\n      jump\t// in\n    tag_461:\n        /* \"#utility.yul\":19799:19872   */\n      swap2\n      pop\n        /* \"#utility.yul\":19755:19882   */\n      pop\n        /* \"#utility.yul\":19540:19889   */\n      swap3\n      swap2\n      pop\n      pop\n      jump\t// out\n        /* \"#utility.yul\":19895:20128   */\n    tag_201:\n        /* \"#utility.yul\":19934:19937   */\n      0x00\n        /* \"#utility.yul\":19957:19981   */\n      tag_463\n        /* \"#utility.yul\":19975:19980   */\n      dup3\n        /* \"#utility.yul\":19957:19981   */\n      tag_235\n      jump\t// in\n    tag_463:\n        /* \"#utility.yul\":19948:19981   */\n      swap2\n      pop\n        /* \"#utility.yul\":20003:20069   */\n      0xffffffffffffffffffffffffffffffffffffffffffffffffffffffffffffffff\n        /* \"#utility.yul\":19996:20001   */\n      dup3\n        /* \"#utility.yul\":19993:20070   */\n      sub\n        /* \"#utility.yul\":19990:20093   */\n      tag_464\n      jumpi\n        /* \"#utility.yul\":20073:20091   */\n      tag_465\n      tag_259\n      jump\t// in\n    tag_465:\n        /* \"#utility.yul\":19990:20093   */\n    tag_464:\n        /* \"#utility.yul\":20120:20121   */\n      0x01\n        /* \"#utility.yul\":20113:20118   */\n      dup3\n        /* \"#utility.yul\":20109:20122   */\n      add\n        /* \"#utility.yul\":20102:20122   */\n      swap1\n      pop\n        /* \"#utility.yul\":19895:20128   */\n      swap2\n      swap1\n      pop\n      jump\t// out\n        /* \"#utility.yul\":20134:20314   */\n    tag_272:\n        /* \"#utility.yul\":20182:20259   */\n      0x4e487b7100000000000000000000000000000000000000000000000000000000\n        /* \"#utility.yul\":20179:20180   */\n      0x00\n        /* \"#utility.yul\":20172:20260   */\n      mstore\n        /* \"#utility.yul\":20279:20283   */\n      0x12\n        /* \"#utility.yul\":20276:20277   */\n      0x04\n        /* \"#utility.yul\":20269:20284   */\n      mstore\n        /* \"#utility.yul\":20303:20307   */\n      0x24\n        /* \"#utility.yul\":20300:20301   */\n      0x00\n        /* \"#utility.yul\":20293:20308   */\n      revert\n        /* \"#utility.yul\":20320:20505   */\n    tag_203:\n        /* \"#utility.yul\":20360:20361   */\n      0x00\n        /* \"#utility.yul\":20377:20397   */\n      tag_468\n        /* \"#utility.yul\":20395:20396   */\n      dup3\n        /* \"#utility.yul\":20377:20397   */\n      tag_235\n      jump\t// in\n    tag_468:\n        /* \"#utility.yul\":20372:20397   */\n      swap2\n      pop\n        /* \"#utility.yul\":20411:20431   */\n      tag_469\n        /* \"#utility.yul\":20429:20430   */\n      dup4\n        /* \"#utility.yul\":20411:20431   */\n      tag_235\n      jump\t// in\n    tag_469:\n        /* \"#utility.yul\":20406:20431   */\n      swap3\n      pop\n        /* \"#utility.yul\":20450:20451   */\n      dup3\n        /* \"#utility.yul\":20440:20475   */\n      tag_470\n      jumpi\n        /* \"#utility.yul\":20455:20473   */\n      tag_471\n      tag_272\n      jump\t// in\n    tag_471:\n        /* \"#utility.yul\":20440:20475   */\n    tag_470:\n        /* \"#utility.yul\":20497:20498   */\n      dup3\n        /* \"#utility.yul\":20494:20495   */\n      dup3\n        /* \"#utility.yul\":20490:20499   */\n      div\n        /* \"#utility.yul\":20485:20499   */\n      swap1\n      pop\n        /* \"#utility.yul\":20320:20505   */\n      swap3\n      swap2\n      pop\n      pop\n      jump\t// out\n        /* \"#utility.yul\":20511:20691   */\n    tag_206:\n        /* \"#utility.yul\":20559:20636   */\n      0x4e487b7100000000000000000000000000000000000000000000000000000000\n        /* \"#utility.yul\":20556:20557   */\n      0x00\n        /* \"#utility.yul\":20549:20637   */\n      mstore\n        /* \"#utility.yul\":20656:20660   */\n      0x41\n        /* \"#utility.yul\":20653:20654   */\n      0x04\n        /* \"#utility.yul\":20646:20661   */\n      mstore\n        /* \"#utility.yul\":20680:20684   */\n      0x24\n        /* \"#utility.yul\":20677:20678   */\n      0x00\n        /* \"#utility.yul\":20670:20685   */\n      revert\n        /* \"#utility.yul\":20697:20873   */\n    tag_212:\n        /* \"#utility.yul\":20729:20730   */\n      0x00\n        /* \"#utility.yul\":20746:20766   */\n      tag_474\n        /* \"#utility.yul\":20764:20765   */\n      dup3\n        /* \"#utility.yul\":20746:20766   */\n      tag_235\n      jump\t// in\n    tag_474:\n        /* \"#utility.yul\":20741:20766   */\n      swap2\n      pop\n        /* \"#utility.yul\":20780:20800   */\n      tag_475\n        /* \"#utility.yul\":20798:20799   */\n      dup4\n        /* \"#utility.yul\":20780:20800   */\n      tag_235\n      jump\t// in\n    tag_475:\n        /* \"#utility.yul\":20775:20800   */\n      swap3\n      pop\n        /* \"#utility.yul\":20819:20820   */\n      dup3\n        /* \"#utility.yul\":20809:20844   */\n      tag_476\n      jumpi\n        /* \"#utility.yul\":20824:20842   */\n      tag_477\n      tag_272\n      jump\t// in\n    tag_477:\n        /* \"#utility.yul\":20809:20844   */\n    tag_476:\n        /* \"#utility.yul\":20865:20866   */\n      dup3\n        /* \"#utility.yul\":20862:20863   */\n      dup3\n        /* \"#utility.yul\":20858:20867   */\n      mod\n        /* \"#utility.yul\":20853:20867   */\n      swap1\n      pop\n        /* \"#utility.yul\":20697:20873   */\n      swap3\n      swap2\n      pop\n      pop\n      jump\t// out\n        /* \"#utility.yul\":20879:21059   */\n    tag_216:\n        /* \"#utility.yul\":20927:21004   */\n      0x4e487b7100000000000000000000000000000000000000000000000000000000\n        /* \"#utility.yul\":20924:20925   */\n      0x00\n        /* \"#utility.yul\":20917:21005   */\n      mstore\n        /* \"#utility.yul\":21024:21028   */\n      0x32\n        /* \"#utility.yul\":21021:21022   */\n      0x04\n        /* \"#utility.yul\":21014:21029   */\n      mstore\n        /* \"#utility.yul\":21048:21052   */\n      0x24\n        /* \"#utility.yul\":21045:21046   */\n      0x00\n        /* \"#utility.yul\":21038:21053   */\n      revert\n\n    auxdata: 0xa2646970667358221220b268c5c3c9e3e0bf8d0a8b84e592f6c0f157aba208b33262a276cbe50b116a2e64736f6c634300081e0033\n}\n",
				"bytecode": {
					"linkReferences": {},
					"object": "608060405234801561000f575f5ffd5b5060405161279a38038061279a833981810160405281019061003191906101a5565b8160049081610040919061042b565b508060059081610050919061042b565b5050506104fa565b5f604051905090565b5f5ffd5b5f5ffd5b5f5ffd5b5f5ffd5b5f601f19601f8301169050919050565b7f4e487b71000000000000000000000000000000000000000000000000000000005f52604160045260245ffd5b6100b782610071565b810181811067ffffffffffffffff821117156100d6576100d5610081565b5b80604052505050565b5f6100e8610058565b90506100f482826100ae565b919050565b5f67ffffffffffffffff82111561011357610112610081565b5b61011c82610071565b9050602081019050919050565b8281835e5f83830152505050565b5f610149610144846100f9565b6100df565b9050828152602081018484840111156101655761016461006d565b5b610170848285610129565b509392505050565b5f82601f83011261018c5761018b610069565b5b815161019c848260208601610137565b91505092915050565b5f5f604083850312156101bb576101ba610061565b5b5f83015167ffffffffffffffff8111156101d8576101d7610065565b5b6101e485828601610178565b925050602083015167ffffffffffffffff81111561020557610204610065565b5b61021185828601610178565b9150509250929050565b5f81519050919050565b7f4e487b71000000000000000000000000000000000000000000000000000000005f52602260045260245ffd5b5f600282049050600182168061026957607f821691505b60208210810361027c5761027b610225565b5b50919050565b5f819050815f5260205f209050919050565b5f6020601f8301049050919050565b5f82821b905092915050565b5f600883026102de7fffffffffffffffffffffffffffffffffffffffffffffffffffffffffffffffff826102a3565b6102e886836102a3565b95508019841693508086168417925050509392505050565b5f819050919050565b5f819050919050565b5f61032c61032761032284610300565b610309565b610300565b9050919050565b5f819050919050565b61034583610312565b61035961035182610333565b8484546102af565b825550505050565b5f5f905090565b610370610361565b61037b81848461033c565b505050565b5b8181101561039e576103935f82610368565b600181019050610381565b5050565b601f8211156103e3576103b481610282565b6103bd84610294565b810160208510156103cc578190505b6103e06103d885610294565b830182610380565b50505b505050565b5f82821c905092915050565b5f6104035f19846008026103e8565b1980831691505092915050565b5f61041b83836103f4565b9150826002028217905092915050565b6104348261021b565b67ffffffffffffffff81111561044d5761044c610081565b5b6104578254610252565b6104628282856103a2565b5f60209050601f831160018114610493575f8415610481578287015190505b61048b8582610410565b8655506104f2565b601f1984166104a186610282565b5f5b828110156104c8578489015182556001820191506020850194506020810190506104a3565b868310156104e557848901516104e1601f8916826103f4565b8355505b6001600288020188555050505b505050505050565b612293806105075f395ff3fe608060405234801561000f575f5ffd5b50600436106100f3575f3560e01c806347457a2c11610095578063a22cb46511610064578063a22cb4651461027f578063b88d4fde1461029b578063c87b56dd146102b7578063e985e9c5146102e7576100f3565b806347457a2c146101e55780636352211e1461020157806370a082311461023157806395d89b4114610261576100f3565b8063095ea7b3116100d1578063095ea7b31461017557806323b872dd1461019157806342842e0e146101ad57806342966c68146101c9576100f3565b806301ffc9a7146100f757806306fdde0314610127578063081812fc14610145575b5f5ffd5b610111600480360381019061010c91906117f5565b610317565b60405161011e919061183a565b60405180910390f35b61012f610450565b60405161013c91906118c3565b60405180910390f35b61015f600480360381019061015a9190611916565b6104e0565b60405161016c9190611980565b60405180910390f35b61018f600480360381019061018a91906119c3565b610519565b005b6101ab60048036038101906101a69190611a01565b610665565b005b6101c760048036038101906101c29190611a01565b6107ef565b005b6101e360048036038101906101de9190611916565b610993565b005b6101ff60048036038101906101fa91906119c3565b610adb565b005b61021b60048036038101906102169190611916565b610ae9565b6040516102289190611980565b60405180910390f35b61024b60048036038101906102469190611a51565b610b22565b6040516102589190611a8b565b60405180910390f35b610269610bd5565b60405161027691906118c3565b60405180910390f35b61029960048036038101906102949190611ace565b610c65565b005b6102b560048036038101906102b09190611b6d565b610dd4565b005b6102d160048036038101906102cc9190611916565b61100a565b6040516102de91906118c3565b60405180910390f35b61030160048036038101906102fc9190611bf1565b611104565b60405161030e919061183a565b60405180910390f35b5f7f80ac58cd000000000000000000000000000000000000000000000000000000007bffffffffffffffffffffffffffffffffffffffffffffffffffffffff1916827bffffffffffffffffffffffffffffffffffffffffffffffffffffffff191614806103e157507f01ffc9a7000000000000000000000000000000000000000000000000000000007bffffffffffffffffffffffffffffffffffffffffffffffffffffffff1916827bffffffffffffffffffffffffffffffffffffffffffffffffffffffff1916145b8061044957507f5b5e139f000000000000000000000000000000000000000000000000000000007bffffffffffffffffffffffffffffffffffffffffffffffffffffffff1916827bffffffffffffffffffffffffffffffffffffffffffffffffffffffff1916145b9050919050565b60606004805461045f90611c5c565b80601f016020809104026020016040519081016040528092919081815260200182805461048b90611c5c565b80156104d65780601f106104ad576101008083540402835291602001916104d6565b820191905f5260205f20905b8154815290600101906020018083116104b957829003601f168201915b5050505050905090565b5f60025f8381526020019081526020015f205f9054906101000a900473ffffffffffffffffffffffffffffffffffffffff169050919050565b3373ffffffffffffffffffffffffffffffffffffffff1660015f8381526020019081526020015f205f9054906101000a900473ffffffffffffffffffffffffffffffffffffffff1673ffffffffffffffffffffffffffffffffffffffff16146105b7576040517f08c379a00000000000000000000000000000000000000000000000000000000081526004016105ae90611cd6565b60405180910390fd5b808273ffffffffffffffffffffffffffffffffffffffff163373ffffffffffffffffffffffffffffffffffffffff167f8c5be1e5ebec7d5bd14f71427d1e84f3dd0314c0f7b2291e5b200ac8c7c3b92560405160405180910390a48160025f8381526020019081526020015f205f6101000a81548173ffffffffffffffffffffffffffffffffffffffff021916908373ffffffffffffffffffffffffffffffffffffffff1602179055505050565b3373ffffffffffffffffffffffffffffffffffffffff1660025f8381526020019081526020015f205f9054906101000a900473ffffffffffffffffffffffffffffffffffffffff1673ffffffffffffffffffffffffffffffffffffffff1614610703576040517f08c379a00000000000000000000000000000000000000000000000000000000081526004016106fa90611d3e565b60405180910390fd5b5f73ffffffffffffffffffffffffffffffffffffffff168273ffffffffffffffffffffffffffffffffffffffff1603610771576040517f08c379a000000000000000000000000000000000000000000000000000000000815260040161076890611da6565b60405180910390fd5b5f73ffffffffffffffffffffffffffffffffffffffff168373ffffffffffffffffffffffffffffffffffffffff16036107df576040517f08c379a00000000000000000000000000000000000000000000000000000000081526004016107d690611e0e565b60405180910390fd5b6107ea838383611192565b505050565b3373ffffffffffffffffffffffffffffffffffffffff1660025f8381526020019081526020015f205f9054906101000a900473ffffffffffffffffffffffffffffffffffffffff1673ffffffffffffffffffffffffffffffffffffffff161461088d576040517f08c379a000000000000000000000000000000000000000000000000000000000815260040161088490611d3e565b60405180910390fd5b5f73ffffffffffffffffffffffffffffffffffffffff168273ffffffffffffffffffffffffffffffffffffffff16036108fb576040517f08c379a00000000000000000000000000000000000000000000000000000000081526004016108f290611da6565b60405180910390fd5b5f73ffffffffffffffffffffffffffffffffffffffff168373ffffffffffffffffffffffffffffffffffffffff1603610969576040517f08c379a000000000000000000000000000000000000000000000000000000000815260040161096090611e0e565b60405180910390fd5b610974838383611192565b61098e83838360405180602001604052805f8152506112e7565b505050565b5f60015f8381526020019081526020015f205f9054906101000a900473ffffffffffffffffffffffffffffffffffffffff1690503373ffffffffffffffffffffffffffffffffffffffff168173ffffffffffffffffffffffffffffffffffffffff1614610a35576040517f08c379a0000000000000000000000000000000000000000000000000000000008152600401610a2c90611cd6565b60405180910390fd5b60015f5f8373ffffffffffffffffffffffffffffffffffffffff1673ffffffffffffffffffffffffffffffffffffffff1681526020019081526020015f205f828254610a819190611e59565b925050819055505f60015f8481526020019081526020015f205f6101000a81548173ffffffffffffffffffffffffffffffffffffffff021916908373ffffffffffffffffffffffffffffffffffffffff1602179055505050565b610ae58282611492565b5050565b5f60015f8381526020019081526020015f205f9054906101000a900473ffffffffffffffffffffffffffffffffffffffff169050919050565b5f5f73ffffffffffffffffffffffffffffffffffffffff168273ffffffffffffffffffffffffffffffffffffffff1603610b91576040517f08c379a0000000000000000000000000000000000000000000000000000000008152600401610b8890611ed6565b60405180910390fd5b5f5f8373ffffffffffffffffffffffffffffffffffffffff1673ffffffffffffffffffffffffffffffffffffffff1681526020019081526020015f20549050919050565b606060058054610be490611c5c565b80601f0160208091040260200160405190810160405280929190818152602001828054610c1090611c5c565b8015610c5b5780601f10610c3257610100808354040283529160200191610c5b565b820191905f5260205f20905b815481529060010190602001808311610c3e57829003601f168201915b5050505050905090565b5f73ffffffffffffffffffffffffffffffffffffffff168273ffffffffffffffffffffffffffffffffffffffff1603610cd3576040517f08c379a0000000000000000000000000000000000000000000000000000000008152600401610cca90611f3e565b60405180910390fd5b5f73ffffffffffffffffffffffffffffffffffffffff163373ffffffffffffffffffffffffffffffffffffffff1603610d41576040517f08c379a0000000000000000000000000000000000000000000000000000000008152600401610d3890611ed6565b60405180910390fd5b8060035f3373ffffffffffffffffffffffffffffffffffffffff1673ffffffffffffffffffffffffffffffffffffffff1681526020019081526020015f205f8473ffffffffffffffffffffffffffffffffffffffff1673ffffffffffffffffffffffffffffffffffffffff1681526020019081526020015f205f6101000a81548160ff0219169083151502179055505050565b3373ffffffffffffffffffffffffffffffffffffffff1660025f8581526020019081526020015f205f9054906101000a900473ffffffffffffffffffffffffffffffffffffffff1673ffffffffffffffffffffffffffffffffffffffff1614610e72576040517f08c379a0000000000000000000000000000000000000000000000000000000008152600401610e6990611d3e565b60405180910390fd5b5f73ffffffffffffffffffffffffffffffffffffffff168473ffffffffffffffffffffffffffffffffffffffff1603610ee0576040517f08c379a0000000000000000000000000000000000000000000000000000000008152600401610ed790611da6565b60405180910390fd5b5f73ffffffffffffffffffffffffffffffffffffffff168573ffffffffffffffffffffffffffffffffffffffff1603610f4e576040517f08c379a0000000000000000000000000000000000000000000000000000000008152600401610f4590611e0e565b60405180910390fd5b610f59858585611192565b610fa885858585858080601f0160208091040260200160405190810160405280939291908181526020018383808284375f81840152601f19601f820116905080830192505050505050506112e7565b828473ffffffffffffffffffffffffffffffffffffffff168673ffffffffffffffffffffffffffffffffffffffff167fddf252ad1be2c89b69c2b068fc378daa952ba7f163c4a11628f55a4df523b3ef60405160405180910390a45050505050565b60605f73ffffffffffffffffffffffffffffffffffffffff1660015f8481526020019081526020015f205f9054906101000a900473ffffffffffffffffffffffffffffffffffffffff1673ffffffffffffffffffffffffffffffffffffffff16036110aa576040517f08c379a00000000000000000000000000000000000000000000000000000000081526004016110a190611fa6565b60405180910390fd5b5f6110b36114ba565b90505f8151116110d15760405180602001604052805f8152506110fc565b806110db846114d0565b6040516020016110ec929190611ffe565b6040516020818303038152906040525b915050919050565b5f60035f8473ffffffffffffffffffffffffffffffffffffffff1673ffffffffffffffffffffffffffffffffffffffff1681526020019081526020015f205f8373ffffffffffffffffffffffffffffffffffffffff1673ffffffffffffffffffffffffffffffffffffffff1681526020019081526020015f205f9054906101000a900460ff16905092915050565b60015f5f8573ffffffffffffffffffffffffffffffffffffffff1673ffffffffffffffffffffffffffffffffffffffff1681526020019081526020015f205f8282546111de9190611e59565b9250508190555060015f5f8473ffffffffffffffffffffffffffffffffffffffff1673ffffffffffffffffffffffffffffffffffffffff1681526020019081526020015f205f8282546112319190612021565b925050819055508160015f8381526020019081526020015f205f6101000a81548173ffffffffffffffffffffffffffffffffffffffff021916908373ffffffffffffffffffffffffffffffffffffffff160217905550808273ffffffffffffffffffffffffffffffffffffffff168473ffffffffffffffffffffffffffffffffffffffff167fddf252ad1be2c89b69c2b068fc378daa952ba7f163c4a11628f55a4df523b3ef60405160405180910390a4505050565b5f8373ffffffffffffffffffffffffffffffffffffffff163b111561148c578273ffffffffffffffffffffffffffffffffffffffff1663150b7a02338685856040518563ffffffff1660e01b815260040161134594939291906120a6565b6020604051808303815f875af192505050801561138057506040513d601f19601f8201168201806040525081019061137d9190612104565b60015b611401573d805f81146113ae576040519150601f19603f3d011682016040523d82523d5f602084013e6113b3565b606091505b505f8151036113f957836040517f64a0ae920000000000000000000000000000000000000000000000000000000081526004016113f09190611980565b60405180910390fd5b805181602001fd5b63150b7a0260e01b7bffffffffffffffffffffffffffffffffffffffffffffffffffffffff1916817bffffffffffffffffffffffffffffffffffffffffffffffffffffffff19161461148a57836040517f64a0ae920000000000000000000000000000000000000000000000000000000081526004016114819190611980565b60405180910390fd5b505b50505050565b61149c8282611629565b6114b633838360405180602001604052805f8152506112e7565b5050565b606060405180602001604052805f815250905090565b60605f8203611516576040518060400160405280600181526020017f30000000000000000000000000000000000000000000000000000000000000008152509050611624565b5f8290505f5b5f821461154557808061152e9061212f565b915050600a8261153e91906121a3565b915061151c565b5f8167ffffffffffffffff8111156115605761155f6121d3565b5b6040519080825280601f01601f1916602001820160405280156115925781602001600182028036833780820191505090505b5090505b5f851461161d576001826115aa9190611e59565b9150600a856115b99190612200565b60306115c59190612021565b60f81b8183815181106115db576115da612230565b5b60200101907effffffffffffffffffffffffffffffffffffffffffffffffffffffffffffff191690815f1a905350600a8561161691906121a3565b9450611596565b8093505050505b919050565b5f73ffffffffffffffffffffffffffffffffffffffff168273ffffffffffffffffffffffffffffffffffffffff1603611697576040517f08c379a000000000000000000000000000000000000000000000000000000000815260040161168e90611da6565b60405180910390fd5b60015f5f8473ffffffffffffffffffffffffffffffffffffffff1673ffffffffffffffffffffffffffffffffffffffff1681526020019081526020015f205f8282546116e39190612021565b925050819055508160015f8381526020019081526020015f205f6101000a81548173ffffffffffffffffffffffffffffffffffffffff021916908373ffffffffffffffffffffffffffffffffffffffff160217905550808273ffffffffffffffffffffffffffffffffffffffff165f73ffffffffffffffffffffffffffffffffffffffff167fddf252ad1be2c89b69c2b068fc378daa952ba7f163c4a11628f55a4df523b3ef60405160405180910390a45050565b5f5ffd5b5f5ffd5b5f7fffffffff0000000000000000000000000000000000000000000000000000000082169050919050565b6117d4816117a0565b81146117de575f5ffd5b50565b5f813590506117ef816117cb565b92915050565b5f6020828403121561180a57611809611798565b5b5f611817848285016117e1565b91505092915050565b5f8115159050919050565b61183481611820565b82525050565b5f60208201905061184d5f83018461182b565b92915050565b5f81519050919050565b5f82825260208201905092915050565b8281835e5f83830152505050565b5f601f19601f8301169050919050565b5f61189582611853565b61189f818561185d565b93506118af81856020860161186d565b6118b88161187b565b840191505092915050565b5f6020820190508181035f8301526118db818461188b565b905092915050565b5f819050919050565b6118f5816118e3565b81146118ff575f5ffd5b50565b5f81359050611910816118ec565b92915050565b5f6020828403121561192b5761192a611798565b5b5f61193884828501611902565b91505092915050565b5f73ffffffffffffffffffffffffffffffffffffffff82169050919050565b5f61196a82611941565b9050919050565b61197a81611960565b82525050565b5f6020820190506119935f830184611971565b92915050565b6119a281611960565b81146119ac575f5ffd5b50565b5f813590506119bd81611999565b92915050565b5f5f604083850312156119d9576119d8611798565b5b5f6119e6858286016119af565b92505060206119f785828601611902565b9150509250929050565b5f5f5f60608486031215611a1857611a17611798565b5b5f611a25868287016119af565b9350506020611a36868287016119af565b9250506040611a4786828701611902565b9150509250925092565b5f60208284031215611a6657611a65611798565b5b5f611a73848285016119af565b91505092915050565b611a85816118e3565b82525050565b5f602082019050611a9e5f830184611a7c565b92915050565b611aad81611820565b8114611ab7575f5ffd5b50565b5f81359050611ac881611aa4565b92915050565b5f5f60408385031215611ae457611ae3611798565b5b5f611af1858286016119af565b9250506020611b0285828601611aba565b9150509250929050565b5f5ffd5b5f5ffd5b5f5ffd5b5f5f83601f840112611b2d57611b2c611b0c565b5b8235905067ffffffffffffffff811115611b4a57611b49611b10565b5b602083019150836001820283011115611b6657611b65611b14565b5b9250929050565b5f5f5f5f5f60808688031215611b8657611b85611798565b5b5f611b93888289016119af565b9550506020611ba4888289016119af565b9450506040611bb588828901611902565b935050606086013567ffffffffffffffff811115611bd657611bd561179c565b5b611be288828901611b18565b92509250509295509295909350565b5f5f60408385031215611c0757611c06611798565b5b5f611c14858286016119af565b9250506020611c25858286016119af565b9150509250929050565b7f4e487b71000000000000000000000000000000000000000000000000000000005f52602260045260245ffd5b5f6002820490506001821680611c7357607f821691505b602082108103611c8657611c85611c2f565b5b50919050565b7f746f6b656e4964206e6f74206973206f776e65720000000000000000000000005f82015250565b5f611cc060148361185d565b9150611ccb82611c8c565b602082019050919050565b5f6020820190508181035f830152611ced81611cb4565b9050919050565b7f6e6f7420617070726f76616c00000000000000000000000000000000000000005f82015250565b5f611d28600c8361185d565b9150611d3382611cf4565b602082019050919050565b5f6020820190508181035f830152611d5581611d1c565b9050919050565b7f746f206e6f7420697320307830300000000000000000000000000000000000005f82015250565b5f611d90600e8361185d565b9150611d9b82611d5c565b602082019050919050565b5f6020820190508181035f830152611dbd81611d84565b9050919050565b7f66726f6d206e6f742069732030783030000000000000000000000000000000005f82015250565b5f611df860108361185d565b9150611e0382611dc4565b602082019050919050565b5f6020820190508181035f830152611e2581611dec565b9050919050565b7f4e487b71000000000000000000000000000000000000000000000000000000005f52601160045260245ffd5b5f611e63826118e3565b9150611e6e836118e3565b9250828203905081811115611e8657611e85611e2c565b5b92915050565b7f6f776e6572206e6f7420697320307830300000000000000000000000000000005f82015250565b5f611ec060118361185d565b9150611ecb82611e8c565b602082019050919050565b5f6020820190508181035f830152611eed81611eb4565b9050919050565b7f6f70657261746f72206e6f7420697320307830300000000000000000000000005f82015250565b5f611f2860148361185d565b9150611f3382611ef4565b602082019050919050565b5f6020820190508181035f830152611f5581611f1c565b9050919050565b7f546f6b656e204e6f7420457869737400000000000000000000000000000000005f82015250565b5f611f90600f8361185d565b9150611f9b82611f5c565b602082019050919050565b5f6020820190508181035f830152611fbd81611f84565b9050919050565b5f81905092915050565b5f611fd882611853565b611fe28185611fc4565b9350611ff281856020860161186d565b80840191505092915050565b5f6120098285611fce565b91506120158284611fce565b91508190509392505050565b5f61202b826118e3565b9150612036836118e3565b925082820190508082111561204e5761204d611e2c565b5b92915050565b5f81519050919050565b5f82825260208201905092915050565b5f61207882612054565b612082818561205e565b935061209281856020860161186d565b61209b8161187b565b840191505092915050565b5f6080820190506120b95f830187611971565b6120c66020830186611971565b6120d36040830185611a7c565b81810360608301526120e5818461206e565b905095945050505050565b5f815190506120fe816117cb565b92915050565b5f6020828403121561211957612118611798565b5b5f612126848285016120f0565b91505092915050565b5f612139826118e3565b91507fffffffffffffffffffffffffffffffffffffffffffffffffffffffffffffffff820361216b5761216a611e2c565b5b600182019050919050565b7f4e487b71000000000000000000000000000000000000000000000000000000005f52601260045260245ffd5b5f6121ad826118e3565b91506121b8836118e3565b9250826121c8576121c7612176565b5b828204905092915050565b7f4e487b71000000000000000000000000000000000000000000000000000000005f52604160045260245ffd5b5f61220a826118e3565b9150612215836118e3565b92508261222557612224612176565b5b828206905092915050565b7f4e487b71000000000000000000000000000000000000000000000000000000005f52603260045260245ffdfea2646970667358221220b268c5c3c9e3e0bf8d0a8b84e592f6c0f157aba208b33262a276cbe50b116a2e64736f6c634300081e0033",
					"opcodes": "PUSH1 0x80 PUSH1 0x40 MSTORE CALLVALUE DUP1 ISZERO PUSH2 0xF JUMPI PUSH0 PUSH0 REVERT JUMPDEST POP PUSH1 0x40 MLOAD PUSH2 0x279A CODESIZE SUB DUP1 PUSH2 0x279A DUP4 CODECOPY DUP2 DUP2 ADD PUSH1 0x40 MSTORE DUP2 ADD SWAP1 PUSH2 0x31 SWAP2 SWAP1 PUSH2 0x1A5 JUMP JUMPDEST DUP2 PUSH1 0x4 SWAP1 DUP2 PUSH2 0x40 SWAP2 SWAP1 PUSH2 0x42B JUMP JUMPDEST POP DUP1 PUSH1 0x5 SWAP1 DUP2 PUSH2 0x50 SWAP2 SWAP1 PUSH2 0x42B JUMP JUMPDEST POP POP POP PUSH2 0x4FA JUMP JUMPDEST PUSH0 PUSH1 0x40 MLOAD SWAP1 POP SWAP1 JUMP JUMPDEST PUSH0 PUSH0 REVERT JUMPDEST PUSH0 PUSH0 REVERT JUMPDEST PUSH0 PUSH0 REVERT JUMPDEST PUSH0 PUSH0 REVERT JUMPDEST PUSH0 PUSH1 0x1F NOT PUSH1 0x1F DUP4 ADD AND SWAP1 POP SWAP2 SWAP1 POP JUMP JUMPDEST PUSH32 0x4E487B7100000000000000000000000000000000000000000000000000000000 PUSH0 MSTORE PUSH1 0x41 PUSH1 0x4 MSTORE PUSH1 0x24 PUSH0 REVERT JUMPDEST PUSH2 0xB7 DUP3 PUSH2 0x71 JUMP JUMPDEST DUP2 ADD DUP2 DUP2 LT PUSH8 0xFFFFFFFFFFFFFFFF DUP3 GT OR ISZERO PUSH2 0xD6 JUMPI PUSH2 0xD5 PUSH2 0x81 JUMP JUMPDEST JUMPDEST DUP1 PUSH1 0x40 MSTORE POP POP POP JUMP JUMPDEST PUSH0 PUSH2 0xE8 PUSH2 0x58 JUMP JUMPDEST SWAP1 POP PUSH2 0xF4 DUP3 DUP3 PUSH2 0xAE JUMP JUMPDEST SWAP2 SWAP1 POP JUMP JUMPDEST PUSH0 PUSH8 0xFFFFFFFFFFFFFFFF DUP3 GT ISZERO PUSH2 0x113 JUMPI PUSH2 0x112 PUSH2 0x81 JUMP JUMPDEST JUMPDEST PUSH2 0x11C DUP3 PUSH2 0x71 JUMP JUMPDEST SWAP1 POP PUSH1 0x20 DUP2 ADD SWAP1 POP SWAP2 SWAP1 POP JUMP JUMPDEST DUP3 DUP2 DUP4 MCOPY PUSH0 DUP4 DUP4 ADD MSTORE POP POP POP JUMP JUMPDEST PUSH0 PUSH2 0x149 PUSH2 0x144 DUP5 PUSH2 0xF9 JUMP JUMPDEST PUSH2 0xDF JUMP JUMPDEST SWAP1 POP DUP3 DUP2 MSTORE PUSH1 0x20 DUP2 ADD DUP5 DUP5 DUP5 ADD GT ISZERO PUSH2 0x165 JUMPI PUSH2 0x164 PUSH2 0x6D JUMP JUMPDEST JUMPDEST PUSH2 0x170 DUP5 DUP3 DUP6 PUSH2 0x129 JUMP JUMPDEST POP SWAP4 SWAP3 POP POP POP JUMP JUMPDEST PUSH0 DUP3 PUSH1 0x1F DUP4 ADD SLT PUSH2 0x18C JUMPI PUSH2 0x18B PUSH2 0x69 JUMP JUMPDEST JUMPDEST DUP2 MLOAD PUSH2 0x19C DUP5 DUP3 PUSH1 0x20 DUP7 ADD PUSH2 0x137 JUMP JUMPDEST SWAP2 POP POP SWAP3 SWAP2 POP POP JUMP JUMPDEST PUSH0 PUSH0 PUSH1 0x40 DUP4 DUP6 SUB SLT ISZERO PUSH2 0x1BB JUMPI PUSH2 0x1BA PUSH2 0x61 JUMP JUMPDEST JUMPDEST PUSH0 DUP4 ADD MLOAD PUSH8 0xFFFFFFFFFFFFFFFF DUP2 GT ISZERO PUSH2 0x1D8 JUMPI PUSH2 0x1D7 PUSH2 0x65 JUMP JUMPDEST JUMPDEST PUSH2 0x1E4 DUP6 DUP3 DUP7 ADD PUSH2 0x178 JUMP JUMPDEST SWAP3 POP POP PUSH1 0x20 DUP4 ADD MLOAD PUSH8 0xFFFFFFFFFFFFFFFF DUP2 GT ISZERO PUSH2 0x205 JUMPI PUSH2 0x204 PUSH2 0x65 JUMP JUMPDEST JUMPDEST PUSH2 0x211 DUP6 DUP3 DUP7 ADD PUSH2 0x178 JUMP JUMPDEST SWAP2 POP POP SWAP3 POP SWAP3 SWAP1 POP JUMP JUMPDEST PUSH0 DUP2 MLOAD SWAP1 POP SWAP2 SWAP1 POP JUMP JUMPDEST PUSH32 0x4E487B7100000000000000000000000000000000000000000000000000000000 PUSH0 MSTORE PUSH1 0x22 PUSH1 0x4 MSTORE PUSH1 0x24 PUSH0 REVERT JUMPDEST PUSH0 PUSH1 0x2 DUP3 DIV SWAP1 POP PUSH1 0x1 DUP3 AND DUP1 PUSH2 0x269 JUMPI PUSH1 0x7F DUP3 AND SWAP2 POP JUMPDEST PUSH1 0x20 DUP3 LT DUP2 SUB PUSH2 0x27C JUMPI PUSH2 0x27B PUSH2 0x225 JUMP JUMPDEST JUMPDEST POP SWAP2 SWAP1 POP JUMP JUMPDEST PUSH0 DUP2 SWAP1 POP DUP2 PUSH0 MSTORE PUSH1 0x20 PUSH0 KECCAK256 SWAP1 POP SWAP2 SWAP1 POP JUMP JUMPDEST PUSH0 PUSH1 0x20 PUSH1 0x1F DUP4 ADD DIV SWAP1 POP SWAP2 SWAP1 POP JUMP JUMPDEST PUSH0 DUP3 DUP3 SHL SWAP1 POP SWAP3 SWAP2 POP POP JUMP JUMPDEST PUSH0 PUSH1 0x8 DUP4 MUL PUSH2 0x2DE PUSH32 0xFFFFFFFFFFFFFFFFFFFFFFFFFFFFFFFFFFFFFFFFFFFFFFFFFFFFFFFFFFFFFFFF DUP3 PUSH2 0x2A3 JUMP JUMPDEST PUSH2 0x2E8 DUP7 DUP4 PUSH2 0x2A3 JUMP JUMPDEST SWAP6 POP DUP1 NOT DUP5 AND SWAP4 POP DUP1 DUP7 AND DUP5 OR SWAP3 POP POP POP SWAP4 SWAP3 POP POP POP JUMP JUMPDEST PUSH0 DUP2 SWAP1 POP SWAP2 SWAP1 POP JUMP JUMPDEST PUSH0 DUP2 SWAP1 POP SWAP2 SWAP1 POP JUMP JUMPDEST PUSH0 PUSH2 0x32C PUSH2 0x327 PUSH2 0x322 DUP5 PUSH2 0x300 JUMP JUMPDEST PUSH2 0x309 JUMP JUMPDEST PUSH2 0x300 JUMP JUMPDEST SWAP1 POP SWAP2 SWAP1 POP JUMP JUMPDEST PUSH0 DUP2 SWAP1 POP SWAP2 SWAP1 POP JUMP JUMPDEST PUSH2 0x345 DUP4 PUSH2 0x312 JUMP JUMPDEST PUSH2 0x359 PUSH2 0x351 DUP3 PUSH2 0x333 JUMP JUMPDEST DUP5 DUP5 SLOAD PUSH2 0x2AF JUMP JUMPDEST DUP3 SSTORE POP POP POP POP JUMP JUMPDEST PUSH0 PUSH0 SWAP1 POP SWAP1 JUMP JUMPDEST PUSH2 0x370 PUSH2 0x361 JUMP JUMPDEST PUSH2 0x37B DUP2 DUP5 DUP5 PUSH2 0x33C JUMP JUMPDEST POP POP POP JUMP JUMPDEST JUMPDEST DUP2 DUP2 LT ISZERO PUSH2 0x39E JUMPI PUSH2 0x393 PUSH0 DUP3 PUSH2 0x368 JUMP JUMPDEST PUSH1 0x1 DUP2 ADD SWAP1 POP PUSH2 0x381 JUMP JUMPDEST POP POP JUMP JUMPDEST PUSH1 0x1F DUP3 GT ISZERO PUSH2 0x3E3 JUMPI PUSH2 0x3B4 DUP2 PUSH2 0x282 JUMP JUMPDEST PUSH2 0x3BD DUP5 PUSH2 0x294 JUMP JUMPDEST DUP2 ADD PUSH1 0x20 DUP6 LT ISZERO PUSH2 0x3CC JUMPI DUP2 SWAP1 POP JUMPDEST PUSH2 0x3E0 PUSH2 0x3D8 DUP6 PUSH2 0x294 JUMP JUMPDEST DUP4 ADD DUP3 PUSH2 0x380 JUMP JUMPDEST POP POP JUMPDEST POP POP POP JUMP JUMPDEST PUSH0 DUP3 DUP3 SHR SWAP1 POP SWAP3 SWAP2 POP POP JUMP JUMPDEST PUSH0 PUSH2 0x403 PUSH0 NOT DUP5 PUSH1 0x8 MUL PUSH2 0x3E8 JUMP JUMPDEST NOT DUP1 DUP4 AND SWAP2 POP POP SWAP3 SWAP2 POP POP JUMP JUMPDEST PUSH0 PUSH2 0x41B DUP4 DUP4 PUSH2 0x3F4 JUMP JUMPDEST SWAP2 POP DUP3 PUSH1 0x2 MUL DUP3 OR SWAP1 POP SWAP3 SWAP2 POP POP JUMP JUMPDEST PUSH2 0x434 DUP3 PUSH2 0x21B JUMP JUMPDEST PUSH8 0xFFFFFFFFFFFFFFFF DUP2 GT ISZERO PUSH2 0x44D JUMPI PUSH2 0x44C PUSH2 0x81 JUMP JUMPDEST JUMPDEST PUSH2 0x457 DUP3 SLOAD PUSH2 0x252 JUMP JUMPDEST PUSH2 0x462 DUP3 DUP3 DUP6 PUSH2 0x3A2 JUMP JUMPDEST PUSH0 PUSH1 0x20 SWAP1 POP PUSH1 0x1F DUP4 GT PUSH1 0x1 DUP2 EQ PUSH2 0x493 JUMPI PUSH0 DUP5 ISZERO PUSH2 0x481 JUMPI DUP3 DUP8 ADD MLOAD SWAP1 POP JUMPDEST PUSH2 0x48B DUP6 DUP3 PUSH2 0x410 JUMP JUMPDEST DUP7 SSTORE POP PUSH2 0x4F2 JUMP JUMPDEST PUSH1 0x1F NOT DUP5 AND PUSH2 0x4A1 DUP7 PUSH2 0x282 JUMP JUMPDEST PUSH0 JUMPDEST DUP3 DUP2 LT ISZERO PUSH2 0x4C8 JUMPI DUP5 DUP10 ADD MLOAD DUP3 SSTORE PUSH1 0x1 DUP3 ADD SWAP2 POP PUSH1 0x20 DUP6 ADD SWAP5 POP PUSH1 0x20 DUP2 ADD SWAP1 POP PUSH2 0x4A3 JUMP JUMPDEST DUP7 DUP4 LT ISZERO PUSH2 0x4E5 JUMPI DUP5 DUP10 ADD MLOAD PUSH2 0x4E1 PUSH1 0x1F DUP10 AND DUP3 PUSH2 0x3F4 JUMP JUMPDEST DUP4 SSTORE POP JUMPDEST PUSH1 0x1 PUSH1 0x2 DUP9 MUL ADD DUP9 SSTORE POP POP POP JUMPDEST POP POP POP POP POP POP JUMP JUMPDEST PUSH2 0x2293 DUP1 PUSH2 0x507 PUSH0 CODECOPY PUSH0 RETURN INVALID PUSH1 0x80 PUSH1 0x40 MSTORE CALLVALUE DUP1 ISZERO PUSH2 0xF JUMPI PUSH0 PUSH0 REVERT JUMPDEST POP PUSH1 0x4 CALLDATASIZE LT PUSH2 0xF3 JUMPI PUSH0 CALLDATALOAD PUSH1 0xE0 SHR DUP1 PUSH4 0x47457A2C GT PUSH2 0x95 JUMPI DUP1 PUSH4 0xA22CB465 GT PUSH2 0x64 JUMPI DUP1 PUSH4 0xA22CB465 EQ PUSH2 0x27F JUMPI DUP1 PUSH4 0xB88D4FDE EQ PUSH2 0x29B JUMPI DUP1 PUSH4 0xC87B56DD EQ PUSH2 0x2B7 JUMPI DUP1 PUSH4 0xE985E9C5 EQ PUSH2 0x2E7 JUMPI PUSH2 0xF3 JUMP JUMPDEST DUP1 PUSH4 0x47457A2C EQ PUSH2 0x1E5 JUMPI DUP1 PUSH4 0x6352211E EQ PUSH2 0x201 JUMPI DUP1 PUSH4 0x70A08231 EQ PUSH2 0x231 JUMPI DUP1 PUSH4 0x95D89B41 EQ PUSH2 0x261 JUMPI PUSH2 0xF3 JUMP JUMPDEST DUP1 PUSH4 0x95EA7B3 GT PUSH2 0xD1 JUMPI DUP1 PUSH4 0x95EA7B3 EQ PUSH2 0x175 JUMPI DUP1 PUSH4 0x23B872DD EQ PUSH2 0x191 JUMPI DUP1 PUSH4 0x42842E0E EQ PUSH2 0x1AD JUMPI DUP1 PUSH4 0x42966C68 EQ PUSH2 0x1C9 JUMPI PUSH2 0xF3 JUMP JUMPDEST DUP1 PUSH4 0x1FFC9A7 EQ PUSH2 0xF7 JUMPI DUP1 PUSH4 0x6FDDE03 EQ PUSH2 0x127 JUMPI DUP1 PUSH4 0x81812FC EQ PUSH2 0x145 JUMPI JUMPDEST PUSH0 PUSH0 REVERT JUMPDEST PUSH2 0x111 PUSH1 0x4 DUP1 CALLDATASIZE SUB DUP2 ADD SWAP1 PUSH2 0x10C SWAP2 SWAP1 PUSH2 0x17F5 JUMP JUMPDEST PUSH2 0x317 JUMP JUMPDEST PUSH1 0x40 MLOAD PUSH2 0x11E SWAP2 SWAP1 PUSH2 0x183A JUMP JUMPDEST PUSH1 0x40 MLOAD DUP1 SWAP2 SUB SWAP1 RETURN JUMPDEST PUSH2 0x12F PUSH2 0x450 JUMP JUMPDEST PUSH1 0x40 MLOAD PUSH2 0x13C SWAP2 SWAP1 PUSH2 0x18C3 JUMP JUMPDEST PUSH1 0x40 MLOAD DUP1 SWAP2 SUB SWAP1 RETURN JUMPDEST PUSH2 0x15F PUSH1 0x4 DUP1 CALLDATASIZE SUB DUP2 ADD SWAP1 PUSH2 0x15A SWAP2 SWAP1 PUSH2 0x1916 JUMP JUMPDEST PUSH2 0x4E0 JUMP JUMPDEST PUSH1 0x40 MLOAD PUSH2 0x16C SWAP2 SWAP1 PUSH2 0x1980 JUMP JUMPDEST PUSH1 0x40 MLOAD DUP1 SWAP2 SUB SWAP1 RETURN JUMPDEST PUSH2 0x18F PUSH1 0x4 DUP1 CALLDATASIZE SUB DUP2 ADD SWAP1 PUSH2 0x18A SWAP2 SWAP1 PUSH2 0x19C3 JUMP JUMPDEST PUSH2 0x519 JUMP JUMPDEST STOP JUMPDEST PUSH2 0x1AB PUSH1 0x4 DUP1 CALLDATASIZE SUB DUP2 ADD SWAP1 PUSH2 0x1A6 SWAP2 SWAP1 PUSH2 0x1A01 JUMP JUMPDEST PUSH2 0x665 JUMP JUMPDEST STOP JUMPDEST PUSH2 0x1C7 PUSH1 0x4 DUP1 CALLDATASIZE SUB DUP2 ADD SWAP1 PUSH2 0x1C2 SWAP2 SWAP1 PUSH2 0x1A01 JUMP JUMPDEST PUSH2 0x7EF JUMP JUMPDEST STOP JUMPDEST PUSH2 0x1E3 PUSH1 0x4 DUP1 CALLDATASIZE SUB DUP2 ADD SWAP1 PUSH2 0x1DE SWAP2 SWAP1 PUSH2 0x1916 JUMP JUMPDEST PUSH2 0x993 JUMP JUMPDEST STOP JUMPDEST PUSH2 0x1FF PUSH1 0x4 DUP1 CALLDATASIZE SUB DUP2 ADD SWAP1 PUSH2 0x1FA SWAP2 SWAP1 PUSH2 0x19C3 JUMP JUMPDEST PUSH2 0xADB JUMP JUMPDEST STOP JUMPDEST PUSH2 0x21B PUSH1 0x4 DUP1 CALLDATASIZE SUB DUP2 ADD SWAP1 PUSH2 0x216 SWAP2 SWAP1 PUSH2 0x1916 JUMP JUMPDEST PUSH2 0xAE9 JUMP JUMPDEST PUSH1 0x40 MLOAD PUSH2 0x228 SWAP2 SWAP1 PUSH2 0x1980 JUMP JUMPDEST PUSH1 0x40 MLOAD DUP1 SWAP2 SUB SWAP1 RETURN JUMPDEST PUSH2 0x24B PUSH1 0x4 DUP1 CALLDATASIZE SUB DUP2 ADD SWAP1 PUSH2 0x246 SWAP2 SWAP1 PUSH2 0x1A51 JUMP JUMPDEST PUSH2 0xB22 JUMP JUMPDEST PUSH1 0x40 MLOAD PUSH2 0x258 SWAP2 SWAP1 PUSH2 0x1A8B JUMP JUMPDEST PUSH1 0x40 MLOAD DUP1 SWAP2 SUB SWAP1 RETURN JUMPDEST PUSH2 0x269 PUSH2 0xBD5 JUMP JUMPDEST PUSH1 0x40 MLOAD PUSH2 0x276 SWAP2 SWAP1 PUSH2 0x18C3 JUMP JUMPDEST PUSH1 0x40 MLOAD DUP1 SWAP2 SUB SWAP1 RETURN JUMPDEST PUSH2 0x299 PUSH1 0x4 DUP1 CALLDATASIZE SUB DUP2 ADD SWAP1 PUSH2 0x294 SWAP2 SWAP1 PUSH2 0x1ACE JUMP JUMPDEST PUSH2 0xC65 JUMP JUMPDEST STOP JUMPDEST PUSH2 0x2B5 PUSH1 0x4 DUP1 CALLDATASIZE SUB DUP2 ADD SWAP1 PUSH2 0x2B0 SWAP2 SWAP1 PUSH2 0x1B6D JUMP JUMPDEST PUSH2 0xDD4 JUMP JUMPDEST STOP JUMPDEST PUSH2 0x2D1 PUSH1 0x4 DUP1 CALLDATASIZE SUB DUP2 ADD SWAP1 PUSH2 0x2CC SWAP2 SWAP1 PUSH2 0x1916 JUMP JUMPDEST PUSH2 0x100A JUMP JUMPDEST PUSH1 0x40 MLOAD PUSH2 0x2DE SWAP2 SWAP1 PUSH2 0x18C3 JUMP JUMPDEST PUSH1 0x40 MLOAD DUP1 SWAP2 SUB SWAP1 RETURN JUMPDEST PUSH2 0x301 PUSH1 0x4 DUP1 CALLDATASIZE SUB DUP2 ADD SWAP1 PUSH2 0x2FC SWAP2 SWAP1 PUSH2 0x1BF1 JUMP JUMPDEST PUSH2 0x1104 JUMP JUMPDEST PUSH1 0x40 MLOAD PUSH2 0x30E SWAP2 SWAP1 PUSH2 0x183A JUMP JUMPDEST PUSH1 0x40 MLOAD DUP1 SWAP2 SUB SWAP1 RETURN JUMPDEST PUSH0 PUSH32 0x80AC58CD00000000000000000000000000000000000000000000000000000000 PUSH28 0xFFFFFFFFFFFFFFFFFFFFFFFFFFFFFFFFFFFFFFFFFFFFFFFFFFFFFFFF NOT AND DUP3 PUSH28 0xFFFFFFFFFFFFFFFFFFFFFFFFFFFFFFFFFFFFFFFFFFFFFFFFFFFFFFFF NOT AND EQ DUP1 PUSH2 0x3E1 JUMPI POP PUSH32 0x1FFC9A700000000000000000000000000000000000000000000000000000000 PUSH28 0xFFFFFFFFFFFFFFFFFFFFFFFFFFFFFFFFFFFFFFFFFFFFFFFFFFFFFFFF NOT AND DUP3 PUSH28 0xFFFFFFFFFFFFFFFFFFFFFFFFFFFFFFFFFFFFFFFFFFFFFFFFFFFFFFFF NOT AND EQ JUMPDEST DUP1 PUSH2 0x449 JUMPI POP PUSH32 0x5B5E139F00000000000000000000000000000000000000000000000000000000 PUSH28 0xFFFFFFFFFFFFFFFFFFFFFFFFFFFFFFFFFFFFFFFFFFFFFFFFFFFFFFFF NOT AND DUP3 PUSH28 0xFFFFFFFFFFFFFFFFFFFFFFFFFFFFFFFFFFFFFFFFFFFFFFFFFFFFFFFF NOT AND EQ JUMPDEST SWAP1 POP SWAP2 SWAP1 POP JUMP JUMPDEST PUSH1 0x60 PUSH1 0x4 DUP1 SLOAD PUSH2 0x45F SWAP1 PUSH2 0x1C5C JUMP JUMPDEST DUP1 PUSH1 0x1F ADD PUSH1 0x20 DUP1 SWAP2 DIV MUL PUSH1 0x20 ADD PUSH1 0x40 MLOAD SWAP1 DUP2 ADD PUSH1 0x40 MSTORE DUP1 SWAP3 SWAP2 SWAP1 DUP2 DUP2 MSTORE PUSH1 0x20 ADD DUP3 DUP1 SLOAD PUSH2 0x48B SWAP1 PUSH2 0x1C5C JUMP JUMPDEST DUP1 ISZERO PUSH2 0x4D6 JUMPI DUP1 PUSH1 0x1F LT PUSH2 0x4AD JUMPI PUSH2 0x100 DUP1 DUP4 SLOAD DIV MUL DUP4 MSTORE SWAP2 PUSH1 0x20 ADD SWAP2 PUSH2 0x4D6 JUMP JUMPDEST DUP3 ADD SWAP2 SWAP1 PUSH0 MSTORE PUSH1 0x20 PUSH0 KECCAK256 SWAP1 JUMPDEST DUP2 SLOAD DUP2 MSTORE SWAP1 PUSH1 0x1 ADD SWAP1 PUSH1 0x20 ADD DUP1 DUP4 GT PUSH2 0x4B9 JUMPI DUP3 SWAP1 SUB PUSH1 0x1F AND DUP3 ADD SWAP2 JUMPDEST POP POP POP POP POP SWAP1 POP SWAP1 JUMP JUMPDEST PUSH0 PUSH1 0x2 PUSH0 DUP4 DUP2 MSTORE PUSH1 0x20 ADD SWAP1 DUP2 MSTORE PUSH1 0x20 ADD PUSH0 KECCAK256 PUSH0 SWAP1 SLOAD SWAP1 PUSH2 0x100 EXP SWAP1 DIV PUSH20 0xFFFFFFFFFFFFFFFFFFFFFFFFFFFFFFFFFFFFFFFF AND SWAP1 POP SWAP2 SWAP1 POP JUMP JUMPDEST CALLER PUSH20 0xFFFFFFFFFFFFFFFFFFFFFFFFFFFFFFFFFFFFFFFF AND PUSH1 0x1 PUSH0 DUP4 DUP2 MSTORE PUSH1 0x20 ADD SWAP1 DUP2 MSTORE PUSH1 0x20 ADD PUSH0 KECCAK256 PUSH0 SWAP1 SLOAD SWAP1 PUSH2 0x100 EXP SWAP1 DIV PUSH20 0xFFFFFFFFFFFFFFFFFFFFFFFFFFFFFFFFFFFFFFFF AND PUSH20 0xFFFFFFFFFFFFFFFFFFFFFFFFFFFFFFFFFFFFFFFF AND EQ PUSH2 0x5B7 JUMPI PUSH1 0x40 MLOAD PUSH32 0x8C379A000000000000000000000000000000000000000000000000000000000 DUP2 MSTORE PUSH1 0x4 ADD PUSH2 0x5AE SWAP1 PUSH2 0x1CD6 JUMP JUMPDEST PUSH1 0x40 MLOAD DUP1 SWAP2 SUB SWAP1 REVERT JUMPDEST DUP1 DUP3 PUSH20 0xFFFFFFFFFFFFFFFFFFFFFFFFFFFFFFFFFFFFFFFF AND CALLER PUSH20 0xFFFFFFFFFFFFFFFFFFFFFFFFFFFFFFFFFFFFFFFF AND PUSH32 0x8C5BE1E5EBEC7D5BD14F71427D1E84F3DD0314C0F7B2291E5B200AC8C7C3B925 PUSH1 0x40 MLOAD PUSH1 0x40 MLOAD DUP1 SWAP2 SUB SWAP1 LOG4 DUP2 PUSH1 0x2 PUSH0 DUP4 DUP2 MSTORE PUSH1 0x20 ADD SWAP1 DUP2 MSTORE PUSH1 0x20 ADD PUSH0 KECCAK256 PUSH0 PUSH2 0x100 EXP DUP2 SLOAD DUP2 PUSH20 0xFFFFFFFFFFFFFFFFFFFFFFFFFFFFFFFFFFFFFFFF MUL NOT AND SWAP1 DUP4 PUSH20 0xFFFFFFFFFFFFFFFFFFFFFFFFFFFFFFFFFFFFFFFF AND MUL OR SWAP1 SSTORE POP POP POP JUMP JUMPDEST CALLER PUSH20 0xFFFFFFFFFFFFFFFFFFFFFFFFFFFFFFFFFFFFFFFF AND PUSH1 0x2 PUSH0 DUP4 DUP2 MSTORE PUSH1 0x20 ADD SWAP1 DUP2 MSTORE PUSH1 0x20 ADD PUSH0 KECCAK256 PUSH0 SWAP1 SLOAD SWAP1 PUSH2 0x100 EXP SWAP1 DIV PUSH20 0xFFFFFFFFFFFFFFFFFFFFFFFFFFFFFFFFFFFFFFFF AND PUSH20 0xFFFFFFFFFFFFFFFFFFFFFFFFFFFFFFFFFFFFFFFF AND EQ PUSH2 0x703 JUMPI PUSH1 0x40 MLOAD PUSH32 0x8C379A000000000000000000000000000000000000000000000000000000000 DUP2 MSTORE PUSH1 0x4 ADD PUSH2 0x6FA SWAP1 PUSH2 0x1D3E JUMP JUMPDEST PUSH1 0x40 MLOAD DUP1 SWAP2 SUB SWAP1 REVERT JUMPDEST PUSH0 PUSH20 0xFFFFFFFFFFFFFFFFFFFFFFFFFFFFFFFFFFFFFFFF AND DUP3 PUSH20 0xFFFFFFFFFFFFFFFFFFFFFFFFFFFFFFFFFFFFFFFF AND SUB PUSH2 0x771 JUMPI PUSH1 0x40 MLOAD PUSH32 0x8C379A000000000000000000000000000000000000000000000000000000000 DUP2 MSTORE PUSH1 0x4 ADD PUSH2 0x768 SWAP1 PUSH2 0x1DA6 JUMP JUMPDEST PUSH1 0x40 MLOAD DUP1 SWAP2 SUB SWAP1 REVERT JUMPDEST PUSH0 PUSH20 0xFFFFFFFFFFFFFFFFFFFFFFFFFFFFFFFFFFFFFFFF AND DUP4 PUSH20 0xFFFFFFFFFFFFFFFFFFFFFFFFFFFFFFFFFFFFFFFF AND SUB PUSH2 0x7DF JUMPI PUSH1 0x40 MLOAD PUSH32 0x8C379A000000000000000000000000000000000000000000000000000000000 DUP2 MSTORE PUSH1 0x4 ADD PUSH2 0x7D6 SWAP1 PUSH2 0x1E0E JUMP JUMPDEST PUSH1 0x40 MLOAD DUP1 SWAP2 SUB SWAP1 REVERT JUMPDEST PUSH2 0x7EA DUP4 DUP4 DUP4 PUSH2 0x1192 JUMP JUMPDEST POP POP POP JUMP JUMPDEST CALLER PUSH20 0xFFFFFFFFFFFFFFFFFFFFFFFFFFFFFFFFFFFFFFFF AND PUSH1 0x2 PUSH0 DUP4 DUP2 MSTORE PUSH1 0x20 ADD SWAP1 DUP2 MSTORE PUSH1 0x20 ADD PUSH0 KECCAK256 PUSH0 SWAP1 SLOAD SWAP1 PUSH2 0x100 EXP SWAP1 DIV PUSH20 0xFFFFFFFFFFFFFFFFFFFFFFFFFFFFFFFFFFFFFFFF AND PUSH20 0xFFFFFFFFFFFFFFFFFFFFFFFFFFFFFFFFFFFFFFFF AND EQ PUSH2 0x88D JUMPI PUSH1 0x40 MLOAD PUSH32 0x8C379A000000000000000000000000000000000000000000000000000000000 DUP2 MSTORE PUSH1 0x4 ADD PUSH2 0x884 SWAP1 PUSH2 0x1D3E JUMP JUMPDEST PUSH1 0x40 MLOAD DUP1 SWAP2 SUB SWAP1 REVERT JUMPDEST PUSH0 PUSH20 0xFFFFFFFFFFFFFFFFFFFFFFFFFFFFFFFFFFFFFFFF AND DUP3 PUSH20 0xFFFFFFFFFFFFFFFFFFFFFFFFFFFFFFFFFFFFFFFF AND SUB PUSH2 0x8FB JUMPI PUSH1 0x40 MLOAD PUSH32 0x8C379A000000000000000000000000000000000000000000000000000000000 DUP2 MSTORE PUSH1 0x4 ADD PUSH2 0x8F2 SWAP1 PUSH2 0x1DA6 JUMP JUMPDEST PUSH1 0x40 MLOAD DUP1 SWAP2 SUB SWAP1 REVERT JUMPDEST PUSH0 PUSH20 0xFFFFFFFFFFFFFFFFFFFFFFFFFFFFFFFFFFFFFFFF AND DUP4 PUSH20 0xFFFFFFFFFFFFFFFFFFFFFFFFFFFFFFFFFFFFFFFF AND SUB PUSH2 0x969 JUMPI PUSH1 0x40 MLOAD PUSH32 0x8C379A000000000000000000000000000000000000000000000000000000000 DUP2 MSTORE PUSH1 0x4 ADD PUSH2 0x960 SWAP1 PUSH2 0x1E0E JUMP JUMPDEST PUSH1 0x40 MLOAD DUP1 SWAP2 SUB SWAP1 REVERT JUMPDEST PUSH2 0x974 DUP4 DUP4 DUP4 PUSH2 0x1192 JUMP JUMPDEST PUSH2 0x98E DUP4 DUP4 DUP4 PUSH1 0x40 MLOAD DUP1 PUSH1 0x20 ADD PUSH1 0x40 MSTORE DUP1 PUSH0 DUP2 MSTORE POP PUSH2 0x12E7 JUMP JUMPDEST POP POP POP JUMP JUMPDEST PUSH0 PUSH1 0x1 PUSH0 DUP4 DUP2 MSTORE PUSH1 0x20 ADD SWAP1 DUP2 MSTORE PUSH1 0x20 ADD PUSH0 KECCAK256 PUSH0 SWAP1 SLOAD SWAP1 PUSH2 0x100 EXP SWAP1 DIV PUSH20 0xFFFFFFFFFFFFFFFFFFFFFFFFFFFFFFFFFFFFFFFF AND SWAP1 POP CALLER PUSH20 0xFFFFFFFFFFFFFFFFFFFFFFFFFFFFFFFFFFFFFFFF AND DUP2 PUSH20 0xFFFFFFFFFFFFFFFFFFFFFFFFFFFFFFFFFFFFFFFF AND EQ PUSH2 0xA35 JUMPI PUSH1 0x40 MLOAD PUSH32 0x8C379A000000000000000000000000000000000000000000000000000000000 DUP2 MSTORE PUSH1 0x4 ADD PUSH2 0xA2C SWAP1 PUSH2 0x1CD6 JUMP JUMPDEST PUSH1 0x40 MLOAD DUP1 SWAP2 SUB SWAP1 REVERT JUMPDEST PUSH1 0x1 PUSH0 PUSH0 DUP4 PUSH20 0xFFFFFFFFFFFFFFFFFFFFFFFFFFFFFFFFFFFFFFFF AND PUSH20 0xFFFFFFFFFFFFFFFFFFFFFFFFFFFFFFFFFFFFFFFF AND DUP2 MSTORE PUSH1 0x20 ADD SWAP1 DUP2 MSTORE PUSH1 0x20 ADD PUSH0 KECCAK256 PUSH0 DUP3 DUP3 SLOAD PUSH2 0xA81 SWAP2 SWAP1 PUSH2 0x1E59 JUMP JUMPDEST SWAP3 POP POP DUP2 SWAP1 SSTORE POP PUSH0 PUSH1 0x1 PUSH0 DUP5 DUP2 MSTORE PUSH1 0x20 ADD SWAP1 DUP2 MSTORE PUSH1 0x20 ADD PUSH0 KECCAK256 PUSH0 PUSH2 0x100 EXP DUP2 SLOAD DUP2 PUSH20 0xFFFFFFFFFFFFFFFFFFFFFFFFFFFFFFFFFFFFFFFF MUL NOT AND SWAP1 DUP4 PUSH20 0xFFFFFFFFFFFFFFFFFFFFFFFFFFFFFFFFFFFFFFFF AND MUL OR SWAP1 SSTORE POP POP POP JUMP JUMPDEST PUSH2 0xAE5 DUP3 DUP3 PUSH2 0x1492 JUMP JUMPDEST POP POP JUMP JUMPDEST PUSH0 PUSH1 0x1 PUSH0 DUP4 DUP2 MSTORE PUSH1 0x20 ADD SWAP1 DUP2 MSTORE PUSH1 0x20 ADD PUSH0 KECCAK256 PUSH0 SWAP1 SLOAD SWAP1 PUSH2 0x100 EXP SWAP1 DIV PUSH20 0xFFFFFFFFFFFFFFFFFFFFFFFFFFFFFFFFFFFFFFFF AND SWAP1 POP SWAP2 SWAP1 POP JUMP JUMPDEST PUSH0 PUSH0 PUSH20 0xFFFFFFFFFFFFFFFFFFFFFFFFFFFFFFFFFFFFFFFF AND DUP3 PUSH20 0xFFFFFFFFFFFFFFFFFFFFFFFFFFFFFFFFFFFFFFFF AND SUB PUSH2 0xB91 JUMPI PUSH1 0x40 MLOAD PUSH32 0x8C379A000000000000000000000000000000000000000000000000000000000 DUP2 MSTORE PUSH1 0x4 ADD PUSH2 0xB88 SWAP1 PUSH2 0x1ED6 JUMP JUMPDEST PUSH1 0x40 MLOAD DUP1 SWAP2 SUB SWAP1 REVERT JUMPDEST PUSH0 PUSH0 DUP4 PUSH20 0xFFFFFFFFFFFFFFFFFFFFFFFFFFFFFFFFFFFFFFFF AND PUSH20 0xFFFFFFFFFFFFFFFFFFFFFFFFFFFFFFFFFFFFFFFF AND DUP2 MSTORE PUSH1 0x20 ADD SWAP1 DUP2 MSTORE PUSH1 0x20 ADD PUSH0 KECCAK256 SLOAD SWAP1 POP SWAP2 SWAP1 POP JUMP JUMPDEST PUSH1 0x60 PUSH1 0x5 DUP1 SLOAD PUSH2 0xBE4 SWAP1 PUSH2 0x1C5C JUMP JUMPDEST DUP1 PUSH1 0x1F ADD PUSH1 0x20 DUP1 SWAP2 DIV MUL PUSH1 0x20 ADD PUSH1 0x40 MLOAD SWAP1 DUP2 ADD PUSH1 0x40 MSTORE DUP1 SWAP3 SWAP2 SWAP1 DUP2 DUP2 MSTORE PUSH1 0x20 ADD DUP3 DUP1 SLOAD PUSH2 0xC10 SWAP1 PUSH2 0x1C5C JUMP JUMPDEST DUP1 ISZERO PUSH2 0xC5B JUMPI DUP1 PUSH1 0x1F LT PUSH2 0xC32 JUMPI PUSH2 0x100 DUP1 DUP4 SLOAD DIV MUL DUP4 MSTORE SWAP2 PUSH1 0x20 ADD SWAP2 PUSH2 0xC5B JUMP JUMPDEST DUP3 ADD SWAP2 SWAP1 PUSH0 MSTORE PUSH1 0x20 PUSH0 KECCAK256 SWAP1 JUMPDEST DUP2 SLOAD DUP2 MSTORE SWAP1 PUSH1 0x1 ADD SWAP1 PUSH1 0x20 ADD DUP1 DUP4 GT PUSH2 0xC3E JUMPI DUP3 SWAP1 SUB PUSH1 0x1F AND DUP3 ADD SWAP2 JUMPDEST POP POP POP POP POP SWAP1 POP SWAP1 JUMP JUMPDEST PUSH0 PUSH20 0xFFFFFFFFFFFFFFFFFFFFFFFFFFFFFFFFFFFFFFFF AND DUP3 PUSH20 0xFFFFFFFFFFFFFFFFFFFFFFFFFFFFFFFFFFFFFFFF AND SUB PUSH2 0xCD3 JUMPI PUSH1 0x40 MLOAD PUSH32 0x8C379A000000000000000000000000000000000000000000000000000000000 DUP2 MSTORE PUSH1 0x4 ADD PUSH2 0xCCA SWAP1 PUSH2 0x1F3E JUMP JUMPDEST PUSH1 0x40 MLOAD DUP1 SWAP2 SUB SWAP1 REVERT JUMPDEST PUSH0 PUSH20 0xFFFFFFFFFFFFFFFFFFFFFFFFFFFFFFFFFFFFFFFF AND CALLER PUSH20 0xFFFFFFFFFFFFFFFFFFFFFFFFFFFFFFFFFFFFFFFF AND SUB PUSH2 0xD41 JUMPI PUSH1 0x40 MLOAD PUSH32 0x8C379A000000000000000000000000000000000000000000000000000000000 DUP2 MSTORE PUSH1 0x4 ADD PUSH2 0xD38 SWAP1 PUSH2 0x1ED6 JUMP JUMPDEST PUSH1 0x40 MLOAD DUP1 SWAP2 SUB SWAP1 REVERT JUMPDEST DUP1 PUSH1 0x3 PUSH0 CALLER PUSH20 0xFFFFFFFFFFFFFFFFFFFFFFFFFFFFFFFFFFFFFFFF AND PUSH20 0xFFFFFFFFFFFFFFFFFFFFFFFFFFFFFFFFFFFFFFFF AND DUP2 MSTORE PUSH1 0x20 ADD SWAP1 DUP2 MSTORE PUSH1 0x20 ADD PUSH0 KECCAK256 PUSH0 DUP5 PUSH20 0xFFFFFFFFFFFFFFFFFFFFFFFFFFFFFFFFFFFFFFFF AND PUSH20 0xFFFFFFFFFFFFFFFFFFFFFFFFFFFFFFFFFFFFFFFF AND DUP2 MSTORE PUSH1 0x20 ADD SWAP1 DUP2 MSTORE PUSH1 0x20 ADD PUSH0 KECCAK256 PUSH0 PUSH2 0x100 EXP DUP2 SLOAD DUP2 PUSH1 0xFF MUL NOT AND SWAP1 DUP4 ISZERO ISZERO MUL OR SWAP1 SSTORE POP POP POP JUMP JUMPDEST CALLER PUSH20 0xFFFFFFFFFFFFFFFFFFFFFFFFFFFFFFFFFFFFFFFF AND PUSH1 0x2 PUSH0 DUP6 DUP2 MSTORE PUSH1 0x20 ADD SWAP1 DUP2 MSTORE PUSH1 0x20 ADD PUSH0 KECCAK256 PUSH0 SWAP1 SLOAD SWAP1 PUSH2 0x100 EXP SWAP1 DIV PUSH20 0xFFFFFFFFFFFFFFFFFFFFFFFFFFFFFFFFFFFFFFFF AND PUSH20 0xFFFFFFFFFFFFFFFFFFFFFFFFFFFFFFFFFFFFFFFF AND EQ PUSH2 0xE72 JUMPI PUSH1 0x40 MLOAD PUSH32 0x8C379A000000000000000000000000000000000000000000000000000000000 DUP2 MSTORE PUSH1 0x4 ADD PUSH2 0xE69 SWAP1 PUSH2 0x1D3E JUMP JUMPDEST PUSH1 0x40 MLOAD DUP1 SWAP2 SUB SWAP1 REVERT JUMPDEST PUSH0 PUSH20 0xFFFFFFFFFFFFFFFFFFFFFFFFFFFFFFFFFFFFFFFF AND DUP5 PUSH20 0xFFFFFFFFFFFFFFFFFFFFFFFFFFFFFFFFFFFFFFFF AND SUB PUSH2 0xEE0 JUMPI PUSH1 0x40 MLOAD PUSH32 0x8C379A000000000000000000000000000000000000000000000000000000000 DUP2 MSTORE PUSH1 0x4 ADD PUSH2 0xED7 SWAP1 PUSH2 0x1DA6 JUMP JUMPDEST PUSH1 0x40 MLOAD DUP1 SWAP2 SUB SWAP1 REVERT JUMPDEST PUSH0 PUSH20 0xFFFFFFFFFFFFFFFFFFFFFFFFFFFFFFFFFFFFFFFF AND DUP6 PUSH20 0xFFFFFFFFFFFFFFFFFFFFFFFFFFFFFFFFFFFFFFFF AND SUB PUSH2 0xF4E JUMPI PUSH1 0x40 MLOAD PUSH32 0x8C379A000000000000000000000000000000000000000000000000000000000 DUP2 MSTORE PUSH1 0x4 ADD PUSH2 0xF45 SWAP1 PUSH2 0x1E0E JUMP JUMPDEST PUSH1 0x40 MLOAD DUP1 SWAP2 SUB SWAP1 REVERT JUMPDEST PUSH2 0xF59 DUP6 DUP6 DUP6 PUSH2 0x1192 JUMP JUMPDEST PUSH2 0xFA8 DUP6 DUP6 DUP6 DUP6 DUP6 DUP1 DUP1 PUSH1 0x1F ADD PUSH1 0x20 DUP1 SWAP2 DIV MUL PUSH1 0x20 ADD PUSH1 0x40 MLOAD SWAP1 DUP2 ADD PUSH1 0x40 MSTORE DUP1 SWAP4 SWAP3 SWAP2 SWAP1 DUP2 DUP2 MSTORE PUSH1 0x20 ADD DUP4 DUP4 DUP1 DUP3 DUP5 CALLDATACOPY PUSH0 DUP2 DUP5 ADD MSTORE PUSH1 0x1F NOT PUSH1 0x1F DUP3 ADD AND SWAP1 POP DUP1 DUP4 ADD SWAP3 POP POP POP POP POP POP POP PUSH2 0x12E7 JUMP JUMPDEST DUP3 DUP5 PUSH20 0xFFFFFFFFFFFFFFFFFFFFFFFFFFFFFFFFFFFFFFFF AND DUP7 PUSH20 0xFFFFFFFFFFFFFFFFFFFFFFFFFFFFFFFFFFFFFFFF AND PUSH32 0xDDF252AD1BE2C89B69C2B068FC378DAA952BA7F163C4A11628F55A4DF523B3EF PUSH1 0x40 MLOAD PUSH1 0x40 MLOAD DUP1 SWAP2 SUB SWAP1 LOG4 POP POP POP POP POP JUMP JUMPDEST PUSH1 0x60 PUSH0 PUSH20 0xFFFFFFFFFFFFFFFFFFFFFFFFFFFFFFFFFFFFFFFF AND PUSH1 0x1 PUSH0 DUP5 DUP2 MSTORE PUSH1 0x20 ADD SWAP1 DUP2 MSTORE PUSH1 0x20 ADD PUSH0 KECCAK256 PUSH0 SWAP1 SLOAD SWAP1 PUSH2 0x100 EXP SWAP1 DIV PUSH20 0xFFFFFFFFFFFFFFFFFFFFFFFFFFFFFFFFFFFFFFFF AND PUSH20 0xFFFFFFFFFFFFFFFFFFFFFFFFFFFFFFFFFFFFFFFF AND SUB PUSH2 0x10AA JUMPI PUSH1 0x40 MLOAD PUSH32 0x8C379A000000000000000000000000000000000000000000000000000000000 DUP2 MSTORE PUSH1 0x4 ADD PUSH2 0x10A1 SWAP1 PUSH2 0x1FA6 JUMP JUMPDEST PUSH1 0x40 MLOAD DUP1 SWAP2 SUB SWAP1 REVERT JUMPDEST PUSH0 PUSH2 0x10B3 PUSH2 0x14BA JUMP JUMPDEST SWAP1 POP PUSH0 DUP2 MLOAD GT PUSH2 0x10D1 JUMPI PUSH1 0x40 MLOAD DUP1 PUSH1 0x20 ADD PUSH1 0x40 MSTORE DUP1 PUSH0 DUP2 MSTORE POP PUSH2 0x10FC JUMP JUMPDEST DUP1 PUSH2 0x10DB DUP5 PUSH2 0x14D0 JUMP JUMPDEST PUSH1 0x40 MLOAD PUSH1 0x20 ADD PUSH2 0x10EC SWAP3 SWAP2 SWAP1 PUSH2 0x1FFE JUMP JUMPDEST PUSH1 0x40 MLOAD PUSH1 0x20 DUP2 DUP4 SUB SUB DUP2 MSTORE SWAP1 PUSH1 0x40 MSTORE JUMPDEST SWAP2 POP POP SWAP2 SWAP1 POP JUMP JUMPDEST PUSH0 PUSH1 0x3 PUSH0 DUP5 PUSH20 0xFFFFFFFFFFFFFFFFFFFFFFFFFFFFFFFFFFFFFFFF AND PUSH20 0xFFFFFFFFFFFFFFFFFFFFFFFFFFFFFFFFFFFFFFFF AND DUP2 MSTORE PUSH1 0x20 ADD SWAP1 DUP2 MSTORE PUSH1 0x20 ADD PUSH0 KECCAK256 PUSH0 DUP4 PUSH20 0xFFFFFFFFFFFFFFFFFFFFFFFFFFFFFFFFFFFFFFFF AND PUSH20 0xFFFFFFFFFFFFFFFFFFFFFFFFFFFFFFFFFFFFFFFF AND DUP2 MSTORE PUSH1 0x20 ADD SWAP1 DUP2 MSTORE PUSH1 0x20 ADD PUSH0 KECCAK256 PUSH0 SWAP1 SLOAD SWAP1 PUSH2 0x100 EXP SWAP1 DIV PUSH1 0xFF AND SWAP1 POP SWAP3 SWAP2 POP POP JUMP JUMPDEST PUSH1 0x1 PUSH0 PUSH0 DUP6 PUSH20 0xFFFFFFFFFFFFFFFFFFFFFFFFFFFFFFFFFFFFFFFF AND PUSH20 0xFFFFFFFFFFFFFFFFFFFFFFFFFFFFFFFFFFFFFFFF AND DUP2 MSTORE PUSH1 0x20 ADD SWAP1 DUP2 MSTORE PUSH1 0x20 ADD PUSH0 KECCAK256 PUSH0 DUP3 DUP3 SLOAD PUSH2 0x11DE SWAP2 SWAP1 PUSH2 0x1E59 JUMP JUMPDEST SWAP3 POP POP DUP2 SWAP1 SSTORE POP PUSH1 0x1 PUSH0 PUSH0 DUP5 PUSH20 0xFFFFFFFFFFFFFFFFFFFFFFFFFFFFFFFFFFFFFFFF AND PUSH20 0xFFFFFFFFFFFFFFFFFFFFFFFFFFFFFFFFFFFFFFFF AND DUP2 MSTORE PUSH1 0x20 ADD SWAP1 DUP2 MSTORE PUSH1 0x20 ADD PUSH0 KECCAK256 PUSH0 DUP3 DUP3 SLOAD PUSH2 0x1231 SWAP2 SWAP1 PUSH2 0x2021 JUMP JUMPDEST SWAP3 POP POP DUP2 SWAP1 SSTORE POP DUP2 PUSH1 0x1 PUSH0 DUP4 DUP2 MSTORE PUSH1 0x20 ADD SWAP1 DUP2 MSTORE PUSH1 0x20 ADD PUSH0 KECCAK256 PUSH0 PUSH2 0x100 EXP DUP2 SLOAD DUP2 PUSH20 0xFFFFFFFFFFFFFFFFFFFFFFFFFFFFFFFFFFFFFFFF MUL NOT AND SWAP1 DUP4 PUSH20 0xFFFFFFFFFFFFFFFFFFFFFFFFFFFFFFFFFFFFFFFF AND MUL OR SWAP1 SSTORE POP DUP1 DUP3 PUSH20 0xFFFFFFFFFFFFFFFFFFFFFFFFFFFFFFFFFFFFFFFF AND DUP5 PUSH20 0xFFFFFFFFFFFFFFFFFFFFFFFFFFFFFFFFFFFFFFFF AND PUSH32 0xDDF252AD1BE2C89B69C2B068FC378DAA952BA7F163C4A11628F55A4DF523B3EF PUSH1 0x40 MLOAD PUSH1 0x40 MLOAD DUP1 SWAP2 SUB SWAP1 LOG4 POP POP POP JUMP JUMPDEST PUSH0 DUP4 PUSH20 0xFFFFFFFFFFFFFFFFFFFFFFFFFFFFFFFFFFFFFFFF AND EXTCODESIZE GT ISZERO PUSH2 0x148C JUMPI DUP3 PUSH20 0xFFFFFFFFFFFFFFFFFFFFFFFFFFFFFFFFFFFFFFFF AND PUSH4 0x150B7A02 CALLER DUP7 DUP6 DUP6 PUSH1 0x40 MLOAD DUP6 PUSH4 0xFFFFFFFF AND PUSH1 0xE0 SHL DUP2 MSTORE PUSH1 0x4 ADD PUSH2 0x1345 SWAP5 SWAP4 SWAP3 SWAP2 SWAP1 PUSH2 0x20A6 JUMP JUMPDEST PUSH1 0x20 PUSH1 0x40 MLOAD DUP1 DUP4 SUB DUP2 PUSH0 DUP8 GAS CALL SWAP3 POP POP POP DUP1 ISZERO PUSH2 0x1380 JUMPI POP PUSH1 0x40 MLOAD RETURNDATASIZE PUSH1 0x1F NOT PUSH1 0x1F DUP3 ADD AND DUP3 ADD DUP1 PUSH1 0x40 MSTORE POP DUP2 ADD SWAP1 PUSH2 0x137D SWAP2 SWAP1 PUSH2 0x2104 JUMP JUMPDEST PUSH1 0x1 JUMPDEST PUSH2 0x1401 JUMPI RETURNDATASIZE DUP1 PUSH0 DUP2 EQ PUSH2 0x13AE JUMPI PUSH1 0x40 MLOAD SWAP2 POP PUSH1 0x1F NOT PUSH1 0x3F RETURNDATASIZE ADD AND DUP3 ADD PUSH1 0x40 MSTORE RETURNDATASIZE DUP3 MSTORE RETURNDATASIZE PUSH0 PUSH1 0x20 DUP5 ADD RETURNDATACOPY PUSH2 0x13B3 JUMP JUMPDEST PUSH1 0x60 SWAP2 POP JUMPDEST POP PUSH0 DUP2 MLOAD SUB PUSH2 0x13F9 JUMPI DUP4 PUSH1 0x40 MLOAD PUSH32 0x64A0AE9200000000000000000000000000000000000000000000000000000000 DUP2 MSTORE PUSH1 0x4 ADD PUSH2 0x13F0 SWAP2 SWAP1 PUSH2 0x1980 JUMP JUMPDEST PUSH1 0x40 MLOAD DUP1 SWAP2 SUB SWAP1 REVERT JUMPDEST DUP1 MLOAD DUP2 PUSH1 0x20 ADD REVERT JUMPDEST PUSH4 0x150B7A02 PUSH1 0xE0 SHL PUSH28 0xFFFFFFFFFFFFFFFFFFFFFFFFFFFFFFFFFFFFFFFFFFFFFFFFFFFFFFFF NOT AND DUP2 PUSH28 0xFFFFFFFFFFFFFFFFFFFFFFFFFFFFFFFFFFFFFFFFFFFFFFFFFFFFFFFF NOT AND EQ PUSH2 0x148A JUMPI DUP4 PUSH1 0x40 MLOAD PUSH32 0x64A0AE9200000000000000000000000000000000000000000000000000000000 DUP2 MSTORE PUSH1 0x4 ADD PUSH2 0x1481 SWAP2 SWAP1 PUSH2 0x1980 JUMP JUMPDEST PUSH1 0x40 MLOAD DUP1 SWAP2 SUB SWAP1 REVERT JUMPDEST POP JUMPDEST POP POP POP POP JUMP JUMPDEST PUSH2 0x149C DUP3 DUP3 PUSH2 0x1629 JUMP JUMPDEST PUSH2 0x14B6 CALLER DUP4 DUP4 PUSH1 0x40 MLOAD DUP1 PUSH1 0x20 ADD PUSH1 0x40 MSTORE DUP1 PUSH0 DUP2 MSTORE POP PUSH2 0x12E7 JUMP JUMPDEST POP POP JUMP JUMPDEST PUSH1 0x60 PUSH1 0x40 MLOAD DUP1 PUSH1 0x20 ADD PUSH1 0x40 MSTORE DUP1 PUSH0 DUP2 MSTORE POP SWAP1 POP SWAP1 JUMP JUMPDEST PUSH1 0x60 PUSH0 DUP3 SUB PUSH2 0x1516 JUMPI PUSH1 0x40 MLOAD DUP1 PUSH1 0x40 ADD PUSH1 0x40 MSTORE DUP1 PUSH1 0x1 DUP2 MSTORE PUSH1 0x20 ADD PUSH32 0x3000000000000000000000000000000000000000000000000000000000000000 DUP2 MSTORE POP SWAP1 POP PUSH2 0x1624 JUMP JUMPDEST PUSH0 DUP3 SWAP1 POP PUSH0 JUMPDEST PUSH0 DUP3 EQ PUSH2 0x1545 JUMPI DUP1 DUP1 PUSH2 0x152E SWAP1 PUSH2 0x212F JUMP JUMPDEST SWAP2 POP POP PUSH1 0xA DUP3 PUSH2 0x153E SWAP2 SWAP1 PUSH2 0x21A3 JUMP JUMPDEST SWAP2 POP PUSH2 0x151C JUMP JUMPDEST PUSH0 DUP2 PUSH8 0xFFFFFFFFFFFFFFFF DUP2 GT ISZERO PUSH2 0x1560 JUMPI PUSH2 0x155F PUSH2 0x21D3 JUMP JUMPDEST JUMPDEST PUSH1 0x40 MLOAD SWAP1 DUP1 DUP3 MSTORE DUP1 PUSH1 0x1F ADD PUSH1 0x1F NOT AND PUSH1 0x20 ADD DUP3 ADD PUSH1 0x40 MSTORE DUP1 ISZERO PUSH2 0x1592 JUMPI DUP2 PUSH1 0x20 ADD PUSH1 0x1 DUP3 MUL DUP1 CALLDATASIZE DUP4 CALLDATACOPY DUP1 DUP3 ADD SWAP2 POP POP SWAP1 POP JUMPDEST POP SWAP1 POP JUMPDEST PUSH0 DUP6 EQ PUSH2 0x161D JUMPI PUSH1 0x1 DUP3 PUSH2 0x15AA SWAP2 SWAP1 PUSH2 0x1E59 JUMP JUMPDEST SWAP2 POP PUSH1 0xA DUP6 PUSH2 0x15B9 SWAP2 SWAP1 PUSH2 0x2200 JUMP JUMPDEST PUSH1 0x30 PUSH2 0x15C5 SWAP2 SWAP1 PUSH2 0x2021 JUMP JUMPDEST PUSH1 0xF8 SHL DUP2 DUP4 DUP2 MLOAD DUP2 LT PUSH2 0x15DB JUMPI PUSH2 0x15DA PUSH2 0x2230 JUMP JUMPDEST JUMPDEST PUSH1 0x20 ADD ADD SWAP1 PUSH31 0xFFFFFFFFFFFFFFFFFFFFFFFFFFFFFFFFFFFFFFFFFFFFFFFFFFFFFFFFFFFFFF NOT AND SWAP1 DUP2 PUSH0 BYTE SWAP1 MSTORE8 POP PUSH1 0xA DUP6 PUSH2 0x1616 SWAP2 SWAP1 PUSH2 0x21A3 JUMP JUMPDEST SWAP5 POP PUSH2 0x1596 JUMP JUMPDEST DUP1 SWAP4 POP POP POP POP JUMPDEST SWAP2 SWAP1 POP JUMP JUMPDEST PUSH0 PUSH20 0xFFFFFFFFFFFFFFFFFFFFFFFFFFFFFFFFFFFFFFFF AND DUP3 PUSH20 0xFFFFFFFFFFFFFFFFFFFFFFFFFFFFFFFFFFFFFFFF AND SUB PUSH2 0x1697 JUMPI PUSH1 0x40 MLOAD PUSH32 0x8C379A000000000000000000000000000000000000000000000000000000000 DUP2 MSTORE PUSH1 0x4 ADD PUSH2 0x168E SWAP1 PUSH2 0x1DA6 JUMP JUMPDEST PUSH1 0x40 MLOAD DUP1 SWAP2 SUB SWAP1 REVERT JUMPDEST PUSH1 0x1 PUSH0 PUSH0 DUP5 PUSH20 0xFFFFFFFFFFFFFFFFFFFFFFFFFFFFFFFFFFFFFFFF AND PUSH20 0xFFFFFFFFFFFFFFFFFFFFFFFFFFFFFFFFFFFFFFFF AND DUP2 MSTORE PUSH1 0x20 ADD SWAP1 DUP2 MSTORE PUSH1 0x20 ADD PUSH0 KECCAK256 PUSH0 DUP3 DUP3 SLOAD PUSH2 0x16E3 SWAP2 SWAP1 PUSH2 0x2021 JUMP JUMPDEST SWAP3 POP POP DUP2 SWAP1 SSTORE POP DUP2 PUSH1 0x1 PUSH0 DUP4 DUP2 MSTORE PUSH1 0x20 ADD SWAP1 DUP2 MSTORE PUSH1 0x20 ADD PUSH0 KECCAK256 PUSH0 PUSH2 0x100 EXP DUP2 SLOAD DUP2 PUSH20 0xFFFFFFFFFFFFFFFFFFFFFFFFFFFFFFFFFFFFFFFF MUL NOT AND SWAP1 DUP4 PUSH20 0xFFFFFFFFFFFFFFFFFFFFFFFFFFFFFFFFFFFFFFFF AND MUL OR SWAP1 SSTORE POP DUP1 DUP3 PUSH20 0xFFFFFFFFFFFFFFFFFFFFFFFFFFFFFFFFFFFFFFFF AND PUSH0 PUSH20 0xFFFFFFFFFFFFFFFFFFFFFFFFFFFFFFFFFFFFFFFF AND PUSH32 0xDDF252AD1BE2C89B69C2B068FC378DAA952BA7F163C4A11628F55A4DF523B3EF PUSH1 0x40 MLOAD PUSH1 0x40 MLOAD DUP1 SWAP2 SUB SWAP1 LOG4 POP POP JUMP JUMPDEST PUSH0 PUSH0 REVERT JUMPDEST PUSH0 PUSH0 REVERT JUMPDEST PUSH0 PUSH32 0xFFFFFFFF00000000000000000000000000000000000000000000000000000000 DUP3 AND SWAP1 POP SWAP2 SWAP1 POP JUMP JUMPDEST PUSH2 0x17D4 DUP2 PUSH2 0x17A0 JUMP JUMPDEST DUP2 EQ PUSH2 0x17DE JUMPI PUSH0 PUSH0 REVERT JUMPDEST POP JUMP JUMPDEST PUSH0 DUP2 CALLDATALOAD SWAP1 POP PUSH2 0x17EF DUP2 PUSH2 0x17CB JUMP JUMPDEST SWAP3 SWAP2 POP POP JUMP JUMPDEST PUSH0 PUSH1 0x20 DUP3 DUP5 SUB SLT ISZERO PUSH2 0x180A JUMPI PUSH2 0x1809 PUSH2 0x1798 JUMP JUMPDEST JUMPDEST PUSH0 PUSH2 0x1817 DUP5 DUP3 DUP6 ADD PUSH2 0x17E1 JUMP JUMPDEST SWAP2 POP POP SWAP3 SWAP2 POP POP JUMP JUMPDEST PUSH0 DUP2 ISZERO ISZERO SWAP1 POP SWAP2 SWAP1 POP JUMP JUMPDEST PUSH2 0x1834 DUP2 PUSH2 0x1820 JUMP JUMPDEST DUP3 MSTORE POP POP JUMP JUMPDEST PUSH0 PUSH1 0x20 DUP3 ADD SWAP1 POP PUSH2 0x184D PUSH0 DUP4 ADD DUP5 PUSH2 0x182B JUMP JUMPDEST SWAP3 SWAP2 POP POP JUMP JUMPDEST PUSH0 DUP2 MLOAD SWAP1 POP SWAP2 SWAP1 POP JUMP JUMPDEST PUSH0 DUP3 DUP3 MSTORE PUSH1 0x20 DUP3 ADD SWAP1 POP SWAP3 SWAP2 POP POP JUMP JUMPDEST DUP3 DUP2 DUP4 MCOPY PUSH0 DUP4 DUP4 ADD MSTORE POP POP POP JUMP JUMPDEST PUSH0 PUSH1 0x1F NOT PUSH1 0x1F DUP4 ADD AND SWAP1 POP SWAP2 SWAP1 POP JUMP JUMPDEST PUSH0 PUSH2 0x1895 DUP3 PUSH2 0x1853 JUMP JUMPDEST PUSH2 0x189F DUP2 DUP6 PUSH2 0x185D JUMP JUMPDEST SWAP4 POP PUSH2 0x18AF DUP2 DUP6 PUSH1 0x20 DUP7 ADD PUSH2 0x186D JUMP JUMPDEST PUSH2 0x18B8 DUP2 PUSH2 0x187B JUMP JUMPDEST DUP5 ADD SWAP2 POP POP SWAP3 SWAP2 POP POP JUMP JUMPDEST PUSH0 PUSH1 0x20 DUP3 ADD SWAP1 POP DUP2 DUP2 SUB PUSH0 DUP4 ADD MSTORE PUSH2 0x18DB DUP2 DUP5 PUSH2 0x188B JUMP JUMPDEST SWAP1 POP SWAP3 SWAP2 POP POP JUMP JUMPDEST PUSH0 DUP2 SWAP1 POP SWAP2 SWAP1 POP JUMP JUMPDEST PUSH2 0x18F5 DUP2 PUSH2 0x18E3 JUMP JUMPDEST DUP2 EQ PUSH2 0x18FF JUMPI PUSH0 PUSH0 REVERT JUMPDEST POP JUMP JUMPDEST PUSH0 DUP2 CALLDATALOAD SWAP1 POP PUSH2 0x1910 DUP2 PUSH2 0x18EC JUMP JUMPDEST SWAP3 SWAP2 POP POP JUMP JUMPDEST PUSH0 PUSH1 0x20 DUP3 DUP5 SUB SLT ISZERO PUSH2 0x192B JUMPI PUSH2 0x192A PUSH2 0x1798 JUMP JUMPDEST JUMPDEST PUSH0 PUSH2 0x1938 DUP5 DUP3 DUP6 ADD PUSH2 0x1902 JUMP JUMPDEST SWAP2 POP POP SWAP3 SWAP2 POP POP JUMP JUMPDEST PUSH0 PUSH20 0xFFFFFFFFFFFFFFFFFFFFFFFFFFFFFFFFFFFFFFFF DUP3 AND SWAP1 POP SWAP2 SWAP1 POP JUMP JUMPDEST PUSH0 PUSH2 0x196A DUP3 PUSH2 0x1941 JUMP JUMPDEST SWAP1 POP SWAP2 SWAP1 POP JUMP JUMPDEST PUSH2 0x197A DUP2 PUSH2 0x1960 JUMP JUMPDEST DUP3 MSTORE POP POP JUMP JUMPDEST PUSH0 PUSH1 0x20 DUP3 ADD SWAP1 POP PUSH2 0x1993 PUSH0 DUP4 ADD DUP5 PUSH2 0x1971 JUMP JUMPDEST SWAP3 SWAP2 POP POP JUMP JUMPDEST PUSH2 0x19A2 DUP2 PUSH2 0x1960 JUMP JUMPDEST DUP2 EQ PUSH2 0x19AC JUMPI PUSH0 PUSH0 REVERT JUMPDEST POP JUMP JUMPDEST PUSH0 DUP2 CALLDATALOAD SWAP1 POP PUSH2 0x19BD DUP2 PUSH2 0x1999 JUMP JUMPDEST SWAP3 SWAP2 POP POP JUMP JUMPDEST PUSH0 PUSH0 PUSH1 0x40 DUP4 DUP6 SUB SLT ISZERO PUSH2 0x19D9 JUMPI PUSH2 0x19D8 PUSH2 0x1798 JUMP JUMPDEST JUMPDEST PUSH0 PUSH2 0x19E6 DUP6 DUP3 DUP7 ADD PUSH2 0x19AF JUMP JUMPDEST SWAP3 POP POP PUSH1 0x20 PUSH2 0x19F7 DUP6 DUP3 DUP7 ADD PUSH2 0x1902 JUMP JUMPDEST SWAP2 POP POP SWAP3 POP SWAP3 SWAP1 POP JUMP JUMPDEST PUSH0 PUSH0 PUSH0 PUSH1 0x60 DUP5 DUP7 SUB SLT ISZERO PUSH2 0x1A18 JUMPI PUSH2 0x1A17 PUSH2 0x1798 JUMP JUMPDEST JUMPDEST PUSH0 PUSH2 0x1A25 DUP7 DUP3 DUP8 ADD PUSH2 0x19AF JUMP JUMPDEST SWAP4 POP POP PUSH1 0x20 PUSH2 0x1A36 DUP7 DUP3 DUP8 ADD PUSH2 0x19AF JUMP JUMPDEST SWAP3 POP POP PUSH1 0x40 PUSH2 0x1A47 DUP7 DUP3 DUP8 ADD PUSH2 0x1902 JUMP JUMPDEST SWAP2 POP POP SWAP3 POP SWAP3 POP SWAP3 JUMP JUMPDEST PUSH0 PUSH1 0x20 DUP3 DUP5 SUB SLT ISZERO PUSH2 0x1A66 JUMPI PUSH2 0x1A65 PUSH2 0x1798 JUMP JUMPDEST JUMPDEST PUSH0 PUSH2 0x1A73 DUP5 DUP3 DUP6 ADD PUSH2 0x19AF JUMP JUMPDEST SWAP2 POP POP SWAP3 SWAP2 POP POP JUMP JUMPDEST PUSH2 0x1A85 DUP2 PUSH2 0x18E3 JUMP JUMPDEST DUP3 MSTORE POP POP JUMP JUMPDEST PUSH0 PUSH1 0x20 DUP3 ADD SWAP1 POP PUSH2 0x1A9E PUSH0 DUP4 ADD DUP5 PUSH2 0x1A7C JUMP JUMPDEST SWAP3 SWAP2 POP POP JUMP JUMPDEST PUSH2 0x1AAD DUP2 PUSH2 0x1820 JUMP JUMPDEST DUP2 EQ PUSH2 0x1AB7 JUMPI PUSH0 PUSH0 REVERT JUMPDEST POP JUMP JUMPDEST PUSH0 DUP2 CALLDATALOAD SWAP1 POP PUSH2 0x1AC8 DUP2 PUSH2 0x1AA4 JUMP JUMPDEST SWAP3 SWAP2 POP POP JUMP JUMPDEST PUSH0 PUSH0 PUSH1 0x40 DUP4 DUP6 SUB SLT ISZERO PUSH2 0x1AE4 JUMPI PUSH2 0x1AE3 PUSH2 0x1798 JUMP JUMPDEST JUMPDEST PUSH0 PUSH2 0x1AF1 DUP6 DUP3 DUP7 ADD PUSH2 0x19AF JUMP JUMPDEST SWAP3 POP POP PUSH1 0x20 PUSH2 0x1B02 DUP6 DUP3 DUP7 ADD PUSH2 0x1ABA JUMP JUMPDEST SWAP2 POP POP SWAP3 POP SWAP3 SWAP1 POP JUMP JUMPDEST PUSH0 PUSH0 REVERT JUMPDEST PUSH0 PUSH0 REVERT JUMPDEST PUSH0 PUSH0 REVERT JUMPDEST PUSH0 PUSH0 DUP4 PUSH1 0x1F DUP5 ADD SLT PUSH2 0x1B2D JUMPI PUSH2 0x1B2C PUSH2 0x1B0C JUMP JUMPDEST JUMPDEST DUP3 CALLDATALOAD SWAP1 POP PUSH8 0xFFFFFFFFFFFFFFFF DUP2 GT ISZERO PUSH2 0x1B4A JUMPI PUSH2 0x1B49 PUSH2 0x1B10 JUMP JUMPDEST JUMPDEST PUSH1 0x20 DUP4 ADD SWAP2 POP DUP4 PUSH1 0x1 DUP3 MUL DUP4 ADD GT ISZERO PUSH2 0x1B66 JUMPI PUSH2 0x1B65 PUSH2 0x1B14 JUMP JUMPDEST JUMPDEST SWAP3 POP SWAP3 SWAP1 POP JUMP JUMPDEST PUSH0 PUSH0 PUSH0 PUSH0 PUSH0 PUSH1 0x80 DUP7 DUP9 SUB SLT ISZERO PUSH2 0x1B86 JUMPI PUSH2 0x1B85 PUSH2 0x1798 JUMP JUMPDEST JUMPDEST PUSH0 PUSH2 0x1B93 DUP9 DUP3 DUP10 ADD PUSH2 0x19AF JUMP JUMPDEST SWAP6 POP POP PUSH1 0x20 PUSH2 0x1BA4 DUP9 DUP3 DUP10 ADD PUSH2 0x19AF JUMP JUMPDEST SWAP5 POP POP PUSH1 0x40 PUSH2 0x1BB5 DUP9 DUP3 DUP10 ADD PUSH2 0x1902 JUMP JUMPDEST SWAP4 POP POP PUSH1 0x60 DUP7 ADD CALLDATALOAD PUSH8 0xFFFFFFFFFFFFFFFF DUP2 GT ISZERO PUSH2 0x1BD6 JUMPI PUSH2 0x1BD5 PUSH2 0x179C JUMP JUMPDEST JUMPDEST PUSH2 0x1BE2 DUP9 DUP3 DUP10 ADD PUSH2 0x1B18 JUMP JUMPDEST SWAP3 POP SWAP3 POP POP SWAP3 SWAP6 POP SWAP3 SWAP6 SWAP1 SWAP4 POP JUMP JUMPDEST PUSH0 PUSH0 PUSH1 0x40 DUP4 DUP6 SUB SLT ISZERO PUSH2 0x1C07 JUMPI PUSH2 0x1C06 PUSH2 0x1798 JUMP JUMPDEST JUMPDEST PUSH0 PUSH2 0x1C14 DUP6 DUP3 DUP7 ADD PUSH2 0x19AF JUMP JUMPDEST SWAP3 POP POP PUSH1 0x20 PUSH2 0x1C25 DUP6 DUP3 DUP7 ADD PUSH2 0x19AF JUMP JUMPDEST SWAP2 POP POP SWAP3 POP SWAP3 SWAP1 POP JUMP JUMPDEST PUSH32 0x4E487B7100000000000000000000000000000000000000000000000000000000 PUSH0 MSTORE PUSH1 0x22 PUSH1 0x4 MSTORE PUSH1 0x24 PUSH0 REVERT JUMPDEST PUSH0 PUSH1 0x2 DUP3 DIV SWAP1 POP PUSH1 0x1 DUP3 AND DUP1 PUSH2 0x1C73 JUMPI PUSH1 0x7F DUP3 AND SWAP2 POP JUMPDEST PUSH1 0x20 DUP3 LT DUP2 SUB PUSH2 0x1C86 JUMPI PUSH2 0x1C85 PUSH2 0x1C2F JUMP JUMPDEST JUMPDEST POP SWAP2 SWAP1 POP JUMP JUMPDEST PUSH32 0x746F6B656E4964206E6F74206973206F776E6572000000000000000000000000 PUSH0 DUP3 ADD MSTORE POP JUMP JUMPDEST PUSH0 PUSH2 0x1CC0 PUSH1 0x14 DUP4 PUSH2 0x185D JUMP JUMPDEST SWAP2 POP PUSH2 0x1CCB DUP3 PUSH2 0x1C8C JUMP JUMPDEST PUSH1 0x20 DUP3 ADD SWAP1 POP SWAP2 SWAP1 POP JUMP JUMPDEST PUSH0 PUSH1 0x20 DUP3 ADD SWAP1 POP DUP2 DUP2 SUB PUSH0 DUP4 ADD MSTORE PUSH2 0x1CED DUP2 PUSH2 0x1CB4 JUMP JUMPDEST SWAP1 POP SWAP2 SWAP1 POP JUMP JUMPDEST PUSH32 0x6E6F7420617070726F76616C0000000000000000000000000000000000000000 PUSH0 DUP3 ADD MSTORE POP JUMP JUMPDEST PUSH0 PUSH2 0x1D28 PUSH1 0xC DUP4 PUSH2 0x185D JUMP JUMPDEST SWAP2 POP PUSH2 0x1D33 DUP3 PUSH2 0x1CF4 JUMP JUMPDEST PUSH1 0x20 DUP3 ADD SWAP1 POP SWAP2 SWAP1 POP JUMP JUMPDEST PUSH0 PUSH1 0x20 DUP3 ADD SWAP1 POP DUP2 DUP2 SUB PUSH0 DUP4 ADD MSTORE PUSH2 0x1D55 DUP2 PUSH2 0x1D1C JUMP JUMPDEST SWAP1 POP SWAP2 SWAP1 POP JUMP JUMPDEST PUSH32 0x746F206E6F742069732030783030000000000000000000000000000000000000 PUSH0 DUP3 ADD MSTORE POP JUMP JUMPDEST PUSH0 PUSH2 0x1D90 PUSH1 0xE DUP4 PUSH2 0x185D JUMP JUMPDEST SWAP2 POP PUSH2 0x1D9B DUP3 PUSH2 0x1D5C JUMP JUMPDEST PUSH1 0x20 DUP3 ADD SWAP1 POP SWAP2 SWAP1 POP JUMP JUMPDEST PUSH0 PUSH1 0x20 DUP3 ADD SWAP1 POP DUP2 DUP2 SUB PUSH0 DUP4 ADD MSTORE PUSH2 0x1DBD DUP2 PUSH2 0x1D84 JUMP JUMPDEST SWAP1 POP SWAP2 SWAP1 POP JUMP JUMPDEST PUSH32 0x66726F6D206E6F74206973203078303000000000000000000000000000000000 PUSH0 DUP3 ADD MSTORE POP JUMP JUMPDEST PUSH0 PUSH2 0x1DF8 PUSH1 0x10 DUP4 PUSH2 0x185D JUMP JUMPDEST SWAP2 POP PUSH2 0x1E03 DUP3 PUSH2 0x1DC4 JUMP JUMPDEST PUSH1 0x20 DUP3 ADD SWAP1 POP SWAP2 SWAP1 POP JUMP JUMPDEST PUSH0 PUSH1 0x20 DUP3 ADD SWAP1 POP DUP2 DUP2 SUB PUSH0 DUP4 ADD MSTORE PUSH2 0x1E25 DUP2 PUSH2 0x1DEC JUMP JUMPDEST SWAP1 POP SWAP2 SWAP1 POP JUMP JUMPDEST PUSH32 0x4E487B7100000000000000000000000000000000000000000000000000000000 PUSH0 MSTORE PUSH1 0x11 PUSH1 0x4 MSTORE PUSH1 0x24 PUSH0 REVERT JUMPDEST PUSH0 PUSH2 0x1E63 DUP3 PUSH2 0x18E3 JUMP JUMPDEST SWAP2 POP PUSH2 0x1E6E DUP4 PUSH2 0x18E3 JUMP JUMPDEST SWAP3 POP DUP3 DUP3 SUB SWAP1 POP DUP2 DUP2 GT ISZERO PUSH2 0x1E86 JUMPI PUSH2 0x1E85 PUSH2 0x1E2C JUMP JUMPDEST JUMPDEST SWAP3 SWAP2 POP POP JUMP JUMPDEST PUSH32 0x6F776E6572206E6F742069732030783030000000000000000000000000000000 PUSH0 DUP3 ADD MSTORE POP JUMP JUMPDEST PUSH0 PUSH2 0x1EC0 PUSH1 0x11 DUP4 PUSH2 0x185D JUMP JUMPDEST SWAP2 POP PUSH2 0x1ECB DUP3 PUSH2 0x1E8C JUMP JUMPDEST PUSH1 0x20 DUP3 ADD SWAP1 POP SWAP2 SWAP1 POP JUMP JUMPDEST PUSH0 PUSH1 0x20 DUP3 ADD SWAP1 POP DUP2 DUP2 SUB PUSH0 DUP4 ADD MSTORE PUSH2 0x1EED DUP2 PUSH2 0x1EB4 JUMP JUMPDEST SWAP1 POP SWAP2 SWAP1 POP JUMP JUMPDEST PUSH32 0x6F70657261746F72206E6F742069732030783030000000000000000000000000 PUSH0 DUP3 ADD MSTORE POP JUMP JUMPDEST PUSH0 PUSH2 0x1F28 PUSH1 0x14 DUP4 PUSH2 0x185D JUMP JUMPDEST SWAP2 POP PUSH2 0x1F33 DUP3 PUSH2 0x1EF4 JUMP JUMPDEST PUSH1 0x20 DUP3 ADD SWAP1 POP SWAP2 SWAP1 POP JUMP JUMPDEST PUSH0 PUSH1 0x20 DUP3 ADD SWAP1 POP DUP2 DUP2 SUB PUSH0 DUP4 ADD MSTORE PUSH2 0x1F55 DUP2 PUSH2 0x1F1C JUMP JUMPDEST SWAP1 POP SWAP2 SWAP1 POP JUMP JUMPDEST PUSH32 0x546F6B656E204E6F742045786973740000000000000000000000000000000000 PUSH0 DUP3 ADD MSTORE POP JUMP JUMPDEST PUSH0 PUSH2 0x1F90 PUSH1 0xF DUP4 PUSH2 0x185D JUMP JUMPDEST SWAP2 POP PUSH2 0x1F9B DUP3 PUSH2 0x1F5C JUMP JUMPDEST PUSH1 0x20 DUP3 ADD SWAP1 POP SWAP2 SWAP1 POP JUMP JUMPDEST PUSH0 PUSH1 0x20 DUP3 ADD SWAP1 POP DUP2 DUP2 SUB PUSH0 DUP4 ADD MSTORE PUSH2 0x1FBD DUP2 PUSH2 0x1F84 JUMP JUMPDEST SWAP1 POP SWAP2 SWAP1 POP JUMP JUMPDEST PUSH0 DUP2 SWAP1 POP SWAP3 SWAP2 POP POP JUMP JUMPDEST PUSH0 PUSH2 0x1FD8 DUP3 PUSH2 0x1853 JUMP JUMPDEST PUSH2 0x1FE2 DUP2 DUP6 PUSH2 0x1FC4 JUMP JUMPDEST SWAP4 POP PUSH2 0x1FF2 DUP2 DUP6 PUSH1 0x20 DUP7 ADD PUSH2 0x186D JUMP JUMPDEST DUP1 DUP5 ADD SWAP2 POP POP SWAP3 SWAP2 POP POP JUMP JUMPDEST PUSH0 PUSH2 0x2009 DUP3 DUP6 PUSH2 0x1FCE JUMP JUMPDEST SWAP2 POP PUSH2 0x2015 DUP3 DUP5 PUSH2 0x1FCE JUMP JUMPDEST SWAP2 POP DUP2 SWAP1 POP SWAP4 SWAP3 POP POP POP JUMP JUMPDEST PUSH0 PUSH2 0x202B DUP3 PUSH2 0x18E3 JUMP JUMPDEST SWAP2 POP PUSH2 0x2036 DUP4 PUSH2 0x18E3 JUMP JUMPDEST SWAP3 POP DUP3 DUP3 ADD SWAP1 POP DUP1 DUP3 GT ISZERO PUSH2 0x204E JUMPI PUSH2 0x204D PUSH2 0x1E2C JUMP JUMPDEST JUMPDEST SWAP3 SWAP2 POP POP JUMP JUMPDEST PUSH0 DUP2 MLOAD SWAP1 POP SWAP2 SWAP1 POP JUMP JUMPDEST PUSH0 DUP3 DUP3 MSTORE PUSH1 0x20 DUP3 ADD SWAP1 POP SWAP3 SWAP2 POP POP JUMP JUMPDEST PUSH0 PUSH2 0x2078 DUP3 PUSH2 0x2054 JUMP JUMPDEST PUSH2 0x2082 DUP2 DUP6 PUSH2 0x205E JUMP JUMPDEST SWAP4 POP PUSH2 0x2092 DUP2 DUP6 PUSH1 0x20 DUP7 ADD PUSH2 0x186D JUMP JUMPDEST PUSH2 0x209B DUP2 PUSH2 0x187B JUMP JUMPDEST DUP5 ADD SWAP2 POP POP SWAP3 SWAP2 POP POP JUMP JUMPDEST PUSH0 PUSH1 0x80 DUP3 ADD SWAP1 POP PUSH2 0x20B9 PUSH0 DUP4 ADD DUP8 PUSH2 0x1971 JUMP JUMPDEST PUSH2 0x20C6 PUSH1 0x20 DUP4 ADD DUP7 PUSH2 0x1971 JUMP JUMPDEST PUSH2 0x20D3 PUSH1 0x40 DUP4 ADD DUP6 PUSH2 0x1A7C JUMP JUMPDEST DUP2 DUP2 SUB PUSH1 0x60 DUP4 ADD MSTORE PUSH2 0x20E5 DUP2 DUP5 PUSH2 0x206E JUMP JUMPDEST SWAP1 POP SWAP6 SWAP5 POP POP POP POP POP JUMP JUMPDEST PUSH0 DUP2 MLOAD SWAP1 POP PUSH2 0x20FE DUP2 PUSH2 0x17CB JUMP JUMPDEST SWAP3 SWAP2 POP POP JUMP JUMPDEST PUSH0 PUSH1 0x20 DUP3 DUP5 SUB SLT ISZERO PUSH2 0x2119 JUMPI PUSH2 0x2118 PUSH2 0x1798 JUMP JUMPDEST JUMPDEST PUSH0 PUSH2 0x2126 DUP5 DUP3 DUP6 ADD PUSH2 0x20F0 JUMP JUMPDEST SWAP2 POP POP SWAP3 SWAP2 POP POP JUMP JUMPDEST PUSH0 PUSH2 0x2139 DUP3 PUSH2 0x18E3 JUMP JUMPDEST SWAP2 POP PUSH32 0xFFFFFFFFFFFFFFFFFFFFFFFFFFFFFFFFFFFFFFFFFFFFFFFFFFFFFFFFFFFFFFFF DUP3 SUB PUSH2 0x216B JUMPI PUSH2 0x216A PUSH2 0x1E2C JUMP JUMPDEST JUMPDEST PUSH1 0x1 DUP3 ADD SWAP1 POP SWAP2 SWAP1 POP JUMP JUMPDEST PUSH32 0x4E487B7100000000000000000000000000000000000000000000000000000000 PUSH0 MSTORE PUSH1 0x12 PUSH1 0x4 MSTORE PUSH1 0x24 PUSH0 REVERT JUMPDEST PUSH0 PUSH2 0x21AD DUP3 PUSH2 0x18E3 JUMP JUMPDEST SWAP2 POP PUSH2 0x21B8 DUP4 PUSH2 0x18E3 JUMP JUMPDEST SWAP3 POP DUP3 PUSH2 0x21C8 JUMPI PUSH2 0x21C7 PUSH2 0x2176 JUMP JUMPDEST JUMPDEST DUP3 DUP3 DIV SWAP1 POP SWAP3 SWAP2 POP POP JUMP JUMPDEST PUSH32 0x4E487B7100000000000000000000000000000000000000000000000000000000 PUSH0 MSTORE PUSH1 0x41 PUSH1 0x4 MSTORE PUSH1 0x24 PUSH0 REVERT JUMPDEST PUSH0 PUSH2 0x220A DUP3 PUSH2 0x18E3 JUMP JUMPDEST SWAP2 POP PUSH2 0x2215 DUP4 PUSH2 0x18E3 JUMP JUMPDEST SWAP3 POP DUP3 PUSH2 0x2225 JUMPI PUSH2 0x2224 PUSH2 0x2176 JUMP JUMPDEST JUMPDEST DUP3 DUP3 MOD SWAP1 POP SWAP3 SWAP2 POP POP JUMP JUMPDEST PUSH32 0x4E487B7100000000000000000000000000000000000000000000000000000000 PUSH0 MSTORE PUSH1 0x32 PUSH1 0x4 MSTORE PUSH1 0x24 PUSH0 REVERT INVALID LOG2 PUSH5 0x6970667358 0x22 SLT KECCAK256 0xB2 PUSH9 0xC5C3C9E3E0BF8D0A8B DUP5 JUMPF 0x92F6 0xC0 CALL JUMPI 0xAB LOG2 ADDMOD 0xB3 ORIGIN PUSH3 0xA276CB JUMPF 0xB11 PUSH11 0x2E64736F6C634300081E00 CALLER "
				},
				"gasEstimates": {
					"creation": {
						"codeDepositCost": "1770200",
						"executionCost": "infinite",
						"totalCost": "infinite"
					},
					"external": {
						"approve(address,uint256)": "29151",
						"balanceOf(address)": "2929",
						"burn(uint256)": "infinite",
						"getApproved(uint256)": "2920",
						"isApprovedForAll(address,address)": "infinite",
						"name()": "infinite",
						"ownerOf(uint256)": "2897",
						"safeTransferFrom(address,address,uint256)": "infinite",
						"safeTransferFrom(address,address,uint256,bytes)": "infinite",
						"saleMint(address,uint256)": "infinite",
						"setApprovalForAll(address,bool)": "25155",
						"supportsInterface(bytes4)": "745",
						"symbol()": "infinite",
						"tokenURI(uint256)": "infinite",
						"transferFrom(address,address,uint256)": "infinite"
					},
					"internal": {
						"_baseURI()": "infinite",
						"_checkOnERC721Received(address,address,uint256,bytes memory)": "infinite",
						"_mint(address,uint256)": "infinite",
						"_saleMint(address,uint256)": "infinite",
						"_transfer(address,address,uint256)": "infinite"
					}
				},
				"methodIdentifiers": {
					"approve(address,uint256)": "095ea7b3",
					"balanceOf(address)": "70a08231",
					"burn(uint256)": "42966c68",
					"getApproved(uint256)": "081812fc",
					"isApprovedForAll(address,address)": "e985e9c5",
					"name()": "06fdde03",
					"ownerOf(uint256)": "6352211e",
					"safeTransferFrom(address,address,uint256)": "42842e0e",
					"safeTransferFrom(address,address,uint256,bytes)": "b88d4fde",
					"saleMint(address,uint256)": "47457a2c",
					"setApprovalForAll(address,bool)": "a22cb465",
					"supportsInterface(bytes4)": "01ffc9a7",
					"symbol()": "95d89b41",
					"tokenURI(uint256)": "c87b56dd",
					"transferFrom(address,address,uint256)": "23b872dd"
				}
			},
			"storageLayout": {
				"storage": [
					{
						"astId": 185,
						"contract": "ERC721/MyERC721.sol:MyERC721",
						"label": "_balances",
						"offset": 0,
						"slot": "0",
						"type": "t_mapping(t_address,t_uint256)"
					},
					{
						"astId": 189,
						"contract": "ERC721/MyERC721.sol:MyERC721",
						"label": "_owners",
						"offset": 0,
						"slot": "1",
						"type": "t_mapping(t_uint256,t_address)"
					},
					{
						"astId": 193,
						"contract": "ERC721/MyERC721.sol:MyERC721",
						"label": "_tokenApprovals",
						"offset": 0,
						"slot": "2",
						"type": "t_mapping(t_uint256,t_address)"
					},
					{
						"astId": 199,
						"contract": "ERC721/MyERC721.sol:MyERC721",
						"label": "_operatorApprovals",
						"offset": 0,
						"slot": "3",
						"type": "t_mapping(t_address,t_mapping(t_address,t_bool))"
					},
					{
						"astId": 201,
						"contract": "ERC721/MyERC721.sol:MyERC721",
						"label": "_name",
						"offset": 0,
						"slot": "4",
						"type": "t_string_storage"
					},
					{
						"astId": 203,
						"contract": "ERC721/MyERC721.sol:MyERC721",
						"label": "_symbol",
						"offset": 0,
						"slot": "5",
						"type": "t_string_storage"
					}
				],
				"types": {
					"t_address": {
						"encoding": "inplace",
						"label": "address",
						"numberOfBytes": "20"
					},
					"t_bool": {
						"encoding": "inplace",
						"label": "bool",
						"numberOfBytes": "1"
					},
					"t_mapping(t_address,t_bool)": {
						"encoding": "mapping",
						"key": "t_address",
						"label": "mapping(address => bool)",
						"numberOfBytes": "32",
						"value": "t_bool"
					},
					"t_mapping(t_address,t_mapping(t_address,t_bool))": {
						"encoding": "mapping",
						"key": "t_address",
						"label": "mapping(address => mapping(address => bool))",
						"numberOfBytes": "32",
						"value": "t_mapping(t_address,t_bool)"
					},
					"t_mapping(t_address,t_uint256)": {
						"encoding": "mapping",
						"key": "t_address",
						"label": "mapping(address => uint256)",
						"numberOfBytes": "32",
						"value": "t_uint256"
					},
					"t_mapping(t_uint256,t_address)": {
						"encoding": "mapping",
						"key": "t_uint256",
						"label": "mapping(uint256 => address)",
						"numberOfBytes": "32",
						"value": "t_address"
					},
					"t_string_storage": {
						"encoding": "bytes",
						"label": "string",
						"numberOfBytes": "32"
					},
					"t_uint256": {
						"encoding": "inplace",
						"label": "uint256",
						"numberOfBytes": "32"
					}
				}
			},
			"userdoc": {
				"kind": "user",
				"methods": {},
				"version": 1
			}
		}
	}
}