{
	"data": {
		"bytecode": {
			"linkReferences": {},
			"object": "6080604052348015600e575f5ffd5b50610aa58061001c5f395ff3fe608060405234801561000f575f5ffd5b506004361061003f575f3560e01c8063cb159dfe14610043578063eab28df914610073578063f8a8fd6d14610091575b5f5ffd5b61005d60048036038101906100589190610760565b6100af565b60405161006a91906107bf565b60405180910390f35b61007b61017f565b6040516100889190610838565b60405180910390f35b61009961019f565b6040516100a691906108fd565b60405180910390f35b5f5f8290505f815190505f5f90505f5f90505b82811015610173575f6100f18583815181106100e1576100e0610916565b5b602001015160f81c60f81b610370565b90506001846101009190610970565b8210801561013e575061013b8560018461011a91906109a3565b8151811061012b5761012a610916565b5b602001015160f81c60f81b610370565b81105b1561015657808361014f9190610970565b9250610165565b808361016291906109a3565b92505b5080806001019150506100c2565b50809350505050919050565b6060604051806060016040528060318152602001610a3f60319139905090565b6101a76105f1565b6101e56040518060400160405280600381526020017f49494900000000000000000000000000000000000000000000000000000000008152506100af565b815f600581106101f8576101f7610916565b5b60200201818152505061023f6040518060400160405280600281526020017f49560000000000000000000000000000000000000000000000000000000000008152506100af565b8160016005811061025357610252610916565b5b60200201818152505061029a6040518060400160405280600281526020017f49580000000000000000000000000000000000000000000000000000000000008152506100af565b816002600581106102ae576102ad610916565b5b6020020181815250506102f56040518060400160405280600581526020017f4c564949490000000000000000000000000000000000000000000000000000008152506100af565b8160036005811061030957610308610916565b5b6020020181815250506103506040518060400160405280600781526020017f4d434d58434956000000000000000000000000000000000000000000000000008152506100af565b8160046005811061036457610363610916565b5b60200201818152505090565b5f7f4900000000000000000000000000000000000000000000000000000000000000827effffffffffffffffffffffffffffffffffffffffffffffffffffffffffffff1916036103c357600190506105ec565b7f5600000000000000000000000000000000000000000000000000000000000000827effffffffffffffffffffffffffffffffffffffffffffffffffffffffffffff19160361041557600590506105ec565b7f5800000000000000000000000000000000000000000000000000000000000000827effffffffffffffffffffffffffffffffffffffffffffffffffffffffffffff19160361046757600a90506105ec565b7f4c00000000000000000000000000000000000000000000000000000000000000827effffffffffffffffffffffffffffffffffffffffffffffffffffffffffffff1916036104b957603290506105ec565b7f4300000000000000000000000000000000000000000000000000000000000000827effffffffffffffffffffffffffffffffffffffffffffffffffffffffffffff19160361050b57606490506105ec565b7f4400000000000000000000000000000000000000000000000000000000000000827effffffffffffffffffffffffffffffffffffffffffffffffffffffffffffff19160361055e576101f490506105ec565b7f4d00000000000000000000000000000000000000000000000000000000000000827effffffffffffffffffffffffffffffffffffffffffffffffffffffffffffff1916036105b1576103e890506105ec565b6040517f08c379a00000000000000000000000000000000000000000000000000000000081526004016105e390610a20565b60405180910390fd5b919050565b6040518060a00160405280600590602082028036833780820191505090505090565b5f604051905090565b5f5ffd5b5f5ffd5b5f5ffd5b5f5ffd5b5f601f19601f8301169050919050565b7f4e487b71000000000000000000000000000000000000000000000000000000005f52604160045260245ffd5b6106728261062c565b810181811067ffffffffffffffff821117156106915761069061063c565b5b80604052505050565b5f6106a3610613565b90506106af8282610669565b919050565b5f67ffffffffffffffff8211156106ce576106cd61063c565b5b6106d78261062c565b9050602081019050919050565b828183375f83830152505050565b5f6107046106ff846106b4565b61069a565b9050828152602081018484840111156107205761071f610628565b5b61072b8482856106e4565b509392505050565b5f82601f83011261074757610746610624565b5b81356107578482602086016106f2565b91505092915050565b5f602082840312156107755761077461061c565b5b5f82013567ffffffffffffffff81111561079257610791610620565b5b61079e84828501610733565b91505092915050565b5f819050919050565b6107b9816107a7565b82525050565b5f6020820190506107d25f8301846107b0565b92915050565b5f81519050919050565b5f82825260208201905092915050565b8281835e5f83830152505050565b5f61080a826107d8565b61081481856107e2565b93506108248185602086016107f2565b61082d8161062c565b840191505092915050565b5f6020820190508181035f8301526108508184610800565b905092915050565b5f60059050919050565b5f81905092915050565b5f819050919050565b61087e816107a7565b82525050565b5f61088f8383610875565b60208301905092915050565b5f602082019050919050565b6108b081610858565b6108ba8184610862565b92506108c58261086c565b805f5b838110156108f55781516108dc8782610884565b96506108e78361089b565b9250506001810190506108c8565b505050505050565b5f60a0820190506109105f8301846108a7565b92915050565b7f4e487b71000000000000000000000000000000000000000000000000000000005f52603260045260245ffd5b7f4e487b71000000000000000000000000000000000000000000000000000000005f52601160045260245ffd5b5f61097a826107a7565b9150610985836107a7565b925082820390508181111561099d5761099c610943565b5b92915050565b5f6109ad826107a7565b91506109b8836107a7565b92508282019050808211156109d0576109cf610943565b5b92915050565b7f496e76616c696420526f6d616e206e756d6572616c20636861726163746572005f82015250565b5f610a0a601f836107e2565b9150610a15826109d6565b602082019050919050565b5f6020820190508181035f830152610a37816109fe565b905091905056fe4d3d313030302c20434d3d3930302c2058433d39302c2049563d34203d3e20313030302b3930302b39302b343d31393934a26469706673582212206f401d87a8f5573a3c0609f5c35a4417e4d409688bb7349bfea9df91f32f0a9f64736f6c634300081e0033",
			"opcodes": "PUSH1 0x80 PUSH1 0x40 MSTORE CALLVALUE DUP1 ISZERO PUSH1 0xE JUMPI PUSH0 PUSH0 REVERT JUMPDEST POP PUSH2 0xAA5 DUP1 PUSH2 0x1C PUSH0 CODECOPY PUSH0 RETURN INVALID PUSH1 0x80 PUSH1 0x40 MSTORE CALLVALUE DUP1 ISZERO PUSH2 0xF JUMPI PUSH0 PUSH0 REVERT JUMPDEST POP PUSH1 0x4 CALLDATASIZE LT PUSH2 0x3F JUMPI PUSH0 CALLDATALOAD PUSH1 0xE0 SHR DUP1 PUSH4 0xCB159DFE EQ PUSH2 0x43 JUMPI DUP1 PUSH4 0xEAB28DF9 EQ PUSH2 0x73 JUMPI DUP1 PUSH4 0xF8A8FD6D EQ PUSH2 0x91 JUMPI JUMPDEST PUSH0 PUSH0 REVERT JUMPDEST PUSH2 0x5D PUSH1 0x4 DUP1 CALLDATASIZE SUB DUP2 ADD SWAP1 PUSH2 0x58 SWAP2 SWAP1 PUSH2 0x760 JUMP JUMPDEST PUSH2 0xAF JUMP JUMPDEST PUSH1 0x40 MLOAD PUSH2 0x6A SWAP2 SWAP1 PUSH2 0x7BF JUMP JUMPDEST PUSH1 0x40 MLOAD DUP1 SWAP2 SUB SWAP1 RETURN JUMPDEST PUSH2 0x7B PUSH2 0x17F JUMP JUMPDEST PUSH1 0x40 MLOAD PUSH2 0x88 SWAP2 SWAP1 PUSH2 0x838 JUMP JUMPDEST PUSH1 0x40 MLOAD DUP1 SWAP2 SUB SWAP1 RETURN JUMPDEST PUSH2 0x99 PUSH2 0x19F JUMP JUMPDEST PUSH1 0x40 MLOAD PUSH2 0xA6 SWAP2 SWAP1 PUSH2 0x8FD JUMP JUMPDEST PUSH1 0x40 MLOAD DUP1 SWAP2 SUB SWAP1 RETURN JUMPDEST PUSH0 PUSH0 DUP3 SWAP1 POP PUSH0 DUP2 MLOAD SWAP1 POP PUSH0 PUSH0 SWAP1 POP PUSH0 PUSH0 SWAP1 POP JUMPDEST DUP3 DUP2 LT ISZERO PUSH2 0x173 JUMPI PUSH0 PUSH2 0xF1 DUP6 DUP4 DUP2 MLOAD DUP2 LT PUSH2 0xE1 JUMPI PUSH2 0xE0 PUSH2 0x916 JUMP JUMPDEST JUMPDEST PUSH1 0x20 ADD ADD MLOAD PUSH1 0xF8 SHR PUSH1 0xF8 SHL PUSH2 0x370 JUMP JUMPDEST SWAP1 POP PUSH1 0x1 DUP5 PUSH2 0x100 SWAP2 SWAP1 PUSH2 0x970 JUMP JUMPDEST DUP3 LT DUP1 ISZERO PUSH2 0x13E JUMPI POP PUSH2 0x13B DUP6 PUSH1 0x1 DUP5 PUSH2 0x11A SWAP2 SWAP1 PUSH2 0x9A3 JUMP JUMPDEST DUP2 MLOAD DUP2 LT PUSH2 0x12B JUMPI PUSH2 0x12A PUSH2 0x916 JUMP JUMPDEST JUMPDEST PUSH1 0x20 ADD ADD MLOAD PUSH1 0xF8 SHR PUSH1 0xF8 SHL PUSH2 0x370 JUMP JUMPDEST DUP2 LT JUMPDEST ISZERO PUSH2 0x156 JUMPI DUP1 DUP4 PUSH2 0x14F SWAP2 SWAP1 PUSH2 0x970 JUMP JUMPDEST SWAP3 POP PUSH2 0x165 JUMP JUMPDEST DUP1 DUP4 PUSH2 0x162 SWAP2 SWAP1 PUSH2 0x9A3 JUMP JUMPDEST SWAP3 POP JUMPDEST POP DUP1 DUP1 PUSH1 0x1 ADD SWAP2 POP POP PUSH2 0xC2 JUMP JUMPDEST POP DUP1 SWAP4 POP POP POP POP SWAP2 SWAP1 POP JUMP JUMPDEST PUSH1 0x60 PUSH1 0x40 MLOAD DUP1 PUSH1 0x60 ADD PUSH1 0x40 MSTORE DUP1 PUSH1 0x31 DUP2 MSTORE PUSH1 0x20 ADD PUSH2 0xA3F PUSH1 0x31 SWAP2 CODECOPY SWAP1 POP SWAP1 JUMP JUMPDEST PUSH2 0x1A7 PUSH2 0x5F1 JUMP JUMPDEST PUSH2 0x1E5 PUSH1 0x40 MLOAD DUP1 PUSH1 0x40 ADD PUSH1 0x40 MSTORE DUP1 PUSH1 0x3 DUP2 MSTORE PUSH1 0x20 ADD PUSH32 0x4949490000000000000000000000000000000000000000000000000000000000 DUP2 MSTORE POP PUSH2 0xAF JUMP JUMPDEST DUP2 PUSH0 PUSH1 0x5 DUP2 LT PUSH2 0x1F8 JUMPI PUSH2 0x1F7 PUSH2 0x916 JUMP JUMPDEST JUMPDEST PUSH1 0x20 MUL ADD DUP2 DUP2 MSTORE POP POP PUSH2 0x23F PUSH1 0x40 MLOAD DUP1 PUSH1 0x40 ADD PUSH1 0x40 MSTORE DUP1 PUSH1 0x2 DUP2 MSTORE PUSH1 0x20 ADD PUSH32 0x4956000000000000000000000000000000000000000000000000000000000000 DUP2 MSTORE POP PUSH2 0xAF JUMP JUMPDEST DUP2 PUSH1 0x1 PUSH1 0x5 DUP2 LT PUSH2 0x253 JUMPI PUSH2 0x252 PUSH2 0x916 JUMP JUMPDEST JUMPDEST PUSH1 0x20 MUL ADD DUP2 DUP2 MSTORE POP POP PUSH2 0x29A PUSH1 0x40 MLOAD DUP1 PUSH1 0x40 ADD PUSH1 0x40 MSTORE DUP1 PUSH1 0x2 DUP2 MSTORE PUSH1 0x20 ADD PUSH32 0x4958000000000000000000000000000000000000000000000000000000000000 DUP2 MSTORE POP PUSH2 0xAF JUMP JUMPDEST DUP2 PUSH1 0x2 PUSH1 0x5 DUP2 LT PUSH2 0x2AE JUMPI PUSH2 0x2AD PUSH2 0x916 JUMP JUMPDEST JUMPDEST PUSH1 0x20 MUL ADD DUP2 DUP2 MSTORE POP POP PUSH2 0x2F5 PUSH1 0x40 MLOAD DUP1 PUSH1 0x40 ADD PUSH1 0x40 MSTORE DUP1 PUSH1 0x5 DUP2 MSTORE PUSH1 0x20 ADD PUSH32 0x4C56494949000000000000000000000000000000000000000000000000000000 DUP2 MSTORE POP PUSH2 0xAF JUMP JUMPDEST DUP2 PUSH1 0x3 PUSH1 0x5 DUP2 LT PUSH2 0x309 JUMPI PUSH2 0x308 PUSH2 0x916 JUMP JUMPDEST JUMPDEST PUSH1 0x20 MUL ADD DUP2 DUP2 MSTORE POP POP PUSH2 0x350 PUSH1 0x40 MLOAD DUP1 PUSH1 0x40 ADD PUSH1 0x40 MSTORE DUP1 PUSH1 0x7 DUP2 MSTORE PUSH1 0x20 ADD PUSH32 0x4D434D5843495600000000000000000000000000000000000000000000000000 DUP2 MSTORE POP PUSH2 0xAF JUMP JUMPDEST DUP2 PUSH1 0x4 PUSH1 0x5 DUP2 LT PUSH2 0x364 JUMPI PUSH2 0x363 PUSH2 0x916 JUMP JUMPDEST JUMPDEST PUSH1 0x20 MUL ADD DUP2 DUP2 MSTORE POP POP SWAP1 JUMP JUMPDEST PUSH0 PUSH32 0x4900000000000000000000000000000000000000000000000000000000000000 DUP3 PUSH31 0xFFFFFFFFFFFFFFFFFFFFFFFFFFFFFFFFFFFFFFFFFFFFFFFFFFFFFFFFFFFFFF NOT AND SUB PUSH2 0x3C3 JUMPI PUSH1 0x1 SWAP1 POP PUSH2 0x5EC JUMP JUMPDEST PUSH32 0x5600000000000000000000000000000000000000000000000000000000000000 DUP3 PUSH31 0xFFFFFFFFFFFFFFFFFFFFFFFFFFFFFFFFFFFFFFFFFFFFFFFFFFFFFFFFFFFFFF NOT AND SUB PUSH2 0x415 JUMPI PUSH1 0x5 SWAP1 POP PUSH2 0x5EC JUMP JUMPDEST PUSH32 0x5800000000000000000000000000000000000000000000000000000000000000 DUP3 PUSH31 0xFFFFFFFFFFFFFFFFFFFFFFFFFFFFFFFFFFFFFFFFFFFFFFFFFFFFFFFFFFFFFF NOT AND SUB PUSH2 0x467 JUMPI PUSH1 0xA SWAP1 POP PUSH2 0x5EC JUMP JUMPDEST PUSH32 0x4C00000000000000000000000000000000000000000000000000000000000000 DUP3 PUSH31 0xFFFFFFFFFFFFFFFFFFFFFFFFFFFFFFFFFFFFFFFFFFFFFFFFFFFFFFFFFFFFFF NOT AND SUB PUSH2 0x4B9 JUMPI PUSH1 0x32 SWAP1 POP PUSH2 0x5EC JUMP JUMPDEST PUSH32 0x4300000000000000000000000000000000000000000000000000000000000000 DUP3 PUSH31 0xFFFFFFFFFFFFFFFFFFFFFFFFFFFFFFFFFFFFFFFFFFFFFFFFFFFFFFFFFFFFFF NOT AND SUB PUSH2 0x50B JUMPI PUSH1 0x64 SWAP1 POP PUSH2 0x5EC JUMP JUMPDEST PUSH32 0x4400000000000000000000000000000000000000000000000000000000000000 DUP3 PUSH31 0xFFFFFFFFFFFFFFFFFFFFFFFFFFFFFFFFFFFFFFFFFFFFFFFFFFFFFFFFFFFFFF NOT AND SUB PUSH2 0x55E JUMPI PUSH2 0x1F4 SWAP1 POP PUSH2 0x5EC JUMP JUMPDEST PUSH32 0x4D00000000000000000000000000000000000000000000000000000000000000 DUP3 PUSH31 0xFFFFFFFFFFFFFFFFFFFFFFFFFFFFFFFFFFFFFFFFFFFFFFFFFFFFFFFFFFFFFF NOT AND SUB PUSH2 0x5B1 JUMPI PUSH2 0x3E8 SWAP1 POP PUSH2 0x5EC JUMP JUMPDEST PUSH1 0x40 MLOAD PUSH32 0x8C379A000000000000000000000000000000000000000000000000000000000 DUP2 MSTORE PUSH1 0x4 ADD PUSH2 0x5E3 SWAP1 PUSH2 0xA20 JUMP JUMPDEST PUSH1 0x40 MLOAD DUP1 SWAP2 SUB SWAP1 REVERT JUMPDEST SWAP2 SWAP1 POP JUMP JUMPDEST PUSH1 0x40 MLOAD DUP1 PUSH1 0xA0 ADD PUSH1 0x40 MSTORE DUP1 PUSH1 0x5 SWAP1 PUSH1 0x20 DUP3 MUL DUP1 CALLDATASIZE DUP4 CALLDATACOPY DUP1 DUP3 ADD SWAP2 POP POP SWAP1 POP POP SWAP1 JUMP JUMPDEST PUSH0 PUSH1 0x40 MLOAD SWAP1 POP SWAP1 JUMP JUMPDEST PUSH0 PUSH0 REVERT JUMPDEST PUSH0 PUSH0 REVERT JUMPDEST PUSH0 PUSH0 REVERT JUMPDEST PUSH0 PUSH0 REVERT JUMPDEST PUSH0 PUSH1 0x1F NOT PUSH1 0x1F DUP4 ADD AND SWAP1 POP SWAP2 SWAP1 POP JUMP JUMPDEST PUSH32 0x4E487B7100000000000000000000000000000000000000000000000000000000 PUSH0 MSTORE PUSH1 0x41 PUSH1 0x4 MSTORE PUSH1 0x24 PUSH0 REVERT JUMPDEST PUSH2 0x672 DUP3 PUSH2 0x62C JUMP JUMPDEST DUP2 ADD DUP2 DUP2 LT PUSH8 0xFFFFFFFFFFFFFFFF DUP3 GT OR ISZERO PUSH2 0x691 JUMPI PUSH2 0x690 PUSH2 0x63C JUMP JUMPDEST JUMPDEST DUP1 PUSH1 0x40 MSTORE POP POP POP JUMP JUMPDEST PUSH0 PUSH2 0x6A3 PUSH2 0x613 JUMP JUMPDEST SWAP1 POP PUSH2 0x6AF DUP3 DUP3 PUSH2 0x669 JUMP JUMPDEST SWAP2 SWAP1 POP JUMP JUMPDEST PUSH0 PUSH8 0xFFFFFFFFFFFFFFFF DUP3 GT ISZERO PUSH2 0x6CE JUMPI PUSH2 0x6CD PUSH2 0x63C JUMP JUMPDEST JUMPDEST PUSH2 0x6D7 DUP3 PUSH2 0x62C JUMP JUMPDEST SWAP1 POP PUSH1 0x20 DUP2 ADD SWAP1 POP SWAP2 SWAP1 POP JUMP JUMPDEST DUP3 DUP2 DUP4 CALLDATACOPY PUSH0 DUP4 DUP4 ADD MSTORE POP POP POP JUMP JUMPDEST PUSH0 PUSH2 0x704 PUSH2 0x6FF DUP5 PUSH2 0x6B4 JUMP JUMPDEST PUSH2 0x69A JUMP JUMPDEST SWAP1 POP DUP3 DUP2 MSTORE PUSH1 0x20 DUP2 ADD DUP5 DUP5 DUP5 ADD GT ISZERO PUSH2 0x720 JUMPI PUSH2 0x71F PUSH2 0x628 JUMP JUMPDEST JUMPDEST PUSH2 0x72B DUP5 DUP3 DUP6 PUSH2 0x6E4 JUMP JUMPDEST POP SWAP4 SWAP3 POP POP POP JUMP JUMPDEST PUSH0 DUP3 PUSH1 0x1F DUP4 ADD SLT PUSH2 0x747 JUMPI PUSH2 0x746 PUSH2 0x624 JUMP JUMPDEST JUMPDEST DUP2 CALLDATALOAD PUSH2 0x757 DUP5 DUP3 PUSH1 0x20 DUP7 ADD PUSH2 0x6F2 JUMP JUMPDEST SWAP2 POP POP SWAP3 SWAP2 POP POP JUMP JUMPDEST PUSH0 PUSH1 0x20 DUP3 DUP5 SUB SLT ISZERO PUSH2 0x775 JUMPI PUSH2 0x774 PUSH2 0x61C JUMP JUMPDEST JUMPDEST PUSH0 DUP3 ADD CALLDATALOAD PUSH8 0xFFFFFFFFFFFFFFFF DUP2 GT ISZERO PUSH2 0x792 JUMPI PUSH2 0x791 PUSH2 0x620 JUMP JUMPDEST JUMPDEST PUSH2 0x79E DUP5 DUP3 DUP6 ADD PUSH2 0x733 JUMP JUMPDEST SWAP2 POP POP SWAP3 SWAP2 POP POP JUMP JUMPDEST PUSH0 DUP2 SWAP1 POP SWAP2 SWAP1 POP JUMP JUMPDEST PUSH2 0x7B9 DUP2 PUSH2 0x7A7 JUMP JUMPDEST DUP3 MSTORE POP POP JUMP JUMPDEST PUSH0 PUSH1 0x20 DUP3 ADD SWAP1 POP PUSH2 0x7D2 PUSH0 DUP4 ADD DUP5 PUSH2 0x7B0 JUMP JUMPDEST SWAP3 SWAP2 POP POP JUMP JUMPDEST PUSH0 DUP2 MLOAD SWAP1 POP SWAP2 SWAP1 POP JUMP JUMPDEST PUSH0 DUP3 DUP3 MSTORE PUSH1 0x20 DUP3 ADD SWAP1 POP SWAP3 SWAP2 POP POP JUMP JUMPDEST DUP3 DUP2 DUP4 MCOPY PUSH0 DUP4 DUP4 ADD MSTORE POP POP POP JUMP JUMPDEST PUSH0 PUSH2 0x80A DUP3 PUSH2 0x7D8 JUMP JUMPDEST PUSH2 0x814 DUP2 DUP6 PUSH2 0x7E2 JUMP JUMPDEST SWAP4 POP PUSH2 0x824 DUP2 DUP6 PUSH1 0x20 DUP7 ADD PUSH2 0x7F2 JUMP JUMPDEST PUSH2 0x82D DUP2 PUSH2 0x62C JUMP JUMPDEST DUP5 ADD SWAP2 POP POP SWAP3 SWAP2 POP POP JUMP JUMPDEST PUSH0 PUSH1 0x20 DUP3 ADD SWAP1 POP DUP2 DUP2 SUB PUSH0 DUP4 ADD MSTORE PUSH2 0x850 DUP2 DUP5 PUSH2 0x800 JUMP JUMPDEST SWAP1 POP SWAP3 SWAP2 POP POP JUMP JUMPDEST PUSH0 PUSH1 0x5 SWAP1 POP SWAP2 SWAP1 POP JUMP JUMPDEST PUSH0 DUP2 SWAP1 POP SWAP3 SWAP2 POP POP JUMP JUMPDEST PUSH0 DUP2 SWAP1 POP SWAP2 SWAP1 POP JUMP JUMPDEST PUSH2 0x87E DUP2 PUSH2 0x7A7 JUMP JUMPDEST DUP3 MSTORE POP POP JUMP JUMPDEST PUSH0 PUSH2 0x88F DUP4 DUP4 PUSH2 0x875 JUMP JUMPDEST PUSH1 0x20 DUP4 ADD SWAP1 POP SWAP3 SWAP2 POP POP JUMP JUMPDEST PUSH0 PUSH1 0x20 DUP3 ADD SWAP1 POP SWAP2 SWAP1 POP JUMP JUMPDEST PUSH2 0x8B0 DUP2 PUSH2 0x858 JUMP JUMPDEST PUSH2 0x8BA DUP2 DUP5 PUSH2 0x862 JUMP JUMPDEST SWAP3 POP PUSH2 0x8C5 DUP3 PUSH2 0x86C JUMP JUMPDEST DUP1 PUSH0 JUMPDEST DUP4 DUP2 LT ISZERO PUSH2 0x8F5 JUMPI DUP2 MLOAD PUSH2 0x8DC DUP8 DUP3 PUSH2 0x884 JUMP JUMPDEST SWAP7 POP PUSH2 0x8E7 DUP4 PUSH2 0x89B JUMP JUMPDEST SWAP3 POP POP PUSH1 0x1 DUP2 ADD SWAP1 POP PUSH2 0x8C8 JUMP JUMPDEST POP POP POP POP POP POP JUMP JUMPDEST PUSH0 PUSH1 0xA0 DUP3 ADD SWAP1 POP PUSH2 0x910 PUSH0 DUP4 ADD DUP5 PUSH2 0x8A7 JUMP JUMPDEST SWAP3 SWAP2 POP POP JUMP JUMPDEST PUSH32 0x4E487B7100000000000000000000000000000000000000000000000000000000 PUSH0 MSTORE PUSH1 0x32 PUSH1 0x4 MSTORE PUSH1 0x24 PUSH0 REVERT JUMPDEST PUSH32 0x4E487B7100000000000000000000000000000000000000000000000000000000 PUSH0 MSTORE PUSH1 0x11 PUSH1 0x4 MSTORE PUSH1 0x24 PUSH0 REVERT JUMPDEST PUSH0 PUSH2 0x97A DUP3 PUSH2 0x7A7 JUMP JUMPDEST SWAP2 POP PUSH2 0x985 DUP4 PUSH2 0x7A7 JUMP JUMPDEST SWAP3 POP DUP3 DUP3 SUB SWAP1 POP DUP2 DUP2 GT ISZERO PUSH2 0x99D JUMPI PUSH2 0x99C PUSH2 0x943 JUMP JUMPDEST JUMPDEST SWAP3 SWAP2 POP POP JUMP JUMPDEST PUSH0 PUSH2 0x9AD DUP3 PUSH2 0x7A7 JUMP JUMPDEST SWAP2 POP PUSH2 0x9B8 DUP4 PUSH2 0x7A7 JUMP JUMPDEST SWAP3 POP DUP3 DUP3 ADD SWAP1 POP DUP1 DUP3 GT ISZERO PUSH2 0x9D0 JUMPI PUSH2 0x9CF PUSH2 0x943 JUMP JUMPDEST JUMPDEST SWAP3 SWAP2 POP POP JUMP JUMPDEST PUSH32 0x496E76616C696420526F6D616E206E756D6572616C2063686172616374657200 PUSH0 DUP3 ADD MSTORE POP JUMP JUMPDEST PUSH0 PUSH2 0xA0A PUSH1 0x1F DUP4 PUSH2 0x7E2 JUMP JUMPDEST SWAP2 POP PUSH2 0xA15 DUP3 PUSH2 0x9D6 JUMP JUMPDEST PUSH1 0x20 DUP3 ADD SWAP1 POP SWAP2 SWAP1 POP JUMP JUMPDEST PUSH0 PUSH1 0x20 DUP3 ADD SWAP1 POP DUP2 DUP2 SUB PUSH0 DUP4 ADD MSTORE PUSH2 0xA37 DUP2 PUSH2 0x9FE JUMP JUMPDEST SWAP1 POP SWAP2 SWAP1 POP JUMP INVALID 0x4D RETURNDATASIZE BALANCE ADDRESS ADDRESS ADDRESS 0x2C KECCAK256 NUMBER 0x4D RETURNDATASIZE CODECOPY ADDRESS ADDRESS 0x2C KECCAK256 PC NUMBER RETURNDATASIZE CODECOPY ADDRESS 0x2C KECCAK256 BLOBHASH JUMP RETURNDATASIZE CALLVALUE KECCAK256 RETURNDATASIZE RETURNDATACOPY KECCAK256 BALANCE ADDRESS ADDRESS ADDRESS 0x2B CODECOPY ADDRESS ADDRESS 0x2B CODECOPY ADDRESS 0x2B CALLVALUE RETURNDATASIZE BALANCE CODECOPY CODECOPY CALLVALUE LOG2 PUSH5 0x6970667358 0x22 SLT KECCAK256 PUSH16 0x401D87A8F5573A3C0609F5C35A4417E4 0xD4 MULMOD PUSH9 0x8BB7349BFEA9DF91F3 0x2F EXP SWAP16 PUSH5 0x736F6C6343 STOP ADDMOD 0x1E STOP CALLER "
		},
		"gasEstimates": {
			"creation": {
				"codeDepositCost": "545000",
				"executionCost": "579",
				"totalCost": "545579"
			},
			"external": {
				"explainMCMXCIV()": "infinite",
				"romanToInt(string)": "infinite",
				"test()": "infinite"
			},
			"internal": {
				"_getValue(bytes1)": "infinite"
			}
		},
		"methodIdentifiers": {
			"explainMCMXCIV()": "eab28df9",
			"romanToInt(string)": "cb159dfe",
			"test()": "f8a8fd6d"
		}
	},
	"abi": [
		{
			"inputs": [],
			"name": "explainMCMXCIV",
			"outputs": [
				{
					"internalType": "string",
					"name": "",
					"type": "string"
				}
			],
			"stateMutability": "pure",
			"type": "function"
		},
		{
			"inputs": [
				{
					"internalType": "string",
					"name": "s",
					"type": "string"
				}
			],
			"name": "romanToInt",
			"outputs": [
				{
					"internalType": "uint256",
					"name": "",
					"type": "uint256"
				}
			],
			"stateMutability": "pure",
			"type": "function"
		},
		{
			"inputs": [],
			"name": "test",
			"outputs": [
				{
					"internalType": "uint256[5]",
					"name": "results",
					"type": "uint256[5]"
				}
			],
			"stateMutability": "pure",
			"type": "function"
		}
	]
}